{
  "_format": "hh-sol-artifact-1",
  "contractName": "ElectricityAuction",
  "sourceName": "contracts/energyContracts/ElectricityAuction.sol",
  "abi": [
    {
      "inputs": [
        {
          "internalType": "uint256",
          "name": "_kwhOffered",
          "type": "uint256"
        },
        {
          "internalType": "address",
          "name": "_auctioneer",
          "type": "address"
        },
        {
          "internalType": "bool",
          "name": "_isRenewable",
          "type": "bool"
        },
        {
          "internalType": "address",
          "name": "callerAddress",
          "type": "address"
        }
      ],
      "stateMutability": "nonpayable",
      "type": "constructor"
    },
    {
      "anonymous": false,
      "inputs": [],
      "name": "AuctionCollected",
      "type": "event"
    },
    {
      "anonymous": false,
      "inputs": [
        {
          "indexed": false,
          "internalType": "uint256",
          "name": "price",
          "type": "uint256"
        },
        {
          "indexed": false,
          "internalType": "address",
          "name": "winner",
          "type": "address"
        }
      ],
      "name": "AuctionEnded",
      "type": "event"
    },
    {
      "inputs": [],
      "name": "bid",
      "outputs": [],
      "stateMutability": "payable",
      "type": "function"
    },
    {
      "inputs": [],
      "name": "collect",
      "outputs": [],
      "stateMutability": "payable",
      "type": "function"
    },
    {
      "inputs": [],
      "name": "endAuction",
      "outputs": [],
      "stateMutability": "payable",
      "type": "function"
    },
    {
      "inputs": [
        {
          "internalType": "uint256",
          "name": "amountInKwH",
          "type": "uint256"
        }
      ],
      "name": "getPremium",
      "outputs": [
        {
          "internalType": "uint256",
          "name": "",
          "type": "uint256"
        }
      ],
      "stateMutability": "view",
      "type": "function"
    },
    {
      "inputs": [
        {
          "internalType": "uint256",
          "name": "amountInKwH",
          "type": "uint256"
        }
      ],
      "name": "getPrice",
      "outputs": [
        {
          "internalType": "uint256",
          "name": "",
          "type": "uint256"
        }
      ],
      "stateMutability": "view",
      "type": "function"
    },
    {
      "inputs": [],
      "name": "priceForThisAuction",
      "outputs": [
        {
          "internalType": "uint256",
          "name": "",
          "type": "uint256"
        }
      ],
      "stateMutability": "view",
      "type": "function"
    }
  ],
  "bytecode": "0x608060405260006003556000600460006101000a81548173ffffffffffffffffffffffffffffffffffffffff021916908373ffffffffffffffffffffffffffffffffffffffff1602179055506001600460146101000a81548160ff0219169083151502179055506000600760146101000a81548160ff0219169083151502179055503480156200008e57600080fd5b50604051620018de380380620018de8339818101604052810190620000b4919062000321565b8360058190555082600660006101000a81548173ffffffffffffffffffffffffffffffffffffffff021916908373ffffffffffffffffffffffffffffffffffffffff16021790555081600660146101000a81548160ff02191690831515021790555033600760006101000a81548173ffffffffffffffffffffffffffffffffffffffff021916908373ffffffffffffffffffffffffffffffffffffffff160217905550806000806101000a81548173ffffffffffffffffffffffffffffffffffffffff021916908373ffffffffffffffffffffffffffffffffffffffff16021790555060008054906101000a900473ffffffffffffffffffffffffffffffffffffffff1673ffffffffffffffffffffffffffffffffffffffff16632c8a75266040518163ffffffff1660e01b81526004016040805180830381600087803b158015620001ff57600080fd5b505af115801562000214573d6000803e3d6000fd5b505050506040513d601f19601f820116820180604052508101906200023a9190620002f5565b600860008201518160000155602082015181600101559050505050505062000488565b6000815190506200026e816200043a565b92915050565b600081519050620002858162000454565b92915050565b6000604082840312156200029e57600080fd5b620002aa60406200038d565b90506000620002bc84828501620002de565b6000830152506020620002d284828501620002de565b60208301525092915050565b600081519050620002ef816200046e565b92915050565b6000604082840312156200030857600080fd5b600062000318848285016200028b565b91505092915050565b600080600080608085870312156200033857600080fd5b60006200034887828801620002de565b94505060206200035b878288016200025d565b93505060406200036e8782880162000274565b925050606062000381878288016200025d565b91505092959194509250565b6000604051905081810181811067ffffffffffffffff82111715620003b757620003b66200040b565b5b8060405250919050565b6000620003ce82620003e1565b9050919050565b60008115159050919050565b600073ffffffffffffffffffffffffffffffffffffffff82169050919050565b6000819050919050565b7f4e487b7100000000000000000000000000000000000000000000000000000000600052604160045260246000fd5b6200044581620003c1565b81146200045157600080fd5b50565b6200045f81620003d5565b81146200046b57600080fd5b50565b620004798162000401565b81146200048557600080fd5b50565b61144680620004986000396000f3fe6080604052600436106100555760003560e01c80631998aeef1461005a5780631bf1fffb146100645780639ed03b4c146100a1578063e5225381146100cc578063e7572230146100d6578063fe67a54b14610113575b600080fd5b61006261011d565b005b34801561007057600080fd5b5061008b60048036038101906100869190610da3565b6102b9565b60405161009891906110c3565b60405180910390f35b3480156100ad57600080fd5b506100b66102f0565b6040516100c391906110c3565b60405180910390f35b6100d46103ec565b005b3480156100e257600080fd5b506100fd60048036038101906100f89190610da3565b610860565b60405161010a91906110c3565b60405180910390f35b61011b61088a565b005b600460149054906101000a900460ff1661016c576040517f08c379a000000000000000000000000000000000000000000000000000000000815260040161016390611083565b60405180910390fd5b6000610179600554610860565b90508034101561018857600080fd5b60405180604001604052803373ffffffffffffffffffffffffffffffffffffffff168152602001600554346101bd919061116e565b815250600160003373ffffffffffffffffffffffffffffffffffffffff1673ffffffffffffffffffffffffffffffffffffffff16815260200190815260200160002060008201518160000160006101000a81548173ffffffffffffffffffffffffffffffffffffffff021916908373ffffffffffffffffffffffffffffffffffffffff160217905550602082015181600101559050506002339080600181540180825580915050600190039060005260206000200160009091909190916101000a81548173ffffffffffffffffffffffffffffffffffffffff021916908373ffffffffffffffffffffffffffffffffffffffff16021790555050565b60006103e8600860000154600860010154846102d5919061119f565b6102df919061119f565b6102e9919061116e565b9050919050565b6000600460149054906101000a900460ff1615610342576040517f08c379a000000000000000000000000000000000000000000000000000000000815260040161033990611043565b60405180910390fd5b3073ffffffffffffffffffffffffffffffffffffffff16631bf1fffb6005546040518263ffffffff1660e01b815260040161037d91906110c3565b60206040518083038186803b15801561039557600080fd5b505afa1580156103a9573d6000803e3d6000fd5b505050506040513d601f19601f820116820180604052508101906103cd9190610dcc565b6003546005546103dd919061119f565b6103e79190611118565b905090565b600460149054906101000a900460ff161561043c576040517f08c379a000000000000000000000000000000000000000000000000000000000815260040161043390611043565b60405180910390fd5b600460009054906101000a900473ffffffffffffffffffffffffffffffffffffffff1673ffffffffffffffffffffffffffffffffffffffff163373ffffffffffffffffffffffffffffffffffffffff16146104cc576040517f08c379a00000000000000000000000000000000000000000000000000000000081526004016104c390611023565b60405180910390fd5b6000600160003373ffffffffffffffffffffffffffffffffffffffff1673ffffffffffffffffffffffffffffffffffffffff1681526020019081526020016000206001015460055461051e919061119f565b9050600061052d600554610860565b90506000348361053d9190611118565b8261054891906111f9565b9050600081131561058e576040517f08c379a0000000000000000000000000000000000000000000000000000000008152600401610585906110a3565b60405180910390fd5b60008112156105f2576000816105a390611352565b90503373ffffffffffffffffffffffffffffffffffffffff166108fc829081150290604051600060405180830381858888f193505050501580156105eb573d6000803e3d6000fd5b5050610814565b600660149054906101000a900460ff161561072757600660009054906101000a900473ffffffffffffffffffffffffffffffffffffffff1673ffffffffffffffffffffffffffffffffffffffff166108fc839081150290604051600060405180830381858888f1935050505015801561066f573d6000803e3d6000fd5b50600760009054906101000a900473ffffffffffffffffffffffffffffffffffffffff1673ffffffffffffffffffffffffffffffffffffffff16627d0275600660009054906101000a900473ffffffffffffffffffffffffffffffffffffffff166005546040518363ffffffff1660e01b81526004016106f0929190610ffa565b600060405180830381600087803b15801561070a57600080fd5b505af115801561071e573d6000803e3d6000fd5b50505050610813565b600660009054906101000a900473ffffffffffffffffffffffffffffffffffffffff1673ffffffffffffffffffffffffffffffffffffffff166108fc600554600354610773919061119f565b9081150290604051600060405180830381858888f1935050505015801561079e573d6000803e3d6000fd5b50600760009054906101000a900473ffffffffffffffffffffffffffffffffffffffff1673ffffffffffffffffffffffffffffffffffffffff166108fc6107e66005546102b9565b9081150290604051600060405180830381858888f19350505050158015610811573d6000803e3d6000fd5b505b5b6001600760146101000a81548160ff0219169083151502179055507fdb8bc8d7abd54b4079284b6bf241a2f0ab8497993ab1cf3df37b3a5af1214b4560405160405180910390a1505050565b600061086b826102b9565b82600354610879919061119f565b6108839190611118565b9050919050565b600760009054906101000a900473ffffffffffffffffffffffffffffffffffffffff1673ffffffffffffffffffffffffffffffffffffffff163373ffffffffffffffffffffffffffffffffffffffff161461091a576040517f08c379a000000000000000000000000000000000000000000000000000000000815260040161091190611063565b60405180910390fd5b6000600460146101000a81548160ff021916908315150217905550600080610940610d49565b60005b600280549050811015610afa57600160006002838154811061098e577f4e487b7100000000000000000000000000000000000000000000000000000000600052603260045260246000fd5b9060005260206000200160009054906101000a900473ffffffffffffffffffffffffffffffffffffffff1673ffffffffffffffffffffffffffffffffffffffff1673ffffffffffffffffffffffffffffffffffffffff1681526020019081526020016000206040518060400160405290816000820160009054906101000a900473ffffffffffffffffffffffffffffffffffffffff1673ffffffffffffffffffffffffffffffffffffffff1673ffffffffffffffffffffffffffffffffffffffff168152602001600182015481525050915060008260000151905060008360200151905085811115610ac65781600460006101000a81548173ffffffffffffffffffffffffffffffffffffffff021916908373ffffffffffffffffffffffffffffffffffffffff160217905550859450809550610ade565b8481118015610ad457508581105b15610add578094505b5b8460038190555050508080610af290611309565b915050610943565b5060005b600280549050811015610ce6576001600060028381548110610b49577f4e487b7100000000000000000000000000000000000000000000000000000000600052603260045260246000fd5b9060005260206000200160009054906101000a900473ffffffffffffffffffffffffffffffffffffffff1673ffffffffffffffffffffffffffffffffffffffff1673ffffffffffffffffffffffffffffffffffffffff1681526020019081526020016000206040518060400160405290816000820160009054906101000a900473ffffffffffffffffffffffffffffffffffffffff1673ffffffffffffffffffffffffffffffffffffffff1673ffffffffffffffffffffffffffffffffffffffff1681526020016001820154815250509150600082600001519050600460009054906101000a900473ffffffffffffffffffffffffffffffffffffffff1673ffffffffffffffffffffffffffffffffffffffff168173ffffffffffffffffffffffffffffffffffffffff1614610cd2578073ffffffffffffffffffffffffffffffffffffffff166108fc6005548560200151610ca5919061119f565b9081150290604051600060405180830381858888f19350505050158015610cd0573d6000803e3d6000fd5b505b508080610cde90611309565b915050610afe565b507fc07789fac136048b605fef8e227ab89b2e33d8afc9ab4817d374197cd81443d6600354600460009054906101000a900473ffffffffffffffffffffffffffffffffffffffff16604051610d3c9291906110de565b60405180910390a1505050565b6040518060400160405280600073ffffffffffffffffffffffffffffffffffffffff168152602001600081525090565b600081359050610d88816113f9565b92915050565b600081519050610d9d816113f9565b92915050565b600060208284031215610db557600080fd5b6000610dc384828501610d79565b91505092915050565b600060208284031215610dde57600080fd5b6000610dec84828501610d8e565b91505092915050565b610dfe816112d3565b82525050565b610e0d8161128d565b82525050565b6000610e20602e83611107565b91507f4f6e6c79207468652077696e6e65722063616e20636f6c6c656374207468652060008301527f61756374696f6e2070726963652e0000000000000000000000000000000000006020830152604082019050919050565b6000610e86603583611107565b91507f46756e6374696f6e2063616e206f6e6c7920626520657865637574656420776860008301527f656e2061756374696f6e2068617320656e6465642e00000000000000000000006020830152604082019050919050565b6000610eec602a83611107565b91507f46756e6374696f6e2063616e206f6e6c7920626520696e766f6b65642062792060008301527f746865206f776e65722c000000000000000000000000000000000000000000006020830152604082019050919050565b6000610f52603583611107565b91507f46756e6374696f6e2063616e206f6e6c7920626520657865637574656420776860008301527f656e2061756374696f6e206973206163746976652e00000000000000000000006020830152604082019050919050565b6000610fb8601583611107565b91507f496e73756666696369656e742062616c616e63652e00000000000000000000006000830152602082019050919050565b610ff4816112c9565b82525050565b600060408201905061100f6000830185610df5565b61101c6020830184610feb565b9392505050565b6000602082019050818103600083015261103c81610e13565b9050919050565b6000602082019050818103600083015261105c81610e79565b9050919050565b6000602082019050818103600083015261107c81610edf565b9050919050565b6000602082019050818103600083015261109c81610f45565b9050919050565b600060208201905081810360008301526110bc81610fab565b9050919050565b60006020820190506110d86000830184610feb565b92915050565b60006040820190506110f36000830185610feb565b6111006020830184610e04565b9392505050565b600082825260208201905092915050565b6000611123826112c9565b915061112e836112c9565b9250827fffffffffffffffffffffffffffffffffffffffffffffffffffffffffffffffff038211156111635761116261139b565b5b828201905092915050565b6000611179826112c9565b9150611184836112c9565b925082611194576111936113ca565b5b828204905092915050565b60006111aa826112c9565b91506111b5836112c9565b9250817fffffffffffffffffffffffffffffffffffffffffffffffffffffffffffffffff04831182151516156111ee576111ed61139b565b5b828202905092915050565b60006112048261129f565b915061120f8361129f565b9250827f80000000000000000000000000000000000000000000000000000000000000000182126000841215161561124a5761124961139b565b5b827f7fffffffffffffffffffffffffffffffffffffffffffffffffffffffffffffff0182136000841216156112825761128161139b565b5b828203905092915050565b6000611298826112a9565b9050919050565b6000819050919050565b600073ffffffffffffffffffffffffffffffffffffffff82169050919050565b6000819050919050565b60006112de826112e5565b9050919050565b60006112f0826112f7565b9050919050565b6000611302826112a9565b9050919050565b6000611314826112c9565b91507fffffffffffffffffffffffffffffffffffffffffffffffffffffffffffffffff8214156113475761134661139b565b5b600182019050919050565b600061135d8261129f565b91507f80000000000000000000000000000000000000000000000000000000000000008214156113905761138f61139b565b5b816000039050919050565b7f4e487b7100000000000000000000000000000000000000000000000000000000600052601160045260246000fd5b7f4e487b7100000000000000000000000000000000000000000000000000000000600052601260045260246000fd5b611402816112c9565b811461140d57600080fd5b5056fea2646970667358221220d1f6805c3f49b04db77a290f97ac51c6ef8fcf734f9e842630f6d707deaffa3e64736f6c63430008000033",
  "linkReferences": {},
  "deployedLinkReferences": {}
}