{
  "_format": "hh-sol-artifact-1",
  "contractName": "ElectricityTradingHub",
  "sourceName": "contracts/ElectricityTradingHub.sol",
  "abi": [
    {
      "inputs": [],
      "stateMutability": "nonpayable",
      "type": "constructor"
    },
    {
      "inputs": [
        {
          "internalType": "uint32",
          "name": "amountInKwH",
          "type": "uint32"
        }
      ],
      "name": "consume",
      "outputs": [],
      "stateMutability": "payable",
      "type": "function"
    },
    {
      "inputs": [
        {
          "internalType": "uint32",
          "name": "kwhAmount",
          "type": "uint32"
        },
        {
          "internalType": "bool",
          "name": "isRenewable",
          "type": "bool"
        }
      ],
      "name": "provide",
      "outputs": [],
      "stateMutability": "nonpayable",
      "type": "function"
    }
  ],
  "bytecode": "0x6080604052611f40600060146101000a81548161ffff021916908361ffff16021790555060e9600060166101000a81548161ffff021916908361ffff160217905550601e600060186101000a81548161ffff021916908361ffff16021790555034801561006b57600080fd5b5033604051610079906100e4565b6100839190610100565b604051809103906000f08015801561009f573d6000803e3d6000fd5b506000806101000a81548173ffffffffffffffffffffffffffffffffffffffff021916908373ffffffffffffffffffffffffffffffffffffffff16021790555061014d565b610b0480610d0983390190565b6100fa8161011b565b82525050565b600060208201905061011560008301846100f1565b92915050565b60006101268261012d565b9050919050565b600073ffffffffffffffffffffffffffffffffffffffff82169050919050565b610bad8061015c6000396000f3fe6080604052600436106100295760003560e01c8063878eae841461002e578063f62a5ba61461004a575b600080fd5b61004860048036038101906100439190610796565b610073565b005b34801561005657600080fd5b50610071600480360381019061006c91906107bf565b610385565b005b600061007e826103d0565b63ffffffff1690508034101561009357600080fd5b600060016002015490505b60016003015481111580156100ba575060008363ffffffff1610155b156103805760018001600082815260200190815260200160002060009054906101000a900460ff16610121576040517f08c379a000000000000000000000000000000000000000000000000000000000815260040161011890610908565b60405180910390fd5b600061012b61040c565b90506000808260200151866101409190610a16565b63ffffffff161061016957816020015190508160200151856101629190610a16565b945061019d565b84905084826020015161017c9190610a16565b826020019063ffffffff16908163ffffffff168152505061019c82610595565b5b6000826040015115610297576101b2866103d0565b9050826000015173ffffffffffffffffffffffffffffffffffffffff166108fc8263ffffffff169081150290604051600060405180830381858888f19350505050158015610204573d6000803e3d6000fd5b5060008054906101000a900473ffffffffffffffffffffffffffffffffffffffff1673ffffffffffffffffffffffffffffffffffffffff1663f005a03233846040518363ffffffff1660e01b81526004016102609291906108bf565b600060405180830381600087803b15801561027a57600080fd5b505af115801561028e573d6000803e3d6000fd5b5050505061036a565b600060189054906101000a900461ffff1661ffff16866102b791906109a4565b9050826000015173ffffffffffffffffffffffffffffffffffffffff166108fc8263ffffffff169081150290604051600060405180830381858888f19350505050158015610309573d6000803e3d6000fd5b506000610315836106b1565b9050836000015173ffffffffffffffffffffffffffffffffffffffff166108fc8263ffffffff169081150290604051600060405180830381858888f19350505050158015610367573d6000803e3d6000fd5b50505b505050808061037890610aa2565b91505061009e565b505050565b600060405180606001604052803373ffffffffffffffffffffffffffffffffffffffff1681526020018463ffffffff16815260200183151581525090506103cb81610595565b505050565b60006103db826106b1565b600060189054906101000a900461ffff1661ffff16836103fb91906109a4565b6104059190610939565b9050919050565b61041461072d565b61041c610706565b1561045c576040517f08c379a0000000000000000000000000000000000000000000000000000000008152600401610453906108e8565b60405180910390fd5b6000600160020154905060018001600082815260200190815260200160002060006101000a81549060ff0219169055600160020160008154809291906104a190610aa2565b9190505550600160000181815481106104e3577f4e487b7100000000000000000000000000000000000000000000000000000000600052603260045260246000fd5b906000526020600020016040518060600160405290816000820160009054906101000a900473ffffffffffffffffffffffffffffffffffffffff1673ffffffffffffffffffffffffffffffffffffffff1673ffffffffffffffffffffffffffffffffffffffff1681526020016000820160149054906101000a900463ffffffff1663ffffffff1663ffffffff1681526020016000820160189054906101000a900460ff16151515158152505091505090565b6001600001819080600181540180825580915050600190039060005260206000200160009091909190915060008201518160000160006101000a81548173ffffffffffffffffffffffffffffffffffffffff021916908373ffffffffffffffffffffffffffffffffffffffff16021790555060208201518160000160146101000a81548163ffffffff021916908363ffffffff16021790555060408201518160000160186101000a81548160ff021916908315150217905550505060018060010160006001806000018054905061066c91906109e2565b815260200190815260200160002060006101000a81548160ff021916908315150217905550600180600001805490506106a591906109e2565b60016003018190555050565b60006103e8600060169054906101000a900461ffff1661ffff16600060149054906101000a900461ffff1661ffff16846106eb91906109a4565b6106f591906109a4565b6106ff9190610973565b9050919050565b6000600160030154600160020154118061072857506000600160000180549050145b905090565b6040518060600160405280600073ffffffffffffffffffffffffffffffffffffffff168152602001600063ffffffff1681526020016000151581525090565b60008135905061077b81610b49565b92915050565b60008135905061079081610b60565b92915050565b6000602082840312156107a857600080fd5b60006107b684828501610781565b91505092915050565b600080604083850312156107d257600080fd5b60006107e085828601610781565b92505060206107f18582860161076c565b9150509250929050565b61080481610a4a565b82525050565b6000610817600e83610928565b91507f517565756520697320656d7074790000000000000000000000000000000000006000830152602082019050919050565b6000610857602b83610928565b91507f4e6f7420656e6f75676820656e657267792070726f76696465727320696e207460008301527f6865206e6574776f726b2e0000000000000000000000000000000000000000006020830152604082019050919050565b6108b981610a92565b82525050565b60006040820190506108d460008301856107fb565b6108e160208301846108b0565b9392505050565b600060208201905081810360008301526109018161080a565b9050919050565b600060208201905081810360008301526109218161084a565b9050919050565b600082825260208201905092915050565b600061094482610a92565b915061094f83610a92565b92508263ffffffff0382111561096857610967610aeb565b5b828201905092915050565b600061097e82610a92565b915061098983610a92565b92508261099957610998610b1a565b5b828204905092915050565b60006109af82610a92565b91506109ba83610a92565b92508163ffffffff04831182151516156109d7576109d6610aeb565b5b828202905092915050565b60006109ed82610a88565b91506109f883610a88565b925082821015610a0b57610a0a610aeb565b5b828203905092915050565b6000610a2182610a92565b9150610a2c83610a92565b925082821015610a3f57610a3e610aeb565b5b828203905092915050565b6000610a5582610a68565b9050919050565b60008115159050919050565b600073ffffffffffffffffffffffffffffffffffffffff82169050919050565b6000819050919050565b600063ffffffff82169050919050565b6000610aad82610a88565b91507fffffffffffffffffffffffffffffffffffffffffffffffffffffffffffffffff821415610ae057610adf610aeb565b5b600182019050919050565b7f4e487b7100000000000000000000000000000000000000000000000000000000600052601160045260246000fd5b7f4e487b7100000000000000000000000000000000000000000000000000000000600052601260045260246000fd5b610b5281610a5c565b8114610b5d57600080fd5b50565b610b6981610a92565b8114610b7457600080fd5b5056fea2646970667358221220da263a6e7654dac3bd7925a71edc3098f0353426da0b130c7210f4782da8ab7a64736f6c63430008000033608060405234801561001057600080fd5b50604051610b04380380610b04833981810160405281019061003291906100cf565b80600260046101000a81548173ffffffffffffffffffffffffffffffffffffffff021916908373ffffffffffffffffffffffffffffffffffffffff16021790555033600360006101000a81548173ffffffffffffffffffffffffffffffffffffffff021916908373ffffffffffffffffffffffffffffffffffffffff16021790555050610141565b6000815190506100c98161012a565b92915050565b6000602082840312156100e157600080fd5b60006100ef848285016100ba565b91505092915050565b60006101038261010a565b9050919050565b600073ffffffffffffffffffffffffffffffffffffffff82169050919050565b610133816100f8565b811461013e57600080fd5b50565b6109b4806101506000396000f3fe6080604052600436106100295760003560e01c8063e4fc6b6d1461002e578063f005a03214610038575b600080fd5b610036610061565b005b34801561004457600080fd5b5061005f600480360381019061005a919061063f565b61035d565b005b600260049054906101000a900473ffffffffffffffffffffffffffffffffffffffff1673ffffffffffffffffffffffffffffffffffffffff163373ffffffffffffffffffffffffffffffffffffffff16146100f1576040517f08c379a00000000000000000000000000000000000000000000000000000000081526004016100e890610747565b60405180910390fd5b600047905060005b6000805490508110156102b1576000808281548110610141577f4e487b7100000000000000000000000000000000000000000000000000000000600052603260045260246000fd5b9060005260206000200160009054906101000a900473ffffffffffffffffffffffffffffffffffffffff1690506000600160008373ffffffffffffffffffffffffffffffffffffffff1673ffffffffffffffffffffffffffffffffffffffff16815260200190815260200160002060009054906101000a900463ffffffff1690506000600260009054906101000a900463ffffffff16826101e291906107d2565b90508273ffffffffffffffffffffffffffffffffffffffff166108fc8263ffffffff16876102109190610803565b9081150290604051600060405180830381858888f1935050505015801561023b573d6000803e3d6000fd5b506000600160008573ffffffffffffffffffffffffffffffffffffffff1673ffffffffffffffffffffffffffffffffffffffff16815260200190815260200160002060006101000a81548163ffffffff021916908363ffffffff16021790555050505080806102a9906108a9565b9150506100f9565b506000600260006101000a81548163ffffffff021916908363ffffffff160217905550600067ffffffffffffffff811115610315577f4e487b7100000000000000000000000000000000000000000000000000000000600052604160045260246000fd5b6040519080825280602002602001820160405280156103435781602001602082028036833780820191505090505b506000908051906020019061035992919061056e565b5050565b600360009054906101000a900473ffffffffffffffffffffffffffffffffffffffff1673ffffffffffffffffffffffffffffffffffffffff163373ffffffffffffffffffffffffffffffffffffffff16146103ed576040517f08c379a00000000000000000000000000000000000000000000000000000000081526004016103e490610767565b60405180910390fd5b80600260008282829054906101000a900463ffffffff1661040e9190610798565b92506101000a81548163ffffffff021916908363ffffffff1602179055506000600160008473ffffffffffffffffffffffffffffffffffffffff1673ffffffffffffffffffffffffffffffffffffffff16815260200190815260200160002060009054906101000a900463ffffffff1663ffffffff1614156104ee576000829080600181540180825580915050600190039060005260206000200160009091909190916101000a81548173ffffffffffffffffffffffffffffffffffffffff021916908373ffffffffffffffffffffffffffffffffffffffff1602179055505b80600160008473ffffffffffffffffffffffffffffffffffffffff1673ffffffffffffffffffffffffffffffffffffffff16815260200190815260200160002060008282829054906101000a900463ffffffff1661054c9190610798565b92506101000a81548163ffffffff021916908363ffffffff1602179055505050565b8280548282559060005260206000209081019282156105e7579160200282015b828111156105e65782518260006101000a81548173ffffffffffffffffffffffffffffffffffffffff021916908373ffffffffffffffffffffffffffffffffffffffff1602179055509160200191906001019061058e565b5b5090506105f491906105f8565b5090565b5b808211156106115760008160009055506001016105f9565b5090565b60008135905061062481610950565b92915050565b60008135905061063981610967565b92915050565b6000806040838503121561065257600080fd5b600061066085828601610615565b92505060206106718582860161062a565b9150509250929050565b6000610688603283610787565b91507f4f6e6c79207468652064697374726962757465722063616e207472696767657260008301527f2074686520646973747269627574696f6e2e00000000000000000000000000006020830152604082019050919050565b60006106ee602e83610787565b91507f4f6e6c792074686520636f6e7472616374206f776e65722063616e2063616c6c60008301527f20746869732066756e6374696f6e0000000000000000000000000000000000006020830152604082019050919050565b600060208201905081810360008301526107608161067b565b9050919050565b60006020820190508181036000830152610780816106e1565b9050919050565b600082825260208201905092915050565b60006107a382610899565b91506107ae83610899565b92508263ffffffff038211156107c7576107c66108f2565b5b828201905092915050565b60006107dd82610899565b91506107e883610899565b9250826107f8576107f7610921565b5b828204905092915050565b600061080e8261088f565b91506108198361088f565b9250817fffffffffffffffffffffffffffffffffffffffffffffffffffffffffffffffff0483118215151615610852576108516108f2565b5b828202905092915050565b60006108688261086f565b9050919050565b600073ffffffffffffffffffffffffffffffffffffffff82169050919050565b6000819050919050565b600063ffffffff82169050919050565b60006108b48261088f565b91507fffffffffffffffffffffffffffffffffffffffffffffffffffffffffffffffff8214156108e7576108e66108f2565b5b600182019050919050565b7f4e487b7100000000000000000000000000000000000000000000000000000000600052601160045260246000fd5b7f4e487b7100000000000000000000000000000000000000000000000000000000600052601260045260246000fd5b6109598161085d565b811461096457600080fd5b50565b61097081610899565b811461097b57600080fd5b5056fea26469706673582212203de64e4f7bc877628958263c679f02178daee9df7d8065586928c1fe2a2fcb1264736f6c63430008000033",
  "linkReferences": {},
  "deployedLinkReferences": {}
}