{
  "_format": "hh-sol-artifact-1",
  "contractName": "ElectricityTradingHub",
  "sourceName": "contracts/energyContracts/ElectricityTradingHub.sol",
  "abi": [
    {
      "inputs": [],
      "stateMutability": "payable",
      "type": "constructor"
    },
    {
      "anonymous": false,
      "inputs": [
        {
          "indexed": true,
          "internalType": "address",
          "name": "consumer",
          "type": "address"
        },
        {
          "indexed": true,
          "internalType": "address",
          "name": "provider",
          "type": "address"
        },
        {
          "indexed": false,
          "internalType": "uint32",
          "name": "kwhAmount",
          "type": "uint32"
        },
        {
          "indexed": false,
          "internalType": "bool",
          "name": "isRenewable",
          "type": "bool"
        },
        {
          "indexed": false,
          "internalType": "uint256",
          "name": "timestamp",
          "type": "uint256"
        }
      ],
      "name": "Consume",
      "type": "event"
    },
    {
      "anonymous": false,
      "inputs": [
        {
          "indexed": true,
          "internalType": "address",
          "name": "provider",
          "type": "address"
        },
        {
          "indexed": false,
          "internalType": "uint32",
          "name": "kwhAmount",
          "type": "uint32"
        },
        {
          "indexed": false,
          "internalType": "bool",
          "name": "isRenewable",
          "type": "bool"
        },
        {
          "indexed": false,
          "internalType": "uint256",
          "name": "timestamp",
          "type": "uint256"
        }
      ],
      "name": "Provide",
      "type": "event"
    },
    {
      "inputs": [
        {
          "internalType": "address",
          "name": "connectedAccount",
          "type": "address"
        },
        {
          "internalType": "uint32",
          "name": "amountInKwH",
          "type": "uint32"
        }
      ],
      "name": "consume",
      "outputs": [],
      "stateMutability": "payable",
      "type": "function"
    },
    {
      "inputs": [],
      "name": "dequeue",
      "outputs": [
        {
          "components": [
            {
              "internalType": "address payable",
              "name": "provider",
              "type": "address"
            },
            {
              "internalType": "uint32",
              "name": "kwhAmount",
              "type": "uint32"
            },
            {
              "internalType": "bool",
              "name": "isRenewable",
              "type": "bool"
            }
          ],
          "internalType": "struct ElectricityTradingHub.Provisioning",
          "name": "",
          "type": "tuple"
        }
      ],
      "stateMutability": "nonpayable",
      "type": "function"
    },
    {
      "inputs": [
        {
          "internalType": "address",
          "name": "",
          "type": "address"
        }
      ],
      "name": "energyBalance",
      "outputs": [
        {
          "internalType": "uint32",
          "name": "",
          "type": "uint32"
        }
      ],
      "stateMutability": "view",
      "type": "function"
    },
    {
      "inputs": [
        {
          "components": [
            {
              "internalType": "address payable",
              "name": "provider",
              "type": "address"
            },
            {
              "internalType": "uint32",
              "name": "kwhAmount",
              "type": "uint32"
            },
            {
              "internalType": "bool",
              "name": "isRenewable",
              "type": "bool"
            }
          ],
          "internalType": "struct ElectricityTradingHub.Provisioning",
          "name": "value",
          "type": "tuple"
        }
      ],
      "name": "enqueue",
      "outputs": [],
      "stateMutability": "nonpayable",
      "type": "function"
    },
    {
      "inputs": [
        {
          "internalType": "address",
          "name": "connectedAccount",
          "type": "address"
        }
      ],
      "name": "getAccountEnergyBalance",
      "outputs": [
        {
          "internalType": "uint32",
          "name": "",
          "type": "uint32"
        }
      ],
      "stateMutability": "view",
      "type": "function"
    },
    {
      "inputs": [],
      "name": "getCo2PricePerTonInCent",
      "outputs": [
        {
          "internalType": "uint16",
          "name": "",
          "type": "uint16"
        }
      ],
      "stateMutability": "view",
      "type": "function"
    },
    {
      "inputs": [],
      "name": "getGramCo2PerKwH",
      "outputs": [
        {
          "internalType": "uint16",
          "name": "",
          "type": "uint16"
        }
      ],
      "stateMutability": "view",
      "type": "function"
    },
    {
      "inputs": [
        {
          "internalType": "uint32",
          "name": "amountInKwH",
          "type": "uint32"
        }
      ],
      "name": "getPremium",
      "outputs": [
        {
          "internalType": "uint32",
          "name": "",
          "type": "uint32"
        }
      ],
      "stateMutability": "view",
      "type": "function"
    },
    {
      "inputs": [
        {
          "internalType": "uint32",
          "name": "amountInKwH",
          "type": "uint32"
        }
      ],
      "name": "getPriceInCents",
      "outputs": [
        {
          "internalType": "uint32",
          "name": "",
          "type": "uint32"
        }
      ],
      "stateMutability": "view",
      "type": "function"
    },
    {
      "inputs": [],
      "name": "getQueue",
      "outputs": [
        {
          "components": [
            {
              "internalType": "address payable",
              "name": "provider",
              "type": "address"
            },
            {
              "internalType": "uint32",
              "name": "kwhAmount",
              "type": "uint32"
            },
            {
              "internalType": "bool",
              "name": "isRenewable",
              "type": "bool"
            }
          ],
          "internalType": "struct ElectricityTradingHub.Provisioning[]",
          "name": "",
          "type": "tuple[]"
        }
      ],
      "stateMutability": "view",
      "type": "function"
    },
    {
      "inputs": [],
      "name": "getQueueLength",
      "outputs": [
        {
          "internalType": "uint256",
          "name": "",
          "type": "uint256"
        }
      ],
      "stateMutability": "view",
      "type": "function"
    },
    {
      "inputs": [],
      "name": "getSpotPriceInCent",
      "outputs": [
        {
          "internalType": "uint16",
          "name": "",
          "type": "uint16"
        }
      ],
      "stateMutability": "view",
      "type": "function"
    },
    {
      "inputs": [
        {
          "internalType": "address",
          "name": "connectedAccount",
          "type": "address"
        },
        {
          "internalType": "uint32",
          "name": "kwhAmount",
          "type": "uint32"
        },
        {
          "internalType": "bool",
          "name": "isRenewable",
          "type": "bool"
        }
      ],
      "name": "provide",
      "outputs": [],
      "stateMutability": "nonpayable",
      "type": "function"
    }
  ],
  "bytecode": "0x6080604052611f40600060146101000a81548161ffff021916908361ffff16021790555060e9600060166101000a81548161ffff021916908361ffff160217905550601e600060186101000a81548161ffff021916908361ffff160217905550336040516200006e90620000fd565b6200007a91906200011c565b604051809103906000f08015801562000097573d6000803e3d6000fd5b506000806101000a81548173ffffffffffffffffffffffffffffffffffffffff021916908373ffffffffffffffffffffffffffffffffffffffff16021790555060018060010181905550600060016002018190555060006001600301819055506200016d565b610b0480620017fb83390190565b620001168162000139565b82525050565b60006020820190506200013360008301846200010b565b92915050565b600062000146826200014d565b9050919050565b600073ffffffffffffffffffffffffffffffffffffffff82169050919050565b61167e806200017d6000396000f3fe6080604052600436106100c25760003560e01c8063a73547601161007f578063c67f915d11610059578063c67f915d14610271578063cb897e301461029a578063ed7653e7146102c3578063f3991cde14610300576100c2565b8063a7354760146101cc578063a8ec974a14610209578063b8f7700514610246576100c2565b806301fce27e146100c75780633a8c1460146100f25780633eba72781461010e5780636f61675214610139578063957908d114610164578063a099b1561461018f575b600080fd5b3480156100d357600080fd5b506100dc61032b565b6040516100e991906111d7565b60405180910390f35b61010c60048036038101906101079190610f1f565b6104d7565b005b34801561011a57600080fd5b50610123610941565b6040516101309190611234565b60405180910390f35b34801561014557600080fd5b5061014e610958565b60405161015b9190611234565b60405180910390f35b34801561017057600080fd5b5061017961096f565b6040516101869190611219565b60405180910390f35b34801561019b57600080fd5b506101b660048036038101906101b19190610fd3565b610b31565b6040516101c3919061126a565b60405180910390f35b3480156101d857600080fd5b506101f360048036038101906101ee9190610fd3565b610b86565b604051610200919061126a565b60405180910390f35b34801561021557600080fd5b50610230600480360381019061022b9190610ef6565b610bc2565b60405161023d919061126a565b60405180910390f35b34801561025257600080fd5b5061025b610c1b565b604051610268919061124f565b60405180910390f35b34801561027d57600080fd5b5061029860048036038101906102939190610faa565b610c43565b005b3480156102a657600080fd5b506102c160048036038101906102bc9190610f5b565b610d2b565b005b3480156102cf57600080fd5b506102ea60048036038101906102e59190610ef6565b610dc9565b6040516102f7919061126a565b60405180910390f35b34801561030c57600080fd5b50610315610dec565b6040516103229190611234565b60405180910390f35b6060600060016003015467ffffffffffffffff811115610374577f4e487b7100000000000000000000000000000000000000000000000000000000600052604160045260246000fd5b6040519080825280602002602001820160405280156103ad57816020015b61039a610e03565b8152602001906001900390816103925790505b50905060005b6001600301548110156104cf57600160000160008281526020019081526020016000206040518060600160405290816000820160009054906101000a900473ffffffffffffffffffffffffffffffffffffffff1673ffffffffffffffffffffffffffffffffffffffff1673ffffffffffffffffffffffffffffffffffffffff1681526020016000820160149054906101000a900463ffffffff1663ffffffff1663ffffffff1681526020016000820160189054906101000a900460ff1615151515815250508282815181106104b1577f4e487b7100000000000000000000000000000000000000000000000000000000600052603260045260246000fd5b602002602001018190525080806104c790611516565b9150506103b3565b508091505090565b600064e8d4a510009050803410156104ee57600080fd5b60008060016000016000600180015481526020019081526020016000206040518060600160405290816000820160009054906101000a900473ffffffffffffffffffffffffffffffffffffffff1673ffffffffffffffffffffffffffffffffffffffff1673ffffffffffffffffffffffffffffffffffffffff1681526020016000820160149054906101000a900463ffffffff1663ffffffff1663ffffffff1681526020016000820160189054906101000a900460ff16151515158152505090505b8363ffffffff168263ffffffff161461077557806020015163ffffffff1682856105da919061146a565b63ffffffff16106106ce578181602001516105f5919061146a565b82610600919061138d565b915061060a61096f565b5060016000016000600180015481526020019081526020016000206040518060600160405290816000820160009054906101000a900473ffffffffffffffffffffffffffffffffffffffff1673ffffffffffffffffffffffffffffffffffffffff1673ffffffffffffffffffffffffffffffffffffffff1681526020016000820160149054906101000a900463ffffffff1663ffffffff1663ffffffff1681526020016000820160189054906101000a900460ff1615151515815250509050610770565b818482602001516106df919061146a565b6106e9919061138d565b600160000160006001800154815260200190815260200160002060000160146101000a81548163ffffffff021916908363ffffffff1602179055508184610730919061146a565b81602001818151610741919061146a565b91509063ffffffff16908163ffffffff16815250508184610762919061146a565b8261076d919061138d565b91505b6105b0565b806000015173ffffffffffffffffffffffffffffffffffffffff166108fc849081150290604051600060405180830381858888f193505050501580156107bf573d6000803e3d6000fd5b5060008054906101000a900473ffffffffffffffffffffffffffffffffffffffff1673ffffffffffffffffffffffffffffffffffffffff1663f005a03286846040518363ffffffff1660e01b815260040161081b9291906111ae565b600060405180830381600087803b15801561083557600080fd5b505af1158015610849573d6000803e3d6000fd5b5050505083600560008773ffffffffffffffffffffffffffffffffffffffff1673ffffffffffffffffffffffffffffffffffffffff16815260200190815260200160002060008282829054906101000a900463ffffffff166108ab919061138d565b92506101000a81548163ffffffff021916908363ffffffff160217905550806000015173ffffffffffffffffffffffffffffffffffffffff168573ffffffffffffffffffffffffffffffffffffffff167f6dc2e7c522dd622832dbd244e465efbdb9805d75c494de7c48e2d45ae81e73ea8684604001514260405161093293929190611285565b60405180910390a35050505050565b60008060149054906101000a900461ffff16905090565b60008060189054906101000a900461ffff16905090565b610977610e03565b600180015460016002015410156109c3576040517f08c379a00000000000000000000000000000000000000000000000000000000081526004016109ba906111f9565b60405180910390fd5b600060016000016000600180015481526020019081526020016000206040518060600160405290816000820160009054906101000a900473ffffffffffffffffffffffffffffffffffffffff1673ffffffffffffffffffffffffffffffffffffffff1673ffffffffffffffffffffffffffffffffffffffff1681526020016000820160149054906101000a900463ffffffff1663ffffffff1663ffffffff1681526020016000820160189054906101000a900460ff16151515158152505090506001600001600060018001548152602001908152602001600020600080820160006101000a81549073ffffffffffffffffffffffffffffffffffffffff02191690556000820160146101000a81549063ffffffff02191690556000820160186101000a81549060ff021916905550506001806001016000828254610b079190611337565b925050819055506001806003016000828254610b239190611436565b925050819055508091505090565b60006103e8600060169054906101000a900461ffff1661ffff16600060149054906101000a900461ffff1661ffff1684610b6b91906113f8565b610b7591906113f8565b610b7f91906113c7565b9050919050565b6000610b9182610b31565b600060189054906101000a900461ffff1661ffff1683610bb191906113f8565b610bbb919061138d565b9050919050565b6000600560008373ffffffffffffffffffffffffffffffffffffffff1673ffffffffffffffffffffffffffffffffffffffff16815260200190815260200160002060009054906101000a900463ffffffff169050919050565b600060018060010154600160020154610c349190611436565b610c3e9190611337565b905090565b6001806002016000828254610c589190611337565b925050819055508060016000016000600160020154815260200190815260200160002060008201518160000160006101000a81548173ffffffffffffffffffffffffffffffffffffffff021916908373ffffffffffffffffffffffffffffffffffffffff16021790555060208201518160000160146101000a81548163ffffffff021916908363ffffffff16021790555060408201518160000160186101000a81548160ff0219169083151502179055509050506001806003016000828254610d219190611337565b9250508190555050565b600060405180606001604052808573ffffffffffffffffffffffffffffffffffffffff1681526020018463ffffffff1681526020018315158152509050610d7181610c43565b8373ffffffffffffffffffffffffffffffffffffffff167f0b061b83a5de05f1424bcafeb480251d555bc8f79b574de12f6655d55e930144848442604051610dbb93929190611285565b60405180910390a250505050565b60056020528060005260406000206000915054906101000a900463ffffffff1681565b60008060169054906101000a900461ffff16905090565b6040518060600160405280600073ffffffffffffffffffffffffffffffffffffffff168152602001600063ffffffff1681526020016000151581525090565b600081359050610e51816115ec565b92915050565b600081359050610e6681611603565b92915050565b600081359050610e7b8161161a565b92915050565b600060608284031215610e9357600080fd5b610e9d60606112bc565b90506000610ead84828501610e57565b6000830152506020610ec184828501610ee1565b6020830152506040610ed584828501610e6c565b60408301525092915050565b600081359050610ef081611631565b92915050565b600060208284031215610f0857600080fd5b6000610f1684828501610e42565b91505092915050565b60008060408385031215610f3257600080fd5b6000610f4085828601610e42565b9250506020610f5185828601610ee1565b9150509250929050565b600080600060608486031215610f7057600080fd5b6000610f7e86828701610e42565b9350506020610f8f86828701610ee1565b9250506040610fa086828701610e6c565b9150509250925092565b600060608284031215610fbc57600080fd5b6000610fca84828501610e81565b91505092915050565b600060208284031215610fe557600080fd5b6000610ff384828501610ee1565b91505092915050565b600061100883836110ee565b60608301905092915050565b61101d816114b0565b82525050565b61102c8161149e565b82525050565b600061103d826112fd565b6110478185611315565b9350611052836112ed565b8060005b8381101561108357815161106a8882610ffc565b975061107583611308565b925050600181019050611056565b5085935050505092915050565b611099816114c2565b82525050565b6110a8816114c2565b82525050565b60006110bb600e83611326565b91507f517565756520697320656d7074790000000000000000000000000000000000006000830152602082019050919050565b6060820160008201516111046000850182611014565b5060208201516111176020850182611190565b50604082015161112a6040850182611090565b50505050565b6060820160008201516111466000850182611014565b5060208201516111596020850182611190565b50604082015161116c6040850182611090565b50505050565b61117b816114ce565b82525050565b61118a816114fc565b82525050565b61119981611506565b82525050565b6111a881611506565b82525050565b60006040820190506111c36000830185611023565b6111d0602083018461119f565b9392505050565b600060208201905081810360008301526111f18184611032565b905092915050565b60006020820190508181036000830152611212816110ae565b9050919050565b600060608201905061122e6000830184611130565b92915050565b60006020820190506112496000830184611172565b92915050565b60006020820190506112646000830184611181565b92915050565b600060208201905061127f600083018461119f565b92915050565b600060608201905061129a600083018661119f565b6112a7602083018561109f565b6112b46040830184611181565b949350505050565b6000604051905081810181811067ffffffffffffffff821117156112e3576112e26115bd565b5b8060405250919050565b6000819050602082019050919050565b600081519050919050565b6000602082019050919050565b600082825260208201905092915050565b600082825260208201905092915050565b6000611342826114fc565b915061134d836114fc565b9250827fffffffffffffffffffffffffffffffffffffffffffffffffffffffffffffffff038211156113825761138161155f565b5b828201905092915050565b600061139882611506565b91506113a383611506565b92508263ffffffff038211156113bc576113bb61155f565b5b828201905092915050565b60006113d282611506565b91506113dd83611506565b9250826113ed576113ec61158e565b5b828204905092915050565b600061140382611506565b915061140e83611506565b92508163ffffffff048311821515161561142b5761142a61155f565b5b828202905092915050565b6000611441826114fc565b915061144c836114fc565b92508282101561145f5761145e61155f565b5b828203905092915050565b600061147582611506565b915061148083611506565b9250828210156114935761149261155f565b5b828203905092915050565b60006114a9826114dc565b9050919050565b60006114bb826114dc565b9050919050565b60008115159050919050565b600061ffff82169050919050565b600073ffffffffffffffffffffffffffffffffffffffff82169050919050565b6000819050919050565b600063ffffffff82169050919050565b6000611521826114fc565b91507fffffffffffffffffffffffffffffffffffffffffffffffffffffffffffffffff8214156115545761155361155f565b5b600182019050919050565b7f4e487b7100000000000000000000000000000000000000000000000000000000600052601160045260246000fd5b7f4e487b7100000000000000000000000000000000000000000000000000000000600052601260045260246000fd5b7f4e487b7100000000000000000000000000000000000000000000000000000000600052604160045260246000fd5b6115f58161149e565b811461160057600080fd5b50565b61160c816114b0565b811461161757600080fd5b50565b611623816114c2565b811461162e57600080fd5b50565b61163a81611506565b811461164557600080fd5b5056fea26469706673582212204c2428a91c0b87b4d52355fad356180209be60eb706cd5ccae0ac2f5b2a8e03664736f6c63430008000033608060405234801561001057600080fd5b50604051610b04380380610b04833981810160405281019061003291906100cf565b80600260046101000a81548173ffffffffffffffffffffffffffffffffffffffff021916908373ffffffffffffffffffffffffffffffffffffffff16021790555033600360006101000a81548173ffffffffffffffffffffffffffffffffffffffff021916908373ffffffffffffffffffffffffffffffffffffffff16021790555050610141565b6000815190506100c98161012a565b92915050565b6000602082840312156100e157600080fd5b60006100ef848285016100ba565b91505092915050565b60006101038261010a565b9050919050565b600073ffffffffffffffffffffffffffffffffffffffff82169050919050565b610133816100f8565b811461013e57600080fd5b50565b6109b4806101506000396000f3fe6080604052600436106100295760003560e01c8063e4fc6b6d1461002e578063f005a03214610038575b600080fd5b610036610061565b005b34801561004457600080fd5b5061005f600480360381019061005a919061063f565b61035d565b005b600260049054906101000a900473ffffffffffffffffffffffffffffffffffffffff1673ffffffffffffffffffffffffffffffffffffffff163373ffffffffffffffffffffffffffffffffffffffff16146100f1576040517f08c379a00000000000000000000000000000000000000000000000000000000081526004016100e890610747565b60405180910390fd5b600047905060005b6000805490508110156102b1576000808281548110610141577f4e487b7100000000000000000000000000000000000000000000000000000000600052603260045260246000fd5b9060005260206000200160009054906101000a900473ffffffffffffffffffffffffffffffffffffffff1690506000600160008373ffffffffffffffffffffffffffffffffffffffff1673ffffffffffffffffffffffffffffffffffffffff16815260200190815260200160002060009054906101000a900463ffffffff1690506000600260009054906101000a900463ffffffff16826101e291906107d2565b90508273ffffffffffffffffffffffffffffffffffffffff166108fc8263ffffffff16876102109190610803565b9081150290604051600060405180830381858888f1935050505015801561023b573d6000803e3d6000fd5b506000600160008573ffffffffffffffffffffffffffffffffffffffff1673ffffffffffffffffffffffffffffffffffffffff16815260200190815260200160002060006101000a81548163ffffffff021916908363ffffffff16021790555050505080806102a9906108a9565b9150506100f9565b506000600260006101000a81548163ffffffff021916908363ffffffff160217905550600067ffffffffffffffff811115610315577f4e487b7100000000000000000000000000000000000000000000000000000000600052604160045260246000fd5b6040519080825280602002602001820160405280156103435781602001602082028036833780820191505090505b506000908051906020019061035992919061056e565b5050565b600360009054906101000a900473ffffffffffffffffffffffffffffffffffffffff1673ffffffffffffffffffffffffffffffffffffffff163373ffffffffffffffffffffffffffffffffffffffff16146103ed576040517f08c379a00000000000000000000000000000000000000000000000000000000081526004016103e490610767565b60405180910390fd5b80600260008282829054906101000a900463ffffffff1661040e9190610798565b92506101000a81548163ffffffff021916908363ffffffff1602179055506000600160008473ffffffffffffffffffffffffffffffffffffffff1673ffffffffffffffffffffffffffffffffffffffff16815260200190815260200160002060009054906101000a900463ffffffff1663ffffffff1614156104ee576000829080600181540180825580915050600190039060005260206000200160009091909190916101000a81548173ffffffffffffffffffffffffffffffffffffffff021916908373ffffffffffffffffffffffffffffffffffffffff1602179055505b80600160008473ffffffffffffffffffffffffffffffffffffffff1673ffffffffffffffffffffffffffffffffffffffff16815260200190815260200160002060008282829054906101000a900463ffffffff1661054c9190610798565b92506101000a81548163ffffffff021916908363ffffffff1602179055505050565b8280548282559060005260206000209081019282156105e7579160200282015b828111156105e65782518260006101000a81548173ffffffffffffffffffffffffffffffffffffffff021916908373ffffffffffffffffffffffffffffffffffffffff1602179055509160200191906001019061058e565b5b5090506105f491906105f8565b5090565b5b808211156106115760008160009055506001016105f9565b5090565b60008135905061062481610950565b92915050565b60008135905061063981610967565b92915050565b6000806040838503121561065257600080fd5b600061066085828601610615565b92505060206106718582860161062a565b9150509250929050565b6000610688603283610787565b91507f4f6e6c79207468652064697374726962757465722063616e207472696767657260008301527f2074686520646973747269627574696f6e2e00000000000000000000000000006020830152604082019050919050565b60006106ee602e83610787565b91507f4f6e6c792074686520636f6e7472616374206f776e65722063616e2063616c6c60008301527f20746869732066756e6374696f6e0000000000000000000000000000000000006020830152604082019050919050565b600060208201905081810360008301526107608161067b565b9050919050565b60006020820190508181036000830152610780816106e1565b9050919050565b600082825260208201905092915050565b60006107a382610899565b91506107ae83610899565b92508263ffffffff038211156107c7576107c66108f2565b5b828201905092915050565b60006107dd82610899565b91506107e883610899565b9250826107f8576107f7610921565b5b828204905092915050565b600061080e8261088f565b91506108198361088f565b9250817fffffffffffffffffffffffffffffffffffffffffffffffffffffffffffffffff0483118215151615610852576108516108f2565b5b828202905092915050565b60006108688261086f565b9050919050565b600073ffffffffffffffffffffffffffffffffffffffff82169050919050565b6000819050919050565b600063ffffffff82169050919050565b60006108b48261088f565b91507fffffffffffffffffffffffffffffffffffffffffffffffffffffffffffffffff8214156108e7576108e66108f2565b5b600182019050919050565b7f4e487b7100000000000000000000000000000000000000000000000000000000600052601160045260246000fd5b7f4e487b7100000000000000000000000000000000000000000000000000000000600052601260045260246000fd5b6109598161085d565b811461096457600080fd5b50565b61097081610899565b811461097b57600080fd5b5056fea2646970667358221220ab11ba7afbe205ed20c01766378359a64ab28154e8259bee5a5af76cd875cc7264736f6c63430008000033",
  "linkReferences": {},
  "deployedLinkReferences": {}
}