{
  "_format": "hh-sol-artifact-1",
  "contractName": "ElectricityTradingHub",
  "sourceName": "contracts/energyContracts/ElectricityTradingHub.sol",
  "abi": [
    {
      "inputs": [],
      "stateMutability": "payable",
      "type": "constructor"
    },
    {
      "anonymous": false,
      "inputs": [
        {
          "indexed": true,
          "internalType": "address",
          "name": "consumer",
          "type": "address"
        },
        {
          "indexed": true,
          "internalType": "address",
          "name": "provider",
          "type": "address"
        },
        {
          "indexed": false,
          "internalType": "uint32",
          "name": "kwhAmount",
          "type": "uint32"
        },
        {
          "indexed": false,
          "internalType": "bool",
          "name": "isRenewable",
          "type": "bool"
        },
        {
          "indexed": false,
          "internalType": "uint256",
          "name": "timestamp",
          "type": "uint256"
        }
      ],
      "name": "Consume",
      "type": "event"
    },
    {
      "anonymous": false,
      "inputs": [
        {
          "indexed": true,
          "internalType": "address",
          "name": "provider",
          "type": "address"
        },
        {
          "indexed": false,
          "internalType": "uint32",
          "name": "kwhAmount",
          "type": "uint32"
        },
        {
          "indexed": false,
          "internalType": "bool",
          "name": "isRenewable",
          "type": "bool"
        },
        {
          "indexed": false,
          "internalType": "uint256",
          "name": "timestamp",
          "type": "uint256"
        }
      ],
      "name": "Provide",
      "type": "event"
    },
    {
      "anonymous": false,
      "inputs": [
        {
          "indexed": true,
          "internalType": "address",
          "name": "consumer",
          "type": "address"
        },
        {
          "indexed": false,
          "internalType": "uint32",
          "name": "kwhAmount",
          "type": "uint32"
        },
        {
          "indexed": false,
          "internalType": "uint256",
          "name": "timestamp",
          "type": "uint256"
        }
      ],
      "name": "Use",
      "type": "event"
    },
    {
      "inputs": [
        {
          "internalType": "address",
          "name": "connectedAccount",
          "type": "address"
        },
        {
          "internalType": "uint32",
          "name": "amountInKwH",
          "type": "uint32"
        }
      ],
      "name": "consume",
      "outputs": [],
      "stateMutability": "payable",
      "type": "function"
    },
    {
      "inputs": [],
      "name": "dequeue",
      "outputs": [
        {
          "components": [
            {
              "internalType": "address payable",
              "name": "provider",
              "type": "address"
            },
            {
              "internalType": "uint32",
              "name": "kwhAmount",
              "type": "uint32"
            },
            {
              "internalType": "bool",
              "name": "isRenewable",
              "type": "bool"
            }
          ],
          "internalType": "struct ElectricityTradingHub.Provisioning",
          "name": "",
          "type": "tuple"
        }
      ],
      "stateMutability": "nonpayable",
      "type": "function"
    },
    {
      "inputs": [
        {
          "internalType": "address",
          "name": "",
          "type": "address"
        }
      ],
      "name": "energyBalance",
      "outputs": [
        {
          "internalType": "uint32",
          "name": "",
          "type": "uint32"
        }
      ],
      "stateMutability": "view",
      "type": "function"
    },
    {
      "inputs": [
        {
          "components": [
            {
              "internalType": "address payable",
              "name": "provider",
              "type": "address"
            },
            {
              "internalType": "uint32",
              "name": "kwhAmount",
              "type": "uint32"
            },
            {
              "internalType": "bool",
              "name": "isRenewable",
              "type": "bool"
            }
          ],
          "internalType": "struct ElectricityTradingHub.Provisioning",
          "name": "value",
          "type": "tuple"
        }
      ],
      "name": "enqueue",
      "outputs": [],
      "stateMutability": "nonpayable",
      "type": "function"
    },
    {
      "inputs": [
        {
          "internalType": "address",
          "name": "connectedAccount",
          "type": "address"
        }
      ],
      "name": "getAccountEnergyBalance",
      "outputs": [
        {
          "internalType": "uint32",
          "name": "",
          "type": "uint32"
        }
      ],
      "stateMutability": "view",
      "type": "function"
    },
    {
      "inputs": [],
      "name": "getCo2PricePerTonInCent",
      "outputs": [
        {
          "internalType": "uint16",
          "name": "",
          "type": "uint16"
        }
      ],
      "stateMutability": "view",
      "type": "function"
    },
    {
      "inputs": [],
      "name": "getGramCo2PerKwH",
      "outputs": [
        {
          "internalType": "uint16",
          "name": "",
          "type": "uint16"
        }
      ],
      "stateMutability": "view",
      "type": "function"
    },
    {
      "inputs": [
        {
          "internalType": "uint32",
          "name": "amountInKwH",
          "type": "uint32"
        }
      ],
      "name": "getPremium",
      "outputs": [
        {
          "internalType": "uint32",
          "name": "",
          "type": "uint32"
        }
      ],
      "stateMutability": "view",
      "type": "function"
    },
    {
      "inputs": [
        {
          "internalType": "uint32",
          "name": "amountInKwH",
          "type": "uint32"
        }
      ],
      "name": "getPriceInCents",
      "outputs": [
        {
          "internalType": "uint32",
          "name": "",
          "type": "uint32"
        }
      ],
      "stateMutability": "view",
      "type": "function"
    },
    {
      "inputs": [],
      "name": "getQueue",
      "outputs": [
        {
          "components": [
            {
              "internalType": "address payable",
              "name": "provider",
              "type": "address"
            },
            {
              "internalType": "uint32",
              "name": "kwhAmount",
              "type": "uint32"
            },
            {
              "internalType": "bool",
              "name": "isRenewable",
              "type": "bool"
            }
          ],
          "internalType": "struct ElectricityTradingHub.Provisioning[]",
          "name": "",
          "type": "tuple[]"
        }
      ],
      "stateMutability": "view",
      "type": "function"
    },
    {
      "inputs": [],
      "name": "getQueueLength",
      "outputs": [
        {
          "internalType": "uint256",
          "name": "",
          "type": "uint256"
        }
      ],
      "stateMutability": "view",
      "type": "function"
    },
    {
      "inputs": [],
      "name": "getSpotPriceInCent",
      "outputs": [
        {
          "internalType": "uint16",
          "name": "",
          "type": "uint16"
        }
      ],
      "stateMutability": "view",
      "type": "function"
    },
    {
      "inputs": [
        {
          "internalType": "address",
          "name": "connectedAccount",
          "type": "address"
        },
        {
          "internalType": "uint32",
          "name": "kwhAmount",
          "type": "uint32"
        },
        {
          "internalType": "bool",
          "name": "isRenewable",
          "type": "bool"
        }
      ],
      "name": "provide",
      "outputs": [],
      "stateMutability": "nonpayable",
      "type": "function"
    },
    {
      "inputs": [
        {
          "internalType": "address",
          "name": "connectedAccount",
          "type": "address"
        },
        {
          "internalType": "uint32",
          "name": "kwhAmount",
          "type": "uint32"
        }
      ],
      "name": "use",
      "outputs": [],
      "stateMutability": "nonpayable",
      "type": "function"
    }
  ],
  "bytecode": "0x6080604052611f40600060146101000a81548161ffff021916908361ffff16021790555060e9600060166101000a81548161ffff021916908361ffff160217905550601e600060186101000a81548161ffff021916908361ffff160217905550336040516200006e90620000fd565b6200007a91906200011c565b604051809103906000f08015801562000097573d6000803e3d6000fd5b506000806101000a81548173ffffffffffffffffffffffffffffffffffffffff021916908373ffffffffffffffffffffffffffffffffffffffff16021790555060018060010181905550600060016002018190555060006001600301819055506200016d565b610b0480620019ee83390190565b620001168162000139565b82525050565b60006020820190506200013360008301846200010b565b92915050565b600062000146826200014d565b9050919050565b600073ffffffffffffffffffffffffffffffffffffffff82169050919050565b611871806200017d6000396000f3fe6080604052600436106100dd5760003560e01c8063a73547601161007f578063c67f915d11610059578063c67f915d146102b5578063cb897e30146102de578063ed7653e714610307578063f3991cde14610344576100dd565b8063a735476014610210578063a8ec974a1461024d578063b8f770051461028a576100dd565b80633eba7278116100bb5780633eba7278146101525780636f6167521461017d578063957908d1146101a8578063a099b156146101d3576100dd565b806301fce27e146100e25780631d22aa041461010d5780633a8c146014610136575b600080fd5b3480156100ee57600080fd5b506100f761036f565b60405161010491906113a1565b60405180910390f35b34801561011957600080fd5b50610134600480360381019061012f91906110e9565b61051b565b005b610150600480360381019061014b91906110e9565b6106a1565b005b34801561015e57600080fd5b50610167610b0b565b60405161017491906113fe565b60405180910390f35b34801561018957600080fd5b50610192610b22565b60405161019f91906113fe565b60405180910390f35b3480156101b457600080fd5b506101bd610b39565b6040516101ca91906113e3565b60405180910390f35b3480156101df57600080fd5b506101fa60048036038101906101f5919061119d565b610cfb565b6040516102079190611434565b60405180910390f35b34801561021c57600080fd5b506102376004803603810190610232919061119d565b610d50565b6040516102449190611434565b60405180910390f35b34801561025957600080fd5b50610274600480360381019061026f91906110c0565b610d8c565b6040516102819190611434565b60405180910390f35b34801561029657600080fd5b5061029f610de5565b6040516102ac9190611419565b60405180910390f35b3480156102c157600080fd5b506102dc60048036038101906102d79190611174565b610e0d565b005b3480156102ea57600080fd5b5061030560048036038101906103009190611125565b610ef5565b005b34801561031357600080fd5b5061032e600480360381019061032991906110c0565b610f93565b60405161033b9190611434565b60405180910390f35b34801561035057600080fd5b50610359610fb6565b60405161036691906113fe565b60405180910390f35b6060600060016003015467ffffffffffffffff8111156103b8577f4e487b7100000000000000000000000000000000000000000000000000000000600052604160045260246000fd5b6040519080825280602002602001820160405280156103f157816020015b6103de610fcd565b8152602001906001900390816103d65790505b50905060005b60016003015481101561051357600160000160008281526020019081526020016000206040518060600160405290816000820160009054906101000a900473ffffffffffffffffffffffffffffffffffffffff1673ffffffffffffffffffffffffffffffffffffffff1673ffffffffffffffffffffffffffffffffffffffff1681526020016000820160149054906101000a900463ffffffff1663ffffffff1663ffffffff1681526020016000820160189054906101000a900460ff1615151515815250508282815181106104f5577f4e487b7100000000000000000000000000000000000000000000000000000000600052603260045260246000fd5b6020026020010181905250808061050b90611709565b9150506103f7565b508091505090565b600560008373ffffffffffffffffffffffffffffffffffffffff1673ffffffffffffffffffffffffffffffffffffffff16815260200190815260200160002060009054906101000a900463ffffffff1663ffffffff168163ffffffff1611156105d157600560008373ffffffffffffffffffffffffffffffffffffffff1673ffffffffffffffffffffffffffffffffffffffff16815260200190815260200160002060009054906101000a900463ffffffff1690505b80600560008473ffffffffffffffffffffffffffffffffffffffff1673ffffffffffffffffffffffffffffffffffffffff16815260200190815260200160002060008282829054906101000a900463ffffffff1661062f919061165d565b92506101000a81548163ffffffff021916908363ffffffff1602179055508173ffffffffffffffffffffffffffffffffffffffff167f0c7171ca159eac308b069581e71ed5f56232e8ec212cf5faec80d8c76c506ea98242604051610695929190611486565b60405180910390a25050565b600064e8d4a510009050803410156106b857600080fd5b60008060016000016000600180015481526020019081526020016000206040518060600160405290816000820160009054906101000a900473ffffffffffffffffffffffffffffffffffffffff1673ffffffffffffffffffffffffffffffffffffffff1673ffffffffffffffffffffffffffffffffffffffff1681526020016000820160149054906101000a900463ffffffff1663ffffffff1663ffffffff1681526020016000820160189054906101000a900460ff16151515158152505090505b8363ffffffff168263ffffffff161461093f57806020015163ffffffff1682856107a4919061165d565b63ffffffff1610610898578181602001516107bf919061165d565b826107ca9190611580565b91506107d4610b39565b5060016000016000600180015481526020019081526020016000206040518060600160405290816000820160009054906101000a900473ffffffffffffffffffffffffffffffffffffffff1673ffffffffffffffffffffffffffffffffffffffff1673ffffffffffffffffffffffffffffffffffffffff1681526020016000820160149054906101000a900463ffffffff1663ffffffff1663ffffffff1681526020016000820160189054906101000a900460ff161515151581525050905061093a565b818482602001516108a9919061165d565b6108b39190611580565b600160000160006001800154815260200190815260200160002060000160146101000a81548163ffffffff021916908363ffffffff16021790555081846108fa919061165d565b8160200181815161090b919061165d565b91509063ffffffff16908163ffffffff1681525050818461092c919061165d565b826109379190611580565b91505b61077a565b806000015173ffffffffffffffffffffffffffffffffffffffff166108fc849081150290604051600060405180830381858888f19350505050158015610989573d6000803e3d6000fd5b5060008054906101000a900473ffffffffffffffffffffffffffffffffffffffff1673ffffffffffffffffffffffffffffffffffffffff1663f005a03286846040518363ffffffff1660e01b81526004016109e5929190611378565b600060405180830381600087803b1580156109ff57600080fd5b505af1158015610a13573d6000803e3d6000fd5b5050505083600560008773ffffffffffffffffffffffffffffffffffffffff1673ffffffffffffffffffffffffffffffffffffffff16815260200190815260200160002060008282829054906101000a900463ffffffff16610a759190611580565b92506101000a81548163ffffffff021916908363ffffffff160217905550806000015173ffffffffffffffffffffffffffffffffffffffff168573ffffffffffffffffffffffffffffffffffffffff167f6dc2e7c522dd622832dbd244e465efbdb9805d75c494de7c48e2d45ae81e73ea86846040015142604051610afc9392919061144f565b60405180910390a35050505050565b60008060149054906101000a900461ffff16905090565b60008060189054906101000a900461ffff16905090565b610b41610fcd565b60018001546001600201541015610b8d576040517f08c379a0000000000000000000000000000000000000000000000000000000008152600401610b84906113c3565b60405180910390fd5b600060016000016000600180015481526020019081526020016000206040518060600160405290816000820160009054906101000a900473ffffffffffffffffffffffffffffffffffffffff1673ffffffffffffffffffffffffffffffffffffffff1673ffffffffffffffffffffffffffffffffffffffff1681526020016000820160149054906101000a900463ffffffff1663ffffffff1663ffffffff1681526020016000820160189054906101000a900460ff16151515158152505090506001600001600060018001548152602001908152602001600020600080820160006101000a81549073ffffffffffffffffffffffffffffffffffffffff02191690556000820160146101000a81549063ffffffff02191690556000820160186101000a81549060ff021916905550506001806001016000828254610cd1919061152a565b925050819055506001806003016000828254610ced9190611629565b925050819055508091505090565b60006103e8600060169054906101000a900461ffff1661ffff16600060149054906101000a900461ffff1661ffff1684610d3591906115eb565b610d3f91906115eb565b610d4991906115ba565b9050919050565b6000610d5b82610cfb565b600060189054906101000a900461ffff1661ffff1683610d7b91906115eb565b610d859190611580565b9050919050565b6000600560008373ffffffffffffffffffffffffffffffffffffffff1673ffffffffffffffffffffffffffffffffffffffff16815260200190815260200160002060009054906101000a900463ffffffff169050919050565b600060018060010154600160020154610dfe9190611629565b610e08919061152a565b905090565b6001806002016000828254610e22919061152a565b925050819055508060016000016000600160020154815260200190815260200160002060008201518160000160006101000a81548173ffffffffffffffffffffffffffffffffffffffff021916908373ffffffffffffffffffffffffffffffffffffffff16021790555060208201518160000160146101000a81548163ffffffff021916908363ffffffff16021790555060408201518160000160186101000a81548160ff0219169083151502179055509050506001806003016000828254610eeb919061152a565b9250508190555050565b600060405180606001604052808573ffffffffffffffffffffffffffffffffffffffff1681526020018463ffffffff1681526020018315158152509050610f3b81610e0d565b8373ffffffffffffffffffffffffffffffffffffffff167f0b061b83a5de05f1424bcafeb480251d555bc8f79b574de12f6655d55e930144848442604051610f859392919061144f565b60405180910390a250505050565b60056020528060005260406000206000915054906101000a900463ffffffff1681565b60008060169054906101000a900461ffff16905090565b6040518060600160405280600073ffffffffffffffffffffffffffffffffffffffff168152602001600063ffffffff1681526020016000151581525090565b60008135905061101b816117df565b92915050565b600081359050611030816117f6565b92915050565b6000813590506110458161180d565b92915050565b60006060828403121561105d57600080fd5b61106760606114af565b9050600061107784828501611021565b600083015250602061108b848285016110ab565b602083015250604061109f84828501611036565b60408301525092915050565b6000813590506110ba81611824565b92915050565b6000602082840312156110d257600080fd5b60006110e08482850161100c565b91505092915050565b600080604083850312156110fc57600080fd5b600061110a8582860161100c565b925050602061111b858286016110ab565b9150509250929050565b60008060006060848603121561113a57600080fd5b60006111488682870161100c565b9350506020611159868287016110ab565b925050604061116a86828701611036565b9150509250925092565b60006060828403121561118657600080fd5b60006111948482850161104b565b91505092915050565b6000602082840312156111af57600080fd5b60006111bd848285016110ab565b91505092915050565b60006111d283836112b8565b60608301905092915050565b6111e7816116a3565b82525050565b6111f681611691565b82525050565b6000611207826114f0565b6112118185611508565b935061121c836114e0565b8060005b8381101561124d57815161123488826111c6565b975061123f836114fb565b925050600181019050611220565b5085935050505092915050565b611263816116b5565b82525050565b611272816116b5565b82525050565b6000611285600e83611519565b91507f517565756520697320656d7074790000000000000000000000000000000000006000830152602082019050919050565b6060820160008201516112ce60008501826111de565b5060208201516112e1602085018261135a565b5060408201516112f4604085018261125a565b50505050565b60608201600082015161131060008501826111de565b506020820151611323602085018261135a565b506040820151611336604085018261125a565b50505050565b611345816116c1565b82525050565b611354816116ef565b82525050565b611363816116f9565b82525050565b611372816116f9565b82525050565b600060408201905061138d60008301856111ed565b61139a6020830184611369565b9392505050565b600060208201905081810360008301526113bb81846111fc565b905092915050565b600060208201905081810360008301526113dc81611278565b9050919050565b60006060820190506113f860008301846112fa565b92915050565b6000602082019050611413600083018461133c565b92915050565b600060208201905061142e600083018461134b565b92915050565b60006020820190506114496000830184611369565b92915050565b60006060820190506114646000830186611369565b6114716020830185611269565b61147e604083018461134b565b949350505050565b600060408201905061149b6000830185611369565b6114a8602083018461134b565b9392505050565b6000604051905081810181811067ffffffffffffffff821117156114d6576114d56117b0565b5b8060405250919050565b6000819050602082019050919050565b600081519050919050565b6000602082019050919050565b600082825260208201905092915050565b600082825260208201905092915050565b6000611535826116ef565b9150611540836116ef565b9250827fffffffffffffffffffffffffffffffffffffffffffffffffffffffffffffffff0382111561157557611574611752565b5b828201905092915050565b600061158b826116f9565b9150611596836116f9565b92508263ffffffff038211156115af576115ae611752565b5b828201905092915050565b60006115c5826116f9565b91506115d0836116f9565b9250826115e0576115df611781565b5b828204905092915050565b60006115f6826116f9565b9150611601836116f9565b92508163ffffffff048311821515161561161e5761161d611752565b5b828202905092915050565b6000611634826116ef565b915061163f836116ef565b92508282101561165257611651611752565b5b828203905092915050565b6000611668826116f9565b9150611673836116f9565b92508282101561168657611685611752565b5b828203905092915050565b600061169c826116cf565b9050919050565b60006116ae826116cf565b9050919050565b60008115159050919050565b600061ffff82169050919050565b600073ffffffffffffffffffffffffffffffffffffffff82169050919050565b6000819050919050565b600063ffffffff82169050919050565b6000611714826116ef565b91507fffffffffffffffffffffffffffffffffffffffffffffffffffffffffffffffff82141561174757611746611752565b5b600182019050919050565b7f4e487b7100000000000000000000000000000000000000000000000000000000600052601160045260246000fd5b7f4e487b7100000000000000000000000000000000000000000000000000000000600052601260045260246000fd5b7f4e487b7100000000000000000000000000000000000000000000000000000000600052604160045260246000fd5b6117e881611691565b81146117f357600080fd5b50565b6117ff816116a3565b811461180a57600080fd5b50565b611816816116b5565b811461182157600080fd5b50565b61182d816116f9565b811461183857600080fd5b5056fea26469706673582212207cd8acfe1661d9d6c26e223557070fb4852739e9b84b477e6669efb9f1a7cff764736f6c63430008000033608060405234801561001057600080fd5b50604051610b04380380610b04833981810160405281019061003291906100cf565b80600260046101000a81548173ffffffffffffffffffffffffffffffffffffffff021916908373ffffffffffffffffffffffffffffffffffffffff16021790555033600360006101000a81548173ffffffffffffffffffffffffffffffffffffffff021916908373ffffffffffffffffffffffffffffffffffffffff16021790555050610141565b6000815190506100c98161012a565b92915050565b6000602082840312156100e157600080fd5b60006100ef848285016100ba565b91505092915050565b60006101038261010a565b9050919050565b600073ffffffffffffffffffffffffffffffffffffffff82169050919050565b610133816100f8565b811461013e57600080fd5b50565b6109b4806101506000396000f3fe6080604052600436106100295760003560e01c8063e4fc6b6d1461002e578063f005a03214610038575b600080fd5b610036610061565b005b34801561004457600080fd5b5061005f600480360381019061005a919061063f565b61035d565b005b600260049054906101000a900473ffffffffffffffffffffffffffffffffffffffff1673ffffffffffffffffffffffffffffffffffffffff163373ffffffffffffffffffffffffffffffffffffffff16146100f1576040517f08c379a00000000000000000000000000000000000000000000000000000000081526004016100e890610747565b60405180910390fd5b600047905060005b6000805490508110156102b1576000808281548110610141577f4e487b7100000000000000000000000000000000000000000000000000000000600052603260045260246000fd5b9060005260206000200160009054906101000a900473ffffffffffffffffffffffffffffffffffffffff1690506000600160008373ffffffffffffffffffffffffffffffffffffffff1673ffffffffffffffffffffffffffffffffffffffff16815260200190815260200160002060009054906101000a900463ffffffff1690506000600260009054906101000a900463ffffffff16826101e291906107d2565b90508273ffffffffffffffffffffffffffffffffffffffff166108fc8263ffffffff16876102109190610803565b9081150290604051600060405180830381858888f1935050505015801561023b573d6000803e3d6000fd5b506000600160008573ffffffffffffffffffffffffffffffffffffffff1673ffffffffffffffffffffffffffffffffffffffff16815260200190815260200160002060006101000a81548163ffffffff021916908363ffffffff16021790555050505080806102a9906108a9565b9150506100f9565b506000600260006101000a81548163ffffffff021916908363ffffffff160217905550600067ffffffffffffffff811115610315577f4e487b7100000000000000000000000000000000000000000000000000000000600052604160045260246000fd5b6040519080825280602002602001820160405280156103435781602001602082028036833780820191505090505b506000908051906020019061035992919061056e565b5050565b600360009054906101000a900473ffffffffffffffffffffffffffffffffffffffff1673ffffffffffffffffffffffffffffffffffffffff163373ffffffffffffffffffffffffffffffffffffffff16146103ed576040517f08c379a00000000000000000000000000000000000000000000000000000000081526004016103e490610767565b60405180910390fd5b80600260008282829054906101000a900463ffffffff1661040e9190610798565b92506101000a81548163ffffffff021916908363ffffffff1602179055506000600160008473ffffffffffffffffffffffffffffffffffffffff1673ffffffffffffffffffffffffffffffffffffffff16815260200190815260200160002060009054906101000a900463ffffffff1663ffffffff1614156104ee576000829080600181540180825580915050600190039060005260206000200160009091909190916101000a81548173ffffffffffffffffffffffffffffffffffffffff021916908373ffffffffffffffffffffffffffffffffffffffff1602179055505b80600160008473ffffffffffffffffffffffffffffffffffffffff1673ffffffffffffffffffffffffffffffffffffffff16815260200190815260200160002060008282829054906101000a900463ffffffff1661054c9190610798565b92506101000a81548163ffffffff021916908363ffffffff1602179055505050565b8280548282559060005260206000209081019282156105e7579160200282015b828111156105e65782518260006101000a81548173ffffffffffffffffffffffffffffffffffffffff021916908373ffffffffffffffffffffffffffffffffffffffff1602179055509160200191906001019061058e565b5b5090506105f491906105f8565b5090565b5b808211156106115760008160009055506001016105f9565b5090565b60008135905061062481610950565b92915050565b60008135905061063981610967565b92915050565b6000806040838503121561065257600080fd5b600061066085828601610615565b92505060206106718582860161062a565b9150509250929050565b6000610688603283610787565b91507f4f6e6c79207468652064697374726962757465722063616e207472696767657260008301527f2074686520646973747269627574696f6e2e00000000000000000000000000006020830152604082019050919050565b60006106ee602e83610787565b91507f4f6e6c792074686520636f6e7472616374206f776e65722063616e2063616c6c60008301527f20746869732066756e6374696f6e0000000000000000000000000000000000006020830152604082019050919050565b600060208201905081810360008301526107608161067b565b9050919050565b60006020820190508181036000830152610780816106e1565b9050919050565b600082825260208201905092915050565b60006107a382610899565b91506107ae83610899565b92508263ffffffff038211156107c7576107c66108f2565b5b828201905092915050565b60006107dd82610899565b91506107e883610899565b9250826107f8576107f7610921565b5b828204905092915050565b600061080e8261088f565b91506108198361088f565b9250817fffffffffffffffffffffffffffffffffffffffffffffffffffffffffffffffff0483118215151615610852576108516108f2565b5b828202905092915050565b60006108688261086f565b9050919050565b600073ffffffffffffffffffffffffffffffffffffffff82169050919050565b6000819050919050565b600063ffffffff82169050919050565b60006108b48261088f565b91507fffffffffffffffffffffffffffffffffffffffffffffffffffffffffffffffff8214156108e7576108e66108f2565b5b600182019050919050565b7f4e487b7100000000000000000000000000000000000000000000000000000000600052601160045260246000fd5b7f4e487b7100000000000000000000000000000000000000000000000000000000600052601260045260246000fd5b6109598161085d565b811461096457600080fd5b50565b61097081610899565b811461097b57600080fd5b5056fea2646970667358221220ab11ba7afbe205ed20c01766378359a64ab28154e8259bee5a5af76cd875cc7264736f6c63430008000033",
  "linkReferences": {},
  "deployedLinkReferences": {}
}