{
  "_format": "hh-sol-artifact-1",
  "contractName": "ElectricityTradingHub",
  "sourceName": "contracts/energyContracts/ElectricityTradingHub.sol",
  "abi": [
    {
      "inputs": [],
      "stateMutability": "payable",
      "type": "constructor"
    },
    {
      "inputs": [
        {
          "internalType": "uint32",
          "name": "amountInKwH",
          "type": "uint32"
        }
      ],
      "name": "consume",
      "outputs": [],
      "stateMutability": "payable",
      "type": "function"
    },
    {
      "inputs": [],
      "name": "dequeue",
      "outputs": [
        {
          "components": [
            {
              "internalType": "address payable",
              "name": "provider",
              "type": "address"
            },
            {
              "internalType": "uint32",
              "name": "kwhAmount",
              "type": "uint32"
            },
            {
              "internalType": "bool",
              "name": "isRenewable",
              "type": "bool"
            }
          ],
          "internalType": "struct ElectricityTradingHub.Provisioning",
          "name": "",
          "type": "tuple"
        }
      ],
      "stateMutability": "nonpayable",
      "type": "function"
    },
    {
      "inputs": [
        {
          "components": [
            {
              "internalType": "address payable",
              "name": "provider",
              "type": "address"
            },
            {
              "internalType": "uint32",
              "name": "kwhAmount",
              "type": "uint32"
            },
            {
              "internalType": "bool",
              "name": "isRenewable",
              "type": "bool"
            }
          ],
          "internalType": "struct ElectricityTradingHub.Provisioning",
          "name": "value",
          "type": "tuple"
        }
      ],
      "name": "enqueue",
      "outputs": [],
      "stateMutability": "nonpayable",
      "type": "function"
    },
    {
      "inputs": [],
      "name": "getCo2PricePerTonInCent",
      "outputs": [
        {
          "internalType": "uint16",
          "name": "",
          "type": "uint16"
        }
      ],
      "stateMutability": "view",
      "type": "function"
    },
    {
      "inputs": [],
      "name": "getGramCo2PerKwH",
      "outputs": [
        {
          "internalType": "uint16",
          "name": "",
          "type": "uint16"
        }
      ],
      "stateMutability": "view",
      "type": "function"
    },
    {
      "inputs": [
        {
          "internalType": "uint32",
          "name": "amountInKwH",
          "type": "uint32"
        }
      ],
      "name": "getPremium",
      "outputs": [
        {
          "internalType": "uint32",
          "name": "",
          "type": "uint32"
        }
      ],
      "stateMutability": "view",
      "type": "function"
    },
    {
      "inputs": [
        {
          "internalType": "uint32",
          "name": "amountInKwH",
          "type": "uint32"
        }
      ],
      "name": "getPriceInCents",
      "outputs": [
        {
          "internalType": "uint32",
          "name": "",
          "type": "uint32"
        }
      ],
      "stateMutability": "view",
      "type": "function"
    },
    {
      "inputs": [],
      "name": "getQueue",
      "outputs": [
        {
          "components": [
            {
              "internalType": "address payable",
              "name": "provider",
              "type": "address"
            },
            {
              "internalType": "uint32",
              "name": "kwhAmount",
              "type": "uint32"
            },
            {
              "internalType": "bool",
              "name": "isRenewable",
              "type": "bool"
            }
          ],
          "internalType": "struct ElectricityTradingHub.Provisioning[]",
          "name": "",
          "type": "tuple[]"
        }
      ],
      "stateMutability": "view",
      "type": "function"
    },
    {
      "inputs": [],
      "name": "getQueueLength",
      "outputs": [
        {
          "internalType": "uint256",
          "name": "",
          "type": "uint256"
        }
      ],
      "stateMutability": "view",
      "type": "function"
    },
    {
      "inputs": [],
      "name": "getSpotPriceInCent",
      "outputs": [
        {
          "internalType": "uint16",
          "name": "",
          "type": "uint16"
        }
      ],
      "stateMutability": "view",
      "type": "function"
    },
    {
      "inputs": [
        {
          "internalType": "uint32",
          "name": "kwhAmount",
          "type": "uint32"
        },
        {
          "internalType": "bool",
          "name": "isRenewable",
          "type": "bool"
        }
      ],
      "name": "provide",
      "outputs": [],
      "stateMutability": "nonpayable",
      "type": "function"
    }
  ],
  "bytecode": "0x6080604052611f40600060146101000a81548161ffff021916908361ffff16021790555060e9600060166101000a81548161ffff021916908361ffff160217905550601e600060186101000a81548161ffff021916908361ffff160217905550336040516200006e90620000fd565b6200007a91906200011c565b604051809103906000f08015801562000097573d6000803e3d6000fd5b506000806101000a81548173ffffffffffffffffffffffffffffffffffffffff021916908373ffffffffffffffffffffffffffffffffffffffff16021790555060018060010181905550600060016002018190555060006001600301819055506200016d565b610b0480620014b483390190565b620001168162000139565b82525050565b60006020820190506200013360008301846200010b565b92915050565b600062000146826200014d565b9050919050565b600073ffffffffffffffffffffffffffffffffffffffff82169050919050565b611337806200017d6000396000f3fe60806040526004361061009c5760003560e01c8063a099b15611610064578063a099b15614610169578063a7354760146101a6578063b8f77005146101e3578063c67f915d1461020e578063f3991cde14610237578063f62a5ba6146102625761009c565b806301fce27e146100a15780633eba7278146100cc5780636f616752146100f7578063878eae8414610122578063957908d11461013e575b600080fd5b3480156100ad57600080fd5b506100b661028b565b6040516100c39190610ede565b60405180910390f35b3480156100d857600080fd5b506100e1610437565b6040516100ee9190610f3b565b60405180910390f35b34801561010357600080fd5b5061010c61044e565b6040516101199190610f3b565b60405180910390f35b61013c60048036038101906101379190610cad565b610465565b005b34801561014a57600080fd5b506101536107e1565b6040516101609190610f20565b60405180910390f35b34801561017557600080fd5b50610190600480360381019061018b9190610cad565b6109a3565b60405161019d9190610f71565b60405180910390f35b3480156101b257600080fd5b506101cd60048036038101906101c89190610cad565b6109f8565b6040516101da9190610f71565b60405180910390f35b3480156101ef57600080fd5b506101f8610a34565b6040516102059190610f56565b60405180910390f35b34801561021a57600080fd5b5061023560048036038101906102309190610c84565b610a5c565b005b34801561024357600080fd5b5061024c610b44565b6040516102599190610f3b565b60405180910390f35b34801561026e57600080fd5b5061028960048036038101906102849190610cd6565b610b5b565b005b6060600060016003015467ffffffffffffffff8111156102d4577f4e487b7100000000000000000000000000000000000000000000000000000000600052604160045260246000fd5b60405190808252806020026020018201604052801561030d57816020015b6102fa610ba6565b8152602001906001900390816102f25790505b50905060005b60016003015481101561042f57600160000160008281526020019081526020016000206040518060600160405290816000820160009054906101000a900473ffffffffffffffffffffffffffffffffffffffff1673ffffffffffffffffffffffffffffffffffffffff1673ffffffffffffffffffffffffffffffffffffffff1681526020016000820160149054906101000a900463ffffffff1663ffffffff1663ffffffff1681526020016000820160189054906101000a900460ff161515151581525050828281518110610411577f4e487b7100000000000000000000000000000000000000000000000000000000600052603260045260246000fd5b60200260200101819052508080610427906111e6565b915050610313565b508091505090565b60008060149054906101000a900461ffff16905090565b60008060189054906101000a900461ffff16905090565b600064e8d4a5100090508034101561047c57600080fd5b60008060016000016000600180015481526020019081526020016000206040518060600160405290816000820160009054906101000a900473ffffffffffffffffffffffffffffffffffffffff1673ffffffffffffffffffffffffffffffffffffffff1673ffffffffffffffffffffffffffffffffffffffff1681526020016000820160149054906101000a900463ffffffff1663ffffffff1663ffffffff1681526020016000820160189054906101000a900460ff16151515158152505090505b8363ffffffff168263ffffffff161461070357806020015163ffffffff168285610568919061113a565b63ffffffff161061065c57818160200151610583919061113a565b8261058e919061105d565b91506105986107e1565b5060016000016000600180015481526020019081526020016000206040518060600160405290816000820160009054906101000a900473ffffffffffffffffffffffffffffffffffffffff1673ffffffffffffffffffffffffffffffffffffffff1673ffffffffffffffffffffffffffffffffffffffff1681526020016000820160149054906101000a900463ffffffff1663ffffffff1663ffffffff1681526020016000820160189054906101000a900460ff16151515158152505090506106fe565b8184826020015161066d919061113a565b610677919061105d565b600160000160006001800154815260200190815260200160002060000160146101000a81548163ffffffff021916908363ffffffff16021790555081846106be919061113a565b816020018181516106cf919061113a565b91509063ffffffff16908163ffffffff168152505081846106f0919061113a565b826106fb919061105d565b91505b61053e565b806000015173ffffffffffffffffffffffffffffffffffffffff166108fc849081150290604051600060405180830381858888f1935050505015801561074d573d6000803e3d6000fd5b5060008054906101000a900473ffffffffffffffffffffffffffffffffffffffff1673ffffffffffffffffffffffffffffffffffffffff1663f005a03233846040518363ffffffff1660e01b81526004016107a9929190610eb5565b600060405180830381600087803b1580156107c357600080fd5b505af11580156107d7573d6000803e3d6000fd5b5050505050505050565b6107e9610ba6565b60018001546001600201541015610835576040517f08c379a000000000000000000000000000000000000000000000000000000000815260040161082c90610f00565b60405180910390fd5b600060016000016000600180015481526020019081526020016000206040518060600160405290816000820160009054906101000a900473ffffffffffffffffffffffffffffffffffffffff1673ffffffffffffffffffffffffffffffffffffffff1673ffffffffffffffffffffffffffffffffffffffff1681526020016000820160149054906101000a900463ffffffff1663ffffffff1663ffffffff1681526020016000820160189054906101000a900460ff16151515158152505090506001600001600060018001548152602001908152602001600020600080820160006101000a81549073ffffffffffffffffffffffffffffffffffffffff02191690556000820160146101000a81549063ffffffff02191690556000820160186101000a81549060ff0219169055505060018060010160008282546109799190611007565b9250508190555060018060030160008282546109959190611106565b925050819055508091505090565b60006103e8600060169054906101000a900461ffff1661ffff16600060149054906101000a900461ffff1661ffff16846109dd91906110c8565b6109e791906110c8565b6109f19190611097565b9050919050565b6000610a03826109a3565b600060189054906101000a900461ffff1661ffff1683610a2391906110c8565b610a2d919061105d565b9050919050565b600060018060010154600160020154610a4d9190611106565b610a579190611007565b905090565b6001806002016000828254610a719190611007565b925050819055508060016000016000600160020154815260200190815260200160002060008201518160000160006101000a81548173ffffffffffffffffffffffffffffffffffffffff021916908373ffffffffffffffffffffffffffffffffffffffff16021790555060208201518160000160146101000a81548163ffffffff021916908363ffffffff16021790555060408201518160000160186101000a81548160ff0219169083151502179055509050506001806003016000828254610b3a9190611007565b9250508190555050565b60008060169054906101000a900461ffff16905090565b600060405180606001604052803373ffffffffffffffffffffffffffffffffffffffff1681526020018463ffffffff1681526020018315158152509050610ba181610a5c565b505050565b6040518060600160405280600073ffffffffffffffffffffffffffffffffffffffff168152602001600063ffffffff1681526020016000151581525090565b600081359050610bf4816112bc565b92915050565b600081359050610c09816112d3565b92915050565b600060608284031215610c2157600080fd5b610c2b6060610f8c565b90506000610c3b84828501610be5565b6000830152506020610c4f84828501610c6f565b6020830152506040610c6384828501610bfa565b60408301525092915050565b600081359050610c7e816112ea565b92915050565b600060608284031215610c9657600080fd5b6000610ca484828501610c0f565b91505092915050565b600060208284031215610cbf57600080fd5b6000610ccd84828501610c6f565b91505092915050565b60008060408385031215610ce957600080fd5b6000610cf785828601610c6f565b9250506020610d0885828601610bfa565b9150509250929050565b6000610d1e8383610df5565b60608301905092915050565b610d3381611180565b82525050565b610d428161116e565b82525050565b6000610d5382610fcd565b610d5d8185610fe5565b9350610d6883610fbd565b8060005b83811015610d99578151610d808882610d12565b9750610d8b83610fd8565b925050600181019050610d6c565b5085935050505092915050565b610daf81611192565b82525050565b6000610dc2600e83610ff6565b91507f517565756520697320656d7074790000000000000000000000000000000000006000830152602082019050919050565b606082016000820151610e0b6000850182610d2a565b506020820151610e1e6020850182610e97565b506040820151610e316040850182610da6565b50505050565b606082016000820151610e4d6000850182610d2a565b506020820151610e606020850182610e97565b506040820151610e736040850182610da6565b50505050565b610e828161119e565b82525050565b610e91816111cc565b82525050565b610ea0816111d6565b82525050565b610eaf816111d6565b82525050565b6000604082019050610eca6000830185610d39565b610ed76020830184610ea6565b9392505050565b60006020820190508181036000830152610ef88184610d48565b905092915050565b60006020820190508181036000830152610f1981610db5565b9050919050565b6000606082019050610f356000830184610e37565b92915050565b6000602082019050610f506000830184610e79565b92915050565b6000602082019050610f6b6000830184610e88565b92915050565b6000602082019050610f866000830184610ea6565b92915050565b6000604051905081810181811067ffffffffffffffff82111715610fb357610fb261128d565b5b8060405250919050565b6000819050602082019050919050565b600081519050919050565b6000602082019050919050565b600082825260208201905092915050565b600082825260208201905092915050565b6000611012826111cc565b915061101d836111cc565b9250827fffffffffffffffffffffffffffffffffffffffffffffffffffffffffffffffff038211156110525761105161122f565b5b828201905092915050565b6000611068826111d6565b9150611073836111d6565b92508263ffffffff0382111561108c5761108b61122f565b5b828201905092915050565b60006110a2826111d6565b91506110ad836111d6565b9250826110bd576110bc61125e565b5b828204905092915050565b60006110d3826111d6565b91506110de836111d6565b92508163ffffffff04831182151516156110fb576110fa61122f565b5b828202905092915050565b6000611111826111cc565b915061111c836111cc565b92508282101561112f5761112e61122f565b5b828203905092915050565b6000611145826111d6565b9150611150836111d6565b9250828210156111635761116261122f565b5b828203905092915050565b6000611179826111ac565b9050919050565b600061118b826111ac565b9050919050565b60008115159050919050565b600061ffff82169050919050565b600073ffffffffffffffffffffffffffffffffffffffff82169050919050565b6000819050919050565b600063ffffffff82169050919050565b60006111f1826111cc565b91507fffffffffffffffffffffffffffffffffffffffffffffffffffffffffffffffff8214156112245761122361122f565b5b600182019050919050565b7f4e487b7100000000000000000000000000000000000000000000000000000000600052601160045260246000fd5b7f4e487b7100000000000000000000000000000000000000000000000000000000600052601260045260246000fd5b7f4e487b7100000000000000000000000000000000000000000000000000000000600052604160045260246000fd5b6112c581611180565b81146112d057600080fd5b50565b6112dc81611192565b81146112e757600080fd5b50565b6112f3816111d6565b81146112fe57600080fd5b5056fea26469706673582212209a30173a5890705a16ea92fb9a9a64366679ad49e725fbc7b1ee667be48c453a64736f6c63430008000033608060405234801561001057600080fd5b50604051610b04380380610b04833981810160405281019061003291906100cf565b80600260046101000a81548173ffffffffffffffffffffffffffffffffffffffff021916908373ffffffffffffffffffffffffffffffffffffffff16021790555033600360006101000a81548173ffffffffffffffffffffffffffffffffffffffff021916908373ffffffffffffffffffffffffffffffffffffffff16021790555050610141565b6000815190506100c98161012a565b92915050565b6000602082840312156100e157600080fd5b60006100ef848285016100ba565b91505092915050565b60006101038261010a565b9050919050565b600073ffffffffffffffffffffffffffffffffffffffff82169050919050565b610133816100f8565b811461013e57600080fd5b50565b6109b4806101506000396000f3fe6080604052600436106100295760003560e01c8063e4fc6b6d1461002e578063f005a03214610038575b600080fd5b610036610061565b005b34801561004457600080fd5b5061005f600480360381019061005a919061063f565b61035d565b005b600260049054906101000a900473ffffffffffffffffffffffffffffffffffffffff1673ffffffffffffffffffffffffffffffffffffffff163373ffffffffffffffffffffffffffffffffffffffff16146100f1576040517f08c379a00000000000000000000000000000000000000000000000000000000081526004016100e890610747565b60405180910390fd5b600047905060005b6000805490508110156102b1576000808281548110610141577f4e487b7100000000000000000000000000000000000000000000000000000000600052603260045260246000fd5b9060005260206000200160009054906101000a900473ffffffffffffffffffffffffffffffffffffffff1690506000600160008373ffffffffffffffffffffffffffffffffffffffff1673ffffffffffffffffffffffffffffffffffffffff16815260200190815260200160002060009054906101000a900463ffffffff1690506000600260009054906101000a900463ffffffff16826101e291906107d2565b90508273ffffffffffffffffffffffffffffffffffffffff166108fc8263ffffffff16876102109190610803565b9081150290604051600060405180830381858888f1935050505015801561023b573d6000803e3d6000fd5b506000600160008573ffffffffffffffffffffffffffffffffffffffff1673ffffffffffffffffffffffffffffffffffffffff16815260200190815260200160002060006101000a81548163ffffffff021916908363ffffffff16021790555050505080806102a9906108a9565b9150506100f9565b506000600260006101000a81548163ffffffff021916908363ffffffff160217905550600067ffffffffffffffff811115610315577f4e487b7100000000000000000000000000000000000000000000000000000000600052604160045260246000fd5b6040519080825280602002602001820160405280156103435781602001602082028036833780820191505090505b506000908051906020019061035992919061056e565b5050565b600360009054906101000a900473ffffffffffffffffffffffffffffffffffffffff1673ffffffffffffffffffffffffffffffffffffffff163373ffffffffffffffffffffffffffffffffffffffff16146103ed576040517f08c379a00000000000000000000000000000000000000000000000000000000081526004016103e490610767565b60405180910390fd5b80600260008282829054906101000a900463ffffffff1661040e9190610798565b92506101000a81548163ffffffff021916908363ffffffff1602179055506000600160008473ffffffffffffffffffffffffffffffffffffffff1673ffffffffffffffffffffffffffffffffffffffff16815260200190815260200160002060009054906101000a900463ffffffff1663ffffffff1614156104ee576000829080600181540180825580915050600190039060005260206000200160009091909190916101000a81548173ffffffffffffffffffffffffffffffffffffffff021916908373ffffffffffffffffffffffffffffffffffffffff1602179055505b80600160008473ffffffffffffffffffffffffffffffffffffffff1673ffffffffffffffffffffffffffffffffffffffff16815260200190815260200160002060008282829054906101000a900463ffffffff1661054c9190610798565b92506101000a81548163ffffffff021916908363ffffffff1602179055505050565b8280548282559060005260206000209081019282156105e7579160200282015b828111156105e65782518260006101000a81548173ffffffffffffffffffffffffffffffffffffffff021916908373ffffffffffffffffffffffffffffffffffffffff1602179055509160200191906001019061058e565b5b5090506105f491906105f8565b5090565b5b808211156106115760008160009055506001016105f9565b5090565b60008135905061062481610950565b92915050565b60008135905061063981610967565b92915050565b6000806040838503121561065257600080fd5b600061066085828601610615565b92505060206106718582860161062a565b9150509250929050565b6000610688603283610787565b91507f4f6e6c79207468652064697374726962757465722063616e207472696767657260008301527f2074686520646973747269627574696f6e2e00000000000000000000000000006020830152604082019050919050565b60006106ee602e83610787565b91507f4f6e6c792074686520636f6e7472616374206f776e65722063616e2063616c6c60008301527f20746869732066756e6374696f6e0000000000000000000000000000000000006020830152604082019050919050565b600060208201905081810360008301526107608161067b565b9050919050565b60006020820190508181036000830152610780816106e1565b9050919050565b600082825260208201905092915050565b60006107a382610899565b91506107ae83610899565b92508263ffffffff038211156107c7576107c66108f2565b5b828201905092915050565b60006107dd82610899565b91506107e883610899565b9250826107f8576107f7610921565b5b828204905092915050565b600061080e8261088f565b91506108198361088f565b9250817fffffffffffffffffffffffffffffffffffffffffffffffffffffffffffffffff0483118215151615610852576108516108f2565b5b828202905092915050565b60006108688261086f565b9050919050565b600073ffffffffffffffffffffffffffffffffffffffff82169050919050565b6000819050919050565b600063ffffffff82169050919050565b60006108b48261088f565b91507fffffffffffffffffffffffffffffffffffffffffffffffffffffffffffffffff8214156108e7576108e66108f2565b5b600182019050919050565b7f4e487b7100000000000000000000000000000000000000000000000000000000600052601160045260246000fd5b7f4e487b7100000000000000000000000000000000000000000000000000000000600052601260045260246000fd5b6109598161085d565b811461096457600080fd5b50565b61097081610899565b811461097b57600080fd5b5056fea2646970667358221220ab11ba7afbe205ed20c01766378359a64ab28154e8259bee5a5af76cd875cc7264736f6c63430008000033",
  "linkReferences": {},
  "deployedLinkReferences": {}
}