{
  "_format": "hh-sol-artifact-1",
  "contractName": "ElectricityTradingHub",
  "sourceName": "contracts/ElectricityTradingHub.sol",
  "abi": [
    {
      "inputs": [],
      "stateMutability": "nonpayable",
      "type": "constructor"
    },
    {
      "inputs": [
        {
          "internalType": "uint32",
          "name": "amountInKwH",
          "type": "uint32"
        }
      ],
      "name": "consume",
      "outputs": [],
      "stateMutability": "payable",
      "type": "function"
    },
    {
      "inputs": [],
      "name": "getCo2PricePerTonInCent",
      "outputs": [
        {
          "internalType": "uint16",
          "name": "",
          "type": "uint16"
        }
      ],
      "stateMutability": "view",
      "type": "function"
    },
    {
      "inputs": [],
      "name": "getGramCo2PerKwH",
      "outputs": [
        {
          "internalType": "uint16",
          "name": "",
          "type": "uint16"
        }
      ],
      "stateMutability": "view",
      "type": "function"
    },
    {
      "inputs": [],
      "name": "getQueue",
      "outputs": [
        {
          "components": [
            {
              "internalType": "address payable",
              "name": "provider",
              "type": "address"
            },
            {
              "internalType": "uint32",
              "name": "kwhAmount",
              "type": "uint32"
            },
            {
              "internalType": "bool",
              "name": "isRenewable",
              "type": "bool"
            }
          ],
          "internalType": "struct ElectricityTradingHub.Provisioning[]",
          "name": "",
          "type": "tuple[]"
        }
      ],
      "stateMutability": "view",
      "type": "function"
    },
    {
      "inputs": [],
      "name": "getSpotPriceInCent",
      "outputs": [
        {
          "internalType": "uint16",
          "name": "",
          "type": "uint16"
        }
      ],
      "stateMutability": "view",
      "type": "function"
    },
    {
      "inputs": [
        {
          "internalType": "uint32",
          "name": "kwhAmount",
          "type": "uint32"
        },
        {
          "internalType": "bool",
          "name": "isRenewable",
          "type": "bool"
        }
      ],
      "name": "provide",
      "outputs": [],
      "stateMutability": "nonpayable",
      "type": "function"
    }
  ],
  "bytecode": "0x6080604052611f40600060146101000a81548161ffff021916908361ffff16021790555060e9600060166101000a81548161ffff021916908361ffff160217905550601e600060186101000a81548161ffff021916908361ffff16021790555034801561006b57600080fd5b5033604051610079906100e4565b6100839190610100565b604051809103906000f08015801561009f573d6000803e3d6000fd5b506000806101000a81548173ffffffffffffffffffffffffffffffffffffffff021916908373ffffffffffffffffffffffffffffffffffffffff16021790555061014d565b610b04806110a583390190565b6100fa8161011b565b82525050565b600060208201905061011560008301846100f1565b92915050565b60006101268261012d565b9050919050565b600073ffffffffffffffffffffffffffffffffffffffff82169050919050565b610f498061015c6000396000f3fe6080604052600436106100555760003560e01c806301fce27e1461005a5780633eba7278146100855780636f616752146100b0578063878eae84146100db578063f3991cde146100f7578063f62a5ba614610122575b600080fd5b34801561006657600080fd5b5061006f61014b565b60405161007c9190610bee565b60405180910390f35b34801561009157600080fd5b5061009a610240565b6040516100a79190610c50565b60405180910390f35b3480156100bc57600080fd5b506100c5610257565b6040516100d29190610c50565b60405180910390f35b6100f560048036038101906100f091906109a8565b61026e565b005b34801561010357600080fd5b5061010c610580565b6040516101199190610c50565b60405180910390f35b34801561012e57600080fd5b50610149600480360381019061014491906109d1565b610597565b005b60606001600001805480602002602001604051908101604052809291908181526020016000905b82821015610237578382906000526020600020016040518060600160405290816000820160009054906101000a900473ffffffffffffffffffffffffffffffffffffffff1673ffffffffffffffffffffffffffffffffffffffff1673ffffffffffffffffffffffffffffffffffffffff1681526020016000820160149054906101000a900463ffffffff1663ffffffff1663ffffffff1681526020016000820160189054906101000a900460ff16151515158152505081526020019060010190610172565b50505050905090565b60008060149054906101000a900461ffff16905090565b60008060189054906101000a900461ffff16905090565b6000610279826105e2565b63ffffffff1690508034101561028e57600080fd5b600060016002015490505b60016003015481111580156102b5575060008363ffffffff1610155b1561057b5760018001600082815260200190815260200160002060009054906101000a900460ff1661031c576040517f08c379a000000000000000000000000000000000000000000000000000000000815260040161031390610c30565b60405180910390fd5b600061032661061e565b905060008082602001518661033b9190610d92565b63ffffffff1610610364578160200151905081602001518561035d9190610d92565b9450610398565b8490508482602001516103779190610d92565b826020019063ffffffff16908163ffffffff1681525050610397826107a7565b5b6000826040015115610492576103ad866105e2565b9050826000015173ffffffffffffffffffffffffffffffffffffffff166108fc8263ffffffff169081150290604051600060405180830381858888f193505050501580156103ff573d6000803e3d6000fd5b5060008054906101000a900473ffffffffffffffffffffffffffffffffffffffff1673ffffffffffffffffffffffffffffffffffffffff1663f005a03233846040518363ffffffff1660e01b815260040161045b929190610bc5565b600060405180830381600087803b15801561047557600080fd5b505af1158015610489573d6000803e3d6000fd5b50505050610565565b600060189054906101000a900461ffff1661ffff16866104b29190610d20565b9050826000015173ffffffffffffffffffffffffffffffffffffffff166108fc8263ffffffff169081150290604051600060405180830381858888f19350505050158015610504573d6000803e3d6000fd5b506000610510836108c3565b9050836000015173ffffffffffffffffffffffffffffffffffffffff166108fc8263ffffffff169081150290604051600060405180830381858888f19350505050158015610562573d6000803e3d6000fd5b50505b505050808061057390610e3e565b915050610299565b505050565b60008060169054906101000a900461ffff16905090565b600060405180606001604052803373ffffffffffffffffffffffffffffffffffffffff1681526020018463ffffffff16815260200183151581525090506105dd816107a7565b505050565b60006105ed826108c3565b600060189054906101000a900461ffff1661ffff168361060d9190610d20565b6106179190610cb5565b9050919050565b61062661093f565b61062e610918565b1561066e576040517f08c379a000000000000000000000000000000000000000000000000000000000815260040161066590610c10565b60405180910390fd5b6000600160020154905060018001600082815260200190815260200160002060006101000a81549060ff0219169055600160020160008154809291906106b390610e3e565b9190505550600160000181815481106106f5577f4e487b7100000000000000000000000000000000000000000000000000000000600052603260045260246000fd5b906000526020600020016040518060600160405290816000820160009054906101000a900473ffffffffffffffffffffffffffffffffffffffff1673ffffffffffffffffffffffffffffffffffffffff1673ffffffffffffffffffffffffffffffffffffffff1681526020016000820160149054906101000a900463ffffffff1663ffffffff1663ffffffff1681526020016000820160189054906101000a900460ff16151515158152505091505090565b6001600001819080600181540180825580915050600190039060005260206000200160009091909190915060008201518160000160006101000a81548173ffffffffffffffffffffffffffffffffffffffff021916908373ffffffffffffffffffffffffffffffffffffffff16021790555060208201518160000160146101000a81548163ffffffff021916908363ffffffff16021790555060408201518160000160186101000a81548160ff021916908315150217905550505060018060010160006001806000018054905061087e9190610d5e565b815260200190815260200160002060006101000a81548160ff021916908315150217905550600180600001805490506108b79190610d5e565b60016003018190555050565b60006103e8600060169054906101000a900461ffff1661ffff16600060149054906101000a900461ffff1661ffff16846108fd9190610d20565b6109079190610d20565b6109119190610cef565b9050919050565b6000600160030154600160020154118061093a57506000600160000180549050145b905090565b6040518060600160405280600073ffffffffffffffffffffffffffffffffffffffff168152602001600063ffffffff1681526020016000151581525090565b60008135905061098d81610ee5565b92915050565b6000813590506109a281610efc565b92915050565b6000602082840312156109ba57600080fd5b60006109c884828501610993565b91505092915050565b600080604083850312156109e457600080fd5b60006109f285828601610993565b9250506020610a038582860161097e565b9150509250929050565b6000610a198383610b56565b60608301905092915050565b610a2e81610dd8565b82525050565b610a3d81610dc6565b82525050565b6000610a4e82610c7b565b610a588185610c93565b9350610a6383610c6b565b8060005b83811015610a94578151610a7b8882610a0d565b9750610a8683610c86565b925050600181019050610a67565b5085935050505092915050565b610aaa81610dea565b82525050565b6000610abd600e83610ca4565b91507f517565756520697320656d7074790000000000000000000000000000000000006000830152602082019050919050565b6000610afd602b83610ca4565b91507f4e6f7420656e6f75676820656e657267792070726f76696465727320696e207460008301527f6865206e6574776f726b2e0000000000000000000000000000000000000000006020830152604082019050919050565b606082016000820151610b6c6000850182610a25565b506020820151610b7f6020850182610ba7565b506040820151610b926040850182610aa1565b50505050565b610ba181610df6565b82525050565b610bb081610e2e565b82525050565b610bbf81610e2e565b82525050565b6000604082019050610bda6000830185610a34565b610be76020830184610bb6565b9392505050565b60006020820190508181036000830152610c088184610a43565b905092915050565b60006020820190508181036000830152610c2981610ab0565b9050919050565b60006020820190508181036000830152610c4981610af0565b9050919050565b6000602082019050610c656000830184610b98565b92915050565b6000819050602082019050919050565b600081519050919050565b6000602082019050919050565b600082825260208201905092915050565b600082825260208201905092915050565b6000610cc082610e2e565b9150610ccb83610e2e565b92508263ffffffff03821115610ce457610ce3610e87565b5b828201905092915050565b6000610cfa82610e2e565b9150610d0583610e2e565b925082610d1557610d14610eb6565b5b828204905092915050565b6000610d2b82610e2e565b9150610d3683610e2e565b92508163ffffffff0483118215151615610d5357610d52610e87565b5b828202905092915050565b6000610d6982610e24565b9150610d7483610e24565b925082821015610d8757610d86610e87565b5b828203905092915050565b6000610d9d82610e2e565b9150610da883610e2e565b925082821015610dbb57610dba610e87565b5b828203905092915050565b6000610dd182610e04565b9050919050565b6000610de382610e04565b9050919050565b60008115159050919050565b600061ffff82169050919050565b600073ffffffffffffffffffffffffffffffffffffffff82169050919050565b6000819050919050565b600063ffffffff82169050919050565b6000610e4982610e24565b91507fffffffffffffffffffffffffffffffffffffffffffffffffffffffffffffffff821415610e7c57610e7b610e87565b5b600182019050919050565b7f4e487b7100000000000000000000000000000000000000000000000000000000600052601160045260246000fd5b7f4e487b7100000000000000000000000000000000000000000000000000000000600052601260045260246000fd5b610eee81610dea565b8114610ef957600080fd5b50565b610f0581610e2e565b8114610f1057600080fd5b5056fea2646970667358221220954047b12fd68981e54a9d161a4133a874181270871035c9267ccb7f50100ca464736f6c63430008000033608060405234801561001057600080fd5b50604051610b04380380610b04833981810160405281019061003291906100cf565b80600260046101000a81548173ffffffffffffffffffffffffffffffffffffffff021916908373ffffffffffffffffffffffffffffffffffffffff16021790555033600360006101000a81548173ffffffffffffffffffffffffffffffffffffffff021916908373ffffffffffffffffffffffffffffffffffffffff16021790555050610141565b6000815190506100c98161012a565b92915050565b6000602082840312156100e157600080fd5b60006100ef848285016100ba565b91505092915050565b60006101038261010a565b9050919050565b600073ffffffffffffffffffffffffffffffffffffffff82169050919050565b610133816100f8565b811461013e57600080fd5b50565b6109b4806101506000396000f3fe6080604052600436106100295760003560e01c8063e4fc6b6d1461002e578063f005a03214610038575b600080fd5b610036610061565b005b34801561004457600080fd5b5061005f600480360381019061005a919061063f565b61035d565b005b600260049054906101000a900473ffffffffffffffffffffffffffffffffffffffff1673ffffffffffffffffffffffffffffffffffffffff163373ffffffffffffffffffffffffffffffffffffffff16146100f1576040517f08c379a00000000000000000000000000000000000000000000000000000000081526004016100e890610747565b60405180910390fd5b600047905060005b6000805490508110156102b1576000808281548110610141577f4e487b7100000000000000000000000000000000000000000000000000000000600052603260045260246000fd5b9060005260206000200160009054906101000a900473ffffffffffffffffffffffffffffffffffffffff1690506000600160008373ffffffffffffffffffffffffffffffffffffffff1673ffffffffffffffffffffffffffffffffffffffff16815260200190815260200160002060009054906101000a900463ffffffff1690506000600260009054906101000a900463ffffffff16826101e291906107d2565b90508273ffffffffffffffffffffffffffffffffffffffff166108fc8263ffffffff16876102109190610803565b9081150290604051600060405180830381858888f1935050505015801561023b573d6000803e3d6000fd5b506000600160008573ffffffffffffffffffffffffffffffffffffffff1673ffffffffffffffffffffffffffffffffffffffff16815260200190815260200160002060006101000a81548163ffffffff021916908363ffffffff16021790555050505080806102a9906108a9565b9150506100f9565b506000600260006101000a81548163ffffffff021916908363ffffffff160217905550600067ffffffffffffffff811115610315577f4e487b7100000000000000000000000000000000000000000000000000000000600052604160045260246000fd5b6040519080825280602002602001820160405280156103435781602001602082028036833780820191505090505b506000908051906020019061035992919061056e565b5050565b600360009054906101000a900473ffffffffffffffffffffffffffffffffffffffff1673ffffffffffffffffffffffffffffffffffffffff163373ffffffffffffffffffffffffffffffffffffffff16146103ed576040517f08c379a00000000000000000000000000000000000000000000000000000000081526004016103e490610767565b60405180910390fd5b80600260008282829054906101000a900463ffffffff1661040e9190610798565b92506101000a81548163ffffffff021916908363ffffffff1602179055506000600160008473ffffffffffffffffffffffffffffffffffffffff1673ffffffffffffffffffffffffffffffffffffffff16815260200190815260200160002060009054906101000a900463ffffffff1663ffffffff1614156104ee576000829080600181540180825580915050600190039060005260206000200160009091909190916101000a81548173ffffffffffffffffffffffffffffffffffffffff021916908373ffffffffffffffffffffffffffffffffffffffff1602179055505b80600160008473ffffffffffffffffffffffffffffffffffffffff1673ffffffffffffffffffffffffffffffffffffffff16815260200190815260200160002060008282829054906101000a900463ffffffff1661054c9190610798565b92506101000a81548163ffffffff021916908363ffffffff1602179055505050565b8280548282559060005260206000209081019282156105e7579160200282015b828111156105e65782518260006101000a81548173ffffffffffffffffffffffffffffffffffffffff021916908373ffffffffffffffffffffffffffffffffffffffff1602179055509160200191906001019061058e565b5b5090506105f491906105f8565b5090565b5b808211156106115760008160009055506001016105f9565b5090565b60008135905061062481610950565b92915050565b60008135905061063981610967565b92915050565b6000806040838503121561065257600080fd5b600061066085828601610615565b92505060206106718582860161062a565b9150509250929050565b6000610688603283610787565b91507f4f6e6c79207468652064697374726962757465722063616e207472696767657260008301527f2074686520646973747269627574696f6e2e00000000000000000000000000006020830152604082019050919050565b60006106ee602e83610787565b91507f4f6e6c792074686520636f6e7472616374206f776e65722063616e2063616c6c60008301527f20746869732066756e6374696f6e0000000000000000000000000000000000006020830152604082019050919050565b600060208201905081810360008301526107608161067b565b9050919050565b60006020820190508181036000830152610780816106e1565b9050919050565b600082825260208201905092915050565b60006107a382610899565b91506107ae83610899565b92508263ffffffff038211156107c7576107c66108f2565b5b828201905092915050565b60006107dd82610899565b91506107e883610899565b9250826107f8576107f7610921565b5b828204905092915050565b600061080e8261088f565b91506108198361088f565b9250817fffffffffffffffffffffffffffffffffffffffffffffffffffffffffffffffff0483118215151615610852576108516108f2565b5b828202905092915050565b60006108688261086f565b9050919050565b600073ffffffffffffffffffffffffffffffffffffffff82169050919050565b6000819050919050565b600063ffffffff82169050919050565b60006108b48261088f565b91507fffffffffffffffffffffffffffffffffffffffffffffffffffffffffffffffff8214156108e7576108e66108f2565b5b600182019050919050565b7f4e487b7100000000000000000000000000000000000000000000000000000000600052601160045260246000fd5b7f4e487b7100000000000000000000000000000000000000000000000000000000600052601260045260246000fd5b6109598161085d565b811461096457600080fd5b50565b61097081610899565b811461097b57600080fd5b5056fea26469706673582212203de64e4f7bc877628958263c679f02178daee9df7d8065586928c1fe2a2fcb1264736f6c63430008000033",
  "linkReferences": {},
  "deployedLinkReferences": {}
}