{
  "_format": "hh-sol-artifact-1",
  "contractName": "ElectricityTradingHub",
  "sourceName": "contracts/energyContracts/ElectricityTradingHub.sol",
  "abi": [
    {
      "inputs": [],
      "stateMutability": "payable",
      "type": "constructor"
    },
    {
      "inputs": [
        {
          "internalType": "uint32",
          "name": "amountInKwH",
          "type": "uint32"
        }
      ],
      "name": "consume",
      "outputs": [],
      "stateMutability": "payable",
      "type": "function"
    },
    {
      "inputs": [],
      "name": "dequeue",
      "outputs": [
        {
          "components": [
            {
              "internalType": "address payable",
              "name": "provider",
              "type": "address"
            },
            {
              "internalType": "uint32",
              "name": "kwhAmount",
              "type": "uint32"
            },
            {
              "internalType": "bool",
              "name": "isRenewable",
              "type": "bool"
            }
          ],
          "internalType": "struct ElectricityTradingHub.Provisioning",
          "name": "",
          "type": "tuple"
        }
      ],
      "stateMutability": "nonpayable",
      "type": "function"
    },
    {
      "inputs": [
        {
          "internalType": "address",
          "name": "",
          "type": "address"
        }
      ],
      "name": "energyBalance",
      "outputs": [
        {
          "internalType": "uint32",
          "name": "",
          "type": "uint32"
        }
      ],
      "stateMutability": "view",
      "type": "function"
    },
    {
      "inputs": [
        {
          "components": [
            {
              "internalType": "address payable",
              "name": "provider",
              "type": "address"
            },
            {
              "internalType": "uint32",
              "name": "kwhAmount",
              "type": "uint32"
            },
            {
              "internalType": "bool",
              "name": "isRenewable",
              "type": "bool"
            }
          ],
          "internalType": "struct ElectricityTradingHub.Provisioning",
          "name": "value",
          "type": "tuple"
        }
      ],
      "name": "enqueue",
      "outputs": [],
      "stateMutability": "nonpayable",
      "type": "function"
    },
    {
      "inputs": [],
      "name": "getAccountEnergyBalance",
      "outputs": [
        {
          "internalType": "uint32",
          "name": "",
          "type": "uint32"
        }
      ],
      "stateMutability": "view",
      "type": "function"
    },
    {
      "inputs": [],
      "name": "getCo2PricePerTonInCent",
      "outputs": [
        {
          "internalType": "uint16",
          "name": "",
          "type": "uint16"
        }
      ],
      "stateMutability": "view",
      "type": "function"
    },
    {
      "inputs": [],
      "name": "getGramCo2PerKwH",
      "outputs": [
        {
          "internalType": "uint16",
          "name": "",
          "type": "uint16"
        }
      ],
      "stateMutability": "view",
      "type": "function"
    },
    {
      "inputs": [
        {
          "internalType": "uint32",
          "name": "amountInKwH",
          "type": "uint32"
        }
      ],
      "name": "getPremium",
      "outputs": [
        {
          "internalType": "uint32",
          "name": "",
          "type": "uint32"
        }
      ],
      "stateMutability": "view",
      "type": "function"
    },
    {
      "inputs": [
        {
          "internalType": "uint32",
          "name": "amountInKwH",
          "type": "uint32"
        }
      ],
      "name": "getPriceInCents",
      "outputs": [
        {
          "internalType": "uint32",
          "name": "",
          "type": "uint32"
        }
      ],
      "stateMutability": "view",
      "type": "function"
    },
    {
      "inputs": [],
      "name": "getQueue",
      "outputs": [
        {
          "components": [
            {
              "internalType": "address payable",
              "name": "provider",
              "type": "address"
            },
            {
              "internalType": "uint32",
              "name": "kwhAmount",
              "type": "uint32"
            },
            {
              "internalType": "bool",
              "name": "isRenewable",
              "type": "bool"
            }
          ],
          "internalType": "struct ElectricityTradingHub.Provisioning[]",
          "name": "",
          "type": "tuple[]"
        }
      ],
      "stateMutability": "view",
      "type": "function"
    },
    {
      "inputs": [],
      "name": "getQueueLength",
      "outputs": [
        {
          "internalType": "uint256",
          "name": "",
          "type": "uint256"
        }
      ],
      "stateMutability": "view",
      "type": "function"
    },
    {
      "inputs": [],
      "name": "getSpotPriceInCent",
      "outputs": [
        {
          "internalType": "uint16",
          "name": "",
          "type": "uint16"
        }
      ],
      "stateMutability": "view",
      "type": "function"
    },
    {
      "inputs": [
        {
          "internalType": "uint32",
          "name": "kwhAmount",
          "type": "uint32"
        },
        {
          "internalType": "bool",
          "name": "isRenewable",
          "type": "bool"
        }
      ],
      "name": "provide",
      "outputs": [],
      "stateMutability": "nonpayable",
      "type": "function"
    }
  ],
  "bytecode": "0x6080604052611f40600060146101000a81548161ffff021916908361ffff16021790555060e9600060166101000a81548161ffff021916908361ffff160217905550601e600060186101000a81548161ffff021916908361ffff160217905550336040516200006e90620000fd565b6200007a91906200011c565b604051809103906000f08015801562000097573d6000803e3d6000fd5b506000806101000a81548173ffffffffffffffffffffffffffffffffffffffff021916908373ffffffffffffffffffffffffffffffffffffffff16021790555060018060010181905550600060016002018190555060006001600301819055506200016d565b610b04806200168d83390190565b620001168162000139565b82525050565b60006020820190506200013360008301846200010b565b92915050565b600062000146826200014d565b9050919050565b600073ffffffffffffffffffffffffffffffffffffffff82169050919050565b611510806200017d6000396000f3fe6080604052600436106100c25760003560e01c8063a099b1561161007f578063c67f915d11610059578063c67f915d1461025f578063ed7653e714610288578063f3991cde146102c5578063f62a5ba6146102f0576100c2565b8063a099b156146101ba578063a7354760146101f7578063b8f7700514610234576100c2565b806301fce27e146100c75780633eba7278146100f257806344413f7a1461011d5780636f61675214610148578063878eae8414610173578063957908d11461018f575b600080fd5b3480156100d357600080fd5b506100dc610319565b6040516100e991906110a0565b60405180910390f35b3480156100fe57600080fd5b506101076104c5565b60405161011491906110fd565b60405180910390f35b34801561012957600080fd5b506101326104dc565b60405161013f9190611133565b60405180910390f35b34801561015457600080fd5b5061015d610533565b60405161016a91906110fd565b60405180910390f35b61018d60048036038101906101889190610e6f565b61054a565b005b34801561019b57600080fd5b506101a4610942565b6040516101b191906110e2565b60405180910390f35b3480156101c657600080fd5b506101e160048036038101906101dc9190610e6f565b610b04565b6040516101ee9190611133565b60405180910390f35b34801561020357600080fd5b5061021e60048036038101906102199190610e6f565b610b59565b60405161022b9190611133565b60405180910390f35b34801561024057600080fd5b50610249610b95565b6040516102569190611118565b60405180910390f35b34801561026b57600080fd5b5061028660048036038101906102819190610e46565b610bbd565b005b34801561029457600080fd5b506102af60048036038101906102aa9190610e1d565b610ca5565b6040516102bc9190611133565b60405180910390f35b3480156102d157600080fd5b506102da610cc8565b6040516102e791906110fd565b60405180910390f35b3480156102fc57600080fd5b5061031760048036038101906103129190610e98565b610cdf565b005b6060600060016003015467ffffffffffffffff811115610362577f4e487b7100000000000000000000000000000000000000000000000000000000600052604160045260246000fd5b60405190808252806020026020018201604052801561039b57816020015b610388610d2a565b8152602001906001900390816103805790505b50905060005b6001600301548110156104bd57600160000160008281526020019081526020016000206040518060600160405290816000820160009054906101000a900473ffffffffffffffffffffffffffffffffffffffff1673ffffffffffffffffffffffffffffffffffffffff1673ffffffffffffffffffffffffffffffffffffffff1681526020016000820160149054906101000a900463ffffffff1663ffffffff1663ffffffff1681526020016000820160189054906101000a900460ff16151515158152505082828151811061049f577f4e487b7100000000000000000000000000000000000000000000000000000000600052603260045260246000fd5b602002602001018190525080806104b5906113a8565b9150506103a1565b508091505090565b60008060149054906101000a900461ffff16905090565b6000600560003373ffffffffffffffffffffffffffffffffffffffff1673ffffffffffffffffffffffffffffffffffffffff16815260200190815260200160002060009054906101000a900463ffffffff16905090565b60008060189054906101000a900461ffff16905090565b600064e8d4a5100090508034101561056157600080fd5b60008060016000016000600180015481526020019081526020016000206040518060600160405290816000820160009054906101000a900473ffffffffffffffffffffffffffffffffffffffff1673ffffffffffffffffffffffffffffffffffffffff1673ffffffffffffffffffffffffffffffffffffffff1681526020016000820160149054906101000a900463ffffffff1663ffffffff1663ffffffff1681526020016000820160189054906101000a900460ff16151515158152505090505b8363ffffffff168263ffffffff16146107e857806020015163ffffffff16828561064d91906112fc565b63ffffffff16106107415781816020015161066891906112fc565b82610673919061121f565b915061067d610942565b5060016000016000600180015481526020019081526020016000206040518060600160405290816000820160009054906101000a900473ffffffffffffffffffffffffffffffffffffffff1673ffffffffffffffffffffffffffffffffffffffff1673ffffffffffffffffffffffffffffffffffffffff1681526020016000820160149054906101000a900463ffffffff1663ffffffff1663ffffffff1681526020016000820160189054906101000a900460ff16151515158152505090506107e3565b8184826020015161075291906112fc565b61075c919061121f565b600160000160006001800154815260200190815260200160002060000160146101000a81548163ffffffff021916908363ffffffff16021790555081846107a391906112fc565b816020018181516107b491906112fc565b91509063ffffffff16908163ffffffff168152505081846107d591906112fc565b826107e0919061121f565b91505b610623565b806000015173ffffffffffffffffffffffffffffffffffffffff166108fc849081150290604051600060405180830381858888f19350505050158015610832573d6000803e3d6000fd5b5060008054906101000a900473ffffffffffffffffffffffffffffffffffffffff1673ffffffffffffffffffffffffffffffffffffffff1663f005a03233846040518363ffffffff1660e01b815260040161088e929190611077565b600060405180830381600087803b1580156108a857600080fd5b505af11580156108bc573d6000803e3d6000fd5b5050505083600560003373ffffffffffffffffffffffffffffffffffffffff1673ffffffffffffffffffffffffffffffffffffffff16815260200190815260200160002060008282829054906101000a900463ffffffff1661091e919061121f565b92506101000a81548163ffffffff021916908363ffffffff16021790555050505050565b61094a610d2a565b60018001546001600201541015610996576040517f08c379a000000000000000000000000000000000000000000000000000000000815260040161098d906110c2565b60405180910390fd5b600060016000016000600180015481526020019081526020016000206040518060600160405290816000820160009054906101000a900473ffffffffffffffffffffffffffffffffffffffff1673ffffffffffffffffffffffffffffffffffffffff1673ffffffffffffffffffffffffffffffffffffffff1681526020016000820160149054906101000a900463ffffffff1663ffffffff1663ffffffff1681526020016000820160189054906101000a900460ff16151515158152505090506001600001600060018001548152602001908152602001600020600080820160006101000a81549073ffffffffffffffffffffffffffffffffffffffff02191690556000820160146101000a81549063ffffffff02191690556000820160186101000a81549060ff021916905550506001806001016000828254610ada91906111c9565b925050819055506001806003016000828254610af691906112c8565b925050819055508091505090565b60006103e8600060169054906101000a900461ffff1661ffff16600060149054906101000a900461ffff1661ffff1684610b3e919061128a565b610b48919061128a565b610b529190611259565b9050919050565b6000610b6482610b04565b600060189054906101000a900461ffff1661ffff1683610b84919061128a565b610b8e919061121f565b9050919050565b600060018060010154600160020154610bae91906112c8565b610bb891906111c9565b905090565b6001806002016000828254610bd291906111c9565b925050819055508060016000016000600160020154815260200190815260200160002060008201518160000160006101000a81548173ffffffffffffffffffffffffffffffffffffffff021916908373ffffffffffffffffffffffffffffffffffffffff16021790555060208201518160000160146101000a81548163ffffffff021916908363ffffffff16021790555060408201518160000160186101000a81548160ff0219169083151502179055509050506001806003016000828254610c9b91906111c9565b9250508190555050565b60056020528060005260406000206000915054906101000a900463ffffffff1681565b60008060169054906101000a900461ffff16905090565b600060405180606001604052803373ffffffffffffffffffffffffffffffffffffffff1681526020018463ffffffff1681526020018315158152509050610d2581610bbd565b505050565b6040518060600160405280600073ffffffffffffffffffffffffffffffffffffffff168152602001600063ffffffff1681526020016000151581525090565b600081359050610d788161147e565b92915050565b600081359050610d8d81611495565b92915050565b600081359050610da2816114ac565b92915050565b600060608284031215610dba57600080fd5b610dc4606061114e565b90506000610dd484828501610d7e565b6000830152506020610de884828501610e08565b6020830152506040610dfc84828501610d93565b60408301525092915050565b600081359050610e17816114c3565b92915050565b600060208284031215610e2f57600080fd5b6000610e3d84828501610d69565b91505092915050565b600060608284031215610e5857600080fd5b6000610e6684828501610da8565b91505092915050565b600060208284031215610e8157600080fd5b6000610e8f84828501610e08565b91505092915050565b60008060408385031215610eab57600080fd5b6000610eb985828601610e08565b9250506020610eca85828601610d93565b9150509250929050565b6000610ee08383610fb7565b60608301905092915050565b610ef581611342565b82525050565b610f0481611330565b82525050565b6000610f158261118f565b610f1f81856111a7565b9350610f2a8361117f565b8060005b83811015610f5b578151610f428882610ed4565b9750610f4d8361119a565b925050600181019050610f2e565b5085935050505092915050565b610f7181611354565b82525050565b6000610f84600e836111b8565b91507f517565756520697320656d7074790000000000000000000000000000000000006000830152602082019050919050565b606082016000820151610fcd6000850182610eec565b506020820151610fe06020850182611059565b506040820151610ff36040850182610f68565b50505050565b60608201600082015161100f6000850182610eec565b5060208201516110226020850182611059565b5060408201516110356040850182610f68565b50505050565b61104481611360565b82525050565b6110538161138e565b82525050565b61106281611398565b82525050565b61107181611398565b82525050565b600060408201905061108c6000830185610efb565b6110996020830184611068565b9392505050565b600060208201905081810360008301526110ba8184610f0a565b905092915050565b600060208201905081810360008301526110db81610f77565b9050919050565b60006060820190506110f76000830184610ff9565b92915050565b6000602082019050611112600083018461103b565b92915050565b600060208201905061112d600083018461104a565b92915050565b60006020820190506111486000830184611068565b92915050565b6000604051905081810181811067ffffffffffffffff821117156111755761117461144f565b5b8060405250919050565b6000819050602082019050919050565b600081519050919050565b6000602082019050919050565b600082825260208201905092915050565b600082825260208201905092915050565b60006111d48261138e565b91506111df8361138e565b9250827fffffffffffffffffffffffffffffffffffffffffffffffffffffffffffffffff03821115611214576112136113f1565b5b828201905092915050565b600061122a82611398565b915061123583611398565b92508263ffffffff0382111561124e5761124d6113f1565b5b828201905092915050565b600061126482611398565b915061126f83611398565b92508261127f5761127e611420565b5b828204905092915050565b600061129582611398565b91506112a083611398565b92508163ffffffff04831182151516156112bd576112bc6113f1565b5b828202905092915050565b60006112d38261138e565b91506112de8361138e565b9250828210156112f1576112f06113f1565b5b828203905092915050565b600061130782611398565b915061131283611398565b925082821015611325576113246113f1565b5b828203905092915050565b600061133b8261136e565b9050919050565b600061134d8261136e565b9050919050565b60008115159050919050565b600061ffff82169050919050565b600073ffffffffffffffffffffffffffffffffffffffff82169050919050565b6000819050919050565b600063ffffffff82169050919050565b60006113b38261138e565b91507fffffffffffffffffffffffffffffffffffffffffffffffffffffffffffffffff8214156113e6576113e56113f1565b5b600182019050919050565b7f4e487b7100000000000000000000000000000000000000000000000000000000600052601160045260246000fd5b7f4e487b7100000000000000000000000000000000000000000000000000000000600052601260045260246000fd5b7f4e487b7100000000000000000000000000000000000000000000000000000000600052604160045260246000fd5b61148781611330565b811461149257600080fd5b50565b61149e81611342565b81146114a957600080fd5b50565b6114b581611354565b81146114c057600080fd5b50565b6114cc81611398565b81146114d757600080fd5b5056fea2646970667358221220ba7ad3ef854482dedebb90a0b72390fa9e1a77c16e9bacf5168e5eb63f54c24a64736f6c63430008000033608060405234801561001057600080fd5b50604051610b04380380610b04833981810160405281019061003291906100cf565b80600260046101000a81548173ffffffffffffffffffffffffffffffffffffffff021916908373ffffffffffffffffffffffffffffffffffffffff16021790555033600360006101000a81548173ffffffffffffffffffffffffffffffffffffffff021916908373ffffffffffffffffffffffffffffffffffffffff16021790555050610141565b6000815190506100c98161012a565b92915050565b6000602082840312156100e157600080fd5b60006100ef848285016100ba565b91505092915050565b60006101038261010a565b9050919050565b600073ffffffffffffffffffffffffffffffffffffffff82169050919050565b610133816100f8565b811461013e57600080fd5b50565b6109b4806101506000396000f3fe6080604052600436106100295760003560e01c8063e4fc6b6d1461002e578063f005a03214610038575b600080fd5b610036610061565b005b34801561004457600080fd5b5061005f600480360381019061005a919061063f565b61035d565b005b600260049054906101000a900473ffffffffffffffffffffffffffffffffffffffff1673ffffffffffffffffffffffffffffffffffffffff163373ffffffffffffffffffffffffffffffffffffffff16146100f1576040517f08c379a00000000000000000000000000000000000000000000000000000000081526004016100e890610747565b60405180910390fd5b600047905060005b6000805490508110156102b1576000808281548110610141577f4e487b7100000000000000000000000000000000000000000000000000000000600052603260045260246000fd5b9060005260206000200160009054906101000a900473ffffffffffffffffffffffffffffffffffffffff1690506000600160008373ffffffffffffffffffffffffffffffffffffffff1673ffffffffffffffffffffffffffffffffffffffff16815260200190815260200160002060009054906101000a900463ffffffff1690506000600260009054906101000a900463ffffffff16826101e291906107d2565b90508273ffffffffffffffffffffffffffffffffffffffff166108fc8263ffffffff16876102109190610803565b9081150290604051600060405180830381858888f1935050505015801561023b573d6000803e3d6000fd5b506000600160008573ffffffffffffffffffffffffffffffffffffffff1673ffffffffffffffffffffffffffffffffffffffff16815260200190815260200160002060006101000a81548163ffffffff021916908363ffffffff16021790555050505080806102a9906108a9565b9150506100f9565b506000600260006101000a81548163ffffffff021916908363ffffffff160217905550600067ffffffffffffffff811115610315577f4e487b7100000000000000000000000000000000000000000000000000000000600052604160045260246000fd5b6040519080825280602002602001820160405280156103435781602001602082028036833780820191505090505b506000908051906020019061035992919061056e565b5050565b600360009054906101000a900473ffffffffffffffffffffffffffffffffffffffff1673ffffffffffffffffffffffffffffffffffffffff163373ffffffffffffffffffffffffffffffffffffffff16146103ed576040517f08c379a00000000000000000000000000000000000000000000000000000000081526004016103e490610767565b60405180910390fd5b80600260008282829054906101000a900463ffffffff1661040e9190610798565b92506101000a81548163ffffffff021916908363ffffffff1602179055506000600160008473ffffffffffffffffffffffffffffffffffffffff1673ffffffffffffffffffffffffffffffffffffffff16815260200190815260200160002060009054906101000a900463ffffffff1663ffffffff1614156104ee576000829080600181540180825580915050600190039060005260206000200160009091909190916101000a81548173ffffffffffffffffffffffffffffffffffffffff021916908373ffffffffffffffffffffffffffffffffffffffff1602179055505b80600160008473ffffffffffffffffffffffffffffffffffffffff1673ffffffffffffffffffffffffffffffffffffffff16815260200190815260200160002060008282829054906101000a900463ffffffff1661054c9190610798565b92506101000a81548163ffffffff021916908363ffffffff1602179055505050565b8280548282559060005260206000209081019282156105e7579160200282015b828111156105e65782518260006101000a81548173ffffffffffffffffffffffffffffffffffffffff021916908373ffffffffffffffffffffffffffffffffffffffff1602179055509160200191906001019061058e565b5b5090506105f491906105f8565b5090565b5b808211156106115760008160009055506001016105f9565b5090565b60008135905061062481610950565b92915050565b60008135905061063981610967565b92915050565b6000806040838503121561065257600080fd5b600061066085828601610615565b92505060206106718582860161062a565b9150509250929050565b6000610688603283610787565b91507f4f6e6c79207468652064697374726962757465722063616e207472696767657260008301527f2074686520646973747269627574696f6e2e00000000000000000000000000006020830152604082019050919050565b60006106ee602e83610787565b91507f4f6e6c792074686520636f6e7472616374206f776e65722063616e2063616c6c60008301527f20746869732066756e6374696f6e0000000000000000000000000000000000006020830152604082019050919050565b600060208201905081810360008301526107608161067b565b9050919050565b60006020820190508181036000830152610780816106e1565b9050919050565b600082825260208201905092915050565b60006107a382610899565b91506107ae83610899565b92508263ffffffff038211156107c7576107c66108f2565b5b828201905092915050565b60006107dd82610899565b91506107e883610899565b9250826107f8576107f7610921565b5b828204905092915050565b600061080e8261088f565b91506108198361088f565b9250817fffffffffffffffffffffffffffffffffffffffffffffffffffffffffffffffff0483118215151615610852576108516108f2565b5b828202905092915050565b60006108688261086f565b9050919050565b600073ffffffffffffffffffffffffffffffffffffffff82169050919050565b6000819050919050565b600063ffffffff82169050919050565b60006108b48261088f565b91507fffffffffffffffffffffffffffffffffffffffffffffffffffffffffffffffff8214156108e7576108e66108f2565b5b600182019050919050565b7f4e487b7100000000000000000000000000000000000000000000000000000000600052601160045260246000fd5b7f4e487b7100000000000000000000000000000000000000000000000000000000600052601260045260246000fd5b6109598161085d565b811461096457600080fd5b50565b61097081610899565b811461097b57600080fd5b5056fea2646970667358221220ab11ba7afbe205ed20c01766378359a64ab28154e8259bee5a5af76cd875cc7264736f6c63430008000033",
  "linkReferences": {},
  "deployedLinkReferences": {}
}