{
  "_format": "hh-sol-artifact-1",
  "contractName": "ElectricityAuction",
  "sourceName": "contracts/energyContracts/ElectricityAuction.sol",
  "abi": [
    {
      "inputs": [
        {
          "internalType": "uint256",
          "name": "_kwhOffered",
          "type": "uint256"
        },
        {
          "internalType": "address",
          "name": "_auctioneer",
          "type": "address"
        },
        {
          "internalType": "bool",
          "name": "_isRenewable",
          "type": "bool"
        },
        {
          "internalType": "address",
          "name": "callerAddress",
          "type": "address"
        }
      ],
      "stateMutability": "nonpayable",
      "type": "constructor"
    },
    {
      "anonymous": false,
      "inputs": [],
      "name": "AuctionCollected",
      "type": "event"
    },
    {
      "anonymous": false,
      "inputs": [
        {
          "indexed": false,
          "internalType": "uint256",
          "name": "price",
          "type": "uint256"
        },
        {
          "indexed": false,
          "internalType": "address",
          "name": "winner",
          "type": "address"
        }
      ],
      "name": "AuctionEnded",
      "type": "event"
    },
    {
      "anonymous": false,
      "inputs": [
        {
          "indexed": false,
          "internalType": "address",
          "name": "bidder",
          "type": "address"
        },
        {
          "indexed": false,
          "internalType": "uint256",
          "name": "bidPerKwh",
          "type": "uint256"
        }
      ],
      "name": "BidPlaced",
      "type": "event"
    },
    {
      "inputs": [],
      "name": "bid",
      "outputs": [],
      "stateMutability": "payable",
      "type": "function"
    },
    {
      "inputs": [],
      "name": "collect",
      "outputs": [],
      "stateMutability": "payable",
      "type": "function"
    },
    {
      "inputs": [],
      "name": "endAuction",
      "outputs": [],
      "stateMutability": "payable",
      "type": "function"
    },
    {
      "inputs": [],
      "name": "getPremium",
      "outputs": [
        {
          "internalType": "uint256",
          "name": "",
          "type": "uint256"
        }
      ],
      "stateMutability": "view",
      "type": "function"
    },
    {
      "inputs": [],
      "name": "getPriceForThisAuction",
      "outputs": [
        {
          "internalType": "uint256",
          "name": "",
          "type": "uint256"
        }
      ],
      "stateMutability": "view",
      "type": "function"
    }
  ],
  "bytecode": "0x608060405260006003556000600460006101000a81548173ffffffffffffffffffffffffffffffffffffffff021916908373ffffffffffffffffffffffffffffffffffffffff1602179055506001600460146101000a81548160ff0219169083151502179055506000600760146101000a81548160ff0219169083151502179055503480156200008e57600080fd5b50604051620018b7380380620018b78339818101604052810190620000b4919062000321565b8360058190555082600660006101000a81548173ffffffffffffffffffffffffffffffffffffffff021916908373ffffffffffffffffffffffffffffffffffffffff16021790555081600660146101000a81548160ff02191690831515021790555033600760006101000a81548173ffffffffffffffffffffffffffffffffffffffff021916908373ffffffffffffffffffffffffffffffffffffffff160217905550806000806101000a81548173ffffffffffffffffffffffffffffffffffffffff021916908373ffffffffffffffffffffffffffffffffffffffff16021790555060008054906101000a900473ffffffffffffffffffffffffffffffffffffffff1673ffffffffffffffffffffffffffffffffffffffff16632c8a75266040518163ffffffff1660e01b81526004016040805180830381600087803b158015620001ff57600080fd5b505af115801562000214573d6000803e3d6000fd5b505050506040513d601f19601f820116820180604052508101906200023a9190620002f5565b600860008201518160000155602082015181600101559050505050505062000488565b6000815190506200026e816200043a565b92915050565b600081519050620002858162000454565b92915050565b6000604082840312156200029e57600080fd5b620002aa60406200038d565b90506000620002bc84828501620002de565b6000830152506020620002d284828501620002de565b60208301525092915050565b600081519050620002ef816200046e565b92915050565b6000604082840312156200030857600080fd5b600062000318848285016200028b565b91505092915050565b600080600080608085870312156200033857600080fd5b60006200034887828801620002de565b94505060206200035b878288016200025d565b93505060406200036e8782880162000274565b925050606062000381878288016200025d565b91505092959194509250565b6000604051905081810181811067ffffffffffffffff82111715620003b757620003b66200040b565b5b8060405250919050565b6000620003ce82620003e1565b9050919050565b60008115159050919050565b600073ffffffffffffffffffffffffffffffffffffffff82169050919050565b6000819050919050565b7f4e487b7100000000000000000000000000000000000000000000000000000000600052604160045260246000fd5b6200044581620003c1565b81146200045157600080fd5b50565b6200045f81620003d5565b81146200046b57600080fd5b50565b620004798162000401565b81146200048557600080fd5b50565b61141f80620004986000396000f3fe60806040526004361061004a5760003560e01c80631998aeef1461004f5780637258217114610059578063c974402914610084578063e5225381146100af578063fe67a54b146100b9575b600080fd5b6100576100c3565b005b34801561006557600080fd5b5061006e6102e3565b60405161007b919061114f565b60405180910390f35b34801561009057600080fd5b506100996103d2565b6040516100a6919061114f565b60405180910390f35b6100b7610409565b005b6100c16108c2565b005b600460149054906101000a900460ff16610112576040517f08c379a00000000000000000000000000000000000000000000000000000000081526004016101099061110f565b60405180910390fd5b600061011c6103d2565b905080341015610161576040517f08c379a00000000000000000000000000000000000000000000000000000000081526004016101589061112f565b60405180910390fd5b60405180604001604052803373ffffffffffffffffffffffffffffffffffffffff16815260200160055483346101979190611285565b6101a191906111fa565b815250600160003373ffffffffffffffffffffffffffffffffffffffff1673ffffffffffffffffffffffffffffffffffffffff16815260200190815260200160002060008201518160000160006101000a81548173ffffffffffffffffffffffffffffffffffffffff021916908373ffffffffffffffffffffffffffffffffffffffff160217905550602082015181600101559050506002339080600181540180825580915050600190039060005260206000200160009091909190916101000a81548173ffffffffffffffffffffffffffffffffffffffff021916908373ffffffffffffffffffffffffffffffffffffffff1602179055507f3fabff0a9c3ecd6814702e247fa9733e5d0aa69e3a38590f92cb18f623a2254d33600554346102ca91906111fa565b6040516102d8929190611066565b60405180910390a150565b6000600460149054906101000a900460ff1615610335576040517f08c379a000000000000000000000000000000000000000000000000000000000815260040161032c906110af565b60405180910390fd5b3073ffffffffffffffffffffffffffffffffffffffff1663c97440296040518163ffffffff1660e01b815260040160206040518083038186803b15801561037b57600080fd5b505afa15801561038f573d6000803e3d6000fd5b505050506040513d601f19601f820116820180604052508101906103b39190610da9565b6003546005546103c3919061122b565b6103cd91906111a4565b905090565b60006103e86008600001546008600101546005546103f0919061122b565b6103fa919061122b565b61040491906111fa565b905090565b600460149054906101000a900460ff1615610459576040517f08c379a0000000000000000000000000000000000000000000000000000000008152600401610450906110af565b60405180910390fd5b600460009054906101000a900473ffffffffffffffffffffffffffffffffffffffff1673ffffffffffffffffffffffffffffffffffffffff163373ffffffffffffffffffffffffffffffffffffffff16146104e9576040517f08c379a00000000000000000000000000000000000000000000000000000000081526004016104e09061108f565b60405180910390fd5b600760009054906101000a900473ffffffffffffffffffffffffffffffffffffffff1673ffffffffffffffffffffffffffffffffffffffff1663d4ffef72336005546040518363ffffffff1660e01b8152600401610548929190611066565b600060405180830381600087803b15801561056257600080fd5b505af1158015610576573d6000803e3d6000fd5b505050506001600760146101000a81548160ff021916908315150217905550600660149054906101000a900460ff16156107795760006105b46102e3565b9050600760009054906101000a900473ffffffffffffffffffffffffffffffffffffffff1673ffffffffffffffffffffffffffffffffffffffff16627d0275600660009054906101000a900473ffffffffffffffffffffffffffffffffffffffff166005546040518363ffffffff1660e01b815260040161063692919061103d565b600060405180830381600087803b15801561065057600080fd5b505af1158015610664573d6000803e3d6000fd5b50505050600660009054906101000a900473ffffffffffffffffffffffffffffffffffffffff1673ffffffffffffffffffffffffffffffffffffffff166108fc829081150290604051600060405180830381858888f193505050501580156106d0573d6000803e3d6000fd5b5060004790506000600460009054906101000a900473ffffffffffffffffffffffffffffffffffffffff1673ffffffffffffffffffffffffffffffffffffffff166108fc839081150290604051600060405180830381858888f19350505050905080610771576040517f08c379a0000000000000000000000000000000000000000000000000000000008152600401610768906110cf565b60405180910390fd5b505050610894565b600660009054906101000a900473ffffffffffffffffffffffffffffffffffffffff1673ffffffffffffffffffffffffffffffffffffffff166108fc6005546003546107c5919061122b565b9081150290604051600060405180830381858888f193505050501580156107f0573d6000803e3d6000fd5b5060004790506000600760009054906101000a900473ffffffffffffffffffffffffffffffffffffffff1673ffffffffffffffffffffffffffffffffffffffff166108fc839081150290604051600060405180830381858888f19350505050905080610891576040517f08c379a0000000000000000000000000000000000000000000000000000000008152600401610888906110cf565b60405180910390fd5b50505b7fdb8bc8d7abd54b4079284b6bf241a2f0ab8497993ab1cf3df37b3a5af1214b4560405160405180910390a1565b600760009054906101000a900473ffffffffffffffffffffffffffffffffffffffff1673ffffffffffffffffffffffffffffffffffffffff163373ffffffffffffffffffffffffffffffffffffffff1614610952576040517f08c379a0000000000000000000000000000000000000000000000000000000008152600401610949906110ef565b60405180910390fd5b6000600460146101000a81548160ff021916908315150217905550600080610978610d64565b6000805b600280549050811015610af55760016000600283815481106109c7577f4e487b7100000000000000000000000000000000000000000000000000000000600052603260045260246000fd5b9060005260206000200160009054906101000a900473ffffffffffffffffffffffffffffffffffffffff1673ffffffffffffffffffffffffffffffffffffffff1673ffffffffffffffffffffffffffffffffffffffff1681526020019081526020016000206040518060400160405290816000820160009054906101000a900473ffffffffffffffffffffffffffffffffffffffff1673ffffffffffffffffffffffffffffffffffffffff1673ffffffffffffffffffffffffffffffffffffffff168152602001600182015481525050925060008360000151905060008460200151905086811115610ac157819350869550809650610ad9565b8581118015610acf57508681105b15610ad8578095505b5b8560038190555050508080610aed9061132b565b91505061097c565b5080600460006101000a81548173ffffffffffffffffffffffffffffffffffffffff021916908373ffffffffffffffffffffffffffffffffffffffff16021790555060005b600280549050811015610d00576001600060028381548110610b85577f4e487b7100000000000000000000000000000000000000000000000000000000600052603260045260246000fd5b9060005260206000200160009054906101000a900473ffffffffffffffffffffffffffffffffffffffff1673ffffffffffffffffffffffffffffffffffffffff1673ffffffffffffffffffffffffffffffffffffffff1681526020019081526020016000206040518060400160405290816000820160009054906101000a900473ffffffffffffffffffffffffffffffffffffffff1673ffffffffffffffffffffffffffffffffffffffff1673ffffffffffffffffffffffffffffffffffffffff16815260200160018201548152505092506000836000015190508273ffffffffffffffffffffffffffffffffffffffff168173ffffffffffffffffffffffffffffffffffffffff1614610cec578073ffffffffffffffffffffffffffffffffffffffff166108fc6005548660200151610cbf919061122b565b9081150290604051600060405180830381858888f19350505050158015610cea573d6000803e3d6000fd5b505b508080610cf89061132b565b915050610b3a565b507fc07789fac136048b605fef8e227ab89b2e33d8afc9ab4817d374197cd81443d6600354600460009054906101000a900473ffffffffffffffffffffffffffffffffffffffff16604051610d5692919061116a565b60405180910390a150505050565b6040518060400160405280600073ffffffffffffffffffffffffffffffffffffffff168152602001600081525090565b600081519050610da3816113d2565b92915050565b600060208284031215610dbb57600080fd5b6000610dc984828501610d94565b91505092915050565b610ddb816112f5565b82525050565b610dea816112b9565b82525050565b6000610dfd602e83611193565b91507f4f6e6c79207468652077696e6e65722063616e20636f6c6c656374207468652060008301527f61756374696f6e2070726963652e0000000000000000000000000000000000006020830152604082019050919050565b6000610e63603583611193565b91507f46756e6374696f6e2063616e206f6e6c7920626520657865637574656420776860008301527f656e2061756374696f6e2068617320656e6465642e00000000000000000000006020830152604082019050919050565b6000610ec9600f83611193565b91507f5472616e73666572206661696c656400000000000000000000000000000000006000830152602082019050919050565b6000610f09602a83611193565b91507f46756e6374696f6e2063616e206f6e6c7920626520696e766f6b65642062792060008301527f746865206f776e65722c000000000000000000000000000000000000000000006020830152604082019050919050565b6000610f6f603583611193565b91507f46756e6374696f6e2063616e206f6e6c7920626520657865637574656420776860008301527f656e2061756374696f6e206973206163746976652e00000000000000000000006020830152604082019050919050565b6000610fd5603d83611193565b91507f56616c75652073686f756c64206174206c6561737420636f766572207468652060008301527f7072656d69756d207061696420666f72207468652061756374696f6e2e0000006020830152604082019050919050565b611037816112eb565b82525050565b60006040820190506110526000830185610dd2565b61105f602083018461102e565b9392505050565b600060408201905061107b6000830185610de1565b611088602083018461102e565b9392505050565b600060208201905081810360008301526110a881610df0565b9050919050565b600060208201905081810360008301526110c881610e56565b9050919050565b600060208201905081810360008301526110e881610ebc565b9050919050565b6000602082019050818103600083015261110881610efc565b9050919050565b6000602082019050818103600083015261112881610f62565b9050919050565b6000602082019050818103600083015261114881610fc8565b9050919050565b6000602082019050611164600083018461102e565b92915050565b600060408201905061117f600083018561102e565b61118c6020830184610de1565b9392505050565b600082825260208201905092915050565b60006111af826112eb565b91506111ba836112eb565b9250827fffffffffffffffffffffffffffffffffffffffffffffffffffffffffffffffff038211156111ef576111ee611374565b5b828201905092915050565b6000611205826112eb565b9150611210836112eb565b9250826112205761121f6113a3565b5b828204905092915050565b6000611236826112eb565b9150611241836112eb565b9250817fffffffffffffffffffffffffffffffffffffffffffffffffffffffffffffffff048311821515161561127a57611279611374565b5b828202905092915050565b6000611290826112eb565b915061129b836112eb565b9250828210156112ae576112ad611374565b5b828203905092915050565b60006112c4826112cb565b9050919050565b600073ffffffffffffffffffffffffffffffffffffffff82169050919050565b6000819050919050565b600061130082611307565b9050919050565b600061131282611319565b9050919050565b6000611324826112cb565b9050919050565b6000611336826112eb565b91507fffffffffffffffffffffffffffffffffffffffffffffffffffffffffffffffff82141561136957611368611374565b5b600182019050919050565b7f4e487b7100000000000000000000000000000000000000000000000000000000600052601160045260246000fd5b7f4e487b7100000000000000000000000000000000000000000000000000000000600052601260045260246000fd5b6113db816112eb565b81146113e657600080fd5b5056fea264697066735822122003aca52d7ec64ace1bca841bff15f9041787e86aae0506f2b43bc03ef962ad7d64736f6c63430008000033",
  "linkReferences": {},
  "deployedLinkReferences": {}
}