{
  "_format": "hh-sol-artifact-1",
  "contractName": "ElectricityAuction",
  "sourceName": "contracts/energyContracts/ElectricityAuction.sol",
  "abi": [
    {
      "inputs": [
        {
          "internalType": "uint256",
          "name": "_kwhOffered",
          "type": "uint256"
        },
        {
          "internalType": "address",
          "name": "_auctioneer",
          "type": "address"
        },
        {
          "internalType": "bool",
          "name": "_isRenewable",
          "type": "bool"
        },
        {
          "internalType": "address",
          "name": "callerAddress",
          "type": "address"
        }
      ],
      "stateMutability": "nonpayable",
      "type": "constructor"
    },
    {
      "anonymous": false,
      "inputs": [],
      "name": "AuctionCollected",
      "type": "event"
    },
    {
      "anonymous": false,
      "inputs": [
        {
          "indexed": false,
          "internalType": "uint256",
          "name": "price",
          "type": "uint256"
        },
        {
          "indexed": false,
          "internalType": "address",
          "name": "winner",
          "type": "address"
        }
      ],
      "name": "AuctionEnded",
      "type": "event"
    },
    {
      "anonymous": false,
      "inputs": [
        {
          "indexed": false,
          "internalType": "address",
          "name": "bidder",
          "type": "address"
        },
        {
          "indexed": false,
          "internalType": "uint256",
          "name": "bidPerKwh",
          "type": "uint256"
        }
      ],
      "name": "BidPlaced",
      "type": "event"
    },
    {
      "inputs": [],
      "name": "bid",
      "outputs": [],
      "stateMutability": "payable",
      "type": "function"
    },
    {
      "inputs": [],
      "name": "collect",
      "outputs": [],
      "stateMutability": "payable",
      "type": "function"
    },
    {
      "inputs": [],
      "name": "endAuction",
      "outputs": [],
      "stateMutability": "payable",
      "type": "function"
    },
    {
      "inputs": [
        {
          "internalType": "uint256",
          "name": "amountInKwH",
          "type": "uint256"
        }
      ],
      "name": "getPremium",
      "outputs": [
        {
          "internalType": "uint256",
          "name": "",
          "type": "uint256"
        }
      ],
      "stateMutability": "view",
      "type": "function"
    },
    {
      "inputs": [
        {
          "internalType": "uint256",
          "name": "amountInKwH",
          "type": "uint256"
        }
      ],
      "name": "getPrice",
      "outputs": [
        {
          "internalType": "uint256",
          "name": "",
          "type": "uint256"
        }
      ],
      "stateMutability": "view",
      "type": "function"
    },
    {
      "inputs": [],
      "name": "priceForThisAuction",
      "outputs": [
        {
          "internalType": "uint256",
          "name": "",
          "type": "uint256"
        }
      ],
      "stateMutability": "view",
      "type": "function"
    }
  ],
  "bytecode": "0x608060405260006003556000600460006101000a81548173ffffffffffffffffffffffffffffffffffffffff021916908373ffffffffffffffffffffffffffffffffffffffff1602179055506001600460146101000a81548160ff0219169083151502179055506000600760146101000a81548160ff0219169083151502179055503480156200008e57600080fd5b50604051620019bc380380620019bc8339818101604052810190620000b4919062000321565b8360058190555082600660006101000a81548173ffffffffffffffffffffffffffffffffffffffff021916908373ffffffffffffffffffffffffffffffffffffffff16021790555081600660146101000a81548160ff02191690831515021790555033600760006101000a81548173ffffffffffffffffffffffffffffffffffffffff021916908373ffffffffffffffffffffffffffffffffffffffff160217905550806000806101000a81548173ffffffffffffffffffffffffffffffffffffffff021916908373ffffffffffffffffffffffffffffffffffffffff16021790555060008054906101000a900473ffffffffffffffffffffffffffffffffffffffff1673ffffffffffffffffffffffffffffffffffffffff16632c8a75266040518163ffffffff1660e01b81526004016040805180830381600087803b158015620001ff57600080fd5b505af115801562000214573d6000803e3d6000fd5b505050506040513d601f19601f820116820180604052508101906200023a9190620002f5565b600860008201518160000155602082015181600101559050505050505062000488565b6000815190506200026e816200043a565b92915050565b600081519050620002858162000454565b92915050565b6000604082840312156200029e57600080fd5b620002aa60406200038d565b90506000620002bc84828501620002de565b6000830152506020620002d284828501620002de565b60208301525092915050565b600081519050620002ef816200046e565b92915050565b6000604082840312156200030857600080fd5b600062000318848285016200028b565b91505092915050565b600080600080608085870312156200033857600080fd5b60006200034887828801620002de565b94505060206200035b878288016200025d565b93505060406200036e8782880162000274565b925050606062000381878288016200025d565b91505092959194509250565b6000604051905081810181811067ffffffffffffffff82111715620003b757620003b66200040b565b5b8060405250919050565b6000620003ce82620003e1565b9050919050565b60008115159050919050565b600073ffffffffffffffffffffffffffffffffffffffff82169050919050565b6000819050919050565b7f4e487b7100000000000000000000000000000000000000000000000000000000600052604160045260246000fd5b6200044581620003c1565b81146200045157600080fd5b50565b6200045f81620003d5565b81146200046b57600080fd5b50565b620004798162000401565b81146200048557600080fd5b50565b61152480620004986000396000f3fe6080604052600436106100555760003560e01c80631998aeef1461005a5780631bf1fffb146100645780639ed03b4c146100a1578063e5225381146100cc578063e7572230146100d6578063fe67a54b14610113575b600080fd5b61006261011d565b005b34801561007057600080fd5b5061008b60048036038101906100869190610e58565b6102ff565b60405161009891906111a1565b60405180910390f35b3480156100ad57600080fd5b506100b6610336565b6040516100c391906111a1565b60405180910390f35b6100d4610432565b005b3480156100e257600080fd5b506100fd60048036038101906100f89190610e58565b610932565b60405161010a91906111a1565b60405180910390f35b61011b61095c565b005b600460149054906101000a900460ff1661016c576040517f08c379a000000000000000000000000000000000000000000000000000000000815260040161016390611161565b60405180910390fd5b6000610179600554610932565b90508034101561018857600080fd5b60405180604001604052803373ffffffffffffffffffffffffffffffffffffffff168152602001600554346101bd919061124c565b815250600160003373ffffffffffffffffffffffffffffffffffffffff1673ffffffffffffffffffffffffffffffffffffffff16815260200190815260200160002060008201518160000160006101000a81548173ffffffffffffffffffffffffffffffffffffffff021916908373ffffffffffffffffffffffffffffffffffffffff160217905550602082015181600101559050506002339080600181540180825580915050600190039060005260206000200160009091909190916101000a81548173ffffffffffffffffffffffffffffffffffffffff021916908373ffffffffffffffffffffffffffffffffffffffff1602179055507f3fabff0a9c3ecd6814702e247fa9733e5d0aa69e3a38590f92cb18f623a2254d33600554346102e6919061124c565b6040516102f49291906110d8565b60405180910390a150565b60006103e86008600001546008600101548461031b919061127d565b610325919061127d565b61032f919061124c565b9050919050565b6000600460149054906101000a900460ff1615610388576040517f08c379a000000000000000000000000000000000000000000000000000000000815260040161037f90611121565b60405180910390fd5b3073ffffffffffffffffffffffffffffffffffffffff16631bf1fffb6005546040518263ffffffff1660e01b81526004016103c391906111a1565b60206040518083038186803b1580156103db57600080fd5b505afa1580156103ef573d6000803e3d6000fd5b505050506040513d601f19601f820116820180604052508101906104139190610e81565b600354600554610423919061127d565b61042d91906111f6565b905090565b600460149054906101000a900460ff1615610482576040517f08c379a000000000000000000000000000000000000000000000000000000000815260040161047990611121565b60405180910390fd5b600460009054906101000a900473ffffffffffffffffffffffffffffffffffffffff1673ffffffffffffffffffffffffffffffffffffffff163373ffffffffffffffffffffffffffffffffffffffff1614610512576040517f08c379a000000000000000000000000000000000000000000000000000000000815260040161050990611101565b60405180910390fd5b6000600160003373ffffffffffffffffffffffffffffffffffffffff1673ffffffffffffffffffffffffffffffffffffffff16815260200190815260200160002060010154600554610564919061127d565b90506000610573600554610932565b90506000348361058391906111f6565b8261058e91906112d7565b905060008113156105d4576040517f08c379a00000000000000000000000000000000000000000000000000000000081526004016105cb90611181565b60405180910390fd5b6000811215610634576000816105e990611430565b90503373ffffffffffffffffffffffffffffffffffffffff166108fc829081150290604051600060405180830381858888f19350505050158015610631573d6000803e3d6000fd5b50505b600660149054906101000a900460ff161561076957600660009054906101000a900473ffffffffffffffffffffffffffffffffffffffff1673ffffffffffffffffffffffffffffffffffffffff166108fc839081150290604051600060405180830381858888f193505050501580156106b1573d6000803e3d6000fd5b50600760009054906101000a900473ffffffffffffffffffffffffffffffffffffffff1673ffffffffffffffffffffffffffffffffffffffff16627d0275600660009054906101000a900473ffffffffffffffffffffffffffffffffffffffff166005546040518363ffffffff1660e01b81526004016107329291906110af565b600060405180830381600087803b15801561074c57600080fd5b505af1158015610760573d6000803e3d6000fd5b50505050610855565b600660009054906101000a900473ffffffffffffffffffffffffffffffffffffffff1673ffffffffffffffffffffffffffffffffffffffff166108fc6005546003546107b5919061127d565b9081150290604051600060405180830381858888f193505050501580156107e0573d6000803e3d6000fd5b50600760009054906101000a900473ffffffffffffffffffffffffffffffffffffffff1673ffffffffffffffffffffffffffffffffffffffff166108fc6108286005546102ff565b9081150290604051600060405180830381858888f19350505050158015610853573d6000803e3d6000fd5b505b600760009054906101000a900473ffffffffffffffffffffffffffffffffffffffff1673ffffffffffffffffffffffffffffffffffffffff1663d4ffef72336005546040518363ffffffff1660e01b81526004016108b49291906110d8565b600060405180830381600087803b1580156108ce57600080fd5b505af11580156108e2573d6000803e3d6000fd5b505050506001600760146101000a81548160ff0219169083151502179055507fdb8bc8d7abd54b4079284b6bf241a2f0ab8497993ab1cf3df37b3a5af1214b4560405160405180910390a1505050565b600061093d826102ff565b8260035461094b919061127d565b61095591906111f6565b9050919050565b600760009054906101000a900473ffffffffffffffffffffffffffffffffffffffff1673ffffffffffffffffffffffffffffffffffffffff163373ffffffffffffffffffffffffffffffffffffffff16146109ec576040517f08c379a00000000000000000000000000000000000000000000000000000000081526004016109e390611141565b60405180910390fd5b6000600460146101000a81548160ff021916908315150217905550600080610a12610dfe565b6000805b600280549050811015610b8f576001600060028381548110610a61577f4e487b7100000000000000000000000000000000000000000000000000000000600052603260045260246000fd5b9060005260206000200160009054906101000a900473ffffffffffffffffffffffffffffffffffffffff1673ffffffffffffffffffffffffffffffffffffffff1673ffffffffffffffffffffffffffffffffffffffff1681526020019081526020016000206040518060400160405290816000820160009054906101000a900473ffffffffffffffffffffffffffffffffffffffff1673ffffffffffffffffffffffffffffffffffffffff1673ffffffffffffffffffffffffffffffffffffffff168152602001600182015481525050925060008360000151905060008460200151905086811115610b5b57819350869550809650610b73565b8581118015610b6957508681105b15610b72578095505b5b8560038190555050508080610b87906113e7565b915050610a16565b5080600460006101000a81548173ffffffffffffffffffffffffffffffffffffffff021916908373ffffffffffffffffffffffffffffffffffffffff16021790555060005b600280549050811015610d9a576001600060028381548110610c1f577f4e487b7100000000000000000000000000000000000000000000000000000000600052603260045260246000fd5b9060005260206000200160009054906101000a900473ffffffffffffffffffffffffffffffffffffffff1673ffffffffffffffffffffffffffffffffffffffff1673ffffffffffffffffffffffffffffffffffffffff1681526020019081526020016000206040518060400160405290816000820160009054906101000a900473ffffffffffffffffffffffffffffffffffffffff1673ffffffffffffffffffffffffffffffffffffffff1673ffffffffffffffffffffffffffffffffffffffff16815260200160018201548152505092506000836000015190508273ffffffffffffffffffffffffffffffffffffffff168173ffffffffffffffffffffffffffffffffffffffff1614610d86578073ffffffffffffffffffffffffffffffffffffffff166108fc6005548660200151610d59919061127d565b9081150290604051600060405180830381858888f19350505050158015610d84573d6000803e3d6000fd5b505b508080610d92906113e7565b915050610bd4565b507fc07789fac136048b605fef8e227ab89b2e33d8afc9ab4817d374197cd81443d6600354600460009054906101000a900473ffffffffffffffffffffffffffffffffffffffff16604051610df09291906111bc565b60405180910390a150505050565b6040518060400160405280600073ffffffffffffffffffffffffffffffffffffffff168152602001600081525090565b600081359050610e3d816114d7565b92915050565b600081519050610e52816114d7565b92915050565b600060208284031215610e6a57600080fd5b6000610e7884828501610e2e565b91505092915050565b600060208284031215610e9357600080fd5b6000610ea184828501610e43565b91505092915050565b610eb3816113b1565b82525050565b610ec28161136b565b82525050565b6000610ed5602e836111e5565b91507f4f6e6c79207468652077696e6e65722063616e20636f6c6c656374207468652060008301527f61756374696f6e2070726963652e0000000000000000000000000000000000006020830152604082019050919050565b6000610f3b6035836111e5565b91507f46756e6374696f6e2063616e206f6e6c7920626520657865637574656420776860008301527f656e2061756374696f6e2068617320656e6465642e00000000000000000000006020830152604082019050919050565b6000610fa1602a836111e5565b91507f46756e6374696f6e2063616e206f6e6c7920626520696e766f6b65642062792060008301527f746865206f776e65722c000000000000000000000000000000000000000000006020830152604082019050919050565b60006110076035836111e5565b91507f46756e6374696f6e2063616e206f6e6c7920626520657865637574656420776860008301527f656e2061756374696f6e206973206163746976652e00000000000000000000006020830152604082019050919050565b600061106d6015836111e5565b91507f496e73756666696369656e742062616c616e63652e00000000000000000000006000830152602082019050919050565b6110a9816113a7565b82525050565b60006040820190506110c46000830185610eaa565b6110d160208301846110a0565b9392505050565b60006040820190506110ed6000830185610eb9565b6110fa60208301846110a0565b9392505050565b6000602082019050818103600083015261111a81610ec8565b9050919050565b6000602082019050818103600083015261113a81610f2e565b9050919050565b6000602082019050818103600083015261115a81610f94565b9050919050565b6000602082019050818103600083015261117a81610ffa565b9050919050565b6000602082019050818103600083015261119a81611060565b9050919050565b60006020820190506111b660008301846110a0565b92915050565b60006040820190506111d160008301856110a0565b6111de6020830184610eb9565b9392505050565b600082825260208201905092915050565b6000611201826113a7565b915061120c836113a7565b9250827fffffffffffffffffffffffffffffffffffffffffffffffffffffffffffffffff0382111561124157611240611479565b5b828201905092915050565b6000611257826113a7565b9150611262836113a7565b925082611272576112716114a8565b5b828204905092915050565b6000611288826113a7565b9150611293836113a7565b9250817fffffffffffffffffffffffffffffffffffffffffffffffffffffffffffffffff04831182151516156112cc576112cb611479565b5b828202905092915050565b60006112e28261137d565b91506112ed8361137d565b9250827f80000000000000000000000000000000000000000000000000000000000000000182126000841215161561132857611327611479565b5b827f7fffffffffffffffffffffffffffffffffffffffffffffffffffffffffffffff0182136000841216156113605761135f611479565b5b828203905092915050565b600061137682611387565b9050919050565b6000819050919050565b600073ffffffffffffffffffffffffffffffffffffffff82169050919050565b6000819050919050565b60006113bc826113c3565b9050919050565b60006113ce826113d5565b9050919050565b60006113e082611387565b9050919050565b60006113f2826113a7565b91507fffffffffffffffffffffffffffffffffffffffffffffffffffffffffffffffff82141561142557611424611479565b5b600182019050919050565b600061143b8261137d565b91507f800000000000000000000000000000000000000000000000000000000000000082141561146e5761146d611479565b5b816000039050919050565b7f4e487b7100000000000000000000000000000000000000000000000000000000600052601160045260246000fd5b7f4e487b7100000000000000000000000000000000000000000000000000000000600052601260045260246000fd5b6114e0816113a7565b81146114eb57600080fd5b5056fea2646970667358221220878ac6f2c6b897773355feb0ae7845f099440f84911f3775fb34223e74f0c61864736f6c63430008000033",
  "linkReferences": {},
  "deployedLinkReferences": {}
}