{
  "_format": "hh-sol-artifact-1",
  "contractName": "ElectricityTradingHub",
  "sourceName": "contracts/ElectricityTradingHub.sol",
  "abi": [
    {
      "inputs": [],
      "stateMutability": "nonpayable",
      "type": "constructor"
    },
    {
      "inputs": [
        {
          "internalType": "uint32",
          "name": "amountInKwH",
          "type": "uint32"
        }
      ],
      "name": "consume",
      "outputs": [],
      "stateMutability": "payable",
      "type": "function"
    },
    {
      "inputs": [],
      "name": "dequeue",
      "outputs": [
        {
          "components": [
            {
              "internalType": "address payable",
              "name": "provider",
              "type": "address"
            },
            {
              "internalType": "uint32",
              "name": "kwhAmount",
              "type": "uint32"
            },
            {
              "internalType": "bool",
              "name": "isRenewable",
              "type": "bool"
            }
          ],
          "internalType": "struct ElectricityTradingHub.Provisioning",
          "name": "",
          "type": "tuple"
        }
      ],
      "stateMutability": "nonpayable",
      "type": "function"
    },
    {
      "inputs": [
        {
          "components": [
            {
              "internalType": "address payable",
              "name": "provider",
              "type": "address"
            },
            {
              "internalType": "uint32",
              "name": "kwhAmount",
              "type": "uint32"
            },
            {
              "internalType": "bool",
              "name": "isRenewable",
              "type": "bool"
            }
          ],
          "internalType": "struct ElectricityTradingHub.Provisioning",
          "name": "value",
          "type": "tuple"
        }
      ],
      "name": "enqueue",
      "outputs": [],
      "stateMutability": "nonpayable",
      "type": "function"
    },
    {
      "inputs": [],
      "name": "getCo2PricePerTonInCent",
      "outputs": [
        {
          "internalType": "uint16",
          "name": "",
          "type": "uint16"
        }
      ],
      "stateMutability": "view",
      "type": "function"
    },
    {
      "inputs": [],
      "name": "getGramCo2PerKwH",
      "outputs": [
        {
          "internalType": "uint16",
          "name": "",
          "type": "uint16"
        }
      ],
      "stateMutability": "view",
      "type": "function"
    },
    {
      "inputs": [
        {
          "internalType": "uint32",
          "name": "amountInKwH",
          "type": "uint32"
        }
      ],
      "name": "getPremium",
      "outputs": [
        {
          "internalType": "uint32",
          "name": "",
          "type": "uint32"
        }
      ],
      "stateMutability": "view",
      "type": "function"
    },
    {
      "inputs": [
        {
          "internalType": "uint32",
          "name": "amountInKwH",
          "type": "uint32"
        }
      ],
      "name": "getPriceInCents",
      "outputs": [
        {
          "internalType": "uint32",
          "name": "",
          "type": "uint32"
        }
      ],
      "stateMutability": "view",
      "type": "function"
    },
    {
      "inputs": [],
      "name": "getQueue",
      "outputs": [
        {
          "components": [
            {
              "internalType": "address payable",
              "name": "provider",
              "type": "address"
            },
            {
              "internalType": "uint32",
              "name": "kwhAmount",
              "type": "uint32"
            },
            {
              "internalType": "bool",
              "name": "isRenewable",
              "type": "bool"
            }
          ],
          "internalType": "struct ElectricityTradingHub.Provisioning[]",
          "name": "",
          "type": "tuple[]"
        }
      ],
      "stateMutability": "view",
      "type": "function"
    },
    {
      "inputs": [],
      "name": "getQueueLength",
      "outputs": [
        {
          "internalType": "uint256",
          "name": "",
          "type": "uint256"
        }
      ],
      "stateMutability": "view",
      "type": "function"
    },
    {
      "inputs": [],
      "name": "getSpotPriceInCent",
      "outputs": [
        {
          "internalType": "uint16",
          "name": "",
          "type": "uint16"
        }
      ],
      "stateMutability": "view",
      "type": "function"
    },
    {
      "inputs": [],
      "name": "isEmpty",
      "outputs": [
        {
          "internalType": "bool",
          "name": "",
          "type": "bool"
        }
      ],
      "stateMutability": "view",
      "type": "function"
    },
    {
      "inputs": [
        {
          "internalType": "uint32",
          "name": "kwhAmount",
          "type": "uint32"
        },
        {
          "internalType": "bool",
          "name": "isRenewable",
          "type": "bool"
        }
      ],
      "name": "provide",
      "outputs": [],
      "stateMutability": "nonpayable",
      "type": "function"
    }
  ],
  "bytecode": "0x6080604052611f40600060146101000a81548161ffff021916908361ffff16021790555060e9600060166101000a81548161ffff021916908361ffff160217905550601e600060186101000a81548161ffff021916908361ffff1602179055503480156200006c57600080fd5b50336040516200007c90620000eb565b6200008891906200010a565b604051809103906000f080158015620000a5573d6000803e3d6000fd5b506000806101000a81548173ffffffffffffffffffffffffffffffffffffffff021916908373ffffffffffffffffffffffffffffffffffffffff1602179055506200015b565b610b04806200148983390190565b620001048162000127565b82525050565b6000602082019050620001216000830184620000f9565b92915050565b600062000134826200013b565b9050919050565b600073ffffffffffffffffffffffffffffffffffffffff82169050919050565b61131e806200016b6000396000f3fe6080604052600436106100a75760003560e01c8063a099b15611610064578063a099b1561461019f578063a7354760146101dc578063b8f7700514610219578063c67f915d14610244578063f3991cde1461026d578063f62a5ba614610298576100a7565b806301fce27e146100ac5780633eba7278146100d7578063681fe70c146101025780636f6167521461012d578063878eae8414610158578063957908d114610174575b600080fd5b3480156100b857600080fd5b506100c16102c1565b6040516100ce9190610e8a565b60405180910390f35b3480156100e357600080fd5b506100ec6103b6565b6040516100f99190610f22565b60405180910390f35b34801561010e57600080fd5b506101176103cd565b6040516101249190610eac565b60405180910390f35b34801561013957600080fd5b506101426103f4565b60405161014f9190610f22565b60405180910390f35b610172600480360381019061016d9190610be4565b61040b565b005b34801561018057600080fd5b5061018961071d565b6040516101969190610f07565b60405180910390f35b3480156101ab57600080fd5b506101c660048036038101906101c19190610be4565b6108a6565b6040516101d39190610f58565b60405180910390f35b3480156101e857600080fd5b5061020360048036038101906101fe9190610be4565b6108fb565b6040516102109190610f58565b60405180910390f35b34801561022557600080fd5b5061022e610937565b60405161023b9190610f3d565b60405180910390f35b34801561025057600080fd5b5061026b60048036038101906102669190610bbb565b61095f565b005b34801561027957600080fd5b50610282610a7b565b60405161028f9190610f22565b60405180910390f35b3480156102a457600080fd5b506102bf60048036038101906102ba9190610c0d565b610a92565b005b60606001600001805480602002602001604051908101604052809291908181526020016000905b828210156103ad578382906000526020600020016040518060600160405290816000820160009054906101000a900473ffffffffffffffffffffffffffffffffffffffff1673ffffffffffffffffffffffffffffffffffffffff1673ffffffffffffffffffffffffffffffffffffffff1681526020016000820160149054906101000a900463ffffffff1663ffffffff1663ffffffff1681526020016000820160189054906101000a900460ff161515151581525050815260200190600101906102e8565b50505050905090565b60008060149054906101000a900461ffff16905090565b600060016003015460016002015411806103ef57506000600160000180549050145b905090565b60008060189054906101000a900461ffff16905090565b6000610416826108fb565b63ffffffff1690508034101561042b57600080fd5b600060016002015490505b6001600301548111158015610452575060008363ffffffff1610155b156107185760018001600082815260200190815260200160002060009054906101000a900460ff166104b9576040517f08c379a00000000000000000000000000000000000000000000000000000000081526004016104b090610ee7565b60405180910390fd5b60006104c361071d565b90506000808260200151866104d89190611121565b63ffffffff161061050157816020015190508160200151856104fa9190611121565b9450610535565b8490508482602001516105149190611121565b826020019063ffffffff16908163ffffffff16815250506105348261095f565b5b600082604001511561062f5761054a866108fb565b9050826000015173ffffffffffffffffffffffffffffffffffffffff166108fc8263ffffffff169081150290604051600060405180830381858888f1935050505015801561059c573d6000803e3d6000fd5b5060008054906101000a900473ffffffffffffffffffffffffffffffffffffffff1673ffffffffffffffffffffffffffffffffffffffff1663f005a03233846040518363ffffffff1660e01b81526004016105f8929190610e61565b600060405180830381600087803b15801561061257600080fd5b505af1158015610626573d6000803e3d6000fd5b50505050610702565b600060189054906101000a900461ffff1661ffff168661064f91906110af565b9050826000015173ffffffffffffffffffffffffffffffffffffffff166108fc8263ffffffff169081150290604051600060405180830381858888f193505050501580156106a1573d6000803e3d6000fd5b5060006106ad836108a6565b9050836000015173ffffffffffffffffffffffffffffffffffffffff166108fc8263ffffffff169081150290604051600060405180830381858888f193505050501580156106ff573d6000803e3d6000fd5b50505b5050508080610710906111cd565b915050610436565b505050565b610725610add565b61072d6103cd565b1561076d576040517f08c379a000000000000000000000000000000000000000000000000000000000815260040161076490610ec7565b60405180910390fd5b6000600160020154905060018001600082815260200190815260200160002060006101000a81549060ff0219169055600160020160008154809291906107b2906111cd565b9190505550600160000181815481106107f4577f4e487b7100000000000000000000000000000000000000000000000000000000600052603260045260246000fd5b906000526020600020016040518060600160405290816000820160009054906101000a900473ffffffffffffffffffffffffffffffffffffffff1673ffffffffffffffffffffffffffffffffffffffff1673ffffffffffffffffffffffffffffffffffffffff1681526020016000820160149054906101000a900463ffffffff1663ffffffff1663ffffffff1681526020016000820160189054906101000a900460ff16151515158152505091505090565b60006103e8600060169054906101000a900461ffff1661ffff16600060149054906101000a900461ffff1661ffff16846108e091906110af565b6108ea91906110af565b6108f4919061107e565b9050919050565b6000610906826108a6565b600060189054906101000a900461ffff1661ffff168361092691906110af565b6109309190611044565b9050919050565b60006001806002015460016003015461095091906110ed565b61095a9190610fee565b905090565b6001600001819080600181540180825580915050600190039060005260206000200160009091909190915060008201518160000160006101000a81548173ffffffffffffffffffffffffffffffffffffffff021916908373ffffffffffffffffffffffffffffffffffffffff16021790555060208201518160000160146101000a81548163ffffffff021916908363ffffffff16021790555060408201518160000160186101000a81548160ff0219169083151502179055505050600180600101600060018060000180549050610a3691906110ed565b815260200190815260200160002060006101000a81548160ff02191690831515021790555060018060000180549050610a6f91906110ed565b60016003018190555050565b60008060169054906101000a900461ffff16905090565b600060405180606001604052803373ffffffffffffffffffffffffffffffffffffffff1681526020018463ffffffff1681526020018315158152509050610ad88161095f565b505050565b6040518060600160405280600073ffffffffffffffffffffffffffffffffffffffff168152602001600063ffffffff1681526020016000151581525090565b600081359050610b2b816112a3565b92915050565b600081359050610b40816112ba565b92915050565b600060608284031215610b5857600080fd5b610b626060610f73565b90506000610b7284828501610b1c565b6000830152506020610b8684828501610ba6565b6020830152506040610b9a84828501610b31565b60408301525092915050565b600081359050610bb5816112d1565b92915050565b600060608284031215610bcd57600080fd5b6000610bdb84828501610b46565b91505092915050565b600060208284031215610bf657600080fd5b6000610c0484828501610ba6565b91505092915050565b60008060408385031215610c2057600080fd5b6000610c2e85828601610ba6565b9250506020610c3f85828601610b31565b9150509250929050565b6000610c558383610da1565b60608301905092915050565b610c6a81611167565b82525050565b610c7981611155565b82525050565b6000610c8a82610fb4565b610c948185610fcc565b9350610c9f83610fa4565b8060005b83811015610cd0578151610cb78882610c49565b9750610cc283610fbf565b925050600181019050610ca3565b5085935050505092915050565b610ce681611179565b82525050565b610cf581611179565b82525050565b6000610d08600e83610fdd565b91507f517565756520697320656d7074790000000000000000000000000000000000006000830152602082019050919050565b6000610d48602b83610fdd565b91507f4e6f7420656e6f75676820656e657267792070726f76696465727320696e207460008301527f6865206e6574776f726b2e0000000000000000000000000000000000000000006020830152604082019050919050565b606082016000820151610db76000850182610c61565b506020820151610dca6020850182610e43565b506040820151610ddd6040850182610cdd565b50505050565b606082016000820151610df96000850182610c61565b506020820151610e0c6020850182610e43565b506040820151610e1f6040850182610cdd565b50505050565b610e2e81611185565b82525050565b610e3d816111b3565b82525050565b610e4c816111bd565b82525050565b610e5b816111bd565b82525050565b6000604082019050610e766000830185610c70565b610e836020830184610e52565b9392505050565b60006020820190508181036000830152610ea48184610c7f565b905092915050565b6000602082019050610ec16000830184610cec565b92915050565b60006020820190508181036000830152610ee081610cfb565b9050919050565b60006020820190508181036000830152610f0081610d3b565b9050919050565b6000606082019050610f1c6000830184610de3565b92915050565b6000602082019050610f376000830184610e25565b92915050565b6000602082019050610f526000830184610e34565b92915050565b6000602082019050610f6d6000830184610e52565b92915050565b6000604051905081810181811067ffffffffffffffff82111715610f9a57610f99611274565b5b8060405250919050565b6000819050602082019050919050565b600081519050919050565b6000602082019050919050565b600082825260208201905092915050565b600082825260208201905092915050565b6000610ff9826111b3565b9150611004836111b3565b9250827fffffffffffffffffffffffffffffffffffffffffffffffffffffffffffffffff0382111561103957611038611216565b5b828201905092915050565b600061104f826111bd565b915061105a836111bd565b92508263ffffffff0382111561107357611072611216565b5b828201905092915050565b6000611089826111bd565b9150611094836111bd565b9250826110a4576110a3611245565b5b828204905092915050565b60006110ba826111bd565b91506110c5836111bd565b92508163ffffffff04831182151516156110e2576110e1611216565b5b828202905092915050565b60006110f8826111b3565b9150611103836111b3565b92508282101561111657611115611216565b5b828203905092915050565b600061112c826111bd565b9150611137836111bd565b92508282101561114a57611149611216565b5b828203905092915050565b600061116082611193565b9050919050565b600061117282611193565b9050919050565b60008115159050919050565b600061ffff82169050919050565b600073ffffffffffffffffffffffffffffffffffffffff82169050919050565b6000819050919050565b600063ffffffff82169050919050565b60006111d8826111b3565b91507fffffffffffffffffffffffffffffffffffffffffffffffffffffffffffffffff82141561120b5761120a611216565b5b600182019050919050565b7f4e487b7100000000000000000000000000000000000000000000000000000000600052601160045260246000fd5b7f4e487b7100000000000000000000000000000000000000000000000000000000600052601260045260246000fd5b7f4e487b7100000000000000000000000000000000000000000000000000000000600052604160045260246000fd5b6112ac81611167565b81146112b757600080fd5b50565b6112c381611179565b81146112ce57600080fd5b50565b6112da816111bd565b81146112e557600080fd5b5056fea2646970667358221220b384bf47a3d5c81ce4fa32717015de4fbc1ca4e4c7b5c307ac9c813b6dda59d864736f6c63430008000033608060405234801561001057600080fd5b50604051610b04380380610b04833981810160405281019061003291906100cf565b80600260046101000a81548173ffffffffffffffffffffffffffffffffffffffff021916908373ffffffffffffffffffffffffffffffffffffffff16021790555033600360006101000a81548173ffffffffffffffffffffffffffffffffffffffff021916908373ffffffffffffffffffffffffffffffffffffffff16021790555050610141565b6000815190506100c98161012a565b92915050565b6000602082840312156100e157600080fd5b60006100ef848285016100ba565b91505092915050565b60006101038261010a565b9050919050565b600073ffffffffffffffffffffffffffffffffffffffff82169050919050565b610133816100f8565b811461013e57600080fd5b50565b6109b4806101506000396000f3fe6080604052600436106100295760003560e01c8063e4fc6b6d1461002e578063f005a03214610038575b600080fd5b610036610061565b005b34801561004457600080fd5b5061005f600480360381019061005a919061063f565b61035d565b005b600260049054906101000a900473ffffffffffffffffffffffffffffffffffffffff1673ffffffffffffffffffffffffffffffffffffffff163373ffffffffffffffffffffffffffffffffffffffff16146100f1576040517f08c379a00000000000000000000000000000000000000000000000000000000081526004016100e890610747565b60405180910390fd5b600047905060005b6000805490508110156102b1576000808281548110610141577f4e487b7100000000000000000000000000000000000000000000000000000000600052603260045260246000fd5b9060005260206000200160009054906101000a900473ffffffffffffffffffffffffffffffffffffffff1690506000600160008373ffffffffffffffffffffffffffffffffffffffff1673ffffffffffffffffffffffffffffffffffffffff16815260200190815260200160002060009054906101000a900463ffffffff1690506000600260009054906101000a900463ffffffff16826101e291906107d2565b90508273ffffffffffffffffffffffffffffffffffffffff166108fc8263ffffffff16876102109190610803565b9081150290604051600060405180830381858888f1935050505015801561023b573d6000803e3d6000fd5b506000600160008573ffffffffffffffffffffffffffffffffffffffff1673ffffffffffffffffffffffffffffffffffffffff16815260200190815260200160002060006101000a81548163ffffffff021916908363ffffffff16021790555050505080806102a9906108a9565b9150506100f9565b506000600260006101000a81548163ffffffff021916908363ffffffff160217905550600067ffffffffffffffff811115610315577f4e487b7100000000000000000000000000000000000000000000000000000000600052604160045260246000fd5b6040519080825280602002602001820160405280156103435781602001602082028036833780820191505090505b506000908051906020019061035992919061056e565b5050565b600360009054906101000a900473ffffffffffffffffffffffffffffffffffffffff1673ffffffffffffffffffffffffffffffffffffffff163373ffffffffffffffffffffffffffffffffffffffff16146103ed576040517f08c379a00000000000000000000000000000000000000000000000000000000081526004016103e490610767565b60405180910390fd5b80600260008282829054906101000a900463ffffffff1661040e9190610798565b92506101000a81548163ffffffff021916908363ffffffff1602179055506000600160008473ffffffffffffffffffffffffffffffffffffffff1673ffffffffffffffffffffffffffffffffffffffff16815260200190815260200160002060009054906101000a900463ffffffff1663ffffffff1614156104ee576000829080600181540180825580915050600190039060005260206000200160009091909190916101000a81548173ffffffffffffffffffffffffffffffffffffffff021916908373ffffffffffffffffffffffffffffffffffffffff1602179055505b80600160008473ffffffffffffffffffffffffffffffffffffffff1673ffffffffffffffffffffffffffffffffffffffff16815260200190815260200160002060008282829054906101000a900463ffffffff1661054c9190610798565b92506101000a81548163ffffffff021916908363ffffffff1602179055505050565b8280548282559060005260206000209081019282156105e7579160200282015b828111156105e65782518260006101000a81548173ffffffffffffffffffffffffffffffffffffffff021916908373ffffffffffffffffffffffffffffffffffffffff1602179055509160200191906001019061058e565b5b5090506105f491906105f8565b5090565b5b808211156106115760008160009055506001016105f9565b5090565b60008135905061062481610950565b92915050565b60008135905061063981610967565b92915050565b6000806040838503121561065257600080fd5b600061066085828601610615565b92505060206106718582860161062a565b9150509250929050565b6000610688603283610787565b91507f4f6e6c79207468652064697374726962757465722063616e207472696767657260008301527f2074686520646973747269627574696f6e2e00000000000000000000000000006020830152604082019050919050565b60006106ee602e83610787565b91507f4f6e6c792074686520636f6e7472616374206f776e65722063616e2063616c6c60008301527f20746869732066756e6374696f6e0000000000000000000000000000000000006020830152604082019050919050565b600060208201905081810360008301526107608161067b565b9050919050565b60006020820190508181036000830152610780816106e1565b9050919050565b600082825260208201905092915050565b60006107a382610899565b91506107ae83610899565b92508263ffffffff038211156107c7576107c66108f2565b5b828201905092915050565b60006107dd82610899565b91506107e883610899565b9250826107f8576107f7610921565b5b828204905092915050565b600061080e8261088f565b91506108198361088f565b9250817fffffffffffffffffffffffffffffffffffffffffffffffffffffffffffffffff0483118215151615610852576108516108f2565b5b828202905092915050565b60006108688261086f565b9050919050565b600073ffffffffffffffffffffffffffffffffffffffff82169050919050565b6000819050919050565b600063ffffffff82169050919050565b60006108b48261088f565b91507fffffffffffffffffffffffffffffffffffffffffffffffffffffffffffffffff8214156108e7576108e66108f2565b5b600182019050919050565b7f4e487b7100000000000000000000000000000000000000000000000000000000600052601160045260246000fd5b7f4e487b7100000000000000000000000000000000000000000000000000000000600052601260045260246000fd5b6109598161085d565b811461096457600080fd5b50565b61097081610899565b811461097b57600080fd5b5056fea26469706673582212203de64e4f7bc877628958263c679f02178daee9df7d8065586928c1fe2a2fcb1264736f6c63430008000033",
  "linkReferences": {},
  "deployedLinkReferences": {}
}