{
	"smart-contracts/contracts/energyContracts/Caller.sol": {
		"Caller": {
			"abi": [
				{
					"anonymous": false,
					"inputs": [
						{
							"indexed": false,
							"internalType": "uint256",
							"name": "carbonIntensity",
							"type": "uint256"
						},
						{
							"indexed": false,
							"internalType": "uint256",
							"name": "priceCarbon",
							"type": "uint256"
						},
						{
							"indexed": false,
							"internalType": "uint256",
							"name": "id",
							"type": "uint256"
						}
					],
					"name": "ElectricityDataReceived",
					"type": "event"
				},
				{
					"anonymous": false,
					"inputs": [
						{
							"indexed": false,
							"internalType": "uint256",
							"name": "id",
							"type": "uint256"
						}
					],
					"name": "ElectricityDataRequested",
					"type": "event"
				},
				{
					"anonymous": false,
					"inputs": [
						{
							"indexed": false,
							"internalType": "address",
							"name": "oracleAddress",
							"type": "address"
						}
					],
					"name": "OracleAddressChanged",
					"type": "event"
				},
				{
					"anonymous": false,
					"inputs": [
						{
							"indexed": true,
							"internalType": "address",
							"name": "previousOwner",
							"type": "address"
						},
						{
							"indexed": true,
							"internalType": "address",
							"name": "newOwner",
							"type": "address"
						}
					],
					"name": "OwnershipTransferred",
					"type": "event"
				},
				{
					"inputs": [
						{
							"internalType": "uint256",
							"name": "carbonIntensity",
							"type": "uint256"
						},
						{
							"internalType": "uint256",
							"name": "priceCarbon",
							"type": "uint256"
						},
						{
							"internalType": "uint256",
							"name": "id",
							"type": "uint256"
						}
					],
					"name": "fulfillElectricityDataRequest",
					"outputs": [],
					"stateMutability": "nonpayable",
					"type": "function"
				},
				{
					"inputs": [],
					"name": "getElectricityData",
					"outputs": [
						{
							"components": [
								{
									"internalType": "uint256",
									"name": "carbonIntensity",
									"type": "uint256"
								},
								{
									"internalType": "uint256",
									"name": "priceCarbon",
									"type": "uint256"
								}
							],
							"internalType": "struct Caller.ElectricityData",
							"name": "",
							"type": "tuple"
						}
					],
					"stateMutability": "nonpayable",
					"type": "function"
				},
				{
					"inputs": [],
					"name": "owner",
					"outputs": [
						{
							"internalType": "address",
							"name": "",
							"type": "address"
						}
					],
					"stateMutability": "view",
					"type": "function"
				},
				{
					"inputs": [],
					"name": "renounceOwnership",
					"outputs": [],
					"stateMutability": "nonpayable",
					"type": "function"
				},
				{
					"inputs": [
						{
							"internalType": "address",
							"name": "newAddress",
							"type": "address"
						}
					],
					"name": "setElectricityOracleAddress",
					"outputs": [],
					"stateMutability": "nonpayable",
					"type": "function"
				},
				{
					"inputs": [
						{
							"internalType": "address",
							"name": "newOwner",
							"type": "address"
						}
					],
					"name": "transferOwnership",
					"outputs": [],
					"stateMutability": "nonpayable",
					"type": "function"
				}
			],
			"devdoc": {
				"kind": "dev",
				"methods": {
					"owner()": {
						"details": "Returns the address of the current owner."
					},
					"renounceOwnership()": {
						"details": "Leaves the contract without owner. It will not be possible to call `onlyOwner` functions. Can only be called by the current owner. NOTE: Renouncing ownership will leave the contract without an owner, thereby disabling any functionality that is only available to the owner."
					},
					"transferOwnership(address)": {
						"details": "Transfers ownership of the contract to a new account (`newOwner`). Can only be called by the current owner."
					}
				},
				"version": 1
			},
			"evm": {
				"assembly": "    /* \"smart-contracts/contracts/energyContracts/Caller.sol\":154:1907  contract Caller is Ownable {... */\n  mstore(0x40, 0x80)\n  callvalue\n  dup1\n  iszero\n  tag_1\n  jumpi\n  0x00\n  dup1\n  revert\ntag_1:\n  pop\n    /* \"@openzeppelin/contracts/access/Ownable.sol\":936:968  _transferOwnership(_msgSender()) */\n  tag_4\n    /* \"@openzeppelin/contracts/access/Ownable.sol\":955:967  _msgSender() */\n  tag_5\n    /* \"@openzeppelin/contracts/access/Ownable.sol\":955:965  _msgSender */\n  shl(0x20, tag_6)\n    /* \"@openzeppelin/contracts/access/Ownable.sol\":955:967  _msgSender() */\n  0x20\n  shr\n  jump\t// in\ntag_5:\n    /* \"@openzeppelin/contracts/access/Ownable.sol\":936:954  _transferOwnership */\n  shl(0x20, tag_7)\n    /* \"@openzeppelin/contracts/access/Ownable.sol\":936:968  _transferOwnership(_msgSender()) */\n  0x20\n  shr\n  jump\t// in\ntag_4:\n    /* \"smart-contracts/contracts/energyContracts/Caller.sol\":154:1907  contract Caller is Ownable {... */\n  jump(tag_8)\n    /* \"@openzeppelin/contracts/utils/Context.sol\":640:736  function _msgSender() internal view virtual returns (address) {... */\ntag_6:\n    /* \"@openzeppelin/contracts/utils/Context.sol\":693:700  address */\n  0x00\n    /* \"@openzeppelin/contracts/utils/Context.sol\":719:729  msg.sender */\n  caller\n    /* \"@openzeppelin/contracts/utils/Context.sol\":712:729  return msg.sender */\n  swap1\n  pop\n    /* \"@openzeppelin/contracts/utils/Context.sol\":640:736  function _msgSender() internal view virtual returns (address) {... */\n  swap1\n  jump\t// out\n    /* \"@openzeppelin/contracts/access/Ownable.sol\":2426:2613  function _transferOwnership(address newOwner) internal virtual {... */\ntag_7:\n    /* \"@openzeppelin/contracts/access/Ownable.sol\":2499:2515  address oldOwner */\n  0x00\n    /* \"@openzeppelin/contracts/access/Ownable.sol\":2518:2524  _owner */\n  dup1\n  0x00\n  swap1\n  sload\n  swap1\n  0x0100\n  exp\n  swap1\n  div\n  0xffffffffffffffffffffffffffffffffffffffff\n  and\n    /* \"@openzeppelin/contracts/access/Ownable.sol\":2499:2524  address oldOwner = _owner */\n  swap1\n  pop\n    /* \"@openzeppelin/contracts/access/Ownable.sol\":2543:2551  newOwner */\n  dup2\n    /* \"@openzeppelin/contracts/access/Ownable.sol\":2534:2540  _owner */\n  0x00\n  dup1\n    /* \"@openzeppelin/contracts/access/Ownable.sol\":2534:2551  _owner = newOwner */\n  0x0100\n  exp\n  dup2\n  sload\n  dup2\n  0xffffffffffffffffffffffffffffffffffffffff\n  mul\n  not\n  and\n  swap1\n  dup4\n  0xffffffffffffffffffffffffffffffffffffffff\n  and\n  mul\n  or\n  swap1\n  sstore\n  pop\n    /* \"@openzeppelin/contracts/access/Ownable.sol\":2597:2605  newOwner */\n  dup2\n    /* \"@openzeppelin/contracts/access/Ownable.sol\":2566:2606  OwnershipTransferred(oldOwner, newOwner) */\n  0xffffffffffffffffffffffffffffffffffffffff\n  and\n    /* \"@openzeppelin/contracts/access/Ownable.sol\":2587:2595  oldOwner */\n  dup2\n    /* \"@openzeppelin/contracts/access/Ownable.sol\":2566:2606  OwnershipTransferred(oldOwner, newOwner) */\n  0xffffffffffffffffffffffffffffffffffffffff\n  and\n  0x8be0079c531659141344cd1fd0a4f28419497f9722a3daafe3b4186f6b6457e0\n  mload(0x40)\n  mload(0x40)\n  dup1\n  swap2\n  sub\n  swap1\n  log3\n    /* \"@openzeppelin/contracts/access/Ownable.sol\":2489:2613  {... */\n  pop\n    /* \"@openzeppelin/contracts/access/Ownable.sol\":2426:2613  function _transferOwnership(address newOwner) internal virtual {... */\n  pop\n  jump\t// out\n    /* \"smart-contracts/contracts/energyContracts/Caller.sol\":154:1907  contract Caller is Ownable {... */\ntag_8:\n  dataSize(sub_0)\n  dup1\n  dataOffset(sub_0)\n  0x00\n  codecopy\n  0x00\n  return\nstop\n\nsub_0: assembly {\n        /* \"smart-contracts/contracts/energyContracts/Caller.sol\":154:1907  contract Caller is Ownable {... */\n      mstore(0x40, 0x80)\n      callvalue\n      dup1\n      iszero\n      tag_1\n      jumpi\n      0x00\n      dup1\n      revert\n    tag_1:\n      pop\n      jumpi(tag_2, lt(calldatasize, 0x04))\n      shr(0xe0, calldataload(0x00))\n      dup1\n      0x06c04593\n      eq\n      tag_3\n      jumpi\n      dup1\n      0x2c8a7526\n      eq\n      tag_4\n      jumpi\n      dup1\n      0x715018a6\n      eq\n      tag_5\n      jumpi\n      dup1\n      0x8da5cb5b\n      eq\n      tag_6\n      jumpi\n      dup1\n      0xdeb93ef0\n      eq\n      tag_7\n      jumpi\n      dup1\n      0xf2fde38b\n      eq\n      tag_8\n      jumpi\n    tag_2:\n      0x00\n      dup1\n      revert\n        /* \"smart-contracts/contracts/energyContracts/Caller.sol\":1326:1708  function fulfillElectricityDataRequest(uint256 carbonIntensity, uint256 priceCarbon, uint256 id) external onlyElectricityOracle {... */\n    tag_3:\n      tag_9\n      0x04\n      dup1\n      calldatasize\n      sub\n      dup2\n      add\n      swap1\n      tag_10\n      swap2\n      swap1\n      tag_11\n      jump\t// in\n    tag_10:\n      tag_12\n      jump\t// in\n    tag_9:\n      stop\n        /* \"smart-contracts/contracts/energyContracts/Caller.sol\":833:1320  function getElectricityData() external returns(ElectricityData memory) {... */\n    tag_4:\n      tag_13\n      tag_14\n      jump\t// in\n    tag_13:\n      mload(0x40)\n      tag_15\n      swap2\n      swap1\n      tag_16\n      jump\t// in\n    tag_15:\n      mload(0x40)\n      dup1\n      swap2\n      sub\n      swap1\n      return\n        /* \"@openzeppelin/contracts/access/Ownable.sol\":1824:1925  function renounceOwnership() public virtual onlyOwner {... */\n    tag_5:\n      tag_17\n      tag_18\n      jump\t// in\n    tag_17:\n      stop\n        /* \"@openzeppelin/contracts/access/Ownable.sol\":1201:1286  function owner() public view virtual returns (address) {... */\n    tag_6:\n      tag_19\n      tag_20\n      jump\t// in\n    tag_19:\n      mload(0x40)\n      tag_21\n      swap2\n      swap1\n      tag_22\n      jump\t// in\n    tag_21:\n      mload(0x40)\n      dup1\n      swap2\n      sub\n      swap1\n      return\n        /* \"smart-contracts/contracts/energyContracts/Caller.sol\":636:827  function setElectricityOracleAddress(address newAddress) external onlyOwner {... */\n    tag_7:\n      tag_23\n      0x04\n      dup1\n      calldatasize\n      sub\n      dup2\n      add\n      swap1\n      tag_24\n      swap2\n      swap1\n      tag_25\n      jump\t// in\n    tag_24:\n      tag_26\n      jump\t// in\n    tag_23:\n      stop\n        /* \"@openzeppelin/contracts/access/Ownable.sol\":2074:2272  function transferOwnership(address newOwner) public virtual onlyOwner {... */\n    tag_8:\n      tag_27\n      0x04\n      dup1\n      calldatasize\n      sub\n      dup2\n      add\n      swap1\n      tag_28\n      swap2\n      swap1\n      tag_25\n      jump\t// in\n    tag_28:\n      tag_29\n      jump\t// in\n    tag_27:\n      stop\n        /* \"smart-contracts/contracts/energyContracts/Caller.sol\":1326:1708  function fulfillElectricityDataRequest(uint256 carbonIntensity, uint256 priceCarbon, uint256 id) external onlyElectricityOracle {... */\n    tag_12:\n        /* \"smart-contracts/contracts/energyContracts/Caller.sol\":576:593  electricityOracle */\n      0x01\n      0x00\n      swap1\n      sload\n      swap1\n      0x0100\n      exp\n      swap1\n      div\n      0xffffffffffffffffffffffffffffffffffffffff\n      and\n        /* \"smart-contracts/contracts/energyContracts/Caller.sol\":554:594  msg.sender == address(electricityOracle) */\n      0xffffffffffffffffffffffffffffffffffffffff\n      and\n        /* \"smart-contracts/contracts/energyContracts/Caller.sol\":554:564  msg.sender */\n      caller\n        /* \"smart-contracts/contracts/energyContracts/Caller.sol\":554:594  msg.sender == address(electricityOracle) */\n      0xffffffffffffffffffffffffffffffffffffffff\n      and\n      eq\n        /* \"smart-contracts/contracts/energyContracts/Caller.sol\":546:612  require(msg.sender == address(electricityOracle), \"Unauthorized.\") */\n      tag_31\n      jumpi\n      mload(0x40)\n      0x08c379a000000000000000000000000000000000000000000000000000000000\n      dup2\n      mstore\n      0x04\n      add\n      tag_32\n      swap1\n      tag_33\n      jump\t// in\n    tag_32:\n      mload(0x40)\n      dup1\n      swap2\n      sub\n      swap1\n      revert\n    tag_31:\n        /* \"smart-contracts/contracts/energyContracts/Caller.sol\":1472:1480  requests */\n      0x02\n        /* \"smart-contracts/contracts/energyContracts/Caller.sol\":1472:1484  requests[id] */\n      0x00\n        /* \"smart-contracts/contracts/energyContracts/Caller.sol\":1481:1483  id */\n      dup3\n        /* \"smart-contracts/contracts/energyContracts/Caller.sol\":1472:1484  requests[id] */\n      dup2\n      mstore\n      0x20\n      add\n      swap1\n      dup2\n      mstore\n      0x20\n      add\n      0x00\n      keccak256\n      0x00\n      swap1\n      sload\n      swap1\n      0x0100\n      exp\n      swap1\n      div\n      0xff\n      and\n        /* \"smart-contracts/contracts/energyContracts/Caller.sol\":1464:1529  require(requests[id], \"Request is invalid or already fulfilled.\") */\n      tag_35\n      jumpi\n      mload(0x40)\n      0x08c379a000000000000000000000000000000000000000000000000000000000\n      dup2\n      mstore\n      0x04\n      add\n      tag_36\n      swap1\n      tag_37\n      jump\t// in\n    tag_36:\n      mload(0x40)\n      dup1\n      swap2\n      sub\n      swap1\n      revert\n    tag_35:\n        /* \"smart-contracts/contracts/energyContracts/Caller.sol\":1554:1599  ElectricityData(carbonIntensity, priceCarbon) */\n      mload(0x40)\n      dup1\n      0x40\n      add\n      0x40\n      mstore\n      dup1\n        /* \"smart-contracts/contracts/energyContracts/Caller.sol\":1570:1585  carbonIntensity */\n      dup5\n        /* \"smart-contracts/contracts/energyContracts/Caller.sol\":1554:1599  ElectricityData(carbonIntensity, priceCarbon) */\n      dup2\n      mstore\n      0x20\n      add\n        /* \"smart-contracts/contracts/energyContracts/Caller.sol\":1587:1598  priceCarbon */\n      dup4\n        /* \"smart-contracts/contracts/energyContracts/Caller.sol\":1554:1599  ElectricityData(carbonIntensity, priceCarbon) */\n      dup2\n      mstore\n      pop\n        /* \"smart-contracts/contracts/energyContracts/Caller.sol\":1540:1547  results */\n      0x03\n        /* \"smart-contracts/contracts/energyContracts/Caller.sol\":1540:1551  results[id] */\n      0x00\n        /* \"smart-contracts/contracts/energyContracts/Caller.sol\":1548:1550  id */\n      dup4\n        /* \"smart-contracts/contracts/energyContracts/Caller.sol\":1540:1551  results[id] */\n      dup2\n      mstore\n      0x20\n      add\n      swap1\n      dup2\n      mstore\n      0x20\n      add\n      0x00\n      keccak256\n        /* \"smart-contracts/contracts/energyContracts/Caller.sol\":1540:1599  results[id] = ElectricityData(carbonIntensity, priceCarbon) */\n      0x00\n      dup3\n      add\n      mload\n      dup2\n      0x00\n      add\n      sstore\n      0x20\n      dup3\n      add\n      mload\n      dup2\n      0x01\n      add\n      sstore\n      swap1\n      pop\n      pop\n        /* \"smart-contracts/contracts/energyContracts/Caller.sol\":1616:1624  requests */\n      0x02\n        /* \"smart-contracts/contracts/energyContracts/Caller.sol\":1616:1628  requests[id] */\n      0x00\n        /* \"smart-contracts/contracts/energyContracts/Caller.sol\":1625:1627  id */\n      dup3\n        /* \"smart-contracts/contracts/energyContracts/Caller.sol\":1616:1628  requests[id] */\n      dup2\n      mstore\n      0x20\n      add\n      swap1\n      dup2\n      mstore\n      0x20\n      add\n      0x00\n      keccak256\n      0x00\n        /* \"smart-contracts/contracts/energyContracts/Caller.sol\":1609:1628  delete requests[id] */\n      0x0100\n      exp\n      dup2\n      sload\n      swap1\n      0xff\n      mul\n      not\n      and\n      swap1\n      sstore\n        /* \"smart-contracts/contracts/energyContracts/Caller.sol\":1644:1701  ElectricityDataReceived(carbonIntensity, priceCarbon, id) */\n      0xac692744937aaf6b0bdbd8e64a6994b068c12dcf93bf43bf34e349496317f729\n        /* \"smart-contracts/contracts/energyContracts/Caller.sol\":1668:1683  carbonIntensity */\n      dup4\n        /* \"smart-contracts/contracts/energyContracts/Caller.sol\":1685:1696  priceCarbon */\n      dup4\n        /* \"smart-contracts/contracts/energyContracts/Caller.sol\":1698:1700  id */\n      dup4\n        /* \"smart-contracts/contracts/energyContracts/Caller.sol\":1644:1701  ElectricityDataReceived(carbonIntensity, priceCarbon, id) */\n      mload(0x40)\n      tag_38\n      swap4\n      swap3\n      swap2\n      swap1\n      tag_39\n      jump\t// in\n    tag_38:\n      mload(0x40)\n      dup1\n      swap2\n      sub\n      swap1\n      log1\n        /* \"smart-contracts/contracts/energyContracts/Caller.sol\":1326:1708  function fulfillElectricityDataRequest(uint256 carbonIntensity, uint256 priceCarbon, uint256 id) external onlyElectricityOracle {... */\n      pop\n      pop\n      pop\n      jump\t// out\n        /* \"smart-contracts/contracts/energyContracts/Caller.sol\":833:1320  function getElectricityData() external returns(ElectricityData memory) {... */\n    tag_14:\n        /* \"smart-contracts/contracts/energyContracts/Caller.sol\":880:902  ElectricityData memory */\n      tag_40\n      tag_41\n      jump\t// in\n    tag_40:\n        /* \"smart-contracts/contracts/energyContracts/Caller.sol\":970:971  0 */\n      0x00\n        /* \"smart-contracts/contracts/energyContracts/Caller.sol\":922:973  electricityOracle != IElectricityOracle(address(0)) */\n      0xffffffffffffffffffffffffffffffffffffffff\n      and\n        /* \"smart-contracts/contracts/energyContracts/Caller.sol\":922:939  electricityOracle */\n      0x01\n      0x00\n      swap1\n      sload\n      swap1\n      0x0100\n      exp\n      swap1\n      div\n      0xffffffffffffffffffffffffffffffffffffffff\n      and\n        /* \"smart-contracts/contracts/energyContracts/Caller.sol\":922:973  electricityOracle != IElectricityOracle(address(0)) */\n      0xffffffffffffffffffffffffffffffffffffffff\n      and\n      sub\n        /* \"smart-contracts/contracts/energyContracts/Caller.sol\":914:1001  require(electricityOracle != IElectricityOracle(address(0)), \"Oracle not initialized.\") */\n      tag_43\n      jumpi\n      mload(0x40)\n      0x08c379a000000000000000000000000000000000000000000000000000000000\n      dup2\n      mstore\n      0x04\n      add\n      tag_44\n      swap1\n      tag_45\n      jump\t// in\n    tag_44:\n      mload(0x40)\n      dup1\n      swap2\n      sub\n      swap1\n      revert\n    tag_43:\n        /* \"smart-contracts/contracts/energyContracts/Caller.sol\":1064:1074  10 minutes */\n      0x0258\n        /* \"smart-contracts/contracts/energyContracts/Caller.sol\":1035:1061  latestDataRequestTimestamp */\n      sload(0x04)\n        /* \"smart-contracts/contracts/energyContracts/Caller.sol\":1035:1074  latestDataRequestTimestamp + 10 minutes */\n      tag_46\n      swap2\n      swap1\n      tag_47\n      jump\t// in\n    tag_46:\n        /* \"smart-contracts/contracts/energyContracts/Caller.sol\":1016:1031  block.timestamp */\n      timestamp\n        /* \"smart-contracts/contracts/energyContracts/Caller.sol\":1016:1074  block.timestamp <= latestDataRequestTimestamp + 10 minutes */\n      gt\n        /* \"smart-contracts/contracts/energyContracts/Caller.sol\":1012:1279  if (block.timestamp <= latestDataRequestTimestamp + 10 minutes) {... */\n      tag_48\n      jumpi\n        /* \"smart-contracts/contracts/energyContracts/Caller.sol\":1104:1114  uint256 id */\n      0x00\n        /* \"smart-contracts/contracts/energyContracts/Caller.sol\":1117:1134  electricityOracle */\n      0x01\n      0x00\n      swap1\n      sload\n      swap1\n      0x0100\n      exp\n      swap1\n      div\n      0xffffffffffffffffffffffffffffffffffffffff\n      and\n        /* \"smart-contracts/contracts/energyContracts/Caller.sol\":1117:1157  electricityOracle.requestElectricityData */\n      0xffffffffffffffffffffffffffffffffffffffff\n      and\n      0xfe66d9df\n        /* \"smart-contracts/contracts/energyContracts/Caller.sol\":1117:1159  electricityOracle.requestElectricityData() */\n      mload(0x40)\n      dup2\n      0xffffffff\n      and\n      0xe0\n      shl\n      dup2\n      mstore\n      0x04\n      add\n      0x20\n      mload(0x40)\n      dup1\n      dup4\n      sub\n      dup2\n      0x00\n      dup8\n      gas\n      call\n      iszero\n      dup1\n      iszero\n      tag_50\n      jumpi\n      returndatasize\n      0x00\n      dup1\n      returndatacopy\n      revert(0x00, returndatasize)\n    tag_50:\n      pop\n      pop\n      pop\n      pop\n      mload(0x40)\n      returndatasize\n      not(0x1f)\n      0x1f\n      dup3\n      add\n      and\n      dup3\n      add\n      dup1\n      0x40\n      mstore\n      pop\n      dup2\n      add\n      swap1\n      tag_51\n      swap2\n      swap1\n      tag_52\n      jump\t// in\n    tag_51:\n        /* \"smart-contracts/contracts/energyContracts/Caller.sol\":1104:1159  uint256 id = electricityOracle.requestElectricityData() */\n      swap1\n      pop\n        /* \"smart-contracts/contracts/energyContracts/Caller.sol\":1188:1192  true */\n      0x01\n        /* \"smart-contracts/contracts/energyContracts/Caller.sol\":1173:1181  requests */\n      0x02\n        /* \"smart-contracts/contracts/energyContracts/Caller.sol\":1173:1185  requests[id] */\n      0x00\n        /* \"smart-contracts/contracts/energyContracts/Caller.sol\":1182:1184  id */\n      dup4\n        /* \"smart-contracts/contracts/energyContracts/Caller.sol\":1173:1185  requests[id] */\n      dup2\n      mstore\n      0x20\n      add\n      swap1\n      dup2\n      mstore\n      0x20\n      add\n      0x00\n      keccak256\n      0x00\n        /* \"smart-contracts/contracts/energyContracts/Caller.sol\":1173:1192  requests[id] = true */\n      0x0100\n      exp\n      dup2\n      sload\n      dup2\n      0xff\n      mul\n      not\n      and\n      swap1\n      dup4\n      iszero\n      iszero\n      mul\n      or\n      swap1\n      sstore\n      pop\n        /* \"smart-contracts/contracts/energyContracts/Caller.sol\":1212:1240  ElectricityDataRequested(id) */\n      0xe99dd399072a7d799ffff8860fe4ea02424a7301da2e2f2c3efc7ffcfafe4819\n        /* \"smart-contracts/contracts/energyContracts/Caller.sol\":1237:1239  id */\n      dup2\n        /* \"smart-contracts/contracts/energyContracts/Caller.sol\":1212:1240  ElectricityDataRequested(id) */\n      mload(0x40)\n      tag_53\n      swap2\n      swap1\n      tag_54\n      jump\t// in\n    tag_53:\n      mload(0x40)\n      dup1\n      swap2\n      sub\n      swap1\n      log1\n        /* \"smart-contracts/contracts/energyContracts/Caller.sol\":1266:1268  id */\n      dup1\n        /* \"smart-contracts/contracts/energyContracts/Caller.sol\":1255:1263  latestId */\n      0x05\n        /* \"smart-contracts/contracts/energyContracts/Caller.sol\":1255:1268  latestId = id */\n      dup2\n      swap1\n      sstore\n      pop\n        /* \"smart-contracts/contracts/energyContracts/Caller.sol\":1076:1279  {... */\n      pop\n        /* \"smart-contracts/contracts/energyContracts/Caller.sol\":1012:1279  if (block.timestamp <= latestDataRequestTimestamp + 10 minutes) {... */\n    tag_48:\n        /* \"smart-contracts/contracts/energyContracts/Caller.sol\":1296:1303  results */\n      0x03\n        /* \"smart-contracts/contracts/energyContracts/Caller.sol\":1296:1313  results[latestId] */\n      0x00\n        /* \"smart-contracts/contracts/energyContracts/Caller.sol\":1304:1312  latestId */\n      sload(0x05)\n        /* \"smart-contracts/contracts/energyContracts/Caller.sol\":1296:1313  results[latestId] */\n      dup2\n      mstore\n      0x20\n      add\n      swap1\n      dup2\n      mstore\n      0x20\n      add\n      0x00\n      keccak256\n        /* \"smart-contracts/contracts/energyContracts/Caller.sol\":1289:1313  return results[latestId] */\n      mload(0x40)\n      dup1\n      0x40\n      add\n      0x40\n      mstore\n      swap1\n      dup2\n      0x00\n      dup3\n      add\n      sload\n      dup2\n      mstore\n      0x20\n      add\n      0x01\n      dup3\n      add\n      sload\n      dup2\n      mstore\n      pop\n      pop\n      swap1\n      pop\n        /* \"smart-contracts/contracts/energyContracts/Caller.sol\":833:1320  function getElectricityData() external returns(ElectricityData memory) {... */\n      swap1\n      jump\t// out\n        /* \"@openzeppelin/contracts/access/Ownable.sol\":1824:1925  function renounceOwnership() public virtual onlyOwner {... */\n    tag_18:\n        /* \"@openzeppelin/contracts/access/Ownable.sol\":1094:1107  _checkOwner() */\n      tag_56\n        /* \"@openzeppelin/contracts/access/Ownable.sol\":1094:1105  _checkOwner */\n      tag_57\n        /* \"@openzeppelin/contracts/access/Ownable.sol\":1094:1107  _checkOwner() */\n      jump\t// in\n    tag_56:\n        /* \"@openzeppelin/contracts/access/Ownable.sol\":1888:1918  _transferOwnership(address(0)) */\n      tag_59\n        /* \"@openzeppelin/contracts/access/Ownable.sol\":1915:1916  0 */\n      0x00\n        /* \"@openzeppelin/contracts/access/Ownable.sol\":1888:1906  _transferOwnership */\n      tag_60\n        /* \"@openzeppelin/contracts/access/Ownable.sol\":1888:1918  _transferOwnership(address(0)) */\n      jump\t// in\n    tag_59:\n        /* \"@openzeppelin/contracts/access/Ownable.sol\":1824:1925  function renounceOwnership() public virtual onlyOwner {... */\n      jump\t// out\n        /* \"@openzeppelin/contracts/access/Ownable.sol\":1201:1286  function owner() public view virtual returns (address) {... */\n    tag_20:\n        /* \"@openzeppelin/contracts/access/Ownable.sol\":1247:1254  address */\n      0x00\n        /* \"@openzeppelin/contracts/access/Ownable.sol\":1273:1279  _owner */\n      dup1\n      0x00\n      swap1\n      sload\n      swap1\n      0x0100\n      exp\n      swap1\n      div\n      0xffffffffffffffffffffffffffffffffffffffff\n      and\n        /* \"@openzeppelin/contracts/access/Ownable.sol\":1266:1279  return _owner */\n      swap1\n      pop\n        /* \"@openzeppelin/contracts/access/Ownable.sol\":1201:1286  function owner() public view virtual returns (address) {... */\n      swap1\n      jump\t// out\n        /* \"smart-contracts/contracts/energyContracts/Caller.sol\":636:827  function setElectricityOracleAddress(address newAddress) external onlyOwner {... */\n    tag_26:\n        /* \"@openzeppelin/contracts/access/Ownable.sol\":1094:1107  _checkOwner() */\n      tag_63\n        /* \"@openzeppelin/contracts/access/Ownable.sol\":1094:1105  _checkOwner */\n      tag_57\n        /* \"@openzeppelin/contracts/access/Ownable.sol\":1094:1107  _checkOwner() */\n      jump\t// in\n    tag_63:\n        /* \"smart-contracts/contracts/energyContracts/Caller.sol\":761:771  newAddress */\n      dup1\n        /* \"smart-contracts/contracts/energyContracts/Caller.sol\":722:739  electricityOracle */\n      0x01\n      0x00\n        /* \"smart-contracts/contracts/energyContracts/Caller.sol\":722:772  electricityOracle = IElectricityOracle(newAddress) */\n      0x0100\n      exp\n      dup2\n      sload\n      dup2\n      0xffffffffffffffffffffffffffffffffffffffff\n      mul\n      not\n      and\n      swap1\n      dup4\n      0xffffffffffffffffffffffffffffffffffffffff\n      and\n      mul\n      or\n      swap1\n      sstore\n      pop\n        /* \"smart-contracts/contracts/energyContracts/Caller.sol\":788:820  OracleAddressChanged(newAddress) */\n      0xe420b96152542f57ce3d2d26d939a3c2860a82361801ad0a970a3badc32d538e\n        /* \"smart-contracts/contracts/energyContracts/Caller.sol\":809:819  newAddress */\n      dup2\n        /* \"smart-contracts/contracts/energyContracts/Caller.sol\":788:820  OracleAddressChanged(newAddress) */\n      mload(0x40)\n      tag_65\n      swap2\n      swap1\n      tag_22\n      jump\t// in\n    tag_65:\n      mload(0x40)\n      dup1\n      swap2\n      sub\n      swap1\n      log1\n        /* \"smart-contracts/contracts/energyContracts/Caller.sol\":636:827  function setElectricityOracleAddress(address newAddress) external onlyOwner {... */\n      pop\n      jump\t// out\n        /* \"@openzeppelin/contracts/access/Ownable.sol\":2074:2272  function transferOwnership(address newOwner) public virtual onlyOwner {... */\n    tag_29:\n        /* \"@openzeppelin/contracts/access/Ownable.sol\":1094:1107  _checkOwner() */\n      tag_67\n        /* \"@openzeppelin/contracts/access/Ownable.sol\":1094:1105  _checkOwner */\n      tag_57\n        /* \"@openzeppelin/contracts/access/Ownable.sol\":1094:1107  _checkOwner() */\n      jump\t// in\n    tag_67:\n        /* \"@openzeppelin/contracts/access/Ownable.sol\":2182:2183  0 */\n      0x00\n        /* \"@openzeppelin/contracts/access/Ownable.sol\":2162:2184  newOwner != address(0) */\n      0xffffffffffffffffffffffffffffffffffffffff\n      and\n        /* \"@openzeppelin/contracts/access/Ownable.sol\":2162:2170  newOwner */\n      dup2\n        /* \"@openzeppelin/contracts/access/Ownable.sol\":2162:2184  newOwner != address(0) */\n      0xffffffffffffffffffffffffffffffffffffffff\n      and\n      sub\n        /* \"@openzeppelin/contracts/access/Ownable.sol\":2154:2227  require(newOwner != address(0), \"Ownable: new owner is the zero address\") */\n      tag_69\n      jumpi\n      mload(0x40)\n      0x08c379a000000000000000000000000000000000000000000000000000000000\n      dup2\n      mstore\n      0x04\n      add\n      tag_70\n      swap1\n      tag_71\n      jump\t// in\n    tag_70:\n      mload(0x40)\n      dup1\n      swap2\n      sub\n      swap1\n      revert\n    tag_69:\n        /* \"@openzeppelin/contracts/access/Ownable.sol\":2237:2265  _transferOwnership(newOwner) */\n      tag_72\n        /* \"@openzeppelin/contracts/access/Ownable.sol\":2256:2264  newOwner */\n      dup2\n        /* \"@openzeppelin/contracts/access/Ownable.sol\":2237:2255  _transferOwnership */\n      tag_60\n        /* \"@openzeppelin/contracts/access/Ownable.sol\":2237:2265  _transferOwnership(newOwner) */\n      jump\t// in\n    tag_72:\n        /* \"@openzeppelin/contracts/access/Ownable.sol\":2074:2272  function transferOwnership(address newOwner) public virtual onlyOwner {... */\n      pop\n      jump\t// out\n        /* \"@openzeppelin/contracts/access/Ownable.sol\":1359:1489  function _checkOwner() internal view virtual {... */\n    tag_57:\n        /* \"@openzeppelin/contracts/access/Ownable.sol\":1433:1445  _msgSender() */\n      tag_74\n        /* \"@openzeppelin/contracts/access/Ownable.sol\":1433:1443  _msgSender */\n      tag_75\n        /* \"@openzeppelin/contracts/access/Ownable.sol\":1433:1445  _msgSender() */\n      jump\t// in\n    tag_74:\n        /* \"@openzeppelin/contracts/access/Ownable.sol\":1422:1445  owner() == _msgSender() */\n      0xffffffffffffffffffffffffffffffffffffffff\n      and\n        /* \"@openzeppelin/contracts/access/Ownable.sol\":1422:1429  owner() */\n      tag_76\n        /* \"@openzeppelin/contracts/access/Ownable.sol\":1422:1427  owner */\n      tag_20\n        /* \"@openzeppelin/contracts/access/Ownable.sol\":1422:1429  owner() */\n      jump\t// in\n    tag_76:\n        /* \"@openzeppelin/contracts/access/Ownable.sol\":1422:1445  owner() == _msgSender() */\n      0xffffffffffffffffffffffffffffffffffffffff\n      and\n      eq\n        /* \"@openzeppelin/contracts/access/Ownable.sol\":1414:1482  require(owner() == _msgSender(), \"Ownable: caller is not the owner\") */\n      tag_77\n      jumpi\n      mload(0x40)\n      0x08c379a000000000000000000000000000000000000000000000000000000000\n      dup2\n      mstore\n      0x04\n      add\n      tag_78\n      swap1\n      tag_79\n      jump\t// in\n    tag_78:\n      mload(0x40)\n      dup1\n      swap2\n      sub\n      swap1\n      revert\n    tag_77:\n        /* \"@openzeppelin/contracts/access/Ownable.sol\":1359:1489  function _checkOwner() internal view virtual {... */\n      jump\t// out\n        /* \"@openzeppelin/contracts/access/Ownable.sol\":2426:2613  function _transferOwnership(address newOwner) internal virtual {... */\n    tag_60:\n        /* \"@openzeppelin/contracts/access/Ownable.sol\":2499:2515  address oldOwner */\n      0x00\n        /* \"@openzeppelin/contracts/access/Ownable.sol\":2518:2524  _owner */\n      dup1\n      0x00\n      swap1\n      sload\n      swap1\n      0x0100\n      exp\n      swap1\n      div\n      0xffffffffffffffffffffffffffffffffffffffff\n      and\n        /* \"@openzeppelin/contracts/access/Ownable.sol\":2499:2524  address oldOwner = _owner */\n      swap1\n      pop\n        /* \"@openzeppelin/contracts/access/Ownable.sol\":2543:2551  newOwner */\n      dup2\n        /* \"@openzeppelin/contracts/access/Ownable.sol\":2534:2540  _owner */\n      0x00\n      dup1\n        /* \"@openzeppelin/contracts/access/Ownable.sol\":2534:2551  _owner = newOwner */\n      0x0100\n      exp\n      dup2\n      sload\n      dup2\n      0xffffffffffffffffffffffffffffffffffffffff\n      mul\n      not\n      and\n      swap1\n      dup4\n      0xffffffffffffffffffffffffffffffffffffffff\n      and\n      mul\n      or\n      swap1\n      sstore\n      pop\n        /* \"@openzeppelin/contracts/access/Ownable.sol\":2597:2605  newOwner */\n      dup2\n        /* \"@openzeppelin/contracts/access/Ownable.sol\":2566:2606  OwnershipTransferred(oldOwner, newOwner) */\n      0xffffffffffffffffffffffffffffffffffffffff\n      and\n        /* \"@openzeppelin/contracts/access/Ownable.sol\":2587:2595  oldOwner */\n      dup2\n        /* \"@openzeppelin/contracts/access/Ownable.sol\":2566:2606  OwnershipTransferred(oldOwner, newOwner) */\n      0xffffffffffffffffffffffffffffffffffffffff\n      and\n      0x8be0079c531659141344cd1fd0a4f28419497f9722a3daafe3b4186f6b6457e0\n      mload(0x40)\n      mload(0x40)\n      dup1\n      swap2\n      sub\n      swap1\n      log3\n        /* \"@openzeppelin/contracts/access/Ownable.sol\":2489:2613  {... */\n      pop\n        /* \"@openzeppelin/contracts/access/Ownable.sol\":2426:2613  function _transferOwnership(address newOwner) internal virtual {... */\n      pop\n      jump\t// out\n        /* \"@openzeppelin/contracts/utils/Context.sol\":640:736  function _msgSender() internal view virtual returns (address) {... */\n    tag_75:\n        /* \"@openzeppelin/contracts/utils/Context.sol\":693:700  address */\n      0x00\n        /* \"@openzeppelin/contracts/utils/Context.sol\":719:729  msg.sender */\n      caller\n        /* \"@openzeppelin/contracts/utils/Context.sol\":712:729  return msg.sender */\n      swap1\n      pop\n        /* \"@openzeppelin/contracts/utils/Context.sol\":640:736  function _msgSender() internal view virtual returns (address) {... */\n      swap1\n      jump\t// out\n    tag_41:\n      mload(0x40)\n      dup1\n      0x40\n      add\n      0x40\n      mstore\n      dup1\n      0x00\n      dup2\n      mstore\n      0x20\n      add\n      0x00\n      dup2\n      mstore\n      pop\n      swap1\n      jump\t// out\n        /* \"#utility.yul\":88:205   */\n    tag_83:\n        /* \"#utility.yul\":197:198   */\n      0x00\n        /* \"#utility.yul\":194:195   */\n      dup1\n        /* \"#utility.yul\":187:199   */\n      revert\n        /* \"#utility.yul\":334:411   */\n    tag_85:\n        /* \"#utility.yul\":371:378   */\n      0x00\n        /* \"#utility.yul\":400:405   */\n      dup2\n        /* \"#utility.yul\":389:405   */\n      swap1\n      pop\n        /* \"#utility.yul\":334:411   */\n      swap2\n      swap1\n      pop\n      jump\t// out\n        /* \"#utility.yul\":417:539   */\n    tag_86:\n        /* \"#utility.yul\":490:514   */\n      tag_115\n        /* \"#utility.yul\":508:513   */\n      dup2\n        /* \"#utility.yul\":490:514   */\n      tag_85\n      jump\t// in\n    tag_115:\n        /* \"#utility.yul\":483:488   */\n      dup2\n        /* \"#utility.yul\":480:515   */\n      eq\n        /* \"#utility.yul\":470:533   */\n      tag_116\n      jumpi\n        /* \"#utility.yul\":529:530   */\n      0x00\n        /* \"#utility.yul\":526:527   */\n      dup1\n        /* \"#utility.yul\":519:531   */\n      revert\n        /* \"#utility.yul\":470:533   */\n    tag_116:\n        /* \"#utility.yul\":417:539   */\n      pop\n      jump\t// out\n        /* \"#utility.yul\":545:684   */\n    tag_87:\n        /* \"#utility.yul\":591:596   */\n      0x00\n        /* \"#utility.yul\":629:635   */\n      dup2\n        /* \"#utility.yul\":616:636   */\n      calldataload\n        /* \"#utility.yul\":607:636   */\n      swap1\n      pop\n        /* \"#utility.yul\":645:678   */\n      tag_118\n        /* \"#utility.yul\":672:677   */\n      dup2\n        /* \"#utility.yul\":645:678   */\n      tag_86\n      jump\t// in\n    tag_118:\n        /* \"#utility.yul\":545:684   */\n      swap3\n      swap2\n      pop\n      pop\n      jump\t// out\n        /* \"#utility.yul\":690:1309   */\n    tag_11:\n        /* \"#utility.yul\":767:773   */\n      0x00\n        /* \"#utility.yul\":775:781   */\n      dup1\n        /* \"#utility.yul\":783:789   */\n      0x00\n        /* \"#utility.yul\":832:834   */\n      0x60\n        /* \"#utility.yul\":820:829   */\n      dup5\n        /* \"#utility.yul\":811:818   */\n      dup7\n        /* \"#utility.yul\":807:830   */\n      sub\n        /* \"#utility.yul\":803:835   */\n      slt\n        /* \"#utility.yul\":800:919   */\n      iszero\n      tag_120\n      jumpi\n        /* \"#utility.yul\":838:917   */\n      tag_121\n      tag_83\n      jump\t// in\n    tag_121:\n        /* \"#utility.yul\":800:919   */\n    tag_120:\n        /* \"#utility.yul\":958:959   */\n      0x00\n        /* \"#utility.yul\":983:1036   */\n      tag_122\n        /* \"#utility.yul\":1028:1035   */\n      dup7\n        /* \"#utility.yul\":1019:1025   */\n      dup3\n        /* \"#utility.yul\":1008:1017   */\n      dup8\n        /* \"#utility.yul\":1004:1026   */\n      add\n        /* \"#utility.yul\":983:1036   */\n      tag_87\n      jump\t// in\n    tag_122:\n        /* \"#utility.yul\":973:1036   */\n      swap4\n      pop\n        /* \"#utility.yul\":929:1046   */\n      pop\n        /* \"#utility.yul\":1085:1087   */\n      0x20\n        /* \"#utility.yul\":1111:1164   */\n      tag_123\n        /* \"#utility.yul\":1156:1163   */\n      dup7\n        /* \"#utility.yul\":1147:1153   */\n      dup3\n        /* \"#utility.yul\":1136:1145   */\n      dup8\n        /* \"#utility.yul\":1132:1154   */\n      add\n        /* \"#utility.yul\":1111:1164   */\n      tag_87\n      jump\t// in\n    tag_123:\n        /* \"#utility.yul\":1101:1164   */\n      swap3\n      pop\n        /* \"#utility.yul\":1056:1174   */\n      pop\n        /* \"#utility.yul\":1213:1215   */\n      0x40\n        /* \"#utility.yul\":1239:1292   */\n      tag_124\n        /* \"#utility.yul\":1284:1291   */\n      dup7\n        /* \"#utility.yul\":1275:1281   */\n      dup3\n        /* \"#utility.yul\":1264:1273   */\n      dup8\n        /* \"#utility.yul\":1260:1282   */\n      add\n        /* \"#utility.yul\":1239:1292   */\n      tag_87\n      jump\t// in\n    tag_124:\n        /* \"#utility.yul\":1229:1292   */\n      swap2\n      pop\n        /* \"#utility.yul\":1184:1302   */\n      pop\n        /* \"#utility.yul\":690:1309   */\n      swap3\n      pop\n      swap3\n      pop\n      swap3\n      jump\t// out\n        /* \"#utility.yul\":1315:1423   */\n    tag_88:\n        /* \"#utility.yul\":1392:1416   */\n      tag_126\n        /* \"#utility.yul\":1410:1415   */\n      dup2\n        /* \"#utility.yul\":1392:1416   */\n      tag_85\n      jump\t// in\n    tag_126:\n        /* \"#utility.yul\":1387:1390   */\n      dup3\n        /* \"#utility.yul\":1380:1417   */\n      mstore\n        /* \"#utility.yul\":1315:1423   */\n      pop\n      pop\n      jump\t// out\n        /* \"#utility.yul\":1499:2038   */\n    tag_89:\n        /* \"#utility.yul\":1660:1664   */\n      0x40\n        /* \"#utility.yul\":1655:1658   */\n      dup3\n        /* \"#utility.yul\":1651:1665   */\n      add\n        /* \"#utility.yul\":1758:1762   */\n      0x00\n        /* \"#utility.yul\":1751:1756   */\n      dup3\n        /* \"#utility.yul\":1747:1763   */\n      add\n        /* \"#utility.yul\":1741:1764   */\n      mload\n        /* \"#utility.yul\":1777:1840   */\n      tag_128\n        /* \"#utility.yul\":1834:1838   */\n      0x00\n        /* \"#utility.yul\":1829:1832   */\n      dup6\n        /* \"#utility.yul\":1825:1839   */\n      add\n        /* \"#utility.yul\":1811:1823   */\n      dup3\n        /* \"#utility.yul\":1777:1840   */\n      tag_88\n      jump\t// in\n    tag_128:\n        /* \"#utility.yul\":1675:1850   */\n      pop\n        /* \"#utility.yul\":1939:1943   */\n      0x20\n        /* \"#utility.yul\":1932:1937   */\n      dup3\n        /* \"#utility.yul\":1928:1944   */\n      add\n        /* \"#utility.yul\":1922:1945   */\n      mload\n        /* \"#utility.yul\":1958:2021   */\n      tag_129\n        /* \"#utility.yul\":2015:2019   */\n      0x20\n        /* \"#utility.yul\":2010:2013   */\n      dup6\n        /* \"#utility.yul\":2006:2020   */\n      add\n        /* \"#utility.yul\":1992:2004   */\n      dup3\n        /* \"#utility.yul\":1958:2021   */\n      tag_88\n      jump\t// in\n    tag_129:\n        /* \"#utility.yul\":1860:2031   */\n      pop\n        /* \"#utility.yul\":1629:2038   */\n      pop\n        /* \"#utility.yul\":1499:2038   */\n      pop\n      pop\n      jump\t// out\n        /* \"#utility.yul\":2044:2394   */\n    tag_16:\n        /* \"#utility.yul\":2201:2205   */\n      0x00\n        /* \"#utility.yul\":2239:2241   */\n      0x40\n        /* \"#utility.yul\":2228:2237   */\n      dup3\n        /* \"#utility.yul\":2224:2242   */\n      add\n        /* \"#utility.yul\":2216:2242   */\n      swap1\n      pop\n        /* \"#utility.yul\":2252:2387   */\n      tag_131\n        /* \"#utility.yul\":2384:2385   */\n      0x00\n        /* \"#utility.yul\":2373:2382   */\n      dup4\n        /* \"#utility.yul\":2369:2386   */\n      add\n        /* \"#utility.yul\":2360:2366   */\n      dup5\n        /* \"#utility.yul\":2252:2387   */\n      tag_89\n      jump\t// in\n    tag_131:\n        /* \"#utility.yul\":2044:2394   */\n      swap3\n      swap2\n      pop\n      pop\n      jump\t// out\n        /* \"#utility.yul\":2400:2526   */\n    tag_90:\n        /* \"#utility.yul\":2437:2444   */\n      0x00\n        /* \"#utility.yul\":2477:2519   */\n      0xffffffffffffffffffffffffffffffffffffffff\n        /* \"#utility.yul\":2470:2475   */\n      dup3\n        /* \"#utility.yul\":2466:2520   */\n      and\n        /* \"#utility.yul\":2455:2520   */\n      swap1\n      pop\n        /* \"#utility.yul\":2400:2526   */\n      swap2\n      swap1\n      pop\n      jump\t// out\n        /* \"#utility.yul\":2532:2628   */\n    tag_91:\n        /* \"#utility.yul\":2569:2576   */\n      0x00\n        /* \"#utility.yul\":2598:2622   */\n      tag_134\n        /* \"#utility.yul\":2616:2621   */\n      dup3\n        /* \"#utility.yul\":2598:2622   */\n      tag_90\n      jump\t// in\n    tag_134:\n        /* \"#utility.yul\":2587:2622   */\n      swap1\n      pop\n        /* \"#utility.yul\":2532:2628   */\n      swap2\n      swap1\n      pop\n      jump\t// out\n        /* \"#utility.yul\":2634:2752   */\n    tag_92:\n        /* \"#utility.yul\":2721:2745   */\n      tag_136\n        /* \"#utility.yul\":2739:2744   */\n      dup2\n        /* \"#utility.yul\":2721:2745   */\n      tag_91\n      jump\t// in\n    tag_136:\n        /* \"#utility.yul\":2716:2719   */\n      dup3\n        /* \"#utility.yul\":2709:2746   */\n      mstore\n        /* \"#utility.yul\":2634:2752   */\n      pop\n      pop\n      jump\t// out\n        /* \"#utility.yul\":2758:2980   */\n    tag_22:\n        /* \"#utility.yul\":2851:2855   */\n      0x00\n        /* \"#utility.yul\":2889:2891   */\n      0x20\n        /* \"#utility.yul\":2878:2887   */\n      dup3\n        /* \"#utility.yul\":2874:2892   */\n      add\n        /* \"#utility.yul\":2866:2892   */\n      swap1\n      pop\n        /* \"#utility.yul\":2902:2973   */\n      tag_138\n        /* \"#utility.yul\":2970:2971   */\n      0x00\n        /* \"#utility.yul\":2959:2968   */\n      dup4\n        /* \"#utility.yul\":2955:2972   */\n      add\n        /* \"#utility.yul\":2946:2952   */\n      dup5\n        /* \"#utility.yul\":2902:2973   */\n      tag_92\n      jump\t// in\n    tag_138:\n        /* \"#utility.yul\":2758:2980   */\n      swap3\n      swap2\n      pop\n      pop\n      jump\t// out\n        /* \"#utility.yul\":2986:3108   */\n    tag_93:\n        /* \"#utility.yul\":3059:3083   */\n      tag_140\n        /* \"#utility.yul\":3077:3082   */\n      dup2\n        /* \"#utility.yul\":3059:3083   */\n      tag_91\n      jump\t// in\n    tag_140:\n        /* \"#utility.yul\":3052:3057   */\n      dup2\n        /* \"#utility.yul\":3049:3084   */\n      eq\n        /* \"#utility.yul\":3039:3102   */\n      tag_141\n      jumpi\n        /* \"#utility.yul\":3098:3099   */\n      0x00\n        /* \"#utility.yul\":3095:3096   */\n      dup1\n        /* \"#utility.yul\":3088:3100   */\n      revert\n        /* \"#utility.yul\":3039:3102   */\n    tag_141:\n        /* \"#utility.yul\":2986:3108   */\n      pop\n      jump\t// out\n        /* \"#utility.yul\":3114:3253   */\n    tag_94:\n        /* \"#utility.yul\":3160:3165   */\n      0x00\n        /* \"#utility.yul\":3198:3204   */\n      dup2\n        /* \"#utility.yul\":3185:3205   */\n      calldataload\n        /* \"#utility.yul\":3176:3205   */\n      swap1\n      pop\n        /* \"#utility.yul\":3214:3247   */\n      tag_143\n        /* \"#utility.yul\":3241:3246   */\n      dup2\n        /* \"#utility.yul\":3214:3247   */\n      tag_93\n      jump\t// in\n    tag_143:\n        /* \"#utility.yul\":3114:3253   */\n      swap3\n      swap2\n      pop\n      pop\n      jump\t// out\n        /* \"#utility.yul\":3259:3588   */\n    tag_25:\n        /* \"#utility.yul\":3318:3324   */\n      0x00\n        /* \"#utility.yul\":3367:3369   */\n      0x20\n        /* \"#utility.yul\":3355:3364   */\n      dup3\n        /* \"#utility.yul\":3346:3353   */\n      dup5\n        /* \"#utility.yul\":3342:3365   */\n      sub\n        /* \"#utility.yul\":3338:3370   */\n      slt\n        /* \"#utility.yul\":3335:3454   */\n      iszero\n      tag_145\n      jumpi\n        /* \"#utility.yul\":3373:3452   */\n      tag_146\n      tag_83\n      jump\t// in\n    tag_146:\n        /* \"#utility.yul\":3335:3454   */\n    tag_145:\n        /* \"#utility.yul\":3493:3494   */\n      0x00\n        /* \"#utility.yul\":3518:3571   */\n      tag_147\n        /* \"#utility.yul\":3563:3570   */\n      dup5\n        /* \"#utility.yul\":3554:3560   */\n      dup3\n        /* \"#utility.yul\":3543:3552   */\n      dup6\n        /* \"#utility.yul\":3539:3561   */\n      add\n        /* \"#utility.yul\":3518:3571   */\n      tag_94\n      jump\t// in\n    tag_147:\n        /* \"#utility.yul\":3508:3571   */\n      swap2\n      pop\n        /* \"#utility.yul\":3464:3581   */\n      pop\n        /* \"#utility.yul\":3259:3588   */\n      swap3\n      swap2\n      pop\n      pop\n      jump\t// out\n        /* \"#utility.yul\":3594:3763   */\n    tag_95:\n        /* \"#utility.yul\":3678:3689   */\n      0x00\n        /* \"#utility.yul\":3712:3718   */\n      dup3\n        /* \"#utility.yul\":3707:3710   */\n      dup3\n        /* \"#utility.yul\":3700:3719   */\n      mstore\n        /* \"#utility.yul\":3752:3756   */\n      0x20\n        /* \"#utility.yul\":3747:3750   */\n      dup3\n        /* \"#utility.yul\":3743:3757   */\n      add\n        /* \"#utility.yul\":3728:3757   */\n      swap1\n      pop\n        /* \"#utility.yul\":3594:3763   */\n      swap3\n      swap2\n      pop\n      pop\n      jump\t// out\n        /* \"#utility.yul\":3769:3932   */\n    tag_96:\n        /* \"#utility.yul\":3909:3924   */\n      0x556e617574686f72697a65642e00000000000000000000000000000000000000\n        /* \"#utility.yul\":3905:3906   */\n      0x00\n        /* \"#utility.yul\":3897:3903   */\n      dup3\n        /* \"#utility.yul\":3893:3907   */\n      add\n        /* \"#utility.yul\":3886:3925   */\n      mstore\n        /* \"#utility.yul\":3769:3932   */\n      pop\n      jump\t// out\n        /* \"#utility.yul\":3938:4304   */\n    tag_97:\n        /* \"#utility.yul\":4080:4083   */\n      0x00\n        /* \"#utility.yul\":4101:4168   */\n      tag_151\n        /* \"#utility.yul\":4165:4167   */\n      0x0d\n        /* \"#utility.yul\":4160:4163   */\n      dup4\n        /* \"#utility.yul\":4101:4168   */\n      tag_95\n      jump\t// in\n    tag_151:\n        /* \"#utility.yul\":4094:4168   */\n      swap2\n      pop\n        /* \"#utility.yul\":4177:4270   */\n      tag_152\n        /* \"#utility.yul\":4266:4269   */\n      dup3\n        /* \"#utility.yul\":4177:4270   */\n      tag_96\n      jump\t// in\n    tag_152:\n        /* \"#utility.yul\":4295:4297   */\n      0x20\n        /* \"#utility.yul\":4290:4293   */\n      dup3\n        /* \"#utility.yul\":4286:4298   */\n      add\n        /* \"#utility.yul\":4279:4298   */\n      swap1\n      pop\n        /* \"#utility.yul\":3938:4304   */\n      swap2\n      swap1\n      pop\n      jump\t// out\n        /* \"#utility.yul\":4310:4729   */\n    tag_33:\n        /* \"#utility.yul\":4476:4480   */\n      0x00\n        /* \"#utility.yul\":4514:4516   */\n      0x20\n        /* \"#utility.yul\":4503:4512   */\n      dup3\n        /* \"#utility.yul\":4499:4517   */\n      add\n        /* \"#utility.yul\":4491:4517   */\n      swap1\n      pop\n        /* \"#utility.yul\":4563:4572   */\n      dup2\n        /* \"#utility.yul\":4557:4561   */\n      dup2\n        /* \"#utility.yul\":4553:4573   */\n      sub\n        /* \"#utility.yul\":4549:4550   */\n      0x00\n        /* \"#utility.yul\":4538:4547   */\n      dup4\n        /* \"#utility.yul\":4534:4551   */\n      add\n        /* \"#utility.yul\":4527:4574   */\n      mstore\n        /* \"#utility.yul\":4591:4722   */\n      tag_154\n        /* \"#utility.yul\":4717:4721   */\n      dup2\n        /* \"#utility.yul\":4591:4722   */\n      tag_97\n      jump\t// in\n    tag_154:\n        /* \"#utility.yul\":4583:4722   */\n      swap1\n      pop\n        /* \"#utility.yul\":4310:4729   */\n      swap2\n      swap1\n      pop\n      jump\t// out\n        /* \"#utility.yul\":4735:4962   */\n    tag_98:\n        /* \"#utility.yul\":4875:4909   */\n      0x5265717565737420697320696e76616c6964206f7220616c7265616479206675\n        /* \"#utility.yul\":4871:4872   */\n      0x00\n        /* \"#utility.yul\":4863:4869   */\n      dup3\n        /* \"#utility.yul\":4859:4873   */\n      add\n        /* \"#utility.yul\":4852:4910   */\n      mstore\n        /* \"#utility.yul\":4944:4954   */\n      0x6c66696c6c65642e000000000000000000000000000000000000000000000000\n        /* \"#utility.yul\":4939:4941   */\n      0x20\n        /* \"#utility.yul\":4931:4937   */\n      dup3\n        /* \"#utility.yul\":4927:4942   */\n      add\n        /* \"#utility.yul\":4920:4955   */\n      mstore\n        /* \"#utility.yul\":4735:4962   */\n      pop\n      jump\t// out\n        /* \"#utility.yul\":4968:5334   */\n    tag_99:\n        /* \"#utility.yul\":5110:5113   */\n      0x00\n        /* \"#utility.yul\":5131:5198   */\n      tag_157\n        /* \"#utility.yul\":5195:5197   */\n      0x28\n        /* \"#utility.yul\":5190:5193   */\n      dup4\n        /* \"#utility.yul\":5131:5198   */\n      tag_95\n      jump\t// in\n    tag_157:\n        /* \"#utility.yul\":5124:5198   */\n      swap2\n      pop\n        /* \"#utility.yul\":5207:5300   */\n      tag_158\n        /* \"#utility.yul\":5296:5299   */\n      dup3\n        /* \"#utility.yul\":5207:5300   */\n      tag_98\n      jump\t// in\n    tag_158:\n        /* \"#utility.yul\":5325:5327   */\n      0x40\n        /* \"#utility.yul\":5320:5323   */\n      dup3\n        /* \"#utility.yul\":5316:5328   */\n      add\n        /* \"#utility.yul\":5309:5328   */\n      swap1\n      pop\n        /* \"#utility.yul\":4968:5334   */\n      swap2\n      swap1\n      pop\n      jump\t// out\n        /* \"#utility.yul\":5340:5759   */\n    tag_37:\n        /* \"#utility.yul\":5506:5510   */\n      0x00\n        /* \"#utility.yul\":5544:5546   */\n      0x20\n        /* \"#utility.yul\":5533:5542   */\n      dup3\n        /* \"#utility.yul\":5529:5547   */\n      add\n        /* \"#utility.yul\":5521:5547   */\n      swap1\n      pop\n        /* \"#utility.yul\":5593:5602   */\n      dup2\n        /* \"#utility.yul\":5587:5591   */\n      dup2\n        /* \"#utility.yul\":5583:5603   */\n      sub\n        /* \"#utility.yul\":5579:5580   */\n      0x00\n        /* \"#utility.yul\":5568:5577   */\n      dup4\n        /* \"#utility.yul\":5564:5581   */\n      add\n        /* \"#utility.yul\":5557:5604   */\n      mstore\n        /* \"#utility.yul\":5621:5752   */\n      tag_160\n        /* \"#utility.yul\":5747:5751   */\n      dup2\n        /* \"#utility.yul\":5621:5752   */\n      tag_99\n      jump\t// in\n    tag_160:\n        /* \"#utility.yul\":5613:5752   */\n      swap1\n      pop\n        /* \"#utility.yul\":5340:5759   */\n      swap2\n      swap1\n      pop\n      jump\t// out\n        /* \"#utility.yul\":5765:5883   */\n    tag_100:\n        /* \"#utility.yul\":5852:5876   */\n      tag_162\n        /* \"#utility.yul\":5870:5875   */\n      dup2\n        /* \"#utility.yul\":5852:5876   */\n      tag_85\n      jump\t// in\n    tag_162:\n        /* \"#utility.yul\":5847:5850   */\n      dup3\n        /* \"#utility.yul\":5840:5877   */\n      mstore\n        /* \"#utility.yul\":5765:5883   */\n      pop\n      pop\n      jump\t// out\n        /* \"#utility.yul\":5889:6331   */\n    tag_39:\n        /* \"#utility.yul\":6038:6042   */\n      0x00\n        /* \"#utility.yul\":6076:6078   */\n      0x60\n        /* \"#utility.yul\":6065:6074   */\n      dup3\n        /* \"#utility.yul\":6061:6079   */\n      add\n        /* \"#utility.yul\":6053:6079   */\n      swap1\n      pop\n        /* \"#utility.yul\":6089:6160   */\n      tag_164\n        /* \"#utility.yul\":6157:6158   */\n      0x00\n        /* \"#utility.yul\":6146:6155   */\n      dup4\n        /* \"#utility.yul\":6142:6159   */\n      add\n        /* \"#utility.yul\":6133:6139   */\n      dup7\n        /* \"#utility.yul\":6089:6160   */\n      tag_100\n      jump\t// in\n    tag_164:\n        /* \"#utility.yul\":6170:6242   */\n      tag_165\n        /* \"#utility.yul\":6238:6240   */\n      0x20\n        /* \"#utility.yul\":6227:6236   */\n      dup4\n        /* \"#utility.yul\":6223:6241   */\n      add\n        /* \"#utility.yul\":6214:6220   */\n      dup6\n        /* \"#utility.yul\":6170:6242   */\n      tag_100\n      jump\t// in\n    tag_165:\n        /* \"#utility.yul\":6252:6324   */\n      tag_166\n        /* \"#utility.yul\":6320:6322   */\n      0x40\n        /* \"#utility.yul\":6309:6318   */\n      dup4\n        /* \"#utility.yul\":6305:6323   */\n      add\n        /* \"#utility.yul\":6296:6302   */\n      dup5\n        /* \"#utility.yul\":6252:6324   */\n      tag_100\n      jump\t// in\n    tag_166:\n        /* \"#utility.yul\":5889:6331   */\n      swap5\n      swap4\n      pop\n      pop\n      pop\n      pop\n      jump\t// out\n        /* \"#utility.yul\":6337:6510   */\n    tag_101:\n        /* \"#utility.yul\":6477:6502   */\n      0x4f7261636c65206e6f7420696e697469616c697a65642e000000000000000000\n        /* \"#utility.yul\":6473:6474   */\n      0x00\n        /* \"#utility.yul\":6465:6471   */\n      dup3\n        /* \"#utility.yul\":6461:6475   */\n      add\n        /* \"#utility.yul\":6454:6503   */\n      mstore\n        /* \"#utility.yul\":6337:6510   */\n      pop\n      jump\t// out\n        /* \"#utility.yul\":6516:6882   */\n    tag_102:\n        /* \"#utility.yul\":6658:6661   */\n      0x00\n        /* \"#utility.yul\":6679:6746   */\n      tag_169\n        /* \"#utility.yul\":6743:6745   */\n      0x17\n        /* \"#utility.yul\":6738:6741   */\n      dup4\n        /* \"#utility.yul\":6679:6746   */\n      tag_95\n      jump\t// in\n    tag_169:\n        /* \"#utility.yul\":6672:6746   */\n      swap2\n      pop\n        /* \"#utility.yul\":6755:6848   */\n      tag_170\n        /* \"#utility.yul\":6844:6847   */\n      dup3\n        /* \"#utility.yul\":6755:6848   */\n      tag_101\n      jump\t// in\n    tag_170:\n        /* \"#utility.yul\":6873:6875   */\n      0x20\n        /* \"#utility.yul\":6868:6871   */\n      dup3\n        /* \"#utility.yul\":6864:6876   */\n      add\n        /* \"#utility.yul\":6857:6876   */\n      swap1\n      pop\n        /* \"#utility.yul\":6516:6882   */\n      swap2\n      swap1\n      pop\n      jump\t// out\n        /* \"#utility.yul\":6888:7307   */\n    tag_45:\n        /* \"#utility.yul\":7054:7058   */\n      0x00\n        /* \"#utility.yul\":7092:7094   */\n      0x20\n        /* \"#utility.yul\":7081:7090   */\n      dup3\n        /* \"#utility.yul\":7077:7095   */\n      add\n        /* \"#utility.yul\":7069:7095   */\n      swap1\n      pop\n        /* \"#utility.yul\":7141:7150   */\n      dup2\n        /* \"#utility.yul\":7135:7139   */\n      dup2\n        /* \"#utility.yul\":7131:7151   */\n      sub\n        /* \"#utility.yul\":7127:7128   */\n      0x00\n        /* \"#utility.yul\":7116:7125   */\n      dup4\n        /* \"#utility.yul\":7112:7129   */\n      add\n        /* \"#utility.yul\":7105:7152   */\n      mstore\n        /* \"#utility.yul\":7169:7300   */\n      tag_172\n        /* \"#utility.yul\":7295:7299   */\n      dup2\n        /* \"#utility.yul\":7169:7300   */\n      tag_102\n      jump\t// in\n    tag_172:\n        /* \"#utility.yul\":7161:7300   */\n      swap1\n      pop\n        /* \"#utility.yul\":6888:7307   */\n      swap2\n      swap1\n      pop\n      jump\t// out\n        /* \"#utility.yul\":7313:7493   */\n    tag_103:\n        /* \"#utility.yul\":7361:7438   */\n      0x4e487b7100000000000000000000000000000000000000000000000000000000\n        /* \"#utility.yul\":7358:7359   */\n      0x00\n        /* \"#utility.yul\":7351:7439   */\n      mstore\n        /* \"#utility.yul\":7458:7462   */\n      0x11\n        /* \"#utility.yul\":7455:7456   */\n      0x04\n        /* \"#utility.yul\":7448:7463   */\n      mstore\n        /* \"#utility.yul\":7482:7486   */\n      0x24\n        /* \"#utility.yul\":7479:7480   */\n      0x00\n        /* \"#utility.yul\":7472:7487   */\n      revert\n        /* \"#utility.yul\":7499:7690   */\n    tag_47:\n        /* \"#utility.yul\":7539:7542   */\n      0x00\n        /* \"#utility.yul\":7558:7578   */\n      tag_175\n        /* \"#utility.yul\":7576:7577   */\n      dup3\n        /* \"#utility.yul\":7558:7578   */\n      tag_85\n      jump\t// in\n    tag_175:\n        /* \"#utility.yul\":7553:7578   */\n      swap2\n      pop\n        /* \"#utility.yul\":7592:7612   */\n      tag_176\n        /* \"#utility.yul\":7610:7611   */\n      dup4\n        /* \"#utility.yul\":7592:7612   */\n      tag_85\n      jump\t// in\n    tag_176:\n        /* \"#utility.yul\":7587:7612   */\n      swap3\n      pop\n        /* \"#utility.yul\":7635:7636   */\n      dup3\n        /* \"#utility.yul\":7632:7633   */\n      dup3\n        /* \"#utility.yul\":7628:7637   */\n      add\n        /* \"#utility.yul\":7621:7637   */\n      swap1\n      pop\n        /* \"#utility.yul\":7656:7659   */\n      dup1\n        /* \"#utility.yul\":7653:7654   */\n      dup3\n        /* \"#utility.yul\":7650:7660   */\n      gt\n        /* \"#utility.yul\":7647:7683   */\n      iszero\n      tag_177\n      jumpi\n        /* \"#utility.yul\":7663:7681   */\n      tag_178\n      tag_103\n      jump\t// in\n    tag_178:\n        /* \"#utility.yul\":7647:7683   */\n    tag_177:\n        /* \"#utility.yul\":7499:7690   */\n      swap3\n      swap2\n      pop\n      pop\n      jump\t// out\n        /* \"#utility.yul\":7696:7839   */\n    tag_104:\n        /* \"#utility.yul\":7753:7758   */\n      0x00\n        /* \"#utility.yul\":7784:7790   */\n      dup2\n        /* \"#utility.yul\":7778:7791   */\n      mload\n        /* \"#utility.yul\":7769:7791   */\n      swap1\n      pop\n        /* \"#utility.yul\":7800:7833   */\n      tag_180\n        /* \"#utility.yul\":7827:7832   */\n      dup2\n        /* \"#utility.yul\":7800:7833   */\n      tag_86\n      jump\t// in\n    tag_180:\n        /* \"#utility.yul\":7696:7839   */\n      swap3\n      swap2\n      pop\n      pop\n      jump\t// out\n        /* \"#utility.yul\":7845:8196   */\n    tag_52:\n        /* \"#utility.yul\":7915:7921   */\n      0x00\n        /* \"#utility.yul\":7964:7966   */\n      0x20\n        /* \"#utility.yul\":7952:7961   */\n      dup3\n        /* \"#utility.yul\":7943:7950   */\n      dup5\n        /* \"#utility.yul\":7939:7962   */\n      sub\n        /* \"#utility.yul\":7935:7967   */\n      slt\n        /* \"#utility.yul\":7932:8051   */\n      iszero\n      tag_182\n      jumpi\n        /* \"#utility.yul\":7970:8049   */\n      tag_183\n      tag_83\n      jump\t// in\n    tag_183:\n        /* \"#utility.yul\":7932:8051   */\n    tag_182:\n        /* \"#utility.yul\":8090:8091   */\n      0x00\n        /* \"#utility.yul\":8115:8179   */\n      tag_184\n        /* \"#utility.yul\":8171:8178   */\n      dup5\n        /* \"#utility.yul\":8162:8168   */\n      dup3\n        /* \"#utility.yul\":8151:8160   */\n      dup6\n        /* \"#utility.yul\":8147:8169   */\n      add\n        /* \"#utility.yul\":8115:8179   */\n      tag_104\n      jump\t// in\n    tag_184:\n        /* \"#utility.yul\":8105:8179   */\n      swap2\n      pop\n        /* \"#utility.yul\":8061:8189   */\n      pop\n        /* \"#utility.yul\":7845:8196   */\n      swap3\n      swap2\n      pop\n      pop\n      jump\t// out\n        /* \"#utility.yul\":8202:8424   */\n    tag_54:\n        /* \"#utility.yul\":8295:8299   */\n      0x00\n        /* \"#utility.yul\":8333:8335   */\n      0x20\n        /* \"#utility.yul\":8322:8331   */\n      dup3\n        /* \"#utility.yul\":8318:8336   */\n      add\n        /* \"#utility.yul\":8310:8336   */\n      swap1\n      pop\n        /* \"#utility.yul\":8346:8417   */\n      tag_186\n        /* \"#utility.yul\":8414:8415   */\n      0x00\n        /* \"#utility.yul\":8403:8412   */\n      dup4\n        /* \"#utility.yul\":8399:8416   */\n      add\n        /* \"#utility.yul\":8390:8396   */\n      dup5\n        /* \"#utility.yul\":8346:8417   */\n      tag_100\n      jump\t// in\n    tag_186:\n        /* \"#utility.yul\":8202:8424   */\n      swap3\n      swap2\n      pop\n      pop\n      jump\t// out\n        /* \"#utility.yul\":8430:8655   */\n    tag_105:\n        /* \"#utility.yul\":8570:8604   */\n      0x4f776e61626c653a206e6577206f776e657220697320746865207a65726f2061\n        /* \"#utility.yul\":8566:8567   */\n      0x00\n        /* \"#utility.yul\":8558:8564   */\n      dup3\n        /* \"#utility.yul\":8554:8568   */\n      add\n        /* \"#utility.yul\":8547:8605   */\n      mstore\n        /* \"#utility.yul\":8639:8647   */\n      0x6464726573730000000000000000000000000000000000000000000000000000\n        /* \"#utility.yul\":8634:8636   */\n      0x20\n        /* \"#utility.yul\":8626:8632   */\n      dup3\n        /* \"#utility.yul\":8622:8637   */\n      add\n        /* \"#utility.yul\":8615:8648   */\n      mstore\n        /* \"#utility.yul\":8430:8655   */\n      pop\n      jump\t// out\n        /* \"#utility.yul\":8661:9027   */\n    tag_106:\n        /* \"#utility.yul\":8803:8806   */\n      0x00\n        /* \"#utility.yul\":8824:8891   */\n      tag_189\n        /* \"#utility.yul\":8888:8890   */\n      0x26\n        /* \"#utility.yul\":8883:8886   */\n      dup4\n        /* \"#utility.yul\":8824:8891   */\n      tag_95\n      jump\t// in\n    tag_189:\n        /* \"#utility.yul\":8817:8891   */\n      swap2\n      pop\n        /* \"#utility.yul\":8900:8993   */\n      tag_190\n        /* \"#utility.yul\":8989:8992   */\n      dup3\n        /* \"#utility.yul\":8900:8993   */\n      tag_105\n      jump\t// in\n    tag_190:\n        /* \"#utility.yul\":9018:9020   */\n      0x40\n        /* \"#utility.yul\":9013:9016   */\n      dup3\n        /* \"#utility.yul\":9009:9021   */\n      add\n        /* \"#utility.yul\":9002:9021   */\n      swap1\n      pop\n        /* \"#utility.yul\":8661:9027   */\n      swap2\n      swap1\n      pop\n      jump\t// out\n        /* \"#utility.yul\":9033:9452   */\n    tag_71:\n        /* \"#utility.yul\":9199:9203   */\n      0x00\n        /* \"#utility.yul\":9237:9239   */\n      0x20\n        /* \"#utility.yul\":9226:9235   */\n      dup3\n        /* \"#utility.yul\":9222:9240   */\n      add\n        /* \"#utility.yul\":9214:9240   */\n      swap1\n      pop\n        /* \"#utility.yul\":9286:9295   */\n      dup2\n        /* \"#utility.yul\":9280:9284   */\n      dup2\n        /* \"#utility.yul\":9276:9296   */\n      sub\n        /* \"#utility.yul\":9272:9273   */\n      0x00\n        /* \"#utility.yul\":9261:9270   */\n      dup4\n        /* \"#utility.yul\":9257:9274   */\n      add\n        /* \"#utility.yul\":9250:9297   */\n      mstore\n        /* \"#utility.yul\":9314:9445   */\n      tag_192\n        /* \"#utility.yul\":9440:9444   */\n      dup2\n        /* \"#utility.yul\":9314:9445   */\n      tag_106\n      jump\t// in\n    tag_192:\n        /* \"#utility.yul\":9306:9445   */\n      swap1\n      pop\n        /* \"#utility.yul\":9033:9452   */\n      swap2\n      swap1\n      pop\n      jump\t// out\n        /* \"#utility.yul\":9458:9640   */\n    tag_107:\n        /* \"#utility.yul\":9598:9632   */\n      0x4f776e61626c653a2063616c6c6572206973206e6f7420746865206f776e6572\n        /* \"#utility.yul\":9594:9595   */\n      0x00\n        /* \"#utility.yul\":9586:9592   */\n      dup3\n        /* \"#utility.yul\":9582:9596   */\n      add\n        /* \"#utility.yul\":9575:9633   */\n      mstore\n        /* \"#utility.yul\":9458:9640   */\n      pop\n      jump\t// out\n        /* \"#utility.yul\":9646:10012   */\n    tag_108:\n        /* \"#utility.yul\":9788:9791   */\n      0x00\n        /* \"#utility.yul\":9809:9876   */\n      tag_195\n        /* \"#utility.yul\":9873:9875   */\n      0x20\n        /* \"#utility.yul\":9868:9871   */\n      dup4\n        /* \"#utility.yul\":9809:9876   */\n      tag_95\n      jump\t// in\n    tag_195:\n        /* \"#utility.yul\":9802:9876   */\n      swap2\n      pop\n        /* \"#utility.yul\":9885:9978   */\n      tag_196\n        /* \"#utility.yul\":9974:9977   */\n      dup3\n        /* \"#utility.yul\":9885:9978   */\n      tag_107\n      jump\t// in\n    tag_196:\n        /* \"#utility.yul\":10003:10005   */\n      0x20\n        /* \"#utility.yul\":9998:10001   */\n      dup3\n        /* \"#utility.yul\":9994:10006   */\n      add\n        /* \"#utility.yul\":9987:10006   */\n      swap1\n      pop\n        /* \"#utility.yul\":9646:10012   */\n      swap2\n      swap1\n      pop\n      jump\t// out\n        /* \"#utility.yul\":10018:10437   */\n    tag_79:\n        /* \"#utility.yul\":10184:10188   */\n      0x00\n        /* \"#utility.yul\":10222:10224   */\n      0x20\n        /* \"#utility.yul\":10211:10220   */\n      dup3\n        /* \"#utility.yul\":10207:10225   */\n      add\n        /* \"#utility.yul\":10199:10225   */\n      swap1\n      pop\n        /* \"#utility.yul\":10271:10280   */\n      dup2\n        /* \"#utility.yul\":10265:10269   */\n      dup2\n        /* \"#utility.yul\":10261:10281   */\n      sub\n        /* \"#utility.yul\":10257:10258   */\n      0x00\n        /* \"#utility.yul\":10246:10255   */\n      dup4\n        /* \"#utility.yul\":10242:10259   */\n      add\n        /* \"#utility.yul\":10235:10282   */\n      mstore\n        /* \"#utility.yul\":10299:10430   */\n      tag_198\n        /* \"#utility.yul\":10425:10429   */\n      dup2\n        /* \"#utility.yul\":10299:10430   */\n      tag_108\n      jump\t// in\n    tag_198:\n        /* \"#utility.yul\":10291:10430   */\n      swap1\n      pop\n        /* \"#utility.yul\":10018:10437   */\n      swap2\n      swap1\n      pop\n      jump\t// out\n\n    auxdata: 0xa264697066735822122009b914c8318db9ddae9e714fe7e147227fd14f75bcdfd0ba547bd980d9d364f364736f6c63430008120033\n}\n",
				"bytecode": {
					"linkReferences": {},
					"object": "608060405234801561001057600080fd5b5061002d61002261003260201b60201c565b61003a60201b60201c565b6100fe565b600033905090565b60008060009054906101000a900473ffffffffffffffffffffffffffffffffffffffff169050816000806101000a81548173ffffffffffffffffffffffffffffffffffffffff021916908373ffffffffffffffffffffffffffffffffffffffff1602179055508173ffffffffffffffffffffffffffffffffffffffff168173ffffffffffffffffffffffffffffffffffffffff167f8be0079c531659141344cd1fd0a4f28419497f9722a3daafe3b4186f6b6457e060405160405180910390a35050565b610c768061010d6000396000f3fe608060405234801561001057600080fd5b50600436106100625760003560e01c806306c04593146100675780632c8a752614610083578063715018a6146100a15780638da5cb5b146100ab578063deb93ef0146100c9578063f2fde38b146100e5575b600080fd5b610081600480360381019061007c9190610760565b610101565b005b61008b610293565b60405161009891906107f1565b60405180910390f35b6100a961047e565b005b6100b3610492565b6040516100c0919061084d565b60405180910390f35b6100e360048036038101906100de9190610894565b6104bb565b005b6100ff60048036038101906100fa9190610894565b61053e565b005b600160009054906101000a900473ffffffffffffffffffffffffffffffffffffffff1673ffffffffffffffffffffffffffffffffffffffff163373ffffffffffffffffffffffffffffffffffffffff1614610191576040517f08c379a00000000000000000000000000000000000000000000000000000000081526004016101889061091e565b60405180910390fd5b6002600082815260200190815260200160002060009054906101000a900460ff166101f1576040517f08c379a00000000000000000000000000000000000000000000000000000000081526004016101e8906109b0565b60405180910390fd5b6040518060400160405280848152602001838152506003600083815260200190815260200160002060008201518160000155602082015181600101559050506002600082815260200190815260200160002060006101000a81549060ff02191690557fac692744937aaf6b0bdbd8e64a6994b068c12dcf93bf43bf34e349496317f729838383604051610286939291906109df565b60405180910390a1505050565b61029b61070b565b600073ffffffffffffffffffffffffffffffffffffffff16600160009054906101000a900473ffffffffffffffffffffffffffffffffffffffff1673ffffffffffffffffffffffffffffffffffffffff160361032c576040517f08c379a000000000000000000000000000000000000000000000000000000000815260040161032390610a62565b60405180910390fd5b61025860045461033c9190610ab1565b4211610445576000600160009054906101000a900473ffffffffffffffffffffffffffffffffffffffff1673ffffffffffffffffffffffffffffffffffffffff1663fe66d9df6040518163ffffffff1660e01b81526004016020604051808303816000875af11580156103b3573d6000803e3d6000fd5b505050506040513d601f19601f820116820180604052508101906103d79190610afa565b905060016002600083815260200190815260200160002060006101000a81548160ff0219169083151502179055507fe99dd399072a7d799ffff8860fe4ea02424a7301da2e2f2c3efc7ffcfafe4819816040516104349190610b27565b60405180910390a180600581905550505b60036000600554815260200190815260200160002060405180604001604052908160008201548152602001600182015481525050905090565b6104866105c1565b610490600061063f565b565b60008060009054906101000a900473ffffffffffffffffffffffffffffffffffffffff16905090565b6104c36105c1565b80600160006101000a81548173ffffffffffffffffffffffffffffffffffffffff021916908373ffffffffffffffffffffffffffffffffffffffff1602179055507fe420b96152542f57ce3d2d26d939a3c2860a82361801ad0a970a3badc32d538e81604051610533919061084d565b60405180910390a150565b6105466105c1565b600073ffffffffffffffffffffffffffffffffffffffff168173ffffffffffffffffffffffffffffffffffffffff16036105b5576040517f08c379a00000000000000000000000000000000000000000000000000000000081526004016105ac90610bb4565b60405180910390fd5b6105be8161063f565b50565b6105c9610703565b73ffffffffffffffffffffffffffffffffffffffff166105e7610492565b73ffffffffffffffffffffffffffffffffffffffff161461063d576040517f08c379a000000000000000000000000000000000000000000000000000000000815260040161063490610c20565b60405180910390fd5b565b60008060009054906101000a900473ffffffffffffffffffffffffffffffffffffffff169050816000806101000a81548173ffffffffffffffffffffffffffffffffffffffff021916908373ffffffffffffffffffffffffffffffffffffffff1602179055508173ffffffffffffffffffffffffffffffffffffffff168173ffffffffffffffffffffffffffffffffffffffff167f8be0079c531659141344cd1fd0a4f28419497f9722a3daafe3b4186f6b6457e060405160405180910390a35050565b600033905090565b604051806040016040528060008152602001600081525090565b600080fd5b6000819050919050565b61073d8161072a565b811461074857600080fd5b50565b60008135905061075a81610734565b92915050565b60008060006060848603121561077957610778610725565b5b60006107878682870161074b565b93505060206107988682870161074b565b92505060406107a98682870161074b565b9150509250925092565b6107bc8161072a565b82525050565b6040820160008201516107d860008501826107b3565b5060208201516107eb60208501826107b3565b50505050565b600060408201905061080660008301846107c2565b92915050565b600073ffffffffffffffffffffffffffffffffffffffff82169050919050565b60006108378261080c565b9050919050565b6108478161082c565b82525050565b6000602082019050610862600083018461083e565b92915050565b6108718161082c565b811461087c57600080fd5b50565b60008135905061088e81610868565b92915050565b6000602082840312156108aa576108a9610725565b5b60006108b88482850161087f565b91505092915050565b600082825260208201905092915050565b7f556e617574686f72697a65642e00000000000000000000000000000000000000600082015250565b6000610908600d836108c1565b9150610913826108d2565b602082019050919050565b60006020820190508181036000830152610937816108fb565b9050919050565b7f5265717565737420697320696e76616c6964206f7220616c726561647920667560008201527f6c66696c6c65642e000000000000000000000000000000000000000000000000602082015250565b600061099a6028836108c1565b91506109a58261093e565b604082019050919050565b600060208201905081810360008301526109c98161098d565b9050919050565b6109d98161072a565b82525050565b60006060820190506109f460008301866109d0565b610a0160208301856109d0565b610a0e60408301846109d0565b949350505050565b7f4f7261636c65206e6f7420696e697469616c697a65642e000000000000000000600082015250565b6000610a4c6017836108c1565b9150610a5782610a16565b602082019050919050565b60006020820190508181036000830152610a7b81610a3f565b9050919050565b7f4e487b7100000000000000000000000000000000000000000000000000000000600052601160045260246000fd5b6000610abc8261072a565b9150610ac78361072a565b9250828201905080821115610adf57610ade610a82565b5b92915050565b600081519050610af481610734565b92915050565b600060208284031215610b1057610b0f610725565b5b6000610b1e84828501610ae5565b91505092915050565b6000602082019050610b3c60008301846109d0565b92915050565b7f4f776e61626c653a206e6577206f776e657220697320746865207a65726f206160008201527f6464726573730000000000000000000000000000000000000000000000000000602082015250565b6000610b9e6026836108c1565b9150610ba982610b42565b604082019050919050565b60006020820190508181036000830152610bcd81610b91565b9050919050565b7f4f776e61626c653a2063616c6c6572206973206e6f7420746865206f776e6572600082015250565b6000610c0a6020836108c1565b9150610c1582610bd4565b602082019050919050565b60006020820190508181036000830152610c3981610bfd565b905091905056fea264697066735822122009b914c8318db9ddae9e714fe7e147227fd14f75bcdfd0ba547bd980d9d364f364736f6c63430008120033",
					"opcodes": "PUSH1 0x80 PUSH1 0x40 MSTORE CALLVALUE DUP1 ISZERO PUSH2 0x10 JUMPI PUSH1 0x0 DUP1 REVERT JUMPDEST POP PUSH2 0x2D PUSH2 0x22 PUSH2 0x32 PUSH1 0x20 SHL PUSH1 0x20 SHR JUMP JUMPDEST PUSH2 0x3A PUSH1 0x20 SHL PUSH1 0x20 SHR JUMP JUMPDEST PUSH2 0xFE JUMP JUMPDEST PUSH1 0x0 CALLER SWAP1 POP SWAP1 JUMP JUMPDEST PUSH1 0x0 DUP1 PUSH1 0x0 SWAP1 SLOAD SWAP1 PUSH2 0x100 EXP SWAP1 DIV PUSH20 0xFFFFFFFFFFFFFFFFFFFFFFFFFFFFFFFFFFFFFFFF AND SWAP1 POP DUP2 PUSH1 0x0 DUP1 PUSH2 0x100 EXP DUP2 SLOAD DUP2 PUSH20 0xFFFFFFFFFFFFFFFFFFFFFFFFFFFFFFFFFFFFFFFF MUL NOT AND SWAP1 DUP4 PUSH20 0xFFFFFFFFFFFFFFFFFFFFFFFFFFFFFFFFFFFFFFFF AND MUL OR SWAP1 SSTORE POP DUP2 PUSH20 0xFFFFFFFFFFFFFFFFFFFFFFFFFFFFFFFFFFFFFFFF AND DUP2 PUSH20 0xFFFFFFFFFFFFFFFFFFFFFFFFFFFFFFFFFFFFFFFF AND PUSH32 0x8BE0079C531659141344CD1FD0A4F28419497F9722A3DAAFE3B4186F6B6457E0 PUSH1 0x40 MLOAD PUSH1 0x40 MLOAD DUP1 SWAP2 SUB SWAP1 LOG3 POP POP JUMP JUMPDEST PUSH2 0xC76 DUP1 PUSH2 0x10D PUSH1 0x0 CODECOPY PUSH1 0x0 RETURN INVALID PUSH1 0x80 PUSH1 0x40 MSTORE CALLVALUE DUP1 ISZERO PUSH2 0x10 JUMPI PUSH1 0x0 DUP1 REVERT JUMPDEST POP PUSH1 0x4 CALLDATASIZE LT PUSH2 0x62 JUMPI PUSH1 0x0 CALLDATALOAD PUSH1 0xE0 SHR DUP1 PUSH4 0x6C04593 EQ PUSH2 0x67 JUMPI DUP1 PUSH4 0x2C8A7526 EQ PUSH2 0x83 JUMPI DUP1 PUSH4 0x715018A6 EQ PUSH2 0xA1 JUMPI DUP1 PUSH4 0x8DA5CB5B EQ PUSH2 0xAB JUMPI DUP1 PUSH4 0xDEB93EF0 EQ PUSH2 0xC9 JUMPI DUP1 PUSH4 0xF2FDE38B EQ PUSH2 0xE5 JUMPI JUMPDEST PUSH1 0x0 DUP1 REVERT JUMPDEST PUSH2 0x81 PUSH1 0x4 DUP1 CALLDATASIZE SUB DUP2 ADD SWAP1 PUSH2 0x7C SWAP2 SWAP1 PUSH2 0x760 JUMP JUMPDEST PUSH2 0x101 JUMP JUMPDEST STOP JUMPDEST PUSH2 0x8B PUSH2 0x293 JUMP JUMPDEST PUSH1 0x40 MLOAD PUSH2 0x98 SWAP2 SWAP1 PUSH2 0x7F1 JUMP JUMPDEST PUSH1 0x40 MLOAD DUP1 SWAP2 SUB SWAP1 RETURN JUMPDEST PUSH2 0xA9 PUSH2 0x47E JUMP JUMPDEST STOP JUMPDEST PUSH2 0xB3 PUSH2 0x492 JUMP JUMPDEST PUSH1 0x40 MLOAD PUSH2 0xC0 SWAP2 SWAP1 PUSH2 0x84D JUMP JUMPDEST PUSH1 0x40 MLOAD DUP1 SWAP2 SUB SWAP1 RETURN JUMPDEST PUSH2 0xE3 PUSH1 0x4 DUP1 CALLDATASIZE SUB DUP2 ADD SWAP1 PUSH2 0xDE SWAP2 SWAP1 PUSH2 0x894 JUMP JUMPDEST PUSH2 0x4BB JUMP JUMPDEST STOP JUMPDEST PUSH2 0xFF PUSH1 0x4 DUP1 CALLDATASIZE SUB DUP2 ADD SWAP1 PUSH2 0xFA SWAP2 SWAP1 PUSH2 0x894 JUMP JUMPDEST PUSH2 0x53E JUMP JUMPDEST STOP JUMPDEST PUSH1 0x1 PUSH1 0x0 SWAP1 SLOAD SWAP1 PUSH2 0x100 EXP SWAP1 DIV PUSH20 0xFFFFFFFFFFFFFFFFFFFFFFFFFFFFFFFFFFFFFFFF AND PUSH20 0xFFFFFFFFFFFFFFFFFFFFFFFFFFFFFFFFFFFFFFFF AND CALLER PUSH20 0xFFFFFFFFFFFFFFFFFFFFFFFFFFFFFFFFFFFFFFFF AND EQ PUSH2 0x191 JUMPI PUSH1 0x40 MLOAD PUSH32 0x8C379A000000000000000000000000000000000000000000000000000000000 DUP2 MSTORE PUSH1 0x4 ADD PUSH2 0x188 SWAP1 PUSH2 0x91E JUMP JUMPDEST PUSH1 0x40 MLOAD DUP1 SWAP2 SUB SWAP1 REVERT JUMPDEST PUSH1 0x2 PUSH1 0x0 DUP3 DUP2 MSTORE PUSH1 0x20 ADD SWAP1 DUP2 MSTORE PUSH1 0x20 ADD PUSH1 0x0 KECCAK256 PUSH1 0x0 SWAP1 SLOAD SWAP1 PUSH2 0x100 EXP SWAP1 DIV PUSH1 0xFF AND PUSH2 0x1F1 JUMPI PUSH1 0x40 MLOAD PUSH32 0x8C379A000000000000000000000000000000000000000000000000000000000 DUP2 MSTORE PUSH1 0x4 ADD PUSH2 0x1E8 SWAP1 PUSH2 0x9B0 JUMP JUMPDEST PUSH1 0x40 MLOAD DUP1 SWAP2 SUB SWAP1 REVERT JUMPDEST PUSH1 0x40 MLOAD DUP1 PUSH1 0x40 ADD PUSH1 0x40 MSTORE DUP1 DUP5 DUP2 MSTORE PUSH1 0x20 ADD DUP4 DUP2 MSTORE POP PUSH1 0x3 PUSH1 0x0 DUP4 DUP2 MSTORE PUSH1 0x20 ADD SWAP1 DUP2 MSTORE PUSH1 0x20 ADD PUSH1 0x0 KECCAK256 PUSH1 0x0 DUP3 ADD MLOAD DUP2 PUSH1 0x0 ADD SSTORE PUSH1 0x20 DUP3 ADD MLOAD DUP2 PUSH1 0x1 ADD SSTORE SWAP1 POP POP PUSH1 0x2 PUSH1 0x0 DUP3 DUP2 MSTORE PUSH1 0x20 ADD SWAP1 DUP2 MSTORE PUSH1 0x20 ADD PUSH1 0x0 KECCAK256 PUSH1 0x0 PUSH2 0x100 EXP DUP2 SLOAD SWAP1 PUSH1 0xFF MUL NOT AND SWAP1 SSTORE PUSH32 0xAC692744937AAF6B0BDBD8E64A6994B068C12DCF93BF43BF34E349496317F729 DUP4 DUP4 DUP4 PUSH1 0x40 MLOAD PUSH2 0x286 SWAP4 SWAP3 SWAP2 SWAP1 PUSH2 0x9DF JUMP JUMPDEST PUSH1 0x40 MLOAD DUP1 SWAP2 SUB SWAP1 LOG1 POP POP POP JUMP JUMPDEST PUSH2 0x29B PUSH2 0x70B JUMP JUMPDEST PUSH1 0x0 PUSH20 0xFFFFFFFFFFFFFFFFFFFFFFFFFFFFFFFFFFFFFFFF AND PUSH1 0x1 PUSH1 0x0 SWAP1 SLOAD SWAP1 PUSH2 0x100 EXP SWAP1 DIV PUSH20 0xFFFFFFFFFFFFFFFFFFFFFFFFFFFFFFFFFFFFFFFF AND PUSH20 0xFFFFFFFFFFFFFFFFFFFFFFFFFFFFFFFFFFFFFFFF AND SUB PUSH2 0x32C JUMPI PUSH1 0x40 MLOAD PUSH32 0x8C379A000000000000000000000000000000000000000000000000000000000 DUP2 MSTORE PUSH1 0x4 ADD PUSH2 0x323 SWAP1 PUSH2 0xA62 JUMP JUMPDEST PUSH1 0x40 MLOAD DUP1 SWAP2 SUB SWAP1 REVERT JUMPDEST PUSH2 0x258 PUSH1 0x4 SLOAD PUSH2 0x33C SWAP2 SWAP1 PUSH2 0xAB1 JUMP JUMPDEST TIMESTAMP GT PUSH2 0x445 JUMPI PUSH1 0x0 PUSH1 0x1 PUSH1 0x0 SWAP1 SLOAD SWAP1 PUSH2 0x100 EXP SWAP1 DIV PUSH20 0xFFFFFFFFFFFFFFFFFFFFFFFFFFFFFFFFFFFFFFFF AND PUSH20 0xFFFFFFFFFFFFFFFFFFFFFFFFFFFFFFFFFFFFFFFF AND PUSH4 0xFE66D9DF PUSH1 0x40 MLOAD DUP2 PUSH4 0xFFFFFFFF AND PUSH1 0xE0 SHL DUP2 MSTORE PUSH1 0x4 ADD PUSH1 0x20 PUSH1 0x40 MLOAD DUP1 DUP4 SUB DUP2 PUSH1 0x0 DUP8 GAS CALL ISZERO DUP1 ISZERO PUSH2 0x3B3 JUMPI RETURNDATASIZE PUSH1 0x0 DUP1 RETURNDATACOPY RETURNDATASIZE PUSH1 0x0 REVERT JUMPDEST POP POP POP POP PUSH1 0x40 MLOAD RETURNDATASIZE PUSH1 0x1F NOT PUSH1 0x1F DUP3 ADD AND DUP3 ADD DUP1 PUSH1 0x40 MSTORE POP DUP2 ADD SWAP1 PUSH2 0x3D7 SWAP2 SWAP1 PUSH2 0xAFA JUMP JUMPDEST SWAP1 POP PUSH1 0x1 PUSH1 0x2 PUSH1 0x0 DUP4 DUP2 MSTORE PUSH1 0x20 ADD SWAP1 DUP2 MSTORE PUSH1 0x20 ADD PUSH1 0x0 KECCAK256 PUSH1 0x0 PUSH2 0x100 EXP DUP2 SLOAD DUP2 PUSH1 0xFF MUL NOT AND SWAP1 DUP4 ISZERO ISZERO MUL OR SWAP1 SSTORE POP PUSH32 0xE99DD399072A7D799FFFF8860FE4EA02424A7301DA2E2F2C3EFC7FFCFAFE4819 DUP2 PUSH1 0x40 MLOAD PUSH2 0x434 SWAP2 SWAP1 PUSH2 0xB27 JUMP JUMPDEST PUSH1 0x40 MLOAD DUP1 SWAP2 SUB SWAP1 LOG1 DUP1 PUSH1 0x5 DUP2 SWAP1 SSTORE POP POP JUMPDEST PUSH1 0x3 PUSH1 0x0 PUSH1 0x5 SLOAD DUP2 MSTORE PUSH1 0x20 ADD SWAP1 DUP2 MSTORE PUSH1 0x20 ADD PUSH1 0x0 KECCAK256 PUSH1 0x40 MLOAD DUP1 PUSH1 0x40 ADD PUSH1 0x40 MSTORE SWAP1 DUP2 PUSH1 0x0 DUP3 ADD SLOAD DUP2 MSTORE PUSH1 0x20 ADD PUSH1 0x1 DUP3 ADD SLOAD DUP2 MSTORE POP POP SWAP1 POP SWAP1 JUMP JUMPDEST PUSH2 0x486 PUSH2 0x5C1 JUMP JUMPDEST PUSH2 0x490 PUSH1 0x0 PUSH2 0x63F JUMP JUMPDEST JUMP JUMPDEST PUSH1 0x0 DUP1 PUSH1 0x0 SWAP1 SLOAD SWAP1 PUSH2 0x100 EXP SWAP1 DIV PUSH20 0xFFFFFFFFFFFFFFFFFFFFFFFFFFFFFFFFFFFFFFFF AND SWAP1 POP SWAP1 JUMP JUMPDEST PUSH2 0x4C3 PUSH2 0x5C1 JUMP JUMPDEST DUP1 PUSH1 0x1 PUSH1 0x0 PUSH2 0x100 EXP DUP2 SLOAD DUP2 PUSH20 0xFFFFFFFFFFFFFFFFFFFFFFFFFFFFFFFFFFFFFFFF MUL NOT AND SWAP1 DUP4 PUSH20 0xFFFFFFFFFFFFFFFFFFFFFFFFFFFFFFFFFFFFFFFF AND MUL OR SWAP1 SSTORE POP PUSH32 0xE420B96152542F57CE3D2D26D939A3C2860A82361801AD0A970A3BADC32D538E DUP2 PUSH1 0x40 MLOAD PUSH2 0x533 SWAP2 SWAP1 PUSH2 0x84D JUMP JUMPDEST PUSH1 0x40 MLOAD DUP1 SWAP2 SUB SWAP1 LOG1 POP JUMP JUMPDEST PUSH2 0x546 PUSH2 0x5C1 JUMP JUMPDEST PUSH1 0x0 PUSH20 0xFFFFFFFFFFFFFFFFFFFFFFFFFFFFFFFFFFFFFFFF AND DUP2 PUSH20 0xFFFFFFFFFFFFFFFFFFFFFFFFFFFFFFFFFFFFFFFF AND SUB PUSH2 0x5B5 JUMPI PUSH1 0x40 MLOAD PUSH32 0x8C379A000000000000000000000000000000000000000000000000000000000 DUP2 MSTORE PUSH1 0x4 ADD PUSH2 0x5AC SWAP1 PUSH2 0xBB4 JUMP JUMPDEST PUSH1 0x40 MLOAD DUP1 SWAP2 SUB SWAP1 REVERT JUMPDEST PUSH2 0x5BE DUP2 PUSH2 0x63F JUMP JUMPDEST POP JUMP JUMPDEST PUSH2 0x5C9 PUSH2 0x703 JUMP JUMPDEST PUSH20 0xFFFFFFFFFFFFFFFFFFFFFFFFFFFFFFFFFFFFFFFF AND PUSH2 0x5E7 PUSH2 0x492 JUMP JUMPDEST PUSH20 0xFFFFFFFFFFFFFFFFFFFFFFFFFFFFFFFFFFFFFFFF AND EQ PUSH2 0x63D JUMPI PUSH1 0x40 MLOAD PUSH32 0x8C379A000000000000000000000000000000000000000000000000000000000 DUP2 MSTORE PUSH1 0x4 ADD PUSH2 0x634 SWAP1 PUSH2 0xC20 JUMP JUMPDEST PUSH1 0x40 MLOAD DUP1 SWAP2 SUB SWAP1 REVERT JUMPDEST JUMP JUMPDEST PUSH1 0x0 DUP1 PUSH1 0x0 SWAP1 SLOAD SWAP1 PUSH2 0x100 EXP SWAP1 DIV PUSH20 0xFFFFFFFFFFFFFFFFFFFFFFFFFFFFFFFFFFFFFFFF AND SWAP1 POP DUP2 PUSH1 0x0 DUP1 PUSH2 0x100 EXP DUP2 SLOAD DUP2 PUSH20 0xFFFFFFFFFFFFFFFFFFFFFFFFFFFFFFFFFFFFFFFF MUL NOT AND SWAP1 DUP4 PUSH20 0xFFFFFFFFFFFFFFFFFFFFFFFFFFFFFFFFFFFFFFFF AND MUL OR SWAP1 SSTORE POP DUP2 PUSH20 0xFFFFFFFFFFFFFFFFFFFFFFFFFFFFFFFFFFFFFFFF AND DUP2 PUSH20 0xFFFFFFFFFFFFFFFFFFFFFFFFFFFFFFFFFFFFFFFF AND PUSH32 0x8BE0079C531659141344CD1FD0A4F28419497F9722A3DAAFE3B4186F6B6457E0 PUSH1 0x40 MLOAD PUSH1 0x40 MLOAD DUP1 SWAP2 SUB SWAP1 LOG3 POP POP JUMP JUMPDEST PUSH1 0x0 CALLER SWAP1 POP SWAP1 JUMP JUMPDEST PUSH1 0x40 MLOAD DUP1 PUSH1 0x40 ADD PUSH1 0x40 MSTORE DUP1 PUSH1 0x0 DUP2 MSTORE PUSH1 0x20 ADD PUSH1 0x0 DUP2 MSTORE POP SWAP1 JUMP JUMPDEST PUSH1 0x0 DUP1 REVERT JUMPDEST PUSH1 0x0 DUP2 SWAP1 POP SWAP2 SWAP1 POP JUMP JUMPDEST PUSH2 0x73D DUP2 PUSH2 0x72A JUMP JUMPDEST DUP2 EQ PUSH2 0x748 JUMPI PUSH1 0x0 DUP1 REVERT JUMPDEST POP JUMP JUMPDEST PUSH1 0x0 DUP2 CALLDATALOAD SWAP1 POP PUSH2 0x75A DUP2 PUSH2 0x734 JUMP JUMPDEST SWAP3 SWAP2 POP POP JUMP JUMPDEST PUSH1 0x0 DUP1 PUSH1 0x0 PUSH1 0x60 DUP5 DUP7 SUB SLT ISZERO PUSH2 0x779 JUMPI PUSH2 0x778 PUSH2 0x725 JUMP JUMPDEST JUMPDEST PUSH1 0x0 PUSH2 0x787 DUP7 DUP3 DUP8 ADD PUSH2 0x74B JUMP JUMPDEST SWAP4 POP POP PUSH1 0x20 PUSH2 0x798 DUP7 DUP3 DUP8 ADD PUSH2 0x74B JUMP JUMPDEST SWAP3 POP POP PUSH1 0x40 PUSH2 0x7A9 DUP7 DUP3 DUP8 ADD PUSH2 0x74B JUMP JUMPDEST SWAP2 POP POP SWAP3 POP SWAP3 POP SWAP3 JUMP JUMPDEST PUSH2 0x7BC DUP2 PUSH2 0x72A JUMP JUMPDEST DUP3 MSTORE POP POP JUMP JUMPDEST PUSH1 0x40 DUP3 ADD PUSH1 0x0 DUP3 ADD MLOAD PUSH2 0x7D8 PUSH1 0x0 DUP6 ADD DUP3 PUSH2 0x7B3 JUMP JUMPDEST POP PUSH1 0x20 DUP3 ADD MLOAD PUSH2 0x7EB PUSH1 0x20 DUP6 ADD DUP3 PUSH2 0x7B3 JUMP JUMPDEST POP POP POP POP JUMP JUMPDEST PUSH1 0x0 PUSH1 0x40 DUP3 ADD SWAP1 POP PUSH2 0x806 PUSH1 0x0 DUP4 ADD DUP5 PUSH2 0x7C2 JUMP JUMPDEST SWAP3 SWAP2 POP POP JUMP JUMPDEST PUSH1 0x0 PUSH20 0xFFFFFFFFFFFFFFFFFFFFFFFFFFFFFFFFFFFFFFFF DUP3 AND SWAP1 POP SWAP2 SWAP1 POP JUMP JUMPDEST PUSH1 0x0 PUSH2 0x837 DUP3 PUSH2 0x80C JUMP JUMPDEST SWAP1 POP SWAP2 SWAP1 POP JUMP JUMPDEST PUSH2 0x847 DUP2 PUSH2 0x82C JUMP JUMPDEST DUP3 MSTORE POP POP JUMP JUMPDEST PUSH1 0x0 PUSH1 0x20 DUP3 ADD SWAP1 POP PUSH2 0x862 PUSH1 0x0 DUP4 ADD DUP5 PUSH2 0x83E JUMP JUMPDEST SWAP3 SWAP2 POP POP JUMP JUMPDEST PUSH2 0x871 DUP2 PUSH2 0x82C JUMP JUMPDEST DUP2 EQ PUSH2 0x87C JUMPI PUSH1 0x0 DUP1 REVERT JUMPDEST POP JUMP JUMPDEST PUSH1 0x0 DUP2 CALLDATALOAD SWAP1 POP PUSH2 0x88E DUP2 PUSH2 0x868 JUMP JUMPDEST SWAP3 SWAP2 POP POP JUMP JUMPDEST PUSH1 0x0 PUSH1 0x20 DUP3 DUP5 SUB SLT ISZERO PUSH2 0x8AA JUMPI PUSH2 0x8A9 PUSH2 0x725 JUMP JUMPDEST JUMPDEST PUSH1 0x0 PUSH2 0x8B8 DUP5 DUP3 DUP6 ADD PUSH2 0x87F JUMP JUMPDEST SWAP2 POP POP SWAP3 SWAP2 POP POP JUMP JUMPDEST PUSH1 0x0 DUP3 DUP3 MSTORE PUSH1 0x20 DUP3 ADD SWAP1 POP SWAP3 SWAP2 POP POP JUMP JUMPDEST PUSH32 0x556E617574686F72697A65642E00000000000000000000000000000000000000 PUSH1 0x0 DUP3 ADD MSTORE POP JUMP JUMPDEST PUSH1 0x0 PUSH2 0x908 PUSH1 0xD DUP4 PUSH2 0x8C1 JUMP JUMPDEST SWAP2 POP PUSH2 0x913 DUP3 PUSH2 0x8D2 JUMP JUMPDEST PUSH1 0x20 DUP3 ADD SWAP1 POP SWAP2 SWAP1 POP JUMP JUMPDEST PUSH1 0x0 PUSH1 0x20 DUP3 ADD SWAP1 POP DUP2 DUP2 SUB PUSH1 0x0 DUP4 ADD MSTORE PUSH2 0x937 DUP2 PUSH2 0x8FB JUMP JUMPDEST SWAP1 POP SWAP2 SWAP1 POP JUMP JUMPDEST PUSH32 0x5265717565737420697320696E76616C6964206F7220616C7265616479206675 PUSH1 0x0 DUP3 ADD MSTORE PUSH32 0x6C66696C6C65642E000000000000000000000000000000000000000000000000 PUSH1 0x20 DUP3 ADD MSTORE POP JUMP JUMPDEST PUSH1 0x0 PUSH2 0x99A PUSH1 0x28 DUP4 PUSH2 0x8C1 JUMP JUMPDEST SWAP2 POP PUSH2 0x9A5 DUP3 PUSH2 0x93E JUMP JUMPDEST PUSH1 0x40 DUP3 ADD SWAP1 POP SWAP2 SWAP1 POP JUMP JUMPDEST PUSH1 0x0 PUSH1 0x20 DUP3 ADD SWAP1 POP DUP2 DUP2 SUB PUSH1 0x0 DUP4 ADD MSTORE PUSH2 0x9C9 DUP2 PUSH2 0x98D JUMP JUMPDEST SWAP1 POP SWAP2 SWAP1 POP JUMP JUMPDEST PUSH2 0x9D9 DUP2 PUSH2 0x72A JUMP JUMPDEST DUP3 MSTORE POP POP JUMP JUMPDEST PUSH1 0x0 PUSH1 0x60 DUP3 ADD SWAP1 POP PUSH2 0x9F4 PUSH1 0x0 DUP4 ADD DUP7 PUSH2 0x9D0 JUMP JUMPDEST PUSH2 0xA01 PUSH1 0x20 DUP4 ADD DUP6 PUSH2 0x9D0 JUMP JUMPDEST PUSH2 0xA0E PUSH1 0x40 DUP4 ADD DUP5 PUSH2 0x9D0 JUMP JUMPDEST SWAP5 SWAP4 POP POP POP POP JUMP JUMPDEST PUSH32 0x4F7261636C65206E6F7420696E697469616C697A65642E000000000000000000 PUSH1 0x0 DUP3 ADD MSTORE POP JUMP JUMPDEST PUSH1 0x0 PUSH2 0xA4C PUSH1 0x17 DUP4 PUSH2 0x8C1 JUMP JUMPDEST SWAP2 POP PUSH2 0xA57 DUP3 PUSH2 0xA16 JUMP JUMPDEST PUSH1 0x20 DUP3 ADD SWAP1 POP SWAP2 SWAP1 POP JUMP JUMPDEST PUSH1 0x0 PUSH1 0x20 DUP3 ADD SWAP1 POP DUP2 DUP2 SUB PUSH1 0x0 DUP4 ADD MSTORE PUSH2 0xA7B DUP2 PUSH2 0xA3F JUMP JUMPDEST SWAP1 POP SWAP2 SWAP1 POP JUMP JUMPDEST PUSH32 0x4E487B7100000000000000000000000000000000000000000000000000000000 PUSH1 0x0 MSTORE PUSH1 0x11 PUSH1 0x4 MSTORE PUSH1 0x24 PUSH1 0x0 REVERT JUMPDEST PUSH1 0x0 PUSH2 0xABC DUP3 PUSH2 0x72A JUMP JUMPDEST SWAP2 POP PUSH2 0xAC7 DUP4 PUSH2 0x72A JUMP JUMPDEST SWAP3 POP DUP3 DUP3 ADD SWAP1 POP DUP1 DUP3 GT ISZERO PUSH2 0xADF JUMPI PUSH2 0xADE PUSH2 0xA82 JUMP JUMPDEST JUMPDEST SWAP3 SWAP2 POP POP JUMP JUMPDEST PUSH1 0x0 DUP2 MLOAD SWAP1 POP PUSH2 0xAF4 DUP2 PUSH2 0x734 JUMP JUMPDEST SWAP3 SWAP2 POP POP JUMP JUMPDEST PUSH1 0x0 PUSH1 0x20 DUP3 DUP5 SUB SLT ISZERO PUSH2 0xB10 JUMPI PUSH2 0xB0F PUSH2 0x725 JUMP JUMPDEST JUMPDEST PUSH1 0x0 PUSH2 0xB1E DUP5 DUP3 DUP6 ADD PUSH2 0xAE5 JUMP JUMPDEST SWAP2 POP POP SWAP3 SWAP2 POP POP JUMP JUMPDEST PUSH1 0x0 PUSH1 0x20 DUP3 ADD SWAP1 POP PUSH2 0xB3C PUSH1 0x0 DUP4 ADD DUP5 PUSH2 0x9D0 JUMP JUMPDEST SWAP3 SWAP2 POP POP JUMP JUMPDEST PUSH32 0x4F776E61626C653A206E6577206F776E657220697320746865207A65726F2061 PUSH1 0x0 DUP3 ADD MSTORE PUSH32 0x6464726573730000000000000000000000000000000000000000000000000000 PUSH1 0x20 DUP3 ADD MSTORE POP JUMP JUMPDEST PUSH1 0x0 PUSH2 0xB9E PUSH1 0x26 DUP4 PUSH2 0x8C1 JUMP JUMPDEST SWAP2 POP PUSH2 0xBA9 DUP3 PUSH2 0xB42 JUMP JUMPDEST PUSH1 0x40 DUP3 ADD SWAP1 POP SWAP2 SWAP1 POP JUMP JUMPDEST PUSH1 0x0 PUSH1 0x20 DUP3 ADD SWAP1 POP DUP2 DUP2 SUB PUSH1 0x0 DUP4 ADD MSTORE PUSH2 0xBCD DUP2 PUSH2 0xB91 JUMP JUMPDEST SWAP1 POP SWAP2 SWAP1 POP JUMP JUMPDEST PUSH32 0x4F776E61626C653A2063616C6C6572206973206E6F7420746865206F776E6572 PUSH1 0x0 DUP3 ADD MSTORE POP JUMP JUMPDEST PUSH1 0x0 PUSH2 0xC0A PUSH1 0x20 DUP4 PUSH2 0x8C1 JUMP JUMPDEST SWAP2 POP PUSH2 0xC15 DUP3 PUSH2 0xBD4 JUMP JUMPDEST PUSH1 0x20 DUP3 ADD SWAP1 POP SWAP2 SWAP1 POP JUMP JUMPDEST PUSH1 0x0 PUSH1 0x20 DUP3 ADD SWAP1 POP DUP2 DUP2 SUB PUSH1 0x0 DUP4 ADD MSTORE PUSH2 0xC39 DUP2 PUSH2 0xBFD JUMP JUMPDEST SWAP1 POP SWAP2 SWAP1 POP JUMP INVALID LOG2 PUSH5 0x6970667358 0x22 SLT KECCAK256 MULMOD 0xB9 EQ 0xC8 BALANCE DUP14 0xB9 0xDD 0xAE SWAP15 PUSH18 0x4FE7E147227FD14F75BCDFD0BA547BD980D9 0xD3 PUSH5 0xF364736F6C PUSH4 0x43000812 STOP CALLER "
				},
				"gasEstimates": {
					"creation": {
						"codeDepositCost": "638000",
						"executionCost": "infinite",
						"totalCost": "infinite"
					},
					"external": {
						"fulfillElectricityDataRequest(uint256,uint256,uint256)": "infinite",
						"getElectricityData()": "infinite",
						"owner()": "2566",
						"renounceOwnership()": "30420",
						"setElectricityOracleAddress(address)": "infinite",
						"transferOwnership(address)": "30832"
					}
				},
				"methodIdentifiers": {
					"fulfillElectricityDataRequest(uint256,uint256,uint256)": "06c04593",
					"getElectricityData()": "2c8a7526",
					"owner()": "8da5cb5b",
					"renounceOwnership()": "715018a6",
					"setElectricityOracleAddress(address)": "deb93ef0",
					"transferOwnership(address)": "f2fde38b"
				}
			},
			"storageLayout": {
				"storage": [
					{
						"astId": 7,
						"contract": "smart-contracts/contracts/energyContracts/Caller.sol:Caller",
						"label": "_owner",
						"offset": 0,
						"slot": "0",
						"type": "t_address"
					},
					{
						"astId": 143,
						"contract": "smart-contracts/contracts/energyContracts/Caller.sol:Caller",
						"label": "electricityOracle",
						"offset": 0,
						"slot": "1",
						"type": "t_contract(IElectricityOracle)309"
					},
					{
						"astId": 147,
						"contract": "smart-contracts/contracts/energyContracts/Caller.sol:Caller",
						"label": "requests",
						"offset": 0,
						"slot": "2",
						"type": "t_mapping(t_uint256,t_bool)"
					},
					{
						"astId": 152,
						"contract": "smart-contracts/contracts/energyContracts/Caller.sol:Caller",
						"label": "results",
						"offset": 0,
						"slot": "3",
						"type": "t_mapping(t_uint256,t_struct(ElectricityData)161_storage)"
					},
					{
						"astId": 154,
						"contract": "smart-contracts/contracts/energyContracts/Caller.sol:Caller",
						"label": "latestDataRequestTimestamp",
						"offset": 0,
						"slot": "4",
						"type": "t_uint256"
					},
					{
						"astId": 156,
						"contract": "smart-contracts/contracts/energyContracts/Caller.sol:Caller",
						"label": "latestId",
						"offset": 0,
						"slot": "5",
						"type": "t_uint256"
					}
				],
				"types": {
					"t_address": {
						"encoding": "inplace",
						"label": "address",
						"numberOfBytes": "20"
					},
					"t_bool": {
						"encoding": "inplace",
						"label": "bool",
						"numberOfBytes": "1"
					},
					"t_contract(IElectricityOracle)309": {
						"encoding": "inplace",
						"label": "contract IElectricityOracle",
						"numberOfBytes": "20"
					},
					"t_mapping(t_uint256,t_bool)": {
						"encoding": "mapping",
						"key": "t_uint256",
						"label": "mapping(uint256 => bool)",
						"numberOfBytes": "32",
						"value": "t_bool"
					},
					"t_mapping(t_uint256,t_struct(ElectricityData)161_storage)": {
						"encoding": "mapping",
						"key": "t_uint256",
						"label": "mapping(uint256 => struct Caller.ElectricityData)",
						"numberOfBytes": "32",
						"value": "t_struct(ElectricityData)161_storage"
					},
					"t_struct(ElectricityData)161_storage": {
						"encoding": "inplace",
						"label": "struct Caller.ElectricityData",
						"members": [
							{
								"astId": 158,
								"contract": "smart-contracts/contracts/energyContracts/Caller.sol:Caller",
								"label": "carbonIntensity",
								"offset": 0,
								"slot": "0",
								"type": "t_uint256"
							},
							{
								"astId": 160,
								"contract": "smart-contracts/contracts/energyContracts/Caller.sol:Caller",
								"label": "priceCarbon",
								"offset": 0,
								"slot": "1",
								"type": "t_uint256"
							}
						],
						"numberOfBytes": "64"
					},
					"t_uint256": {
						"encoding": "inplace",
						"label": "uint256",
						"numberOfBytes": "32"
					}
				}
			},
			"userdoc": {
				"kind": "user",
				"methods": {},
				"version": 1
			}
		}
	}
}