{
  "_format": "hh-sol-artifact-1",
  "contractName": "Caller",
  "sourceName": "contracts/energyContracts/Caller.sol",
  "abi": [
    {
      "anonymous": false,
      "inputs": [
        {
          "indexed": false,
          "internalType": "address",
          "name": "oracleAddress",
          "type": "address"
        }
      ],
      "name": "OracleAddressChanged",
      "type": "event"
    },
    {
      "anonymous": false,
      "inputs": [
        {
          "indexed": true,
          "internalType": "address",
          "name": "previousOwner",
          "type": "address"
        },
        {
          "indexed": true,
          "internalType": "address",
          "name": "newOwner",
          "type": "address"
        }
      ],
      "name": "OwnershipTransferred",
      "type": "event"
    },
    {
      "anonymous": false,
      "inputs": [
        {
          "indexed": false,
          "internalType": "uint256",
          "name": "number",
          "type": "uint256"
        },
        {
          "indexed": false,
          "internalType": "uint256",
          "name": "id",
          "type": "uint256"
        }
      ],
      "name": "RandomNumberReceived",
      "type": "event"
    },
    {
      "anonymous": false,
      "inputs": [
        {
          "indexed": false,
          "internalType": "uint256",
          "name": "id",
          "type": "uint256"
        }
      ],
      "name": "RandomNumberRequested",
      "type": "event"
    },
    {
      "inputs": [
        {
          "internalType": "uint256",
          "name": "randomNumber",
          "type": "uint256"
        },
        {
          "internalType": "uint256",
          "name": "id",
          "type": "uint256"
        }
      ],
      "name": "fulfillRandomNumberRequest",
      "outputs": [],
      "stateMutability": "nonpayable",
      "type": "function"
    },
    {
      "inputs": [],
      "name": "getRandomNumber",
      "outputs": [],
      "stateMutability": "nonpayable",
      "type": "function"
    },
    {
      "inputs": [],
      "name": "owner",
      "outputs": [
        {
          "internalType": "address",
          "name": "",
          "type": "address"
        }
      ],
      "stateMutability": "view",
      "type": "function"
    },
    {
      "inputs": [],
      "name": "renounceOwnership",
      "outputs": [],
      "stateMutability": "nonpayable",
      "type": "function"
    },
    {
      "inputs": [
        {
          "internalType": "address",
          "name": "newAddress",
          "type": "address"
        }
      ],
      "name": "setRandOracleAddress",
      "outputs": [],
      "stateMutability": "nonpayable",
      "type": "function"
    },
    {
      "inputs": [
        {
          "internalType": "address",
          "name": "newOwner",
          "type": "address"
        }
      ],
      "name": "transferOwnership",
      "outputs": [],
      "stateMutability": "nonpayable",
      "type": "function"
    }
  ],
  "bytecode": "0x608060405234801561001057600080fd5b5061002d61002261003260201b60201c565b61003a60201b60201c565b6100fe565b600033905090565b60008060009054906101000a900473ffffffffffffffffffffffffffffffffffffffff169050816000806101000a81548173ffffffffffffffffffffffffffffffffffffffff021916908373ffffffffffffffffffffffffffffffffffffffff1602179055508173ffffffffffffffffffffffffffffffffffffffff168173ffffffffffffffffffffffffffffffffffffffff167f8be0079c531659141344cd1fd0a4f28419497f9722a3daafe3b4186f6b6457e060405160405180910390a35050565b610aa88061010d6000396000f3fe608060405234801561001057600080fd5b50600436106100625760003560e01c8063715018a6146100675780638da5cb5b1461007157806395476f231461008f5780639d1ef17a146100ab578063dbdff2c1146100c7578063f2fde38b146100d1575b600080fd5b61006f6100ed565b005b610079610101565b60405161008691906108f8565b60405180910390f35b6100a960048036038101906100a491906106c0565b61012a565b005b6100c560048036038101906100c09190610712565b6101ad565b005b6100cf610315565b005b6100eb60048036038101906100e691906106c0565b6104b3565b005b6100f5610537565b6100ff60006105b5565b565b60008060009054906101000a900473ffffffffffffffffffffffffffffffffffffffff16905090565b610132610537565b80600160006101000a81548173ffffffffffffffffffffffffffffffffffffffff021916908373ffffffffffffffffffffffffffffffffffffffff1602179055507fe420b96152542f57ce3d2d26d939a3c2860a82361801ad0a970a3badc32d538e816040516101a291906108f8565b60405180910390a150565b600160009054906101000a900473ffffffffffffffffffffffffffffffffffffffff1673ffffffffffffffffffffffffffffffffffffffff163373ffffffffffffffffffffffffffffffffffffffff161461023d576040517f08c379a000000000000000000000000000000000000000000000000000000000815260040161023490610973565b60405180910390fd5b6002600082815260200190815260200160002060009054906101000a900460ff1661029d576040517f08c379a000000000000000000000000000000000000000000000000000000000815260040161029490610933565b60405180910390fd5b8160036000838152602001908152602001600020819055506002600082815260200190815260200160002060006101000a81549060ff02191690557f9f3dfe0efa24b207b42aad32b527da86eb44e0c0e09e3c22e3a342f444d257e182826040516103099291906109ce565b60405180910390a15050565b600073ffffffffffffffffffffffffffffffffffffffff16600160009054906101000a900473ffffffffffffffffffffffffffffffffffffffff1673ffffffffffffffffffffffffffffffffffffffff1614156103a7576040517f08c379a000000000000000000000000000000000000000000000000000000000815260040161039e90610953565b60405180910390fd5b6000600160009054906101000a900473ffffffffffffffffffffffffffffffffffffffff1673ffffffffffffffffffffffffffffffffffffffff16638678a7b26040518163ffffffff1660e01b8152600401602060405180830381600087803b15801561041357600080fd5b505af1158015610427573d6000803e3d6000fd5b505050506040513d601f19601f8201168201806040525081019061044b91906106e9565b905060016002600083815260200190815260200160002060006101000a81548160ff0219169083151502179055507f5a82a565b8cc97bc62f2041e057e918f6b3b7b4185104d7d4a52ed5c711e7232816040516104a891906109b3565b60405180910390a150565b6104bb610537565b600073ffffffffffffffffffffffffffffffffffffffff168173ffffffffffffffffffffffffffffffffffffffff16141561052b576040517f08c379a000000000000000000000000000000000000000000000000000000000815260040161052290610913565b60405180910390fd5b610534816105b5565b50565b61053f610679565b73ffffffffffffffffffffffffffffffffffffffff1661055d610101565b73ffffffffffffffffffffffffffffffffffffffff16146105b3576040517f08c379a00000000000000000000000000000000000000000000000000000000081526004016105aa90610993565b60405180910390fd5b565b60008060009054906101000a900473ffffffffffffffffffffffffffffffffffffffff169050816000806101000a81548173ffffffffffffffffffffffffffffffffffffffff021916908373ffffffffffffffffffffffffffffffffffffffff1602179055508173ffffffffffffffffffffffffffffffffffffffff168173ffffffffffffffffffffffffffffffffffffffff167f8be0079c531659141344cd1fd0a4f28419497f9722a3daafe3b4186f6b6457e060405160405180910390a35050565b600033905090565b60008135905061069081610a44565b92915050565b6000813590506106a581610a5b565b92915050565b6000815190506106ba81610a5b565b92915050565b6000602082840312156106d257600080fd5b60006106e084828501610681565b91505092915050565b6000602082840312156106fb57600080fd5b6000610709848285016106ab565b91505092915050565b6000806040838503121561072557600080fd5b600061073385828601610696565b925050602061074485828601610696565b9150509250929050565b61075781610a08565b82525050565b600061076a6026836109f7565b91507f4f776e61626c653a206e6577206f776e657220697320746865207a65726f206160008301527f64647265737300000000000000000000000000000000000000000000000000006020830152604082019050919050565b60006107d06028836109f7565b91507f5265717565737420697320696e76616c6964206f7220616c726561647920667560008301527f6c66696c6c65642e0000000000000000000000000000000000000000000000006020830152604082019050919050565b60006108366017836109f7565b91507f4f7261636c65206e6f7420696e697469616c697a65642e0000000000000000006000830152602082019050919050565b6000610876600d836109f7565b91507f556e617574686f72697a65642e000000000000000000000000000000000000006000830152602082019050919050565b60006108b66020836109f7565b91507f4f776e61626c653a2063616c6c6572206973206e6f7420746865206f776e65726000830152602082019050919050565b6108f281610a3a565b82525050565b600060208201905061090d600083018461074e565b92915050565b6000602082019050818103600083015261092c8161075d565b9050919050565b6000602082019050818103600083015261094c816107c3565b9050919050565b6000602082019050818103600083015261096c81610829565b9050919050565b6000602082019050818103600083015261098c81610869565b9050919050565b600060208201905081810360008301526109ac816108a9565b9050919050565b60006020820190506109c860008301846108e9565b92915050565b60006040820190506109e360008301856108e9565b6109f060208301846108e9565b9392505050565b600082825260208201905092915050565b6000610a1382610a1a565b9050919050565b600073ffffffffffffffffffffffffffffffffffffffff82169050919050565b6000819050919050565b610a4d81610a08565b8114610a5857600080fd5b50565b610a6481610a3a565b8114610a6f57600080fd5b5056fea26469706673582212203d9638dd95e3b4f9488ae29477251f1e8328012075d2b848c63003889d79bf8364736f6c63430008000033",
  "linkReferences": {},
  "deployedLinkReferences": {}
}