{
  "_format": "hh-sol-artifact-1",
  "contractName": "Caller",
  "sourceName": "contracts/energyContracts/Caller.sol",
  "abi": [
    {
      "anonymous": false,
      "inputs": [
        {
          "indexed": false,
          "internalType": "uint256",
          "name": "carbonIntensity",
          "type": "uint256"
        },
        {
          "indexed": false,
          "internalType": "uint256",
          "name": "priceCarbon",
          "type": "uint256"
        },
        {
          "indexed": false,
          "internalType": "uint256",
          "name": "id",
          "type": "uint256"
        }
      ],
      "name": "ElectricityDataReceived",
      "type": "event"
    },
    {
      "anonymous": false,
      "inputs": [
        {
          "indexed": false,
          "internalType": "uint256",
          "name": "id",
          "type": "uint256"
        }
      ],
      "name": "ElectricityDataRequested",
      "type": "event"
    },
    {
      "anonymous": false,
      "inputs": [
        {
          "indexed": false,
          "internalType": "address",
          "name": "oracleAddress",
          "type": "address"
        }
      ],
      "name": "OracleAddressChanged",
      "type": "event"
    },
    {
      "anonymous": false,
      "inputs": [
        {
          "indexed": true,
          "internalType": "address",
          "name": "previousOwner",
          "type": "address"
        },
        {
          "indexed": true,
          "internalType": "address",
          "name": "newOwner",
          "type": "address"
        }
      ],
      "name": "OwnershipTransferred",
      "type": "event"
    },
    {
      "inputs": [
        {
          "internalType": "uint256",
          "name": "carbonIntensity",
          "type": "uint256"
        },
        {
          "internalType": "uint256",
          "name": "priceCarbon",
          "type": "uint256"
        },
        {
          "internalType": "uint256",
          "name": "id",
          "type": "uint256"
        }
      ],
      "name": "fulfillElectricityDataRequest",
      "outputs": [],
      "stateMutability": "nonpayable",
      "type": "function"
    },
    {
      "inputs": [],
      "name": "getElectricityData",
      "outputs": [],
      "stateMutability": "nonpayable",
      "type": "function"
    },
    {
      "inputs": [],
      "name": "owner",
      "outputs": [
        {
          "internalType": "address",
          "name": "",
          "type": "address"
        }
      ],
      "stateMutability": "view",
      "type": "function"
    },
    {
      "inputs": [],
      "name": "renounceOwnership",
      "outputs": [],
      "stateMutability": "nonpayable",
      "type": "function"
    },
    {
      "inputs": [
        {
          "internalType": "address",
          "name": "newAddress",
          "type": "address"
        }
      ],
      "name": "setElectricityOracleAddress",
      "outputs": [],
      "stateMutability": "nonpayable",
      "type": "function"
    },
    {
      "inputs": [
        {
          "internalType": "address",
          "name": "newOwner",
          "type": "address"
        }
      ],
      "name": "transferOwnership",
      "outputs": [],
      "stateMutability": "nonpayable",
      "type": "function"
    }
  ],
  "bytecode": "0x608060405234801561001057600080fd5b5061002d61002261003260201b60201c565b61003a60201b60201c565b6100fe565b600033905090565b60008060009054906101000a900473ffffffffffffffffffffffffffffffffffffffff169050816000806101000a81548173ffffffffffffffffffffffffffffffffffffffff021916908373ffffffffffffffffffffffffffffffffffffffff1602179055508173ffffffffffffffffffffffffffffffffffffffff168173ffffffffffffffffffffffffffffffffffffffff167f8be0079c531659141344cd1fd0a4f28419497f9722a3daafe3b4186f6b6457e060405160405180910390a35050565b610af38061010d6000396000f3fe608060405234801561001057600080fd5b50600436106100625760003560e01c806306c04593146100675780632c8a752614610083578063715018a61461008d5780638da5cb5b14610097578063deb93ef0146100b5578063f2fde38b146100d1575b600080fd5b610081600480360381019061007c919061073c565b6100ed565b005b61008b61027f565b005b61009561041d565b005b61009f610431565b6040516100ac9190610935565b60405180910390f35b6100cf60048036038101906100ca91906106ea565b61045a565b005b6100eb60048036038101906100e691906106ea565b6104dd565b005b600160009054906101000a900473ffffffffffffffffffffffffffffffffffffffff1673ffffffffffffffffffffffffffffffffffffffff163373ffffffffffffffffffffffffffffffffffffffff161461017d576040517f08c379a0000000000000000000000000000000000000000000000000000000008152600401610174906109b0565b60405180910390fd5b6002600082815260200190815260200160002060009054906101000a900460ff166101dd576040517f08c379a00000000000000000000000000000000000000000000000000000000081526004016101d490610970565b60405180910390fd5b6040518060400160405280848152602001838152506003600083815260200190815260200160002060008201518160000155602082015181600101559050506002600082815260200190815260200160002060006101000a81549060ff02191690557fac692744937aaf6b0bdbd8e64a6994b068c12dcf93bf43bf34e349496317f72983838360405161027293929190610a0b565b60405180910390a1505050565b600073ffffffffffffffffffffffffffffffffffffffff16600160009054906101000a900473ffffffffffffffffffffffffffffffffffffffff1673ffffffffffffffffffffffffffffffffffffffff161415610311576040517f08c379a000000000000000000000000000000000000000000000000000000000815260040161030890610990565b60405180910390fd5b6000600160009054906101000a900473ffffffffffffffffffffffffffffffffffffffff1673ffffffffffffffffffffffffffffffffffffffff1663fe66d9df6040518163ffffffff1660e01b8152600401602060405180830381600087803b15801561037d57600080fd5b505af1158015610391573d6000803e3d6000fd5b505050506040513d601f19601f820116820180604052508101906103b59190610713565b905060016002600083815260200190815260200160002060006101000a81548160ff0219169083151502179055507fe99dd399072a7d799ffff8860fe4ea02424a7301da2e2f2c3efc7ffcfafe48198160405161041291906109f0565b60405180910390a150565b610425610561565b61042f60006105df565b565b60008060009054906101000a900473ffffffffffffffffffffffffffffffffffffffff16905090565b610462610561565b80600160006101000a81548173ffffffffffffffffffffffffffffffffffffffff021916908373ffffffffffffffffffffffffffffffffffffffff1602179055507fe420b96152542f57ce3d2d26d939a3c2860a82361801ad0a970a3badc32d538e816040516104d29190610935565b60405180910390a150565b6104e5610561565b600073ffffffffffffffffffffffffffffffffffffffff168173ffffffffffffffffffffffffffffffffffffffff161415610555576040517f08c379a000000000000000000000000000000000000000000000000000000000815260040161054c90610950565b60405180910390fd5b61055e816105df565b50565b6105696106a3565b73ffffffffffffffffffffffffffffffffffffffff16610587610431565b73ffffffffffffffffffffffffffffffffffffffff16146105dd576040517f08c379a00000000000000000000000000000000000000000000000000000000081526004016105d4906109d0565b60405180910390fd5b565b60008060009054906101000a900473ffffffffffffffffffffffffffffffffffffffff169050816000806101000a81548173ffffffffffffffffffffffffffffffffffffffff021916908373ffffffffffffffffffffffffffffffffffffffff1602179055508173ffffffffffffffffffffffffffffffffffffffff168173ffffffffffffffffffffffffffffffffffffffff167f8be0079c531659141344cd1fd0a4f28419497f9722a3daafe3b4186f6b6457e060405160405180910390a35050565b600033905090565b6000813590506106ba81610a8f565b92915050565b6000813590506106cf81610aa6565b92915050565b6000815190506106e481610aa6565b92915050565b6000602082840312156106fc57600080fd5b600061070a848285016106ab565b91505092915050565b60006020828403121561072557600080fd5b6000610733848285016106d5565b91505092915050565b60008060006060848603121561075157600080fd5b600061075f868287016106c0565b9350506020610770868287016106c0565b9250506040610781868287016106c0565b9150509250925092565b61079481610a53565b82525050565b60006107a7602683610a42565b91507f4f776e61626c653a206e6577206f776e657220697320746865207a65726f206160008301527f64647265737300000000000000000000000000000000000000000000000000006020830152604082019050919050565b600061080d602883610a42565b91507f5265717565737420697320696e76616c6964206f7220616c726561647920667560008301527f6c66696c6c65642e0000000000000000000000000000000000000000000000006020830152604082019050919050565b6000610873601783610a42565b91507f4f7261636c65206e6f7420696e697469616c697a65642e0000000000000000006000830152602082019050919050565b60006108b3600d83610a42565b91507f556e617574686f72697a65642e000000000000000000000000000000000000006000830152602082019050919050565b60006108f3602083610a42565b91507f4f776e61626c653a2063616c6c6572206973206e6f7420746865206f776e65726000830152602082019050919050565b61092f81610a85565b82525050565b600060208201905061094a600083018461078b565b92915050565b600060208201905081810360008301526109698161079a565b9050919050565b6000602082019050818103600083015261098981610800565b9050919050565b600060208201905081810360008301526109a981610866565b9050919050565b600060208201905081810360008301526109c9816108a6565b9050919050565b600060208201905081810360008301526109e9816108e6565b9050919050565b6000602082019050610a056000830184610926565b92915050565b6000606082019050610a206000830186610926565b610a2d6020830185610926565b610a3a6040830184610926565b949350505050565b600082825260208201905092915050565b6000610a5e82610a65565b9050919050565b600073ffffffffffffffffffffffffffffffffffffffff82169050919050565b6000819050919050565b610a9881610a53565b8114610aa357600080fd5b50565b610aaf81610a85565b8114610aba57600080fd5b5056fea2646970667358221220ec11c83e039a2f656da7c9b96d1d694e4139980c083fcda5a41ace5648743b2d64736f6c63430008000033",
  "linkReferences": {},
  "deployedLinkReferences": {}
}