{
  "_format": "hh-sol-artifact-1",
  "contractName": "RandOracle",
  "sourceName": "contracts/oracle/RandOracle.sol",
  "abi": [
    {
      "inputs": [],
      "stateMutability": "nonpayable",
      "type": "constructor"
    },
    {
      "anonymous": false,
      "inputs": [
        {
          "indexed": false,
          "internalType": "address",
          "name": "providerAddress",
          "type": "address"
        }
      ],
      "name": "ProviderAdded",
      "type": "event"
    },
    {
      "anonymous": false,
      "inputs": [
        {
          "indexed": false,
          "internalType": "address",
          "name": "providerAddress",
          "type": "address"
        }
      ],
      "name": "ProviderRemoved",
      "type": "event"
    },
    {
      "anonymous": false,
      "inputs": [
        {
          "indexed": false,
          "internalType": "uint256",
          "name": "threshold",
          "type": "uint256"
        }
      ],
      "name": "ProvidersThresholdChanged",
      "type": "event"
    },
    {
      "anonymous": false,
      "inputs": [
        {
          "indexed": false,
          "internalType": "address",
          "name": "callerAddress",
          "type": "address"
        },
        {
          "indexed": false,
          "internalType": "uint256",
          "name": "id",
          "type": "uint256"
        }
      ],
      "name": "RandomNumberRequested",
      "type": "event"
    },
    {
      "anonymous": false,
      "inputs": [
        {
          "indexed": false,
          "internalType": "uint256",
          "name": "randomNumber",
          "type": "uint256"
        },
        {
          "indexed": false,
          "internalType": "address",
          "name": "callerAddress",
          "type": "address"
        },
        {
          "indexed": false,
          "internalType": "uint256",
          "name": "id",
          "type": "uint256"
        }
      ],
      "name": "RandomNumberReturned",
      "type": "event"
    },
    {
      "anonymous": false,
      "inputs": [
        {
          "indexed": true,
          "internalType": "bytes32",
          "name": "role",
          "type": "bytes32"
        },
        {
          "indexed": true,
          "internalType": "bytes32",
          "name": "previousAdminRole",
          "type": "bytes32"
        },
        {
          "indexed": true,
          "internalType": "bytes32",
          "name": "newAdminRole",
          "type": "bytes32"
        }
      ],
      "name": "RoleAdminChanged",
      "type": "event"
    },
    {
      "anonymous": false,
      "inputs": [
        {
          "indexed": true,
          "internalType": "bytes32",
          "name": "role",
          "type": "bytes32"
        },
        {
          "indexed": true,
          "internalType": "address",
          "name": "account",
          "type": "address"
        },
        {
          "indexed": true,
          "internalType": "address",
          "name": "sender",
          "type": "address"
        }
      ],
      "name": "RoleGranted",
      "type": "event"
    },
    {
      "anonymous": false,
      "inputs": [
        {
          "indexed": true,
          "internalType": "bytes32",
          "name": "role",
          "type": "bytes32"
        },
        {
          "indexed": true,
          "internalType": "address",
          "name": "account",
          "type": "address"
        },
        {
          "indexed": true,
          "internalType": "address",
          "name": "sender",
          "type": "address"
        }
      ],
      "name": "RoleRevoked",
      "type": "event"
    },
    {
      "inputs": [],
      "name": "DEFAULT_ADMIN_ROLE",
      "outputs": [
        {
          "internalType": "bytes32",
          "name": "",
          "type": "bytes32"
        }
      ],
      "stateMutability": "view",
      "type": "function"
    },
    {
      "inputs": [],
      "name": "PROVIDER_ROLE",
      "outputs": [
        {
          "internalType": "bytes32",
          "name": "",
          "type": "bytes32"
        }
      ],
      "stateMutability": "view",
      "type": "function"
    },
    {
      "inputs": [
        {
          "internalType": "address",
          "name": "provider",
          "type": "address"
        }
      ],
      "name": "addProvider",
      "outputs": [],
      "stateMutability": "nonpayable",
      "type": "function"
    },
    {
      "inputs": [
        {
          "internalType": "bytes32",
          "name": "role",
          "type": "bytes32"
        }
      ],
      "name": "getRoleAdmin",
      "outputs": [
        {
          "internalType": "bytes32",
          "name": "",
          "type": "bytes32"
        }
      ],
      "stateMutability": "view",
      "type": "function"
    },
    {
      "inputs": [
        {
          "internalType": "bytes32",
          "name": "role",
          "type": "bytes32"
        },
        {
          "internalType": "address",
          "name": "account",
          "type": "address"
        }
      ],
      "name": "grantRole",
      "outputs": [],
      "stateMutability": "nonpayable",
      "type": "function"
    },
    {
      "inputs": [
        {
          "internalType": "bytes32",
          "name": "role",
          "type": "bytes32"
        },
        {
          "internalType": "address",
          "name": "account",
          "type": "address"
        }
      ],
      "name": "hasRole",
      "outputs": [
        {
          "internalType": "bool",
          "name": "",
          "type": "bool"
        }
      ],
      "stateMutability": "view",
      "type": "function"
    },
    {
      "inputs": [
        {
          "internalType": "address",
          "name": "provider",
          "type": "address"
        }
      ],
      "name": "removeProvider",
      "outputs": [],
      "stateMutability": "nonpayable",
      "type": "function"
    },
    {
      "inputs": [
        {
          "internalType": "bytes32",
          "name": "role",
          "type": "bytes32"
        },
        {
          "internalType": "address",
          "name": "account",
          "type": "address"
        }
      ],
      "name": "renounceRole",
      "outputs": [],
      "stateMutability": "nonpayable",
      "type": "function"
    },
    {
      "inputs": [],
      "name": "requestRandomNumber",
      "outputs": [
        {
          "internalType": "uint256",
          "name": "",
          "type": "uint256"
        }
      ],
      "stateMutability": "nonpayable",
      "type": "function"
    },
    {
      "inputs": [
        {
          "internalType": "uint256",
          "name": "randomNumber",
          "type": "uint256"
        },
        {
          "internalType": "address",
          "name": "callerAddress",
          "type": "address"
        },
        {
          "internalType": "uint256",
          "name": "id",
          "type": "uint256"
        }
      ],
      "name": "returnRandomNumber",
      "outputs": [],
      "stateMutability": "nonpayable",
      "type": "function"
    },
    {
      "inputs": [
        {
          "internalType": "bytes32",
          "name": "role",
          "type": "bytes32"
        },
        {
          "internalType": "address",
          "name": "account",
          "type": "address"
        }
      ],
      "name": "revokeRole",
      "outputs": [],
      "stateMutability": "nonpayable",
      "type": "function"
    },
    {
      "inputs": [
        {
          "internalType": "uint256",
          "name": "threshold",
          "type": "uint256"
        }
      ],
      "name": "setProvidersThreshold",
      "outputs": [],
      "stateMutability": "nonpayable",
      "type": "function"
    },
    {
      "inputs": [
        {
          "internalType": "bytes4",
          "name": "interfaceId",
          "type": "bytes4"
        }
      ],
      "name": "supportsInterface",
      "outputs": [
        {
          "internalType": "bool",
          "name": "",
          "type": "bool"
        }
      ],
      "stateMutability": "view",
      "type": "function"
    }
  ],
  "bytecode": "0x60806040526000600155600160025560006003553480156200002057600080fd5b50620000366000801b336200003c60201b60201c565b620001b5565b6200004e82826200005260201b60201c565b5050565b6200006482826200014360201b60201c565b6200013f57600160008084815260200190815260200160002060000160008373ffffffffffffffffffffffffffffffffffffffff1673ffffffffffffffffffffffffffffffffffffffff16815260200190815260200160002060006101000a81548160ff021916908315150217905550620000e4620001ad60201b60201c565b73ffffffffffffffffffffffffffffffffffffffff168173ffffffffffffffffffffffffffffffffffffffff16837f2f8788117e7eff1d82e926ec794901d17c78024a50270940304540a733656f0d60405160405180910390a45b5050565b600080600084815260200190815260200160002060000160008373ffffffffffffffffffffffffffffffffffffffff1673ffffffffffffffffffffffffffffffffffffffff16815260200190815260200160002060009054906101000a900460ff16905092915050565b600033905090565b611d5f80620001c56000396000f3fe608060405234801561001057600080fd5b50600436106100cf5760003560e01c80638678a7b21161008c578063a217fddf11610066578063a217fddf14610210578063b77c1c6d1461022e578063d0dcb5421461024a578063d547741f14610266576100cf565b80638678a7b2146101a65780638a355a57146101c457806391d14854146101e0576100cf565b806301ffc9a7146100d4578063248a9ca31461010457806324c20a34146101345780632f2ff15d1461015257806336568abe1461016e57806346e2577a1461018a575b600080fd5b6100ee60048036038101906100e99190611302565b610282565b6040516100fb9190611824565b60405180910390f35b61011e6004803603810190610119919061129d565b6102fc565b60405161012b919061183f565b60405180910390f35b61013c61031b565b604051610149919061183f565b60405180910390f35b61016c600480360381019061016791906112c6565b61033f565b005b610188600480360381019061018391906112c6565b610360565b005b6101a4600480360381019061019f9190611274565b6103e3565b005b6101ae6104d7565b6040516101bb919061197c565b60405180910390f35b6101de60048036038101906101d99190611274565b6105e2565b005b6101fa60048036038101906101f591906112c6565b61071a565b6040516102079190611824565b60405180910390f35b610218610784565b604051610225919061183f565b60405180910390f35b6102486004803603810190610243919061132b565b61078b565b005b610264600480360381019061025f9190611354565b61081f565b005b610280600480360381019061027b91906112c6565b610b7b565b005b60007f7965db0b000000000000000000000000000000000000000000000000000000007bffffffffffffffffffffffffffffffffffffffffffffffffffffffff1916827bffffffffffffffffffffffffffffffffffffffffffffffffffffffff191614806102f557506102f482610b9c565b5b9050919050565b6000806000838152602001908152602001600020600101549050919050565b7f18d9ff454de989bd126b06bd404b47ede75f9e65543e94e8d212f89d7dcbb87c81565b610348826102fc565b61035181610c06565b61035b8383610c1a565b505050565b610368610cfa565b73ffffffffffffffffffffffffffffffffffffffff168173ffffffffffffffffffffffffffffffffffffffff16146103d5576040517f08c379a00000000000000000000000000000000000000000000000000000000081526004016103cc9061195c565b60405180910390fd5b6103df8282610d02565b5050565b6000801b6103f081610c06565b61041a7f18d9ff454de989bd126b06bd404b47ede75f9e65543e94e8d212f89d7dcbb87c8361071a565b1561045a576040517f08c379a00000000000000000000000000000000000000000000000000000000081526004016104519061189c565b60405180910390fd5b6104847f18d9ff454de989bd126b06bd404b47ede75f9e65543e94e8d212f89d7dcbb87c83610c1a565b6001600081548092919061049790611ba9565b91905055507fae9c2c6481964847714ce58f65a7f6dcc41d0d8394449bacdf161b5920c4744a826040516104cb91906117e0565b60405180910390a15050565b6000806001541161051d576040517f08c379a0000000000000000000000000000000000000000000000000000000008152600401610514906118fc565b60405180910390fd5b6003600081548092919061053090611ba9565b919050555060006103e84233600354604051602001610551939291906117a3565b6040516020818303038152906040528051906020012060001c6105749190611c20565b905060016004600083815260200190815260200160002060006101000a81548160ff0219169083151502179055507f7a2348cf64e865f131932f9cd2cff519873b1bf4683107b8f71b371d3030261233826040516105d39291906117fb565b60405180910390a18091505090565b6000801b6105ef81610c06565b6106197f18d9ff454de989bd126b06bd404b47ede75f9e65543e94e8d212f89d7dcbb87c8361071a565b15610659576040517f08c379a00000000000000000000000000000000000000000000000000000000081526004016106509061193c565b60405180910390fd5b600180541161069d576040517f08c379a0000000000000000000000000000000000000000000000000000000008152600401610694906118dc565b60405180910390fd5b6106c77f18d9ff454de989bd126b06bd404b47ede75f9e65543e94e8d212f89d7dcbb87c83610d02565b600160008154809291906106da90611b7f565b91905055507f1589f8555933761a3cff8aa925061be3b46e2dd43f621322ab611d300f62b1d98260405161070e91906117e0565b60405180910390a15050565b600080600084815260200190815260200160002060000160008373ffffffffffffffffffffffffffffffffffffffff1673ffffffffffffffffffffffffffffffffffffffff16815260200190815260200160002060009054906101000a900460ff16905092915050565b6000801b81565b6000801b61079881610c06565b600082116107db576040517f08c379a00000000000000000000000000000000000000000000000000000000081526004016107d2906118bc565b60405180910390fd5b816002819055507f86f1e9da41956a9347ec56b57c24c4b239b13c6c1f40a39a08147e8358b276d5600254604051610813919061197c565b60405180910390a15050565b7f18d9ff454de989bd126b06bd404b47ede75f9e65543e94e8d212f89d7dcbb87c61084981610c06565b6004600083815260200190815260200160002060009054906101000a900460ff166108a9576040517f08c379a00000000000000000000000000000000000000000000000000000000081526004016108a09061191c565b60405180910390fd5b600060405180606001604052803373ffffffffffffffffffffffffffffffffffffffff1681526020018573ffffffffffffffffffffffffffffffffffffffff1681526020018681525090506005600084815260200190815260200160002081908060018154018082558091505060019003906000526020600020906003020160009091909190915060008201518160000160006101000a81548173ffffffffffffffffffffffffffffffffffffffff021916908373ffffffffffffffffffffffffffffffffffffffff16021790555060208201518160010160006101000a81548173ffffffffffffffffffffffffffffffffffffffff021916908373ffffffffffffffffffffffffffffffffffffffff160217905550604082015181600201555050600060056000858152602001908152602001600020805490509050600254811415610b73576000805b6005600087815260200190815260200160002080549050811015610a8657600560008781526020019081526020016000208181548110610a5d577f4e487b7100000000000000000000000000000000000000000000000000000000600052603260045260246000fd5b906000526020600020906003020160020154821891508080610a7e90611ba9565b9150506109f4565b506004600086815260200190815260200160002060006101000a81549060ff0219169055600560008681526020019081526020016000206000610ac9919061118f565b8573ffffffffffffffffffffffffffffffffffffffff16639d1ef17a82876040518363ffffffff1660e01b8152600401610b049291906119ce565b600060405180830381600087803b158015610b1e57600080fd5b505af1158015610b32573d6000803e3d6000fd5b505050507f6a1290516faaeb5da0920a17904ae2529a8b928c2893cbd08e49cd577ae97ec1818787604051610b6993929190611997565b60405180910390a1505b505050505050565b610b84826102fc565b610b8d81610c06565b610b978383610d02565b505050565b60007f01ffc9a7000000000000000000000000000000000000000000000000000000007bffffffffffffffffffffffffffffffffffffffffffffffffffffffff1916827bffffffffffffffffffffffffffffffffffffffffffffffffffffffff1916149050919050565b610c1781610c12610cfa565b610de3565b50565b610c24828261071a565b610cf657600160008084815260200190815260200160002060000160008373ffffffffffffffffffffffffffffffffffffffff1673ffffffffffffffffffffffffffffffffffffffff16815260200190815260200160002060006101000a81548160ff021916908315150217905550610c9b610cfa565b73ffffffffffffffffffffffffffffffffffffffff168173ffffffffffffffffffffffffffffffffffffffff16837f2f8788117e7eff1d82e926ec794901d17c78024a50270940304540a733656f0d60405160405180910390a45b5050565b600033905090565b610d0c828261071a565b15610ddf57600080600084815260200190815260200160002060000160008373ffffffffffffffffffffffffffffffffffffffff1673ffffffffffffffffffffffffffffffffffffffff16815260200190815260200160002060006101000a81548160ff021916908315150217905550610d84610cfa565b73ffffffffffffffffffffffffffffffffffffffff168173ffffffffffffffffffffffffffffffffffffffff16837ff6391f5c32d9c69d2a47ea670b442974b53935d1edc7fd64eb21e047a839171b60405160405180910390a45b5050565b610ded828261071a565b610e6457610dfa81610e68565b610e088360001c6020610e95565b604051602001610e19929190611769565b6040516020818303038152906040526040517f08c379a0000000000000000000000000000000000000000000000000000000008152600401610e5b919061185a565b60405180910390fd5b5050565b6060610e8e8273ffffffffffffffffffffffffffffffffffffffff16601460ff16610e95565b9050919050565b606060006002836002610ea89190611a74565b610eb29190611a1e565b67ffffffffffffffff811115610ef1577f4e487b7100000000000000000000000000000000000000000000000000000000600052604160045260246000fd5b6040519080825280601f01601f191660200182016040528015610f235781602001600182028036833780820191505090505b5090507f300000000000000000000000000000000000000000000000000000000000000081600081518110610f81577f4e487b7100000000000000000000000000000000000000000000000000000000600052603260045260246000fd5b60200101907effffffffffffffffffffffffffffffffffffffffffffffffffffffffffffff1916908160001a9053507f78000000000000000000000000000000000000000000000000000000000000008160018151811061100b577f4e487b7100000000000000000000000000000000000000000000000000000000600052603260045260246000fd5b60200101907effffffffffffffffffffffffffffffffffffffffffffffffffffffffffffff1916908160001a9053506000600184600261104b9190611a74565b6110559190611a1e565b90505b6001811115611141577f3031323334353637383961626364656600000000000000000000000000000000600f8616601081106110bd577f4e487b7100000000000000000000000000000000000000000000000000000000600052603260045260246000fd5b1a60f81b8282815181106110fa577f4e487b7100000000000000000000000000000000000000000000000000000000600052603260045260246000fd5b60200101907effffffffffffffffffffffffffffffffffffffffffffffffffffffffffffff1916908160001a905350600485901c94508061113a90611b7f565b9050611058565b5060008414611185576040517f08c379a000000000000000000000000000000000000000000000000000000000815260040161117c9061187c565b60405180910390fd5b8091505092915050565b50805460008255600302906000526020600020908101906111b091906111b3565b50565b5b8082111561121c57600080820160006101000a81549073ffffffffffffffffffffffffffffffffffffffff02191690556001820160006101000a81549073ffffffffffffffffffffffffffffffffffffffff02191690556002820160009055506003016111b4565b5090565b60008135905061122f81611ccd565b92915050565b60008135905061124481611ce4565b92915050565b60008135905061125981611cfb565b92915050565b60008135905061126e81611d12565b92915050565b60006020828403121561128657600080fd5b600061129484828501611220565b91505092915050565b6000602082840312156112af57600080fd5b60006112bd84828501611235565b91505092915050565b600080604083850312156112d957600080fd5b60006112e785828601611235565b92505060206112f885828601611220565b9150509250929050565b60006020828403121561131457600080fd5b60006113228482850161124a565b91505092915050565b60006020828403121561133d57600080fd5b600061134b8482850161125f565b91505092915050565b60008060006060848603121561136957600080fd5b60006113778682870161125f565b935050602061138886828701611220565b92505060406113998682870161125f565b9150509250925092565b6113ac81611ace565b82525050565b6113c36113be82611ace565b611bf2565b82525050565b6113d281611ae0565b82525050565b6113e181611aec565b82525050565b60006113f2826119f7565b6113fc8185611a02565b935061140c818560208601611b4c565b61141581611caf565b840191505092915050565b600061142b826119f7565b6114358185611a13565b9350611445818560208601611b4c565b80840191505092915050565b600061145e602083611a02565b91507f537472696e67733a20686578206c656e67746820696e73756666696369656e746000830152602082019050919050565b600061149e601783611a02565b91507f50726f766964657220616c72656164792061646465642e0000000000000000006000830152602082019050919050565b60006114de601983611a02565b91507f5468726573686f6c642063616e6e6f74206265207a65726f2e000000000000006000830152602082019050919050565b600061151e602083611a02565b91507f43616e6e6f742072656d6f766520746865206f6e6c792070726f76696465722e6000830152602082019050919050565b600061155e602183611a02565b91507f204e6f20646174612070726f766964657273206e6f742079657420616464656460008301527f2e000000000000000000000000000000000000000000000000000000000000006020830152604082019050919050565b60006115c4601283611a02565b91507f52657175657374206e6f7420666f756e642e00000000000000000000000000006000830152602082019050919050565b6000611604602583611a02565b91507f41646472657373206973206e6f742061207265636f676e697a65642070726f7660008301527f696465722e0000000000000000000000000000000000000000000000000000006020830152604082019050919050565b600061166a601783611a13565b91507f416363657373436f6e74726f6c3a206163636f756e74200000000000000000006000830152601782019050919050565b60006116aa601183611a13565b91507f206973206d697373696e6720726f6c65200000000000000000000000000000006000830152601182019050919050565b60006116ea602f83611a02565b91507f416363657373436f6e74726f6c3a2063616e206f6e6c792072656e6f756e636560008301527f20726f6c657320666f722073656c6600000000000000000000000000000000006020830152604082019050919050565b61174c81611b42565b82525050565b61176361175e82611b42565b611c16565b82525050565b60006117748261165d565b91506117808285611420565b915061178b8261169d565b91506117978284611420565b91508190509392505050565b60006117af8286611752565b6020820191506117bf82856113b2565b6014820191506117cf8284611752565b602082019150819050949350505050565b60006020820190506117f560008301846113a3565b92915050565b600060408201905061181060008301856113a3565b61181d6020830184611743565b9392505050565b600060208201905061183960008301846113c9565b92915050565b600060208201905061185460008301846113d8565b92915050565b6000602082019050818103600083015261187481846113e7565b905092915050565b6000602082019050818103600083015261189581611451565b9050919050565b600060208201905081810360008301526118b581611491565b9050919050565b600060208201905081810360008301526118d5816114d1565b9050919050565b600060208201905081810360008301526118f581611511565b9050919050565b6000602082019050818103600083015261191581611551565b9050919050565b60006020820190508181036000830152611935816115b7565b9050919050565b60006020820190508181036000830152611955816115f7565b9050919050565b60006020820190508181036000830152611975816116dd565b9050919050565b60006020820190506119916000830184611743565b92915050565b60006060820190506119ac6000830186611743565b6119b960208301856113a3565b6119c66040830184611743565b949350505050565b60006040820190506119e36000830185611743565b6119f06020830184611743565b9392505050565b600081519050919050565b600082825260208201905092915050565b600081905092915050565b6000611a2982611b42565b9150611a3483611b42565b9250827fffffffffffffffffffffffffffffffffffffffffffffffffffffffffffffffff03821115611a6957611a68611c51565b5b828201905092915050565b6000611a7f82611b42565b9150611a8a83611b42565b9250817fffffffffffffffffffffffffffffffffffffffffffffffffffffffffffffffff0483118215151615611ac357611ac2611c51565b5b828202905092915050565b6000611ad982611b22565b9050919050565b60008115159050919050565b6000819050919050565b60007fffffffff0000000000000000000000000000000000000000000000000000000082169050919050565b600073ffffffffffffffffffffffffffffffffffffffff82169050919050565b6000819050919050565b60005b83811015611b6a578082015181840152602081019050611b4f565b83811115611b79576000848401525b50505050565b6000611b8a82611b42565b91506000821415611b9e57611b9d611c51565b5b600182039050919050565b6000611bb482611b42565b91507fffffffffffffffffffffffffffffffffffffffffffffffffffffffffffffffff821415611be757611be6611c51565b5b600182019050919050565b6000611bfd82611c04565b9050919050565b6000611c0f82611cc0565b9050919050565b6000819050919050565b6000611c2b82611b42565b9150611c3683611b42565b925082611c4657611c45611c80565b5b828206905092915050565b7f4e487b7100000000000000000000000000000000000000000000000000000000600052601160045260246000fd5b7f4e487b7100000000000000000000000000000000000000000000000000000000600052601260045260246000fd5b6000601f19601f8301169050919050565b60008160601b9050919050565b611cd681611ace565b8114611ce157600080fd5b50565b611ced81611aec565b8114611cf857600080fd5b50565b611d0481611af6565b8114611d0f57600080fd5b50565b611d1b81611b42565b8114611d2657600080fd5b5056fea2646970667358221220dc2847ad82d3114a8be7c80fedc2255f9851edff4789e62f43926f50db93cf6964736f6c63430008000033",
  "linkReferences": {},
  "deployedLinkReferences": {}
}