{
  "_format": "hh-sol-artifact-1",
  "contractName": "ElectricityHub",
  "sourceName": "contracts/energyContracts/ElectricityHub.sol",
  "abi": [
    {
      "inputs": [
        {
          "internalType": "address",
          "name": "callerAddressInit",
          "type": "address"
        }
      ],
      "stateMutability": "nonpayable",
      "type": "constructor"
    },
    {
      "anonymous": false,
      "inputs": [
        {
          "indexed": false,
          "internalType": "uint256",
          "name": "kwhAmount",
          "type": "uint256"
        },
        {
          "indexed": true,
          "internalType": "address",
          "name": "newContract",
          "type": "address"
        }
      ],
      "name": "AuctionStarted",
      "type": "event"
    },
    {
      "inputs": [
        {
          "internalType": "address",
          "name": "provider",
          "type": "address"
        },
        {
          "internalType": "uint256",
          "name": "kwhAmount",
          "type": "uint256"
        }
      ],
      "name": "changeProvidedEnergy",
      "outputs": [],
      "stateMutability": "nonpayable",
      "type": "function"
    },
    {
      "inputs": [],
      "name": "distributePremium",
      "outputs": [],
      "stateMutability": "payable",
      "type": "function"
    },
    {
      "inputs": [],
      "name": "endMatureAuctions",
      "outputs": [],
      "stateMutability": "nonpayable",
      "type": "function"
    },
    {
      "inputs": [],
      "name": "getCurrentAuctions",
      "outputs": [
        {
          "components": [
            {
              "internalType": "uint256",
              "name": "start",
              "type": "uint256"
            },
            {
              "internalType": "contract ElectricityAuction",
              "name": "auction",
              "type": "address"
            }
          ],
          "internalType": "struct ElectricityHub.Auction[]",
          "name": "",
          "type": "tuple[]"
        }
      ],
      "stateMutability": "view",
      "type": "function"
    },
    {
      "inputs": [
        {
          "internalType": "uint256",
          "name": "kwhAmount",
          "type": "uint256"
        },
        {
          "internalType": "bool",
          "name": "isRenewable",
          "type": "bool"
        }
      ],
      "name": "provide",
      "outputs": [],
      "stateMutability": "nonpayable",
      "type": "function"
    },
    {
      "inputs": [],
      "name": "upgradeInterval",
      "outputs": [
        {
          "internalType": "uint256",
          "name": "",
          "type": "uint256"
        }
      ],
      "stateMutability": "view",
      "type": "function"
    }
  ],
  "bytecode": "0x6080604052603c6001553480156200001657600080fd5b5060405162002c8a38038062002c8a83398181016040528101906200003c9190620000dc565b33600660006101000a81548173ffffffffffffffffffffffffffffffffffffffff021916908373ffffffffffffffffffffffffffffffffffffffff16021790555080600560006101000a81548173ffffffffffffffffffffffffffffffffffffffff021916908373ffffffffffffffffffffffffffffffffffffffff1602179055505062000156565b600081519050620000d6816200013c565b92915050565b600060208284031215620000ef57600080fd5b6000620000ff84828501620000c5565b91505092915050565b600062000115826200011c565b9050919050565b600073ffffffffffffffffffffffffffffffffffffffff82169050919050565b620001478162000108565b81146200015357600080fd5b50565b612b2480620001666000396000f3fe6080604052600436106200005b5760003560e01c80627d02751462000060578063188e3308146200008e5780635a99042e14620000a85780635be53e7414620000d65780638abbd6381462000106578063cb7bfd471462000136575b600080fd5b3480156200006d57600080fd5b506200008c600480360381019062000086919062000bf2565b62000142565b005b3480156200009b57600080fd5b50620000a662000390565b005b348015620000b557600080fd5b50620000d46004803603810190620000ce919062000c33565b62000615565b005b348015620000e357600080fd5b50620000ee62000778565b604051620000fd919062000e50565b60405180910390f35b3480156200011357600080fd5b506200011e62000839565b6040516200012d919062000eb8565b60405180910390f35b620001406200083f565b005b6000805b6000805490508163ffffffff161080156200015f575081155b15620002275781806200020f575060008163ffffffff1681548110620001ae577f4e487b7100000000000000000000000000000000000000000000000000000000600052603260045260246000fd5b906000526020600020906002020160010160009054906101000a900473ffffffffffffffffffffffffffffffffffffffff1673ffffffffffffffffffffffffffffffffffffffff163373ffffffffffffffffffffffffffffffffffffffff16145b915080806200021e9062001132565b91505062000146565b50806200026b576040517f08c379a0000000000000000000000000000000000000000000000000000000008152600401620002629062000e96565b60405180910390fd5b81600460008282546200027f919062000f6c565b925050819055506000600360008573ffffffffffffffffffffffffffffffffffffffff1673ffffffffffffffffffffffffffffffffffffffff16815260200190815260200160002054141562000333576002839080600181540180825580915050600190039060005260206000200160009091909190916101000a81548173ffffffffffffffffffffffffffffffffffffffff021916908373ffffffffffffffffffffffffffffffffffffffff1602179055505b81600360008573ffffffffffffffffffffffffffffffffffffffff1673ffffffffffffffffffffffffffffffffffffffff168152602001908152602001600020600082825462000384919062000f6c565b92505081905550505050565b600660009054906101000a900473ffffffffffffffffffffffffffffffffffffffff1673ffffffffffffffffffffffffffffffffffffffff163373ffffffffffffffffffffffffffffffffffffffff161462000423576040517f08c379a00000000000000000000000000000000000000000000000000000000081526004016200041a9062000e74565b60405180910390fd5b60005b6000805490508163ffffffff16101562000612576000808263ffffffff16815481106200047c577f4e487b7100000000000000000000000000000000000000000000000000000000600052603260045260246000fd5b9060005260206000209060020201604051806040016040529081600082015481526020016001820160009054906101000a900473ffffffffffffffffffffffffffffffffffffffff1673ffffffffffffffffffffffffffffffffffffffff1673ffffffffffffffffffffffffffffffffffffffff1681525050905060015481600001516200050b919062000f6c565b421115620005fb57806020015173ffffffffffffffffffffffffffffffffffffffff1663fe67a54b6040518163ffffffff1660e01b8152600401600060405180830381600087803b1580156200056057600080fd5b505af115801562000575573d6000803e3d6000fd5b5050505060008263ffffffff1681548110620005ba577f4e487b7100000000000000000000000000000000000000000000000000000000600052603260045260246000fd5b90600052602060002090600202016000808201600090556001820160006101000a81549073ffffffffffffffffffffffffffffffffffffffff021916905550505b508080620006099062001132565b91505062000426565b50565b6000823383600560009054906101000a900473ffffffffffffffffffffffffffffffffffffffff166040516200064b9062000af1565b6200065a949392919062000ed5565b604051809103906000f08015801562000677573d6000803e3d6000fd5b509050600060405180604001604052804281526020018373ffffffffffffffffffffffffffffffffffffffff1681525090806001815401808255809150506001900390600052602060002090600202016000909190919091506000820151816000015560208201518160010160006101000a81548173ffffffffffffffffffffffffffffffffffffffff021916908373ffffffffffffffffffffffffffffffffffffffff16021790555050508073ffffffffffffffffffffffffffffffffffffffff167f16da476d7265fc95576888b93de4fa4849d6cea1228235887f569c6530ddfec1846040516200076b919062000eb8565b60405180910390a2505050565b60606000805480602002602001604051908101604052809291908181526020016000905b82821015620008305783829060005260206000209060020201604051806040016040529081600082015481526020016001820160009054906101000a900473ffffffffffffffffffffffffffffffffffffffff1673ffffffffffffffffffffffffffffffffffffffff1673ffffffffffffffffffffffffffffffffffffffff1681525050815260200190600101906200079c565b50505050905090565b60015481565b600660009054906101000a900473ffffffffffffffffffffffffffffffffffffffff1673ffffffffffffffffffffffffffffffffffffffff163373ffffffffffffffffffffffffffffffffffffffff1614620008d2576040517f08c379a0000000000000000000000000000000000000000000000000000000008152600401620008c99062000e74565b60405180910390fd5b600047905060005b60028054905081101562000a5b5760006002828154811062000925577f4e487b7100000000000000000000000000000000000000000000000000000000600052603260045260246000fd5b9060005260206000200160009054906101000a900473ffffffffffffffffffffffffffffffffffffffff1690506000600360008373ffffffffffffffffffffffffffffffffffffffff1673ffffffffffffffffffffffffffffffffffffffff168152602001908152602001600020549050600060045482620009a8919062000fc9565b90508273ffffffffffffffffffffffffffffffffffffffff166108fc8287620009d2919062001001565b9081150290604051600060405180830381858888f19350505050158015620009fe573d6000803e3d6000fd5b50600360008473ffffffffffffffffffffffffffffffffffffffff1673ffffffffffffffffffffffffffffffffffffffff16815260200190815260200160002060009055505050808062000a5290620010e4565b915050620008da565b506000600481905550600067ffffffffffffffff81111562000aa6577f4e487b7100000000000000000000000000000000000000000000000000000000600052604160045260246000fd5b60405190808252806020026020018201604052801562000ad55781602001602082028036833780820191505090505b506002908051906020019062000aed92919062000aff565b5050565b6118de806200121183390190565b82805482825590600052602060002090810192821562000b7b579160200282015b8281111562000b7a5782518260006101000a81548173ffffffffffffffffffffffffffffffffffffffff021916908373ffffffffffffffffffffffffffffffffffffffff1602179055509160200191906001019062000b20565b5b50905062000b8a919062000b8e565b5090565b5b8082111562000ba957600081600090555060010162000b8f565b5090565b60008135905062000bbe81620011c2565b92915050565b60008135905062000bd581620011dc565b92915050565b60008135905062000bec81620011f6565b92915050565b6000806040838503121562000c0657600080fd5b600062000c168582860162000bad565b925050602062000c298582860162000bdb565b9150509250929050565b6000806040838503121562000c4757600080fd5b600062000c578582860162000bdb565b925050602062000c6a8582860162000bc4565b9150509250929050565b600062000c82838362000dfb565b60408301905092915050565b62000c998162001062565b82525050565b600062000cac8262000f32565b62000cb8818562000f4a565b935062000cc58362000f22565b8060005b8381101562000cfc57815162000ce0888262000c74565b975062000ced8362000f3d565b92505060018101905062000cc9565b5085935050505092915050565b62000d148162001076565b82525050565b62000d2581620010bc565b82525050565b600062000d3a602a8362000f5b565b91507f46756e6374696f6e2063616e206f6e6c7920626520696e766f6b65642062792060008301527f746865206f776e65722c000000000000000000000000000000000000000000006020830152604082019050919050565b600062000da260378362000f5b565b91507f4368616e67652070726f766964656420656e65726779206973206f6e6c79206960008301527f6e766f6b61626c6520627920616e2061756374696f6e2e0000000000000000006020830152604082019050919050565b60408201600082015162000e13600085018262000e2e565b50602082015162000e28602085018262000d1a565b50505050565b62000e3981620010a2565b82525050565b62000e4a81620010a2565b82525050565b6000602082019050818103600083015262000e6c818462000c9f565b905092915050565b6000602082019050818103600083015262000e8f8162000d2b565b9050919050565b6000602082019050818103600083015262000eb18162000d93565b9050919050565b600060208201905062000ecf600083018462000e3f565b92915050565b600060808201905062000eec600083018762000e3f565b62000efb602083018662000c8e565b62000f0a604083018562000d09565b62000f19606083018462000c8e565b95945050505050565b6000819050602082019050919050565b600081519050919050565b6000602082019050919050565b600082825260208201905092915050565b600082825260208201905092915050565b600062000f7982620010a2565b915062000f8683620010a2565b9250827fffffffffffffffffffffffffffffffffffffffffffffffffffffffffffffffff0382111562000fbe5762000fbd62001164565b5b828201905092915050565b600062000fd682620010a2565b915062000fe383620010a2565b92508262000ff65762000ff562001193565b5b828204905092915050565b60006200100e82620010a2565b91506200101b83620010a2565b9250817fffffffffffffffffffffffffffffffffffffffffffffffffffffffffffffffff048311821515161562001057576200105662001164565b5b828202905092915050565b60006200106f8262001082565b9050919050565b60008115159050919050565b600073ffffffffffffffffffffffffffffffffffffffff82169050919050565b6000819050919050565b600063ffffffff82169050919050565b6000620010c982620010d0565b9050919050565b6000620010dd8262001082565b9050919050565b6000620010f182620010a2565b91507fffffffffffffffffffffffffffffffffffffffffffffffffffffffffffffffff82141562001127576200112662001164565b5b600182019050919050565b60006200113f82620010ac565b915063ffffffff82141562001159576200115862001164565b5b600182019050919050565b7f4e487b7100000000000000000000000000000000000000000000000000000000600052601160045260246000fd5b7f4e487b7100000000000000000000000000000000000000000000000000000000600052601260045260246000fd5b620011cd8162001062565b8114620011d957600080fd5b50565b620011e78162001076565b8114620011f357600080fd5b50565b6200120181620010a2565b81146200120d57600080fd5b5056fe608060405260006003556000600460006101000a81548173ffffffffffffffffffffffffffffffffffffffff021916908373ffffffffffffffffffffffffffffffffffffffff1602179055506001600460146101000a81548160ff0219169083151502179055506000600760146101000a81548160ff0219169083151502179055503480156200008e57600080fd5b50604051620018de380380620018de8339818101604052810190620000b4919062000321565b8360058190555082600660006101000a81548173ffffffffffffffffffffffffffffffffffffffff021916908373ffffffffffffffffffffffffffffffffffffffff16021790555081600660146101000a81548160ff02191690831515021790555033600760006101000a81548173ffffffffffffffffffffffffffffffffffffffff021916908373ffffffffffffffffffffffffffffffffffffffff160217905550806000806101000a81548173ffffffffffffffffffffffffffffffffffffffff021916908373ffffffffffffffffffffffffffffffffffffffff16021790555060008054906101000a900473ffffffffffffffffffffffffffffffffffffffff1673ffffffffffffffffffffffffffffffffffffffff16632c8a75266040518163ffffffff1660e01b81526004016040805180830381600087803b158015620001ff57600080fd5b505af115801562000214573d6000803e3d6000fd5b505050506040513d601f19601f820116820180604052508101906200023a9190620002f5565b600860008201518160000155602082015181600101559050505050505062000488565b6000815190506200026e816200043a565b92915050565b600081519050620002858162000454565b92915050565b6000604082840312156200029e57600080fd5b620002aa60406200038d565b90506000620002bc84828501620002de565b6000830152506020620002d284828501620002de565b60208301525092915050565b600081519050620002ef816200046e565b92915050565b6000604082840312156200030857600080fd5b600062000318848285016200028b565b91505092915050565b600080600080608085870312156200033857600080fd5b60006200034887828801620002de565b94505060206200035b878288016200025d565b93505060406200036e8782880162000274565b925050606062000381878288016200025d565b91505092959194509250565b6000604051905081810181811067ffffffffffffffff82111715620003b757620003b66200040b565b5b8060405250919050565b6000620003ce82620003e1565b9050919050565b60008115159050919050565b600073ffffffffffffffffffffffffffffffffffffffff82169050919050565b6000819050919050565b7f4e487b7100000000000000000000000000000000000000000000000000000000600052604160045260246000fd5b6200044581620003c1565b81146200045157600080fd5b50565b6200045f81620003d5565b81146200046b57600080fd5b50565b620004798162000401565b81146200048557600080fd5b50565b61144680620004986000396000f3fe6080604052600436106100555760003560e01c80631998aeef1461005a5780631bf1fffb146100645780639ed03b4c146100a1578063e5225381146100cc578063e7572230146100d6578063fe67a54b14610113575b600080fd5b61006261011d565b005b34801561007057600080fd5b5061008b60048036038101906100869190610da3565b6102b9565b60405161009891906110c3565b60405180910390f35b3480156100ad57600080fd5b506100b66102f0565b6040516100c391906110c3565b60405180910390f35b6100d46103ec565b005b3480156100e257600080fd5b506100fd60048036038101906100f89190610da3565b610860565b60405161010a91906110c3565b60405180910390f35b61011b61088a565b005b600460149054906101000a900460ff1661016c576040517f08c379a000000000000000000000000000000000000000000000000000000000815260040161016390611083565b60405180910390fd5b6000610179600554610860565b90508034101561018857600080fd5b60405180604001604052803373ffffffffffffffffffffffffffffffffffffffff168152602001600554346101bd919061116e565b815250600160003373ffffffffffffffffffffffffffffffffffffffff1673ffffffffffffffffffffffffffffffffffffffff16815260200190815260200160002060008201518160000160006101000a81548173ffffffffffffffffffffffffffffffffffffffff021916908373ffffffffffffffffffffffffffffffffffffffff160217905550602082015181600101559050506002339080600181540180825580915050600190039060005260206000200160009091909190916101000a81548173ffffffffffffffffffffffffffffffffffffffff021916908373ffffffffffffffffffffffffffffffffffffffff16021790555050565b60006103e8600860000154600860010154846102d5919061119f565b6102df919061119f565b6102e9919061116e565b9050919050565b6000600460149054906101000a900460ff1615610342576040517f08c379a000000000000000000000000000000000000000000000000000000000815260040161033990611043565b60405180910390fd5b3073ffffffffffffffffffffffffffffffffffffffff16631bf1fffb6005546040518263ffffffff1660e01b815260040161037d91906110c3565b60206040518083038186803b15801561039557600080fd5b505afa1580156103a9573d6000803e3d6000fd5b505050506040513d601f19601f820116820180604052508101906103cd9190610dcc565b6003546005546103dd919061119f565b6103e79190611118565b905090565b600460149054906101000a900460ff161561043c576040517f08c379a000000000000000000000000000000000000000000000000000000000815260040161043390611043565b60405180910390fd5b600460009054906101000a900473ffffffffffffffffffffffffffffffffffffffff1673ffffffffffffffffffffffffffffffffffffffff163373ffffffffffffffffffffffffffffffffffffffff16146104cc576040517f08c379a00000000000000000000000000000000000000000000000000000000081526004016104c390611023565b60405180910390fd5b6000600160003373ffffffffffffffffffffffffffffffffffffffff1673ffffffffffffffffffffffffffffffffffffffff1681526020019081526020016000206001015460055461051e919061119f565b9050600061052d600554610860565b90506000348361053d9190611118565b8261054891906111f9565b9050600081131561058e576040517f08c379a0000000000000000000000000000000000000000000000000000000008152600401610585906110a3565b60405180910390fd5b60008112156105f2576000816105a390611352565b90503373ffffffffffffffffffffffffffffffffffffffff166108fc829081150290604051600060405180830381858888f193505050501580156105eb573d6000803e3d6000fd5b5050610814565b600660149054906101000a900460ff161561072757600660009054906101000a900473ffffffffffffffffffffffffffffffffffffffff1673ffffffffffffffffffffffffffffffffffffffff166108fc839081150290604051600060405180830381858888f1935050505015801561066f573d6000803e3d6000fd5b50600760009054906101000a900473ffffffffffffffffffffffffffffffffffffffff1673ffffffffffffffffffffffffffffffffffffffff16627d0275600660009054906101000a900473ffffffffffffffffffffffffffffffffffffffff166005546040518363ffffffff1660e01b81526004016106f0929190610ffa565b600060405180830381600087803b15801561070a57600080fd5b505af115801561071e573d6000803e3d6000fd5b50505050610813565b600660009054906101000a900473ffffffffffffffffffffffffffffffffffffffff1673ffffffffffffffffffffffffffffffffffffffff166108fc600554600354610773919061119f565b9081150290604051600060405180830381858888f1935050505015801561079e573d6000803e3d6000fd5b50600760009054906101000a900473ffffffffffffffffffffffffffffffffffffffff1673ffffffffffffffffffffffffffffffffffffffff166108fc6107e66005546102b9565b9081150290604051600060405180830381858888f19350505050158015610811573d6000803e3d6000fd5b505b5b6001600760146101000a81548160ff0219169083151502179055507fdb8bc8d7abd54b4079284b6bf241a2f0ab8497993ab1cf3df37b3a5af1214b4560405160405180910390a1505050565b600061086b826102b9565b82600354610879919061119f565b6108839190611118565b9050919050565b600760009054906101000a900473ffffffffffffffffffffffffffffffffffffffff1673ffffffffffffffffffffffffffffffffffffffff163373ffffffffffffffffffffffffffffffffffffffff161461091a576040517f08c379a000000000000000000000000000000000000000000000000000000000815260040161091190611063565b60405180910390fd5b6000600460146101000a81548160ff021916908315150217905550600080610940610d49565b60005b600280549050811015610afa57600160006002838154811061098e577f4e487b7100000000000000000000000000000000000000000000000000000000600052603260045260246000fd5b9060005260206000200160009054906101000a900473ffffffffffffffffffffffffffffffffffffffff1673ffffffffffffffffffffffffffffffffffffffff1673ffffffffffffffffffffffffffffffffffffffff1681526020019081526020016000206040518060400160405290816000820160009054906101000a900473ffffffffffffffffffffffffffffffffffffffff1673ffffffffffffffffffffffffffffffffffffffff1673ffffffffffffffffffffffffffffffffffffffff168152602001600182015481525050915060008260000151905060008360200151905085811115610ac65781600460006101000a81548173ffffffffffffffffffffffffffffffffffffffff021916908373ffffffffffffffffffffffffffffffffffffffff160217905550859450809550610ade565b8481118015610ad457508581105b15610add578094505b5b8460038190555050508080610af290611309565b915050610943565b5060005b600280549050811015610ce6576001600060028381548110610b49577f4e487b7100000000000000000000000000000000000000000000000000000000600052603260045260246000fd5b9060005260206000200160009054906101000a900473ffffffffffffffffffffffffffffffffffffffff1673ffffffffffffffffffffffffffffffffffffffff1673ffffffffffffffffffffffffffffffffffffffff1681526020019081526020016000206040518060400160405290816000820160009054906101000a900473ffffffffffffffffffffffffffffffffffffffff1673ffffffffffffffffffffffffffffffffffffffff1673ffffffffffffffffffffffffffffffffffffffff1681526020016001820154815250509150600082600001519050600460009054906101000a900473ffffffffffffffffffffffffffffffffffffffff1673ffffffffffffffffffffffffffffffffffffffff168173ffffffffffffffffffffffffffffffffffffffff1614610cd2578073ffffffffffffffffffffffffffffffffffffffff166108fc6005548560200151610ca5919061119f565b9081150290604051600060405180830381858888f19350505050158015610cd0573d6000803e3d6000fd5b505b508080610cde90611309565b915050610afe565b507fc07789fac136048b605fef8e227ab89b2e33d8afc9ab4817d374197cd81443d6600354600460009054906101000a900473ffffffffffffffffffffffffffffffffffffffff16604051610d3c9291906110de565b60405180910390a1505050565b6040518060400160405280600073ffffffffffffffffffffffffffffffffffffffff168152602001600081525090565b600081359050610d88816113f9565b92915050565b600081519050610d9d816113f9565b92915050565b600060208284031215610db557600080fd5b6000610dc384828501610d79565b91505092915050565b600060208284031215610dde57600080fd5b6000610dec84828501610d8e565b91505092915050565b610dfe816112d3565b82525050565b610e0d8161128d565b82525050565b6000610e20602e83611107565b91507f4f6e6c79207468652077696e6e65722063616e20636f6c6c656374207468652060008301527f61756374696f6e2070726963652e0000000000000000000000000000000000006020830152604082019050919050565b6000610e86603583611107565b91507f46756e6374696f6e2063616e206f6e6c7920626520657865637574656420776860008301527f656e2061756374696f6e2068617320656e6465642e00000000000000000000006020830152604082019050919050565b6000610eec602a83611107565b91507f46756e6374696f6e2063616e206f6e6c7920626520696e766f6b65642062792060008301527f746865206f776e65722c000000000000000000000000000000000000000000006020830152604082019050919050565b6000610f52603583611107565b91507f46756e6374696f6e2063616e206f6e6c7920626520657865637574656420776860008301527f656e2061756374696f6e206973206163746976652e00000000000000000000006020830152604082019050919050565b6000610fb8601583611107565b91507f496e73756666696369656e742062616c616e63652e00000000000000000000006000830152602082019050919050565b610ff4816112c9565b82525050565b600060408201905061100f6000830185610df5565b61101c6020830184610feb565b9392505050565b6000602082019050818103600083015261103c81610e13565b9050919050565b6000602082019050818103600083015261105c81610e79565b9050919050565b6000602082019050818103600083015261107c81610edf565b9050919050565b6000602082019050818103600083015261109c81610f45565b9050919050565b600060208201905081810360008301526110bc81610fab565b9050919050565b60006020820190506110d86000830184610feb565b92915050565b60006040820190506110f36000830185610feb565b6111006020830184610e04565b9392505050565b600082825260208201905092915050565b6000611123826112c9565b915061112e836112c9565b9250827fffffffffffffffffffffffffffffffffffffffffffffffffffffffffffffffff038211156111635761116261139b565b5b828201905092915050565b6000611179826112c9565b9150611184836112c9565b925082611194576111936113ca565b5b828204905092915050565b60006111aa826112c9565b91506111b5836112c9565b9250817fffffffffffffffffffffffffffffffffffffffffffffffffffffffffffffffff04831182151516156111ee576111ed61139b565b5b828202905092915050565b60006112048261129f565b915061120f8361129f565b9250827f80000000000000000000000000000000000000000000000000000000000000000182126000841215161561124a5761124961139b565b5b827f7fffffffffffffffffffffffffffffffffffffffffffffffffffffffffffffff0182136000841216156112825761128161139b565b5b828203905092915050565b6000611298826112a9565b9050919050565b6000819050919050565b600073ffffffffffffffffffffffffffffffffffffffff82169050919050565b6000819050919050565b60006112de826112e5565b9050919050565b60006112f0826112f7565b9050919050565b6000611302826112a9565b9050919050565b6000611314826112c9565b91507fffffffffffffffffffffffffffffffffffffffffffffffffffffffffffffffff8214156113475761134661139b565b5b600182019050919050565b600061135d8261129f565b91507f80000000000000000000000000000000000000000000000000000000000000008214156113905761138f61139b565b5b816000039050919050565b7f4e487b7100000000000000000000000000000000000000000000000000000000600052601160045260246000fd5b7f4e487b7100000000000000000000000000000000000000000000000000000000600052601260045260246000fd5b611402816112c9565b811461140d57600080fd5b5056fea2646970667358221220d1f6805c3f49b04db77a290f97ac51c6ef8fcf734f9e842630f6d707deaffa3e64736f6c63430008000033a264697066735822122006a7a381aa063ad7f8396a2adc076d065221ad0ba6f3dbfc2c6a6a5b126a1e3264736f6c63430008000033",
  "linkReferences": {},
  "deployedLinkReferences": {}
}