{
  "_format": "hh-sol-artifact-1",
  "contractName": "ElectricityHub",
  "sourceName": "contracts/energyContracts/ElectricityHub.sol",
  "abi": [
    {
      "inputs": [
        {
          "internalType": "address",
          "name": "callerAddressInit",
          "type": "address"
        }
      ],
      "stateMutability": "nonpayable",
      "type": "constructor"
    },
    {
      "anonymous": false,
      "inputs": [
        {
          "indexed": false,
          "internalType": "uint256",
          "name": "kwhAmount",
          "type": "uint256"
        },
        {
          "indexed": true,
          "internalType": "address",
          "name": "newContract",
          "type": "address"
        }
      ],
      "name": "AuctionStarted",
      "type": "event"
    },
    {
      "anonymous": false,
      "inputs": [
        {
          "indexed": true,
          "internalType": "address",
          "name": "auction",
          "type": "address"
        }
      ],
      "name": "Auctionmatured",
      "type": "event"
    },
    {
      "anonymous": false,
      "inputs": [
        {
          "indexed": false,
          "internalType": "uint256",
          "name": "usedKwh",
          "type": "uint256"
        },
        {
          "indexed": true,
          "internalType": "address",
          "name": "consumer",
          "type": "address"
        }
      ],
      "name": "ElectricityUsed",
      "type": "event"
    },
    {
      "anonymous": false,
      "inputs": [
        {
          "indexed": true,
          "internalType": "address",
          "name": "provider",
          "type": "address"
        },
        {
          "indexed": false,
          "internalType": "uint256",
          "name": "amount",
          "type": "uint256"
        }
      ],
      "name": "PremiumDistributed",
      "type": "event"
    },
    {
      "anonymous": false,
      "inputs": [
        {
          "indexed": false,
          "internalType": "address",
          "name": "sender",
          "type": "address"
        },
        {
          "indexed": false,
          "internalType": "uint256",
          "name": "amount",
          "type": "uint256"
        }
      ],
      "name": "Received",
      "type": "event"
    },
    {
      "stateMutability": "payable",
      "type": "fallback"
    },
    {
      "inputs": [
        {
          "internalType": "address",
          "name": "provider",
          "type": "address"
        },
        {
          "internalType": "uint256",
          "name": "kwhAmount",
          "type": "uint256"
        }
      ],
      "name": "changeProvidedEnergy",
      "outputs": [],
      "stateMutability": "nonpayable",
      "type": "function"
    },
    {
      "inputs": [
        {
          "internalType": "uint256",
          "name": "kwhAmount",
          "type": "uint256"
        }
      ],
      "name": "decreaseEnergyBalance",
      "outputs": [],
      "stateMutability": "nonpayable",
      "type": "function"
    },
    {
      "inputs": [],
      "name": "distributePremium",
      "outputs": [],
      "stateMutability": "payable",
      "type": "function"
    },
    {
      "inputs": [],
      "name": "endMatureAuctions",
      "outputs": [],
      "stateMutability": "nonpayable",
      "type": "function"
    },
    {
      "inputs": [
        {
          "internalType": "address",
          "name": "",
          "type": "address"
        }
      ],
      "name": "energyBalance",
      "outputs": [
        {
          "internalType": "uint256",
          "name": "",
          "type": "uint256"
        }
      ],
      "stateMutability": "view",
      "type": "function"
    },
    {
      "inputs": [],
      "name": "getCurrentAuctions",
      "outputs": [
        {
          "components": [
            {
              "internalType": "uint256",
              "name": "start",
              "type": "uint256"
            },
            {
              "internalType": "contract ElectricityAuction",
              "name": "auction",
              "type": "address"
            }
          ],
          "internalType": "struct ElectricityHub.Auction[]",
          "name": "",
          "type": "tuple[]"
        }
      ],
      "stateMutability": "view",
      "type": "function"
    },
    {
      "inputs": [
        {
          "internalType": "address",
          "name": "consumer",
          "type": "address"
        }
      ],
      "name": "getEnergyBalance",
      "outputs": [
        {
          "internalType": "uint256",
          "name": "",
          "type": "uint256"
        }
      ],
      "stateMutability": "view",
      "type": "function"
    },
    {
      "inputs": [
        {
          "internalType": "uint256",
          "name": "kwhAmount",
          "type": "uint256"
        },
        {
          "internalType": "bool",
          "name": "isRenewable",
          "type": "bool"
        }
      ],
      "name": "provide",
      "outputs": [],
      "stateMutability": "nonpayable",
      "type": "function"
    },
    {
      "inputs": [
        {
          "internalType": "address",
          "name": "consumer",
          "type": "address"
        },
        {
          "internalType": "uint256",
          "name": "kwhAmount",
          "type": "uint256"
        }
      ],
      "name": "setEnergyBalance",
      "outputs": [],
      "stateMutability": "payable",
      "type": "function"
    },
    {
      "inputs": [],
      "name": "upgradeInterval",
      "outputs": [
        {
          "internalType": "uint256",
          "name": "",
          "type": "uint256"
        }
      ],
      "stateMutability": "view",
      "type": "function"
    },
    {
      "stateMutability": "payable",
      "type": "receive"
    }
  ],
  "bytecode": "0x6080604052603c6001553480156200001657600080fd5b50604051620033303803806200333083398181016040528101906200003c9190620000dc565b33600860006101000a81548173ffffffffffffffffffffffffffffffffffffffff021916908373ffffffffffffffffffffffffffffffffffffffff16021790555080600760006101000a81548173ffffffffffffffffffffffffffffffffffffffff021916908373ffffffffffffffffffffffffffffffffffffffff1602179055505062000156565b600081519050620000d6816200013c565b92915050565b600060208284031215620000ef57600080fd5b6000620000ff84828501620000c5565b91505092915050565b600062000115826200011c565b9050919050565b600073ffffffffffffffffffffffffffffffffffffffff82169050919050565b620001478162000108565b81146200015357600080fd5b50565b6131ca80620001666000396000f3fe608060405260043610620000a25760003560e01c80635be53e7411620000615780635be53e74146200020a5780638abbd638146200023a578063cb7bfd47146200026a578063d4ffef721462000276578063ed7653e7146200029657620000e5565b80627d02751462000122578063188e3308146200015057806346352b58146200016a5780634eb216ea14620001ae5780635a99042e14620001dc57620000e5565b36620000e5577f88a5966d370b9919b20f3e2c13ff65706f196a4e32cc2c12bf57088f885258743334604051620000db92919062001493565b60405180910390a1005b7f88a5966d370b9919b20f3e2c13ff65706f196a4e32cc2c12bf57088f8852587433346040516200011892919062001493565b60405180910390a1005b3480156200012f57600080fd5b506200014e60048036038101906200014891906200117b565b620002da565b005b3480156200015d57600080fd5b50620001686200048d565b005b3480156200017757600080fd5b506200019660048036038101906200019091906200114f565b6200078c565b604051620001a591906200154a565b60405180910390f35b348015620001bb57600080fd5b50620001da6004803603810190620001d49190620011bc565b620007d5565b005b348015620001e957600080fd5b50620002086004803603810190620002029190620011e8565b62000982565b005b3480156200021757600080fd5b506200022262000b3d565b604051620002319190620014c0565b60405180910390f35b3480156200024757600080fd5b506200025262000bfe565b6040516200026191906200154a565b60405180910390f35b6200027462000c04565b005b6200029460048036038101906200028e91906200117b565b62000f13565b005b348015620002a357600080fd5b50620002c26004803603810190620002bc91906200114f565b62001036565b604051620002d191906200154a565b60405180910390f35b600260003373ffffffffffffffffffffffffffffffffffffffff1673ffffffffffffffffffffffffffffffffffffffff16815260200190815260200160002060009054906101000a900460ff1662000369576040517f08c379a0000000000000000000000000000000000000000000000000000000008152600401620003609062001506565b60405180910390fd5b80600660008282546200037d9190620015fe565b925050819055506000600560008473ffffffffffffffffffffffffffffffffffffffff1673ffffffffffffffffffffffffffffffffffffffff16815260200190815260200160002054141562000431576004829080600181540180825580915050600190039060005260206000200160009091909190916101000a81548173ffffffffffffffffffffffffffffffffffffffff021916908373ffffffffffffffffffffffffffffffffffffffff1602179055505b80600560008473ffffffffffffffffffffffffffffffffffffffff1673ffffffffffffffffffffffffffffffffffffffff1681526020019081526020016000206000828254620004829190620015fe565b925050819055505050565b600860009054906101000a900473ffffffffffffffffffffffffffffffffffffffff1673ffffffffffffffffffffffffffffffffffffffff163373ffffffffffffffffffffffffffffffffffffffff161462000520576040517f08c379a00000000000000000000000000000000000000000000000000000000081526004016200051790620014e4565b60405180910390fd5b60005b6000805490508163ffffffff16101562000789576000808263ffffffff168154811062000579577f4e487b7100000000000000000000000000000000000000000000000000000000600052603260045260246000fd5b9060005260206000209060020201905060015481600001546200059d9190620015fe565b42118015620005fd5750600073ffffffffffffffffffffffffffffffffffffffff168160010160009054906101000a900473ffffffffffffffffffffffffffffffffffffffff1673ffffffffffffffffffffffffffffffffffffffff1614155b1562000772578060010160009054906101000a900473ffffffffffffffffffffffffffffffffffffffff1673ffffffffffffffffffffffffffffffffffffffff1663fe67a54b6040518163ffffffff1660e01b8152600401600060405180830381600087803b1580156200067057600080fd5b505af115801562000685573d6000803e3d6000fd5b505050508060010160009054906101000a900473ffffffffffffffffffffffffffffffffffffffff1673ffffffffffffffffffffffffffffffffffffffff167f42b0e8190fd204dd5cdb77a0c93561d9fc7f35619247c327d1dd82eb5808229c60405160405180910390a260008263ffffffff168154811062000731577f4e487b7100000000000000000000000000000000000000000000000000000000600052603260045260246000fd5b90600052602060002090600202016000808201600090556001820160006101000a81549073ffffffffffffffffffffffffffffffffffffffff021916905550505b5080806200078090620017ff565b91505062000523565b50565b6000600360008373ffffffffffffffffffffffffffffffffffffffff1673ffffffffffffffffffffffffffffffffffffffff168152602001908152602001600020549050919050565b600033905081600360008373ffffffffffffffffffffffffffffffffffffffff1673ffffffffffffffffffffffffffffffffffffffff1681526020019081526020016000205410156200085f576040517f08c379a0000000000000000000000000000000000000000000000000000000008152600401620008569062001528565b60405180910390fd5b81600360008373ffffffffffffffffffffffffffffffffffffffff1673ffffffffffffffffffffffffffffffffffffffff16815260200190815260200160002054620008ac9190620016f4565b600360008373ffffffffffffffffffffffffffffffffffffffff1673ffffffffffffffffffffffffffffffffffffffff168152602001908152602001600020819055508073ffffffffffffffffffffffffffffffffffffffff167fd16754b1a5a11d5ebf480f243ff9c3824ae811ddba5c1543d385261eff548ee1600360008473ffffffffffffffffffffffffffffffffffffffff1673ffffffffffffffffffffffffffffffffffffffff168152602001908152602001600020546040516200097691906200154a565b60405180910390a25050565b6000823383600760009054906101000a900473ffffffffffffffffffffffffffffffffffffffff16604051620009b8906200104e565b620009c7949392919062001567565b604051809103906000f080158015620009e4573d6000803e3d6000fd5b5090506001600260008373ffffffffffffffffffffffffffffffffffffffff1673ffffffffffffffffffffffffffffffffffffffff16815260200190815260200160002060006101000a81548160ff021916908315150217905550600060405180604001604052804281526020018373ffffffffffffffffffffffffffffffffffffffff1681525090806001815401808255809150506001900390600052602060002090600202016000909190919091506000820151816000015560208201518160010160006101000a81548173ffffffffffffffffffffffffffffffffffffffff021916908373ffffffffffffffffffffffffffffffffffffffff16021790555050508073ffffffffffffffffffffffffffffffffffffffff167f16da476d7265fc95576888b93de4fa4849d6cea1228235887f569c6530ddfec18460405162000b3091906200154a565b60405180910390a2505050565b60606000805480602002602001604051908101604052809291908181526020016000905b8282101562000bf55783829060005260206000209060020201604051806040016040529081600082015481526020016001820160009054906101000a900473ffffffffffffffffffffffffffffffffffffffff1673ffffffffffffffffffffffffffffffffffffffff1673ffffffffffffffffffffffffffffffffffffffff16815250508152602001906001019062000b61565b50505050905090565b60015481565b600860009054906101000a900473ffffffffffffffffffffffffffffffffffffffff1673ffffffffffffffffffffffffffffffffffffffff163373ffffffffffffffffffffffffffffffffffffffff161462000c97576040517f08c379a000000000000000000000000000000000000000000000000000000000815260040162000c8e90620014e4565b60405180910390fd5b600047905060005b60048054905081101562000e7d5760006004828154811062000cea577f4e487b7100000000000000000000000000000000000000000000000000000000600052603260045260246000fd5b9060005260206000200160009054906101000a900473ffffffffffffffffffffffffffffffffffffffff1690506000600560008373ffffffffffffffffffffffffffffffffffffffff1673ffffffffffffffffffffffffffffffffffffffff16815260200190815260200160002054905060006006548262000d6d91906200165b565b90508273ffffffffffffffffffffffffffffffffffffffff166108fc828762000d97919062001693565b9081150290604051600060405180830381858888f1935050505015801562000dc3573d6000803e3d6000fd5b508273ffffffffffffffffffffffffffffffffffffffff167f33798b4297ef6b211addd8421ab89981de2a0b8a2da7f2ed5ae66a7bdd676e43828762000e0a919062001693565b60405162000e1991906200154a565b60405180910390a2600560008473ffffffffffffffffffffffffffffffffffffffff1673ffffffffffffffffffffffffffffffffffffffff16815260200190815260200160002060009055505050808062000e7490620017b1565b91505062000c9f565b506000600681905550600067ffffffffffffffff81111562000ec8577f4e487b7100000000000000000000000000000000000000000000000000000000600052604160045260246000fd5b60405190808252806020026020018201604052801562000ef75781602001602082028036833780820191505090505b506004908051906020019062000f0f9291906200105c565b5050565b600260003373ffffffffffffffffffffffffffffffffffffffff1673ffffffffffffffffffffffffffffffffffffffff16815260200190815260200160002060009054906101000a900460ff1662000fa2576040517f08c379a000000000000000000000000000000000000000000000000000000000815260040162000f999062001506565b60405180910390fd5b80600360008473ffffffffffffffffffffffffffffffffffffffff1673ffffffffffffffffffffffffffffffffffffffff1681526020019081526020016000205462000fef9190620015fe565b600360008473ffffffffffffffffffffffffffffffffffffffff1673ffffffffffffffffffffffffffffffffffffffff168152602001908152602001600020819055505050565b60036020528060005260406000206000915090505481565b6118b780620018de83390190565b828054828255906000526020600020908101928215620010d8579160200282015b82811115620010d75782518260006101000a81548173ffffffffffffffffffffffffffffffffffffffff021916908373ffffffffffffffffffffffffffffffffffffffff160217905550916020019190600101906200107d565b5b509050620010e79190620010eb565b5090565b5b8082111562001106576000816000905550600101620010ec565b5090565b6000813590506200111b816200188f565b92915050565b6000813590506200113281620018a9565b92915050565b6000813590506200114981620018c3565b92915050565b6000602082840312156200116257600080fd5b600062001172848285016200110a565b91505092915050565b600080604083850312156200118f57600080fd5b60006200119f858286016200110a565b9250506020620011b28582860162001138565b9150509250929050565b600060208284031215620011cf57600080fd5b6000620011df8482850162001138565b91505092915050565b60008060408385031215620011fc57600080fd5b60006200120c8582860162001138565b92505060206200121f8582860162001121565b9150509250929050565b60006200123783836200143e565b60408301905092915050565b6200124e816200172f565b82525050565b60006200126182620015c4565b6200126d8185620015dc565b93506200127a83620015b4565b8060005b83811015620012b157815162001295888262001229565b9750620012a283620015cf565b9250506001810190506200127e565b5085935050505092915050565b620012c98162001743565b82525050565b620012da8162001789565b82525050565b6000620012ef602a83620015ed565b91507f46756e6374696f6e2063616e206f6e6c7920626520696e766f6b65642062792060008301527f746865206f776e65722c000000000000000000000000000000000000000000006020830152604082019050919050565b600062001357603783620015ed565b91507f4368616e67652070726f766964656420656e65726779206973206f6e6c79206960008301527f6e766f6b61626c6520627920616e2061756374696f6e2e0000000000000000006020830152604082019050919050565b6000620013bf604183620015ed565b91507f54686520656e657267792062616c616e6365206d75737420626520677265617460008301527f6572206f7220657175616c732074686520636f6e73756d656420616d6f756e7460208301527f2e000000000000000000000000000000000000000000000000000000000000006040830152606082019050919050565b60408201600082015162001456600085018262001471565b5060208201516200146b6020850182620012cf565b50505050565b6200147c816200176f565b82525050565b6200148d816200176f565b82525050565b6000604082019050620014aa600083018562001243565b620014b9602083018462001482565b9392505050565b60006020820190508181036000830152620014dc818462001254565b905092915050565b60006020820190508181036000830152620014ff81620012e0565b9050919050565b60006020820190508181036000830152620015218162001348565b9050919050565b600060208201905081810360008301526200154381620013b0565b9050919050565b600060208201905062001561600083018462001482565b92915050565b60006080820190506200157e600083018762001482565b6200158d602083018662001243565b6200159c6040830185620012be565b620015ab606083018462001243565b95945050505050565b6000819050602082019050919050565b600081519050919050565b6000602082019050919050565b600082825260208201905092915050565b600082825260208201905092915050565b60006200160b826200176f565b915062001618836200176f565b9250827fffffffffffffffffffffffffffffffffffffffffffffffffffffffffffffffff0382111562001650576200164f62001831565b5b828201905092915050565b600062001668826200176f565b915062001675836200176f565b92508262001688576200168762001860565b5b828204905092915050565b6000620016a0826200176f565b9150620016ad836200176f565b9250817fffffffffffffffffffffffffffffffffffffffffffffffffffffffffffffffff0483118215151615620016e957620016e862001831565b5b828202905092915050565b600062001701826200176f565b91506200170e836200176f565b92508282101562001724576200172362001831565b5b828203905092915050565b60006200173c826200174f565b9050919050565b60008115159050919050565b600073ffffffffffffffffffffffffffffffffffffffff82169050919050565b6000819050919050565b600063ffffffff82169050919050565b600062001796826200179d565b9050919050565b6000620017aa826200174f565b9050919050565b6000620017be826200176f565b91507fffffffffffffffffffffffffffffffffffffffffffffffffffffffffffffffff821415620017f457620017f362001831565b5b600182019050919050565b60006200180c8262001779565b915063ffffffff82141562001826576200182562001831565b5b600182019050919050565b7f4e487b7100000000000000000000000000000000000000000000000000000000600052601160045260246000fd5b7f4e487b7100000000000000000000000000000000000000000000000000000000600052601260045260246000fd5b6200189a816200172f565b8114620018a657600080fd5b50565b620018b48162001743565b8114620018c057600080fd5b50565b620018ce816200176f565b8114620018da57600080fd5b5056fe608060405260006003556000600460006101000a81548173ffffffffffffffffffffffffffffffffffffffff021916908373ffffffffffffffffffffffffffffffffffffffff1602179055506001600460146101000a81548160ff0219169083151502179055506000600760146101000a81548160ff0219169083151502179055503480156200008e57600080fd5b50604051620018b7380380620018b78339818101604052810190620000b4919062000321565b8360058190555082600660006101000a81548173ffffffffffffffffffffffffffffffffffffffff021916908373ffffffffffffffffffffffffffffffffffffffff16021790555081600660146101000a81548160ff02191690831515021790555033600760006101000a81548173ffffffffffffffffffffffffffffffffffffffff021916908373ffffffffffffffffffffffffffffffffffffffff160217905550806000806101000a81548173ffffffffffffffffffffffffffffffffffffffff021916908373ffffffffffffffffffffffffffffffffffffffff16021790555060008054906101000a900473ffffffffffffffffffffffffffffffffffffffff1673ffffffffffffffffffffffffffffffffffffffff16632c8a75266040518163ffffffff1660e01b81526004016040805180830381600087803b158015620001ff57600080fd5b505af115801562000214573d6000803e3d6000fd5b505050506040513d601f19601f820116820180604052508101906200023a9190620002f5565b600860008201518160000155602082015181600101559050505050505062000488565b6000815190506200026e816200043a565b92915050565b600081519050620002858162000454565b92915050565b6000604082840312156200029e57600080fd5b620002aa60406200038d565b90506000620002bc84828501620002de565b6000830152506020620002d284828501620002de565b60208301525092915050565b600081519050620002ef816200046e565b92915050565b6000604082840312156200030857600080fd5b600062000318848285016200028b565b91505092915050565b600080600080608085870312156200033857600080fd5b60006200034887828801620002de565b94505060206200035b878288016200025d565b93505060406200036e8782880162000274565b925050606062000381878288016200025d565b91505092959194509250565b6000604051905081810181811067ffffffffffffffff82111715620003b757620003b66200040b565b5b8060405250919050565b6000620003ce82620003e1565b9050919050565b60008115159050919050565b600073ffffffffffffffffffffffffffffffffffffffff82169050919050565b6000819050919050565b7f4e487b7100000000000000000000000000000000000000000000000000000000600052604160045260246000fd5b6200044581620003c1565b81146200045157600080fd5b50565b6200045f81620003d5565b81146200046b57600080fd5b50565b620004798162000401565b81146200048557600080fd5b50565b61141f80620004986000396000f3fe60806040526004361061004a5760003560e01c80631998aeef1461004f5780637258217114610059578063c974402914610084578063e5225381146100af578063fe67a54b146100b9575b600080fd5b6100576100c3565b005b34801561006557600080fd5b5061006e6102e3565b60405161007b919061114f565b60405180910390f35b34801561009057600080fd5b506100996103d2565b6040516100a6919061114f565b60405180910390f35b6100b7610409565b005b6100c16108c2565b005b600460149054906101000a900460ff16610112576040517f08c379a00000000000000000000000000000000000000000000000000000000081526004016101099061110f565b60405180910390fd5b600061011c6103d2565b905080341015610161576040517f08c379a00000000000000000000000000000000000000000000000000000000081526004016101589061112f565b60405180910390fd5b60405180604001604052803373ffffffffffffffffffffffffffffffffffffffff16815260200160055483346101979190611285565b6101a191906111fa565b815250600160003373ffffffffffffffffffffffffffffffffffffffff1673ffffffffffffffffffffffffffffffffffffffff16815260200190815260200160002060008201518160000160006101000a81548173ffffffffffffffffffffffffffffffffffffffff021916908373ffffffffffffffffffffffffffffffffffffffff160217905550602082015181600101559050506002339080600181540180825580915050600190039060005260206000200160009091909190916101000a81548173ffffffffffffffffffffffffffffffffffffffff021916908373ffffffffffffffffffffffffffffffffffffffff1602179055507f3fabff0a9c3ecd6814702e247fa9733e5d0aa69e3a38590f92cb18f623a2254d33600554346102ca91906111fa565b6040516102d8929190611066565b60405180910390a150565b6000600460149054906101000a900460ff1615610335576040517f08c379a000000000000000000000000000000000000000000000000000000000815260040161032c906110af565b60405180910390fd5b3073ffffffffffffffffffffffffffffffffffffffff1663c97440296040518163ffffffff1660e01b815260040160206040518083038186803b15801561037b57600080fd5b505afa15801561038f573d6000803e3d6000fd5b505050506040513d601f19601f820116820180604052508101906103b39190610da9565b6003546005546103c3919061122b565b6103cd91906111a4565b905090565b60006103e86008600001546008600101546005546103f0919061122b565b6103fa919061122b565b61040491906111fa565b905090565b600460149054906101000a900460ff1615610459576040517f08c379a0000000000000000000000000000000000000000000000000000000008152600401610450906110af565b60405180910390fd5b600460009054906101000a900473ffffffffffffffffffffffffffffffffffffffff1673ffffffffffffffffffffffffffffffffffffffff163373ffffffffffffffffffffffffffffffffffffffff16146104e9576040517f08c379a00000000000000000000000000000000000000000000000000000000081526004016104e09061108f565b60405180910390fd5b600760009054906101000a900473ffffffffffffffffffffffffffffffffffffffff1673ffffffffffffffffffffffffffffffffffffffff1663d4ffef72336005546040518363ffffffff1660e01b8152600401610548929190611066565b600060405180830381600087803b15801561056257600080fd5b505af1158015610576573d6000803e3d6000fd5b505050506001600760146101000a81548160ff021916908315150217905550600660149054906101000a900460ff16156107795760006105b46102e3565b9050600760009054906101000a900473ffffffffffffffffffffffffffffffffffffffff1673ffffffffffffffffffffffffffffffffffffffff16627d0275600660009054906101000a900473ffffffffffffffffffffffffffffffffffffffff166005546040518363ffffffff1660e01b815260040161063692919061103d565b600060405180830381600087803b15801561065057600080fd5b505af1158015610664573d6000803e3d6000fd5b50505050600660009054906101000a900473ffffffffffffffffffffffffffffffffffffffff1673ffffffffffffffffffffffffffffffffffffffff166108fc829081150290604051600060405180830381858888f193505050501580156106d0573d6000803e3d6000fd5b5060004790506000600460009054906101000a900473ffffffffffffffffffffffffffffffffffffffff1673ffffffffffffffffffffffffffffffffffffffff166108fc839081150290604051600060405180830381858888f19350505050905080610771576040517f08c379a0000000000000000000000000000000000000000000000000000000008152600401610768906110cf565b60405180910390fd5b505050610894565b600660009054906101000a900473ffffffffffffffffffffffffffffffffffffffff1673ffffffffffffffffffffffffffffffffffffffff166108fc6005546003546107c5919061122b565b9081150290604051600060405180830381858888f193505050501580156107f0573d6000803e3d6000fd5b5060004790506000600760009054906101000a900473ffffffffffffffffffffffffffffffffffffffff1673ffffffffffffffffffffffffffffffffffffffff166108fc839081150290604051600060405180830381858888f19350505050905080610891576040517f08c379a0000000000000000000000000000000000000000000000000000000008152600401610888906110cf565b60405180910390fd5b50505b7fdb8bc8d7abd54b4079284b6bf241a2f0ab8497993ab1cf3df37b3a5af1214b4560405160405180910390a1565b600760009054906101000a900473ffffffffffffffffffffffffffffffffffffffff1673ffffffffffffffffffffffffffffffffffffffff163373ffffffffffffffffffffffffffffffffffffffff1614610952576040517f08c379a0000000000000000000000000000000000000000000000000000000008152600401610949906110ef565b60405180910390fd5b6000600460146101000a81548160ff021916908315150217905550600080610978610d64565b6000805b600280549050811015610af55760016000600283815481106109c7577f4e487b7100000000000000000000000000000000000000000000000000000000600052603260045260246000fd5b9060005260206000200160009054906101000a900473ffffffffffffffffffffffffffffffffffffffff1673ffffffffffffffffffffffffffffffffffffffff1673ffffffffffffffffffffffffffffffffffffffff1681526020019081526020016000206040518060400160405290816000820160009054906101000a900473ffffffffffffffffffffffffffffffffffffffff1673ffffffffffffffffffffffffffffffffffffffff1673ffffffffffffffffffffffffffffffffffffffff168152602001600182015481525050925060008360000151905060008460200151905086811115610ac157819350869550809650610ad9565b8581118015610acf57508681105b15610ad8578095505b5b8560038190555050508080610aed9061132b565b91505061097c565b5080600460006101000a81548173ffffffffffffffffffffffffffffffffffffffff021916908373ffffffffffffffffffffffffffffffffffffffff16021790555060005b600280549050811015610d00576001600060028381548110610b85577f4e487b7100000000000000000000000000000000000000000000000000000000600052603260045260246000fd5b9060005260206000200160009054906101000a900473ffffffffffffffffffffffffffffffffffffffff1673ffffffffffffffffffffffffffffffffffffffff1673ffffffffffffffffffffffffffffffffffffffff1681526020019081526020016000206040518060400160405290816000820160009054906101000a900473ffffffffffffffffffffffffffffffffffffffff1673ffffffffffffffffffffffffffffffffffffffff1673ffffffffffffffffffffffffffffffffffffffff16815260200160018201548152505092506000836000015190508273ffffffffffffffffffffffffffffffffffffffff168173ffffffffffffffffffffffffffffffffffffffff1614610cec578073ffffffffffffffffffffffffffffffffffffffff166108fc6005548660200151610cbf919061122b565b9081150290604051600060405180830381858888f19350505050158015610cea573d6000803e3d6000fd5b505b508080610cf89061132b565b915050610b3a565b507fc07789fac136048b605fef8e227ab89b2e33d8afc9ab4817d374197cd81443d6600354600460009054906101000a900473ffffffffffffffffffffffffffffffffffffffff16604051610d5692919061116a565b60405180910390a150505050565b6040518060400160405280600073ffffffffffffffffffffffffffffffffffffffff168152602001600081525090565b600081519050610da3816113d2565b92915050565b600060208284031215610dbb57600080fd5b6000610dc984828501610d94565b91505092915050565b610ddb816112f5565b82525050565b610dea816112b9565b82525050565b6000610dfd602e83611193565b91507f4f6e6c79207468652077696e6e65722063616e20636f6c6c656374207468652060008301527f61756374696f6e2070726963652e0000000000000000000000000000000000006020830152604082019050919050565b6000610e63603583611193565b91507f46756e6374696f6e2063616e206f6e6c7920626520657865637574656420776860008301527f656e2061756374696f6e2068617320656e6465642e00000000000000000000006020830152604082019050919050565b6000610ec9600f83611193565b91507f5472616e73666572206661696c656400000000000000000000000000000000006000830152602082019050919050565b6000610f09602a83611193565b91507f46756e6374696f6e2063616e206f6e6c7920626520696e766f6b65642062792060008301527f746865206f776e65722c000000000000000000000000000000000000000000006020830152604082019050919050565b6000610f6f603583611193565b91507f46756e6374696f6e2063616e206f6e6c7920626520657865637574656420776860008301527f656e2061756374696f6e206973206163746976652e00000000000000000000006020830152604082019050919050565b6000610fd5603d83611193565b91507f56616c75652073686f756c64206174206c6561737420636f766572207468652060008301527f7072656d69756d207061696420666f72207468652061756374696f6e2e0000006020830152604082019050919050565b611037816112eb565b82525050565b60006040820190506110526000830185610dd2565b61105f602083018461102e565b9392505050565b600060408201905061107b6000830185610de1565b611088602083018461102e565b9392505050565b600060208201905081810360008301526110a881610df0565b9050919050565b600060208201905081810360008301526110c881610e56565b9050919050565b600060208201905081810360008301526110e881610ebc565b9050919050565b6000602082019050818103600083015261110881610efc565b9050919050565b6000602082019050818103600083015261112881610f62565b9050919050565b6000602082019050818103600083015261114881610fc8565b9050919050565b6000602082019050611164600083018461102e565b92915050565b600060408201905061117f600083018561102e565b61118c6020830184610de1565b9392505050565b600082825260208201905092915050565b60006111af826112eb565b91506111ba836112eb565b9250827fffffffffffffffffffffffffffffffffffffffffffffffffffffffffffffffff038211156111ef576111ee611374565b5b828201905092915050565b6000611205826112eb565b9150611210836112eb565b9250826112205761121f6113a3565b5b828204905092915050565b6000611236826112eb565b9150611241836112eb565b9250817fffffffffffffffffffffffffffffffffffffffffffffffffffffffffffffffff048311821515161561127a57611279611374565b5b828202905092915050565b6000611290826112eb565b915061129b836112eb565b9250828210156112ae576112ad611374565b5b828203905092915050565b60006112c4826112cb565b9050919050565b600073ffffffffffffffffffffffffffffffffffffffff82169050919050565b6000819050919050565b600061130082611307565b9050919050565b600061131282611319565b9050919050565b6000611324826112cb565b9050919050565b6000611336826112eb565b91507fffffffffffffffffffffffffffffffffffffffffffffffffffffffffffffffff82141561136957611368611374565b5b600182019050919050565b7f4e487b7100000000000000000000000000000000000000000000000000000000600052601160045260246000fd5b7f4e487b7100000000000000000000000000000000000000000000000000000000600052601260045260246000fd5b6113db816112eb565b81146113e657600080fd5b5056fea2646970667358221220ed976cf6b2afa854353bd5d4933cf52e41830dc9640cee4e240f8274220446fd64736f6c63430008000033a26469706673582212205754e41fec58bb589db36468357d3afed0a981523f9a2fde3ddb36165b83a00764736f6c63430008000033",
  "linkReferences": {},
  "deployedLinkReferences": {}
}