{
  "_format": "hh-sol-artifact-1",
  "contractName": "ElectricityHub",
  "sourceName": "contracts/energyContracts/ElectricityHub.sol",
  "abi": [
    {
      "inputs": [
        {
          "internalType": "address",
          "name": "callerAddressInit",
          "type": "address"
        }
      ],
      "stateMutability": "nonpayable",
      "type": "constructor"
    },
    {
      "anonymous": false,
      "inputs": [
        {
          "indexed": false,
          "internalType": "uint256",
          "name": "kwhAmount",
          "type": "uint256"
        },
        {
          "indexed": true,
          "internalType": "address",
          "name": "newContract",
          "type": "address"
        }
      ],
      "name": "AuctionStarted",
      "type": "event"
    },
    {
      "anonymous": false,
      "inputs": [
        {
          "indexed": true,
          "internalType": "address",
          "name": "auctionContract",
          "type": "address"
        }
      ],
      "name": "MatureAuctionEnded",
      "type": "event"
    },
    {
      "inputs": [
        {
          "internalType": "address",
          "name": "provider",
          "type": "address"
        },
        {
          "internalType": "uint256",
          "name": "kwhAmount",
          "type": "uint256"
        }
      ],
      "name": "changeProvidedEnergy",
      "outputs": [],
      "stateMutability": "nonpayable",
      "type": "function"
    },
    {
      "inputs": [],
      "name": "distributePremium",
      "outputs": [],
      "stateMutability": "payable",
      "type": "function"
    },
    {
      "inputs": [],
      "name": "endMatureAuctions",
      "outputs": [],
      "stateMutability": "nonpayable",
      "type": "function"
    },
    {
      "inputs": [
        {
          "internalType": "address",
          "name": "",
          "type": "address"
        }
      ],
      "name": "energyBalance",
      "outputs": [
        {
          "internalType": "uint256",
          "name": "",
          "type": "uint256"
        }
      ],
      "stateMutability": "view",
      "type": "function"
    },
    {
      "inputs": [],
      "name": "getCurrentAuctions",
      "outputs": [
        {
          "components": [
            {
              "internalType": "uint256",
              "name": "start",
              "type": "uint256"
            },
            {
              "internalType": "contract ElectricityAuction",
              "name": "auction",
              "type": "address"
            }
          ],
          "internalType": "struct ElectricityHub.Auction[]",
          "name": "",
          "type": "tuple[]"
        }
      ],
      "stateMutability": "view",
      "type": "function"
    },
    {
      "inputs": [
        {
          "internalType": "address",
          "name": "consumer",
          "type": "address"
        }
      ],
      "name": "getEnergyBalance",
      "outputs": [
        {
          "internalType": "uint256",
          "name": "",
          "type": "uint256"
        }
      ],
      "stateMutability": "view",
      "type": "function"
    },
    {
      "inputs": [
        {
          "internalType": "uint256",
          "name": "kwhAmount",
          "type": "uint256"
        },
        {
          "internalType": "bool",
          "name": "isRenewable",
          "type": "bool"
        }
      ],
      "name": "provide",
      "outputs": [],
      "stateMutability": "nonpayable",
      "type": "function"
    },
    {
      "inputs": [
        {
          "internalType": "address",
          "name": "consumer",
          "type": "address"
        },
        {
          "internalType": "uint256",
          "name": "kwhAmount",
          "type": "uint256"
        }
      ],
      "name": "setEnergyBalance",
      "outputs": [],
      "stateMutability": "nonpayable",
      "type": "function"
    },
    {
      "inputs": [],
      "name": "upgradeInterval",
      "outputs": [
        {
          "internalType": "uint256",
          "name": "",
          "type": "uint256"
        }
      ],
      "stateMutability": "view",
      "type": "function"
    }
  ],
  "bytecode": "0x6080604052603c6001553480156200001657600080fd5b506040516200303b3803806200303b83398181016040528101906200003c9190620000dc565b33600860006101000a81548173ffffffffffffffffffffffffffffffffffffffff021916908373ffffffffffffffffffffffffffffffffffffffff16021790555080600760006101000a81548173ffffffffffffffffffffffffffffffffffffffff021916908373ffffffffffffffffffffffffffffffffffffffff1602179055505062000156565b600081519050620000d6816200013c565b92915050565b600060208284031215620000ef57600080fd5b6000620000ff84828501620000c5565b91505092915050565b600062000115826200011c565b9050919050565b600073ffffffffffffffffffffffffffffffffffffffff82169050919050565b620001478162000108565b81146200015357600080fd5b50565b612ed580620001666000396000f3fe608060405260043610620000915760003560e01c80635be53e7411620000615780635be53e7414620001505780638abbd6381462000180578063cb7bfd4714620001b0578063d4ffef7214620001bc578063ed7653e714620001ea5762000091565b80627d02751462000096578063188e330814620000c457806346352b5814620000de5780635a99042e1462000122575b600080fd5b348015620000a357600080fd5b50620000c26004803603810190620000bc919062000ec5565b6200022e565b005b348015620000d157600080fd5b50620000dc620003e1565b005b348015620000eb57600080fd5b506200010a600480360381019062000104919062000e99565b620006e0565b6040516200011991906200118b565b60405180910390f35b3480156200012f57600080fd5b506200014e600480360381019062000148919062000f06565b62000729565b005b3480156200015d57600080fd5b5062000168620008e4565b60405162000177919062001123565b60405180910390f35b3480156200018d57600080fd5b5062000198620009a5565b604051620001a791906200118b565b60405180910390f35b620001ba620009ab565b005b348015620001c957600080fd5b50620001e86004803603810190620001e2919062000ec5565b62000c5d565b005b348015620001f757600080fd5b5062000216600480360381019062000210919062000e99565b62000d80565b6040516200022591906200118b565b60405180910390f35b600260003373ffffffffffffffffffffffffffffffffffffffff1673ffffffffffffffffffffffffffffffffffffffff16815260200190815260200160002060009054906101000a900460ff16620002bd576040517f08c379a0000000000000000000000000000000000000000000000000000000008152600401620002b49062001169565b60405180910390fd5b8060066000828254620002d191906200123f565b925050819055506000600560008473ffffffffffffffffffffffffffffffffffffffff1673ffffffffffffffffffffffffffffffffffffffff16815260200190815260200160002054141562000385576004829080600181540180825580915050600190039060005260206000200160009091909190916101000a81548173ffffffffffffffffffffffffffffffffffffffff021916908373ffffffffffffffffffffffffffffffffffffffff1602179055505b80600560008473ffffffffffffffffffffffffffffffffffffffff1673ffffffffffffffffffffffffffffffffffffffff1681526020019081526020016000206000828254620003d691906200123f565b925050819055505050565b600860009054906101000a900473ffffffffffffffffffffffffffffffffffffffff1673ffffffffffffffffffffffffffffffffffffffff163373ffffffffffffffffffffffffffffffffffffffff161462000474576040517f08c379a00000000000000000000000000000000000000000000000000000000081526004016200046b9062001147565b60405180910390fd5b60005b6000805490508163ffffffff161015620006dd576000808263ffffffff1681548110620004cd577f4e487b7100000000000000000000000000000000000000000000000000000000600052603260045260246000fd5b906000526020600020906002020190506001548160000154620004f191906200123f565b42118015620005515750600073ffffffffffffffffffffffffffffffffffffffff168160010160009054906101000a900473ffffffffffffffffffffffffffffffffffffffff1673ffffffffffffffffffffffffffffffffffffffff1614155b15620006c6578060010160009054906101000a900473ffffffffffffffffffffffffffffffffffffffff1673ffffffffffffffffffffffffffffffffffffffff1663fe67a54b6040518163ffffffff1660e01b8152600401600060405180830381600087803b158015620005c457600080fd5b505af1158015620005d9573d6000803e3d6000fd5b505050508060010160009054906101000a900473ffffffffffffffffffffffffffffffffffffffff1673ffffffffffffffffffffffffffffffffffffffff167ffbe5022e3fc236b7c625da2b337309551c492cf94faca60869037633d2ef9c7a60405160405180910390a260008263ffffffff168154811062000685577f4e487b7100000000000000000000000000000000000000000000000000000000600052603260045260246000fd5b90600052602060002090600202016000808201600090556001820160006101000a81549073ffffffffffffffffffffffffffffffffffffffff021916905550505b508080620006d49062001405565b91505062000477565b50565b6000600360008373ffffffffffffffffffffffffffffffffffffffff1673ffffffffffffffffffffffffffffffffffffffff168152602001908152602001600020549050919050565b6000823383600760009054906101000a900473ffffffffffffffffffffffffffffffffffffffff166040516200075f9062000d98565b6200076e9493929190620011a8565b604051809103906000f0801580156200078b573d6000803e3d6000fd5b5090506001600260008373ffffffffffffffffffffffffffffffffffffffff1673ffffffffffffffffffffffffffffffffffffffff16815260200190815260200160002060006101000a81548160ff021916908315150217905550600060405180604001604052804281526020018373ffffffffffffffffffffffffffffffffffffffff1681525090806001815401808255809150506001900390600052602060002090600202016000909190919091506000820151816000015560208201518160010160006101000a81548173ffffffffffffffffffffffffffffffffffffffff021916908373ffffffffffffffffffffffffffffffffffffffff16021790555050508073ffffffffffffffffffffffffffffffffffffffff167f16da476d7265fc95576888b93de4fa4849d6cea1228235887f569c6530ddfec184604051620008d791906200118b565b60405180910390a2505050565b60606000805480602002602001604051908101604052809291908181526020016000905b828210156200099c5783829060005260206000209060020201604051806040016040529081600082015481526020016001820160009054906101000a900473ffffffffffffffffffffffffffffffffffffffff1673ffffffffffffffffffffffffffffffffffffffff1673ffffffffffffffffffffffffffffffffffffffff16815250508152602001906001019062000908565b50505050905090565b60015481565b600860009054906101000a900473ffffffffffffffffffffffffffffffffffffffff1673ffffffffffffffffffffffffffffffffffffffff163373ffffffffffffffffffffffffffffffffffffffff161462000a3e576040517f08c379a000000000000000000000000000000000000000000000000000000000815260040162000a359062001147565b60405180910390fd5b600047905060005b60048054905081101562000bc75760006004828154811062000a91577f4e487b7100000000000000000000000000000000000000000000000000000000600052603260045260246000fd5b9060005260206000200160009054906101000a900473ffffffffffffffffffffffffffffffffffffffff1690506000600560008373ffffffffffffffffffffffffffffffffffffffff1673ffffffffffffffffffffffffffffffffffffffff16815260200190815260200160002054905060006006548262000b1491906200129c565b90508273ffffffffffffffffffffffffffffffffffffffff166108fc828762000b3e9190620012d4565b9081150290604051600060405180830381858888f1935050505015801562000b6a573d6000803e3d6000fd5b50600560008473ffffffffffffffffffffffffffffffffffffffff1673ffffffffffffffffffffffffffffffffffffffff16815260200190815260200160002060009055505050808062000bbe90620013b7565b91505062000a46565b506000600681905550600067ffffffffffffffff81111562000c12577f4e487b7100000000000000000000000000000000000000000000000000000000600052604160045260246000fd5b60405190808252806020026020018201604052801562000c415781602001602082028036833780820191505090505b506004908051906020019062000c5992919062000da6565b5050565b600260003373ffffffffffffffffffffffffffffffffffffffff1673ffffffffffffffffffffffffffffffffffffffff16815260200190815260200160002060009054906101000a900460ff1662000cec576040517f08c379a000000000000000000000000000000000000000000000000000000000815260040162000ce39062001169565b60405180910390fd5b80600360008473ffffffffffffffffffffffffffffffffffffffff1673ffffffffffffffffffffffffffffffffffffffff1681526020019081526020016000205462000d3991906200123f565b600360008473ffffffffffffffffffffffffffffffffffffffff1673ffffffffffffffffffffffffffffffffffffffff168152602001908152602001600020819055505050565b60036020528060005260406000206000915090505481565b6119bc80620014e483390190565b82805482825590600052602060002090810192821562000e22579160200282015b8281111562000e215782518260006101000a81548173ffffffffffffffffffffffffffffffffffffffff021916908373ffffffffffffffffffffffffffffffffffffffff1602179055509160200191906001019062000dc7565b5b50905062000e31919062000e35565b5090565b5b8082111562000e5057600081600090555060010162000e36565b5090565b60008135905062000e658162001495565b92915050565b60008135905062000e7c81620014af565b92915050565b60008135905062000e9381620014c9565b92915050565b60006020828403121562000eac57600080fd5b600062000ebc8482850162000e54565b91505092915050565b6000806040838503121562000ed957600080fd5b600062000ee98582860162000e54565b925050602062000efc8582860162000e82565b9150509250929050565b6000806040838503121562000f1a57600080fd5b600062000f2a8582860162000e82565b925050602062000f3d8582860162000e6b565b9150509250929050565b600062000f558383620010ce565b60408301905092915050565b62000f6c8162001335565b82525050565b600062000f7f8262001205565b62000f8b81856200121d565b935062000f9883620011f5565b8060005b8381101562000fcf57815162000fb3888262000f47565b975062000fc08362001210565b92505060018101905062000f9c565b5085935050505092915050565b62000fe78162001349565b82525050565b62000ff8816200138f565b82525050565b60006200100d602a836200122e565b91507f46756e6374696f6e2063616e206f6e6c7920626520696e766f6b65642062792060008301527f746865206f776e65722c000000000000000000000000000000000000000000006020830152604082019050919050565b6000620010756037836200122e565b91507f4368616e67652070726f766964656420656e65726779206973206f6e6c79206960008301527f6e766f6b61626c6520627920616e2061756374696f6e2e0000000000000000006020830152604082019050919050565b604082016000820151620010e6600085018262001101565b506020820151620010fb602085018262000fed565b50505050565b6200110c8162001375565b82525050565b6200111d8162001375565b82525050565b600060208201905081810360008301526200113f818462000f72565b905092915050565b60006020820190508181036000830152620011628162000ffe565b9050919050565b60006020820190508181036000830152620011848162001066565b9050919050565b6000602082019050620011a2600083018462001112565b92915050565b6000608082019050620011bf600083018762001112565b620011ce602083018662000f61565b620011dd604083018562000fdc565b620011ec606083018462000f61565b95945050505050565b6000819050602082019050919050565b600081519050919050565b6000602082019050919050565b600082825260208201905092915050565b600082825260208201905092915050565b60006200124c8262001375565b9150620012598362001375565b9250827fffffffffffffffffffffffffffffffffffffffffffffffffffffffffffffffff0382111562001291576200129062001437565b5b828201905092915050565b6000620012a98262001375565b9150620012b68362001375565b925082620012c957620012c862001466565b5b828204905092915050565b6000620012e18262001375565b9150620012ee8362001375565b9250817fffffffffffffffffffffffffffffffffffffffffffffffffffffffffffffffff04831182151516156200132a576200132962001437565b5b828202905092915050565b6000620013428262001355565b9050919050565b60008115159050919050565b600073ffffffffffffffffffffffffffffffffffffffff82169050919050565b6000819050919050565b600063ffffffff82169050919050565b60006200139c82620013a3565b9050919050565b6000620013b08262001355565b9050919050565b6000620013c48262001375565b91507fffffffffffffffffffffffffffffffffffffffffffffffffffffffffffffffff821415620013fa57620013f962001437565b5b600182019050919050565b600062001412826200137f565b915063ffffffff8214156200142c576200142b62001437565b5b600182019050919050565b7f4e487b7100000000000000000000000000000000000000000000000000000000600052601160045260246000fd5b7f4e487b7100000000000000000000000000000000000000000000000000000000600052601260045260246000fd5b620014a08162001335565b8114620014ac57600080fd5b50565b620014ba8162001349565b8114620014c657600080fd5b50565b620014d48162001375565b8114620014e057600080fd5b5056fe608060405260006003556000600460006101000a81548173ffffffffffffffffffffffffffffffffffffffff021916908373ffffffffffffffffffffffffffffffffffffffff1602179055506001600460146101000a81548160ff0219169083151502179055506000600760146101000a81548160ff0219169083151502179055503480156200008e57600080fd5b50604051620019bc380380620019bc8339818101604052810190620000b4919062000321565b8360058190555082600660006101000a81548173ffffffffffffffffffffffffffffffffffffffff021916908373ffffffffffffffffffffffffffffffffffffffff16021790555081600660146101000a81548160ff02191690831515021790555033600760006101000a81548173ffffffffffffffffffffffffffffffffffffffff021916908373ffffffffffffffffffffffffffffffffffffffff160217905550806000806101000a81548173ffffffffffffffffffffffffffffffffffffffff021916908373ffffffffffffffffffffffffffffffffffffffff16021790555060008054906101000a900473ffffffffffffffffffffffffffffffffffffffff1673ffffffffffffffffffffffffffffffffffffffff16632c8a75266040518163ffffffff1660e01b81526004016040805180830381600087803b158015620001ff57600080fd5b505af115801562000214573d6000803e3d6000fd5b505050506040513d601f19601f820116820180604052508101906200023a9190620002f5565b600860008201518160000155602082015181600101559050505050505062000488565b6000815190506200026e816200043a565b92915050565b600081519050620002858162000454565b92915050565b6000604082840312156200029e57600080fd5b620002aa60406200038d565b90506000620002bc84828501620002de565b6000830152506020620002d284828501620002de565b60208301525092915050565b600081519050620002ef816200046e565b92915050565b6000604082840312156200030857600080fd5b600062000318848285016200028b565b91505092915050565b600080600080608085870312156200033857600080fd5b60006200034887828801620002de565b94505060206200035b878288016200025d565b93505060406200036e8782880162000274565b925050606062000381878288016200025d565b91505092959194509250565b6000604051905081810181811067ffffffffffffffff82111715620003b757620003b66200040b565b5b8060405250919050565b6000620003ce82620003e1565b9050919050565b60008115159050919050565b600073ffffffffffffffffffffffffffffffffffffffff82169050919050565b6000819050919050565b7f4e487b7100000000000000000000000000000000000000000000000000000000600052604160045260246000fd5b6200044581620003c1565b81146200045157600080fd5b50565b6200045f81620003d5565b81146200046b57600080fd5b50565b620004798162000401565b81146200048557600080fd5b50565b61152480620004986000396000f3fe6080604052600436106100555760003560e01c80631998aeef1461005a5780631bf1fffb146100645780639ed03b4c146100a1578063e5225381146100cc578063e7572230146100d6578063fe67a54b14610113575b600080fd5b61006261011d565b005b34801561007057600080fd5b5061008b60048036038101906100869190610e58565b6102ff565b60405161009891906111a1565b60405180910390f35b3480156100ad57600080fd5b506100b6610336565b6040516100c391906111a1565b60405180910390f35b6100d4610432565b005b3480156100e257600080fd5b506100fd60048036038101906100f89190610e58565b610932565b60405161010a91906111a1565b60405180910390f35b61011b61095c565b005b600460149054906101000a900460ff1661016c576040517f08c379a000000000000000000000000000000000000000000000000000000000815260040161016390611161565b60405180910390fd5b6000610179600554610932565b90508034101561018857600080fd5b60405180604001604052803373ffffffffffffffffffffffffffffffffffffffff168152602001600554346101bd919061124c565b815250600160003373ffffffffffffffffffffffffffffffffffffffff1673ffffffffffffffffffffffffffffffffffffffff16815260200190815260200160002060008201518160000160006101000a81548173ffffffffffffffffffffffffffffffffffffffff021916908373ffffffffffffffffffffffffffffffffffffffff160217905550602082015181600101559050506002339080600181540180825580915050600190039060005260206000200160009091909190916101000a81548173ffffffffffffffffffffffffffffffffffffffff021916908373ffffffffffffffffffffffffffffffffffffffff1602179055507f3fabff0a9c3ecd6814702e247fa9733e5d0aa69e3a38590f92cb18f623a2254d33600554346102e6919061124c565b6040516102f49291906110d8565b60405180910390a150565b60006103e86008600001546008600101548461031b919061127d565b610325919061127d565b61032f919061124c565b9050919050565b6000600460149054906101000a900460ff1615610388576040517f08c379a000000000000000000000000000000000000000000000000000000000815260040161037f90611121565b60405180910390fd5b3073ffffffffffffffffffffffffffffffffffffffff16631bf1fffb6005546040518263ffffffff1660e01b81526004016103c391906111a1565b60206040518083038186803b1580156103db57600080fd5b505afa1580156103ef573d6000803e3d6000fd5b505050506040513d601f19601f820116820180604052508101906104139190610e81565b600354600554610423919061127d565b61042d91906111f6565b905090565b600460149054906101000a900460ff1615610482576040517f08c379a000000000000000000000000000000000000000000000000000000000815260040161047990611121565b60405180910390fd5b600460009054906101000a900473ffffffffffffffffffffffffffffffffffffffff1673ffffffffffffffffffffffffffffffffffffffff163373ffffffffffffffffffffffffffffffffffffffff1614610512576040517f08c379a000000000000000000000000000000000000000000000000000000000815260040161050990611101565b60405180910390fd5b6000600160003373ffffffffffffffffffffffffffffffffffffffff1673ffffffffffffffffffffffffffffffffffffffff16815260200190815260200160002060010154600554610564919061127d565b90506000610573600554610932565b90506000348361058391906111f6565b8261058e91906112d7565b905060008113156105d4576040517f08c379a00000000000000000000000000000000000000000000000000000000081526004016105cb90611181565b60405180910390fd5b6000811215610634576000816105e990611430565b90503373ffffffffffffffffffffffffffffffffffffffff166108fc829081150290604051600060405180830381858888f19350505050158015610631573d6000803e3d6000fd5b50505b600660149054906101000a900460ff161561076957600660009054906101000a900473ffffffffffffffffffffffffffffffffffffffff1673ffffffffffffffffffffffffffffffffffffffff166108fc839081150290604051600060405180830381858888f193505050501580156106b1573d6000803e3d6000fd5b50600760009054906101000a900473ffffffffffffffffffffffffffffffffffffffff1673ffffffffffffffffffffffffffffffffffffffff16627d0275600660009054906101000a900473ffffffffffffffffffffffffffffffffffffffff166005546040518363ffffffff1660e01b81526004016107329291906110af565b600060405180830381600087803b15801561074c57600080fd5b505af1158015610760573d6000803e3d6000fd5b50505050610855565b600660009054906101000a900473ffffffffffffffffffffffffffffffffffffffff1673ffffffffffffffffffffffffffffffffffffffff166108fc6005546003546107b5919061127d565b9081150290604051600060405180830381858888f193505050501580156107e0573d6000803e3d6000fd5b50600760009054906101000a900473ffffffffffffffffffffffffffffffffffffffff1673ffffffffffffffffffffffffffffffffffffffff166108fc6108286005546102ff565b9081150290604051600060405180830381858888f19350505050158015610853573d6000803e3d6000fd5b505b600760009054906101000a900473ffffffffffffffffffffffffffffffffffffffff1673ffffffffffffffffffffffffffffffffffffffff1663d4ffef72336005546040518363ffffffff1660e01b81526004016108b49291906110d8565b600060405180830381600087803b1580156108ce57600080fd5b505af11580156108e2573d6000803e3d6000fd5b505050506001600760146101000a81548160ff0219169083151502179055507fdb8bc8d7abd54b4079284b6bf241a2f0ab8497993ab1cf3df37b3a5af1214b4560405160405180910390a1505050565b600061093d826102ff565b8260035461094b919061127d565b61095591906111f6565b9050919050565b600760009054906101000a900473ffffffffffffffffffffffffffffffffffffffff1673ffffffffffffffffffffffffffffffffffffffff163373ffffffffffffffffffffffffffffffffffffffff16146109ec576040517f08c379a00000000000000000000000000000000000000000000000000000000081526004016109e390611141565b60405180910390fd5b6000600460146101000a81548160ff021916908315150217905550600080610a12610dfe565b6000805b600280549050811015610b8f576001600060028381548110610a61577f4e487b7100000000000000000000000000000000000000000000000000000000600052603260045260246000fd5b9060005260206000200160009054906101000a900473ffffffffffffffffffffffffffffffffffffffff1673ffffffffffffffffffffffffffffffffffffffff1673ffffffffffffffffffffffffffffffffffffffff1681526020019081526020016000206040518060400160405290816000820160009054906101000a900473ffffffffffffffffffffffffffffffffffffffff1673ffffffffffffffffffffffffffffffffffffffff1673ffffffffffffffffffffffffffffffffffffffff168152602001600182015481525050925060008360000151905060008460200151905086811115610b5b57819350869550809650610b73565b8581118015610b6957508681105b15610b72578095505b5b8560038190555050508080610b87906113e7565b915050610a16565b5080600460006101000a81548173ffffffffffffffffffffffffffffffffffffffff021916908373ffffffffffffffffffffffffffffffffffffffff16021790555060005b600280549050811015610d9a576001600060028381548110610c1f577f4e487b7100000000000000000000000000000000000000000000000000000000600052603260045260246000fd5b9060005260206000200160009054906101000a900473ffffffffffffffffffffffffffffffffffffffff1673ffffffffffffffffffffffffffffffffffffffff1673ffffffffffffffffffffffffffffffffffffffff1681526020019081526020016000206040518060400160405290816000820160009054906101000a900473ffffffffffffffffffffffffffffffffffffffff1673ffffffffffffffffffffffffffffffffffffffff1673ffffffffffffffffffffffffffffffffffffffff16815260200160018201548152505092506000836000015190508273ffffffffffffffffffffffffffffffffffffffff168173ffffffffffffffffffffffffffffffffffffffff1614610d86578073ffffffffffffffffffffffffffffffffffffffff166108fc6005548660200151610d59919061127d565b9081150290604051600060405180830381858888f19350505050158015610d84573d6000803e3d6000fd5b505b508080610d92906113e7565b915050610bd4565b507fc07789fac136048b605fef8e227ab89b2e33d8afc9ab4817d374197cd81443d6600354600460009054906101000a900473ffffffffffffffffffffffffffffffffffffffff16604051610df09291906111bc565b60405180910390a150505050565b6040518060400160405280600073ffffffffffffffffffffffffffffffffffffffff168152602001600081525090565b600081359050610e3d816114d7565b92915050565b600081519050610e52816114d7565b92915050565b600060208284031215610e6a57600080fd5b6000610e7884828501610e2e565b91505092915050565b600060208284031215610e9357600080fd5b6000610ea184828501610e43565b91505092915050565b610eb3816113b1565b82525050565b610ec28161136b565b82525050565b6000610ed5602e836111e5565b91507f4f6e6c79207468652077696e6e65722063616e20636f6c6c656374207468652060008301527f61756374696f6e2070726963652e0000000000000000000000000000000000006020830152604082019050919050565b6000610f3b6035836111e5565b91507f46756e6374696f6e2063616e206f6e6c7920626520657865637574656420776860008301527f656e2061756374696f6e2068617320656e6465642e00000000000000000000006020830152604082019050919050565b6000610fa1602a836111e5565b91507f46756e6374696f6e2063616e206f6e6c7920626520696e766f6b65642062792060008301527f746865206f776e65722c000000000000000000000000000000000000000000006020830152604082019050919050565b60006110076035836111e5565b91507f46756e6374696f6e2063616e206f6e6c7920626520657865637574656420776860008301527f656e2061756374696f6e206973206163746976652e00000000000000000000006020830152604082019050919050565b600061106d6015836111e5565b91507f496e73756666696369656e742062616c616e63652e00000000000000000000006000830152602082019050919050565b6110a9816113a7565b82525050565b60006040820190506110c46000830185610eaa565b6110d160208301846110a0565b9392505050565b60006040820190506110ed6000830185610eb9565b6110fa60208301846110a0565b9392505050565b6000602082019050818103600083015261111a81610ec8565b9050919050565b6000602082019050818103600083015261113a81610f2e565b9050919050565b6000602082019050818103600083015261115a81610f94565b9050919050565b6000602082019050818103600083015261117a81610ffa565b9050919050565b6000602082019050818103600083015261119a81611060565b9050919050565b60006020820190506111b660008301846110a0565b92915050565b60006040820190506111d160008301856110a0565b6111de6020830184610eb9565b9392505050565b600082825260208201905092915050565b6000611201826113a7565b915061120c836113a7565b9250827fffffffffffffffffffffffffffffffffffffffffffffffffffffffffffffffff0382111561124157611240611479565b5b828201905092915050565b6000611257826113a7565b9150611262836113a7565b925082611272576112716114a8565b5b828204905092915050565b6000611288826113a7565b9150611293836113a7565b9250817fffffffffffffffffffffffffffffffffffffffffffffffffffffffffffffffff04831182151516156112cc576112cb611479565b5b828202905092915050565b60006112e28261137d565b91506112ed8361137d565b9250827f80000000000000000000000000000000000000000000000000000000000000000182126000841215161561132857611327611479565b5b827f7fffffffffffffffffffffffffffffffffffffffffffffffffffffffffffffff0182136000841216156113605761135f611479565b5b828203905092915050565b600061137682611387565b9050919050565b6000819050919050565b600073ffffffffffffffffffffffffffffffffffffffff82169050919050565b6000819050919050565b60006113bc826113c3565b9050919050565b60006113ce826113d5565b9050919050565b60006113e082611387565b9050919050565b60006113f2826113a7565b91507fffffffffffffffffffffffffffffffffffffffffffffffffffffffffffffffff82141561142557611424611479565b5b600182019050919050565b600061143b8261137d565b91507f800000000000000000000000000000000000000000000000000000000000000082141561146e5761146d611479565b5b816000039050919050565b7f4e487b7100000000000000000000000000000000000000000000000000000000600052601160045260246000fd5b7f4e487b7100000000000000000000000000000000000000000000000000000000600052601260045260246000fd5b6114e0816113a7565b81146114eb57600080fd5b5056fea2646970667358221220878ac6f2c6b897773355feb0ae7845f099440f84911f3775fb34223e74f0c61864736f6c63430008000033a2646970667358221220575ef005880abef45766b1f9c9bfe5720d3b7ed99cbaf7c5d37d3c3bb9ce74a664736f6c63430008000033",
  "linkReferences": {},
  "deployedLinkReferences": {}
}