{
  "_format": "hh-sol-artifact-1",
  "contractName": "ElectricityDataOracle",
  "sourceName": "contracts/oracle/ElectricityDataOracle.sol",
  "abi": [
    {
      "inputs": [],
      "stateMutability": "nonpayable",
      "type": "constructor"
    },
    {
      "anonymous": false,
      "inputs": [
        {
          "indexed": false,
          "internalType": "address",
          "name": "callerAddress",
          "type": "address"
        },
        {
          "indexed": false,
          "internalType": "uint256",
          "name": "id",
          "type": "uint256"
        }
      ],
      "name": "ElectricityDataRequested",
      "type": "event"
    },
    {
      "anonymous": false,
      "inputs": [
        {
          "indexed": false,
          "internalType": "uint256",
          "name": "carbonIntensity",
          "type": "uint256"
        },
        {
          "indexed": false,
          "internalType": "uint256",
          "name": "priceCarbon",
          "type": "uint256"
        },
        {
          "indexed": false,
          "internalType": "address",
          "name": "callerAddress",
          "type": "address"
        },
        {
          "indexed": false,
          "internalType": "uint256",
          "name": "id",
          "type": "uint256"
        }
      ],
      "name": "ElectricityDataReturned",
      "type": "event"
    },
    {
      "anonymous": false,
      "inputs": [
        {
          "indexed": false,
          "internalType": "address",
          "name": "providerAddress",
          "type": "address"
        }
      ],
      "name": "ProviderAdded",
      "type": "event"
    },
    {
      "anonymous": false,
      "inputs": [
        {
          "indexed": false,
          "internalType": "address",
          "name": "providerAddress",
          "type": "address"
        }
      ],
      "name": "ProviderRemoved",
      "type": "event"
    },
    {
      "anonymous": false,
      "inputs": [
        {
          "indexed": false,
          "internalType": "uint256",
          "name": "threshold",
          "type": "uint256"
        }
      ],
      "name": "ProvidersThresholdChanged",
      "type": "event"
    },
    {
      "anonymous": false,
      "inputs": [
        {
          "indexed": true,
          "internalType": "bytes32",
          "name": "role",
          "type": "bytes32"
        },
        {
          "indexed": true,
          "internalType": "bytes32",
          "name": "previousAdminRole",
          "type": "bytes32"
        },
        {
          "indexed": true,
          "internalType": "bytes32",
          "name": "newAdminRole",
          "type": "bytes32"
        }
      ],
      "name": "RoleAdminChanged",
      "type": "event"
    },
    {
      "anonymous": false,
      "inputs": [
        {
          "indexed": true,
          "internalType": "bytes32",
          "name": "role",
          "type": "bytes32"
        },
        {
          "indexed": true,
          "internalType": "address",
          "name": "account",
          "type": "address"
        },
        {
          "indexed": true,
          "internalType": "address",
          "name": "sender",
          "type": "address"
        }
      ],
      "name": "RoleGranted",
      "type": "event"
    },
    {
      "anonymous": false,
      "inputs": [
        {
          "indexed": true,
          "internalType": "bytes32",
          "name": "role",
          "type": "bytes32"
        },
        {
          "indexed": true,
          "internalType": "address",
          "name": "account",
          "type": "address"
        },
        {
          "indexed": true,
          "internalType": "address",
          "name": "sender",
          "type": "address"
        }
      ],
      "name": "RoleRevoked",
      "type": "event"
    },
    {
      "inputs": [],
      "name": "DEFAULT_ADMIN_ROLE",
      "outputs": [
        {
          "internalType": "bytes32",
          "name": "",
          "type": "bytes32"
        }
      ],
      "stateMutability": "view",
      "type": "function"
    },
    {
      "inputs": [],
      "name": "PROVIDER_ROLE",
      "outputs": [
        {
          "internalType": "bytes32",
          "name": "",
          "type": "bytes32"
        }
      ],
      "stateMutability": "view",
      "type": "function"
    },
    {
      "inputs": [
        {
          "internalType": "address",
          "name": "provider",
          "type": "address"
        }
      ],
      "name": "addProvider",
      "outputs": [],
      "stateMutability": "nonpayable",
      "type": "function"
    },
    {
      "inputs": [
        {
          "internalType": "bytes32",
          "name": "role",
          "type": "bytes32"
        }
      ],
      "name": "getRoleAdmin",
      "outputs": [
        {
          "internalType": "bytes32",
          "name": "",
          "type": "bytes32"
        }
      ],
      "stateMutability": "view",
      "type": "function"
    },
    {
      "inputs": [
        {
          "internalType": "bytes32",
          "name": "role",
          "type": "bytes32"
        },
        {
          "internalType": "address",
          "name": "account",
          "type": "address"
        }
      ],
      "name": "grantRole",
      "outputs": [],
      "stateMutability": "nonpayable",
      "type": "function"
    },
    {
      "inputs": [
        {
          "internalType": "bytes32",
          "name": "role",
          "type": "bytes32"
        },
        {
          "internalType": "address",
          "name": "account",
          "type": "address"
        }
      ],
      "name": "hasRole",
      "outputs": [
        {
          "internalType": "bool",
          "name": "",
          "type": "bool"
        }
      ],
      "stateMutability": "view",
      "type": "function"
    },
    {
      "inputs": [
        {
          "internalType": "address",
          "name": "provider",
          "type": "address"
        }
      ],
      "name": "removeProvider",
      "outputs": [],
      "stateMutability": "nonpayable",
      "type": "function"
    },
    {
      "inputs": [
        {
          "internalType": "bytes32",
          "name": "role",
          "type": "bytes32"
        },
        {
          "internalType": "address",
          "name": "account",
          "type": "address"
        }
      ],
      "name": "renounceRole",
      "outputs": [],
      "stateMutability": "nonpayable",
      "type": "function"
    },
    {
      "inputs": [],
      "name": "requestElectricityData",
      "outputs": [
        {
          "internalType": "uint256",
          "name": "",
          "type": "uint256"
        }
      ],
      "stateMutability": "nonpayable",
      "type": "function"
    },
    {
      "inputs": [
        {
          "internalType": "uint256",
          "name": "carbonIntensity",
          "type": "uint256"
        },
        {
          "internalType": "uint256",
          "name": "priceCarbon",
          "type": "uint256"
        },
        {
          "internalType": "address",
          "name": "callerAddress",
          "type": "address"
        },
        {
          "internalType": "uint256",
          "name": "id",
          "type": "uint256"
        }
      ],
      "name": "returnElectricityData",
      "outputs": [],
      "stateMutability": "nonpayable",
      "type": "function"
    },
    {
      "inputs": [
        {
          "internalType": "bytes32",
          "name": "role",
          "type": "bytes32"
        },
        {
          "internalType": "address",
          "name": "account",
          "type": "address"
        }
      ],
      "name": "revokeRole",
      "outputs": [],
      "stateMutability": "nonpayable",
      "type": "function"
    },
    {
      "inputs": [
        {
          "internalType": "uint256",
          "name": "threshold",
          "type": "uint256"
        }
      ],
      "name": "setProvidersThreshold",
      "outputs": [],
      "stateMutability": "nonpayable",
      "type": "function"
    },
    {
      "inputs": [
        {
          "internalType": "bytes4",
          "name": "interfaceId",
          "type": "bytes4"
        }
      ],
      "name": "supportsInterface",
      "outputs": [
        {
          "internalType": "bool",
          "name": "",
          "type": "bool"
        }
      ],
      "stateMutability": "view",
      "type": "function"
    }
  ],
  "bytecode": "0x60806040526000600155600160025560006003553480156200002057600080fd5b50620000366000801b336200003c60201b60201c565b620001b5565b6200004e82826200005260201b60201c565b5050565b6200006482826200014360201b60201c565b6200013f57600160008084815260200190815260200160002060000160008373ffffffffffffffffffffffffffffffffffffffff1673ffffffffffffffffffffffffffffffffffffffff16815260200190815260200160002060006101000a81548160ff021916908315150217905550620000e4620001ad60201b60201c565b73ffffffffffffffffffffffffffffffffffffffff168173ffffffffffffffffffffffffffffffffffffffff16837f2f8788117e7eff1d82e926ec794901d17c78024a50270940304540a733656f0d60405160405180910390a45b5050565b600080600084815260200190815260200160002060000160008373ffffffffffffffffffffffffffffffffffffffff1673ffffffffffffffffffffffffffffffffffffffff16815260200190815260200160002060009054906101000a900460ff16905092915050565b600033905090565b611e1080620001c56000396000f3fe608060405234801561001057600080fd5b50600436106100cf5760003560e01c806346e2577a1161008c578063a217fddf11610066578063a217fddf1461020e578063b77c1c6d1461022c578063d547741f14610248578063fe66d9df14610264576100cf565b806346e2577a146101a65780638a355a57146101c257806391d14854146101de576100cf565b806301ffc9a7146100d4578063248a9ca31461010457806324c20a34146101345780632f2ff15d1461015257806336568abe1461016e57806346a880e11461018a575b600080fd5b6100ee60048036038101906100e99190611383565b610282565b6040516100fb91906118b9565b60405180910390f35b61011e6004803603810190610119919061131e565b6102fc565b60405161012b91906118d4565b60405180910390f35b61013c61031b565b60405161014991906118d4565b60405180910390f35b61016c60048036038101906101679190611347565b61033f565b005b61018860048036038101906101839190611347565b610360565b005b6101a4600480360381019061019f91906113d5565b6103e3565b005b6101c060048036038101906101bb91906112f5565b6107b8565b005b6101dc60048036038101906101d791906112f5565b6108ac565b005b6101f860048036038101906101f39190611347565b6109e4565b60405161020591906118b9565b60405180910390f35b610216610a4e565b60405161022391906118d4565b60405180910390f35b610246600480360381019061024191906113ac565b610a55565b005b610262600480360381019061025d9190611347565b610ae9565b005b61026c610b0a565b6040516102799190611a11565b60405180910390f35b60007f7965db0b000000000000000000000000000000000000000000000000000000007bffffffffffffffffffffffffffffffffffffffffffffffffffffffff1916827bffffffffffffffffffffffffffffffffffffffffffffffffffffffff191614806102f557506102f482610c15565b5b9050919050565b6000806000838152602001908152602001600020600101549050919050565b7f18d9ff454de989bd126b06bd404b47ede75f9e65543e94e8d212f89d7dcbb87c81565b610348826102fc565b61035181610c7f565b61035b8383610c93565b505050565b610368610d73565b73ffffffffffffffffffffffffffffffffffffffff168173ffffffffffffffffffffffffffffffffffffffff16146103d5576040517f08c379a00000000000000000000000000000000000000000000000000000000081526004016103cc906119f1565b60405180910390fd5b6103df8282610d7b565b5050565b7f18d9ff454de989bd126b06bd404b47ede75f9e65543e94e8d212f89d7dcbb87c61040d81610c7f565b6004600083815260200190815260200160002060009054906101000a900460ff1661046d576040517f08c379a0000000000000000000000000000000000000000000000000000000008152600401610464906119b1565b60405180910390fd5b600060405180608001604052803373ffffffffffffffffffffffffffffffffffffffff1681526020018573ffffffffffffffffffffffffffffffffffffffff1681526020018781526020018681525090506005600084815260200190815260200160002081908060018154018082558091505060019003906000526020600020906004020160009091909190915060008201518160000160006101000a81548173ffffffffffffffffffffffffffffffffffffffff021916908373ffffffffffffffffffffffffffffffffffffffff16021790555060208201518160010160006101000a81548173ffffffffffffffffffffffffffffffffffffffff021916908373ffffffffffffffffffffffffffffffffffffffff160217905550604082015181600201556060820151816003015550506000600560008581526020019081526020016000208054905090506002548114156107af5760008060005b60056000888152602001908152602001600020805490508110156106bd57600560008881526020019081526020016000208181548110610633577f4e487b7100000000000000000000000000000000000000000000000000000000600052603260045260246000fd5b90600052602060002090600402016002015483189250600560008881526020019081526020016000208181548110610694577f4e487b7100000000000000000000000000000000000000000000000000000000600052603260045260246000fd5b9060005260206000209060040201600301548218915080806106b590611c5a565b9150506105ca565b506004600087815260200190815260200160002060006101000a81549060ff02191690556005600087815260200190815260200160002060006107009190611208565b8673ffffffffffffffffffffffffffffffffffffffff166306c045938383896040518463ffffffff1660e01b815260040161073d93929190611a71565b600060405180830381600087803b15801561075757600080fd5b505af115801561076b573d6000803e3d6000fd5b505050507f812a430259bdb2d4ab0139f5bfa35faec4da19606910ea0bdf3c6c930bdaa792828289896040516107a49493929190611a2c565b60405180910390a150505b50505050505050565b6000801b6107c581610c7f565b6107ef7f18d9ff454de989bd126b06bd404b47ede75f9e65543e94e8d212f89d7dcbb87c836109e4565b1561082f576040517f08c379a000000000000000000000000000000000000000000000000000000000815260040161082690611931565b60405180910390fd5b6108597f18d9ff454de989bd126b06bd404b47ede75f9e65543e94e8d212f89d7dcbb87c83610c93565b6001600081548092919061086c90611c5a565b91905055507fae9c2c6481964847714ce58f65a7f6dcc41d0d8394449bacdf161b5920c4744a826040516108a09190611875565b60405180910390a15050565b6000801b6108b981610c7f565b6108e37f18d9ff454de989bd126b06bd404b47ede75f9e65543e94e8d212f89d7dcbb87c836109e4565b15610923576040517f08c379a000000000000000000000000000000000000000000000000000000000815260040161091a906119d1565b60405180910390fd5b6001805411610967576040517f08c379a000000000000000000000000000000000000000000000000000000000815260040161095e90611971565b60405180910390fd5b6109917f18d9ff454de989bd126b06bd404b47ede75f9e65543e94e8d212f89d7dcbb87c83610d7b565b600160008154809291906109a490611c30565b91905055507f1589f8555933761a3cff8aa925061be3b46e2dd43f621322ab611d300f62b1d9826040516109d89190611875565b60405180910390a15050565b600080600084815260200190815260200160002060000160008373ffffffffffffffffffffffffffffffffffffffff1673ffffffffffffffffffffffffffffffffffffffff16815260200190815260200160002060009054906101000a900460ff16905092915050565b6000801b81565b6000801b610a6281610c7f565b60008211610aa5576040517f08c379a0000000000000000000000000000000000000000000000000000000008152600401610a9c90611951565b60405180910390fd5b816002819055507f86f1e9da41956a9347ec56b57c24c4b239b13c6c1f40a39a08147e8358b276d5600254604051610add9190611a11565b60405180910390a15050565b610af2826102fc565b610afb81610c7f565b610b058383610d7b565b505050565b60008060015411610b50576040517f08c379a0000000000000000000000000000000000000000000000000000000008152600401610b4790611991565b60405180910390fd5b60036000815480929190610b6390611c5a565b919050555060006103e84233600354604051602001610b8493929190611838565b6040516020818303038152906040528051906020012060001c610ba79190611cd1565b905060016004600083815260200190815260200160002060006101000a81548160ff0219169083151502179055507fafb6ce2260f00fec5928dab13e6170e7ad03fa261dcc08d35959916d88e5afd43382604051610c06929190611890565b60405180910390a18091505090565b60007f01ffc9a7000000000000000000000000000000000000000000000000000000007bffffffffffffffffffffffffffffffffffffffffffffffffffffffff1916827bffffffffffffffffffffffffffffffffffffffffffffffffffffffff1916149050919050565b610c9081610c8b610d73565b610e5c565b50565b610c9d82826109e4565b610d6f57600160008084815260200190815260200160002060000160008373ffffffffffffffffffffffffffffffffffffffff1673ffffffffffffffffffffffffffffffffffffffff16815260200190815260200160002060006101000a81548160ff021916908315150217905550610d14610d73565b73ffffffffffffffffffffffffffffffffffffffff168173ffffffffffffffffffffffffffffffffffffffff16837f2f8788117e7eff1d82e926ec794901d17c78024a50270940304540a733656f0d60405160405180910390a45b5050565b600033905090565b610d8582826109e4565b15610e5857600080600084815260200190815260200160002060000160008373ffffffffffffffffffffffffffffffffffffffff1673ffffffffffffffffffffffffffffffffffffffff16815260200190815260200160002060006101000a81548160ff021916908315150217905550610dfd610d73565b73ffffffffffffffffffffffffffffffffffffffff168173ffffffffffffffffffffffffffffffffffffffff16837ff6391f5c32d9c69d2a47ea670b442974b53935d1edc7fd64eb21e047a839171b60405160405180910390a45b5050565b610e6682826109e4565b610edd57610e7381610ee1565b610e818360001c6020610f0e565b604051602001610e929291906117fe565b6040516020818303038152906040526040517f08c379a0000000000000000000000000000000000000000000000000000000008152600401610ed491906118ef565b60405180910390fd5b5050565b6060610f078273ffffffffffffffffffffffffffffffffffffffff16601460ff16610f0e565b9050919050565b606060006002836002610f219190611b25565b610f2b9190611acf565b67ffffffffffffffff811115610f6a577f4e487b7100000000000000000000000000000000000000000000000000000000600052604160045260246000fd5b6040519080825280601f01601f191660200182016040528015610f9c5781602001600182028036833780820191505090505b5090507f300000000000000000000000000000000000000000000000000000000000000081600081518110610ffa577f4e487b7100000000000000000000000000000000000000000000000000000000600052603260045260246000fd5b60200101907effffffffffffffffffffffffffffffffffffffffffffffffffffffffffffff1916908160001a9053507f780000000000000000000000000000000000000000000000000000000000000081600181518110611084577f4e487b7100000000000000000000000000000000000000000000000000000000600052603260045260246000fd5b60200101907effffffffffffffffffffffffffffffffffffffffffffffffffffffffffffff1916908160001a905350600060018460026110c49190611b25565b6110ce9190611acf565b90505b60018111156111ba577f3031323334353637383961626364656600000000000000000000000000000000600f861660108110611136577f4e487b7100000000000000000000000000000000000000000000000000000000600052603260045260246000fd5b1a60f81b828281518110611173577f4e487b7100000000000000000000000000000000000000000000000000000000600052603260045260246000fd5b60200101907effffffffffffffffffffffffffffffffffffffffffffffffffffffffffffff1916908160001a905350600485901c9450806111b390611c30565b90506110d1565b50600084146111fe576040517f08c379a00000000000000000000000000000000000000000000000000000000081526004016111f590611911565b60405180910390fd5b8091505092915050565b5080546000825560040290600052602060002090810190611229919061122c565b50565b5b8082111561129d57600080820160006101000a81549073ffffffffffffffffffffffffffffffffffffffff02191690556001820160006101000a81549073ffffffffffffffffffffffffffffffffffffffff0219169055600282016000905560038201600090555060040161122d565b5090565b6000813590506112b081611d7e565b92915050565b6000813590506112c581611d95565b92915050565b6000813590506112da81611dac565b92915050565b6000813590506112ef81611dc3565b92915050565b60006020828403121561130757600080fd5b6000611315848285016112a1565b91505092915050565b60006020828403121561133057600080fd5b600061133e848285016112b6565b91505092915050565b6000806040838503121561135a57600080fd5b6000611368858286016112b6565b9250506020611379858286016112a1565b9150509250929050565b60006020828403121561139557600080fd5b60006113a3848285016112cb565b91505092915050565b6000602082840312156113be57600080fd5b60006113cc848285016112e0565b91505092915050565b600080600080608085870312156113eb57600080fd5b60006113f9878288016112e0565b945050602061140a878288016112e0565b935050604061141b878288016112a1565b925050606061142c878288016112e0565b91505092959194509250565b61144181611b7f565b82525050565b61145861145382611b7f565b611ca3565b82525050565b61146781611b91565b82525050565b61147681611b9d565b82525050565b600061148782611aa8565b6114918185611ab3565b93506114a1818560208601611bfd565b6114aa81611d60565b840191505092915050565b60006114c082611aa8565b6114ca8185611ac4565b93506114da818560208601611bfd565b80840191505092915050565b60006114f3602083611ab3565b91507f537472696e67733a20686578206c656e67746820696e73756666696369656e746000830152602082019050919050565b6000611533601783611ab3565b91507f50726f766964657220616c72656164792061646465642e0000000000000000006000830152602082019050919050565b6000611573601983611ab3565b91507f5468726573686f6c642063616e6e6f74206265207a65726f2e000000000000006000830152602082019050919050565b60006115b3602083611ab3565b91507f43616e6e6f742072656d6f766520746865206f6e6c792070726f76696465722e6000830152602082019050919050565b60006115f3602183611ab3565b91507f204e6f20646174612070726f766964657273206e6f742079657420616464656460008301527f2e000000000000000000000000000000000000000000000000000000000000006020830152604082019050919050565b6000611659601283611ab3565b91507f52657175657374206e6f7420666f756e642e00000000000000000000000000006000830152602082019050919050565b6000611699602583611ab3565b91507f41646472657373206973206e6f742061207265636f676e697a65642070726f7660008301527f696465722e0000000000000000000000000000000000000000000000000000006020830152604082019050919050565b60006116ff601783611ac4565b91507f416363657373436f6e74726f6c3a206163636f756e74200000000000000000006000830152601782019050919050565b600061173f601183611ac4565b91507f206973206d697373696e6720726f6c65200000000000000000000000000000006000830152601182019050919050565b600061177f602f83611ab3565b91507f416363657373436f6e74726f6c3a2063616e206f6e6c792072656e6f756e636560008301527f20726f6c657320666f722073656c6600000000000000000000000000000000006020830152604082019050919050565b6117e181611bf3565b82525050565b6117f86117f382611bf3565b611cc7565b82525050565b6000611809826116f2565b915061181582856114b5565b915061182082611732565b915061182c82846114b5565b91508190509392505050565b600061184482866117e7565b6020820191506118548285611447565b60148201915061186482846117e7565b602082019150819050949350505050565b600060208201905061188a6000830184611438565b92915050565b60006040820190506118a56000830185611438565b6118b260208301846117d8565b9392505050565b60006020820190506118ce600083018461145e565b92915050565b60006020820190506118e9600083018461146d565b92915050565b60006020820190508181036000830152611909818461147c565b905092915050565b6000602082019050818103600083015261192a816114e6565b9050919050565b6000602082019050818103600083015261194a81611526565b9050919050565b6000602082019050818103600083015261196a81611566565b9050919050565b6000602082019050818103600083015261198a816115a6565b9050919050565b600060208201905081810360008301526119aa816115e6565b9050919050565b600060208201905081810360008301526119ca8161164c565b9050919050565b600060208201905081810360008301526119ea8161168c565b9050919050565b60006020820190508181036000830152611a0a81611772565b9050919050565b6000602082019050611a2660008301846117d8565b92915050565b6000608082019050611a4160008301876117d8565b611a4e60208301866117d8565b611a5b6040830185611438565b611a6860608301846117d8565b95945050505050565b6000606082019050611a8660008301866117d8565b611a9360208301856117d8565b611aa060408301846117d8565b949350505050565b600081519050919050565b600082825260208201905092915050565b600081905092915050565b6000611ada82611bf3565b9150611ae583611bf3565b9250827fffffffffffffffffffffffffffffffffffffffffffffffffffffffffffffffff03821115611b1a57611b19611d02565b5b828201905092915050565b6000611b3082611bf3565b9150611b3b83611bf3565b9250817fffffffffffffffffffffffffffffffffffffffffffffffffffffffffffffffff0483118215151615611b7457611b73611d02565b5b828202905092915050565b6000611b8a82611bd3565b9050919050565b60008115159050919050565b6000819050919050565b60007fffffffff0000000000000000000000000000000000000000000000000000000082169050919050565b600073ffffffffffffffffffffffffffffffffffffffff82169050919050565b6000819050919050565b60005b83811015611c1b578082015181840152602081019050611c00565b83811115611c2a576000848401525b50505050565b6000611c3b82611bf3565b91506000821415611c4f57611c4e611d02565b5b600182039050919050565b6000611c6582611bf3565b91507fffffffffffffffffffffffffffffffffffffffffffffffffffffffffffffffff821415611c9857611c97611d02565b5b600182019050919050565b6000611cae82611cb5565b9050919050565b6000611cc082611d71565b9050919050565b6000819050919050565b6000611cdc82611bf3565b9150611ce783611bf3565b925082611cf757611cf6611d31565b5b828206905092915050565b7f4e487b7100000000000000000000000000000000000000000000000000000000600052601160045260246000fd5b7f4e487b7100000000000000000000000000000000000000000000000000000000600052601260045260246000fd5b6000601f19601f8301169050919050565b60008160601b9050919050565b611d8781611b7f565b8114611d9257600080fd5b50565b611d9e81611b9d565b8114611da957600080fd5b50565b611db581611ba7565b8114611dc057600080fd5b50565b611dcc81611bf3565b8114611dd757600080fd5b5056fea2646970667358221220ae0d5017897f5be4455f5a5c45cf599e12d2cb9acb9dd1157ecdd93db60e1b4b64736f6c63430008000033",
  "linkReferences": {},
  "deployedLinkReferences": {}
}